:100000000C9435010C9452010C9452010C94520141
:100010000C9452010C9452010C9452010C94520114
:100020000C9452010C9452010C9452010C94520104
:100030000C9452010C9452010C9473050C945201CF
:100040000C9452010C94FC0C0C94120B0C94670B46
:100050000C9452010C9452010C9452010C945201D4
:100060000C9452010C9452016E616E00696E660030
:10007000CD00D200DD00E7000A00493A25312E33D9
:10008000662020004572723A25312E33662020000A
:100090005374644465763A25312E3366202000502F
:1000A000574D3A25312E336620200054656D703A45
:1000B00025312E33662020000A4465766963652069
:1000C000496E697469616C697A65640A0020204F21
:1000D0004B00202053687574646F776E00202048B1
:1000E000656174696E67002020524547554C415444
:1000F0004544004865617465722054696D656F758B
:1001000074204572726F722053687574646F776ED5
:100110000A0048656174657220416D6269656E749C
:10012000204572726F722053687574646F776E0A1F
:10013000004865617465722053656E736F72204567
:1001400072726F722053687574646F776E0A00D98B
:100150000B9409610ACB0A4D0BB30900C2010000E0
:10016000987E0D9409B10C920C4E0DB309C010008D
:10017000407A10F35A00A0724E18090010A5D4E876
:100180000000E87648170000E40B54020000CA9A09
:100190003B000000E1F5050000809698000000405B
:1001A000420F000000A086010000001027000000A0
:1001B00000E803000000006400000000000A0000E6
:1001C0000000000100000000002C76D888DC674F9A
:1001D0000823DFC1DFAE59E1B1B796E5E3E453C6CA
:1001E0003AE651997696E8E6C28426EB898C9B62C2
:1001F000ED407C6FFCEFBC9C9F40F2BAA56FA5F46C
:1002000090055A2AF75C936B6CF9676DC11BFCE093
:10021000E40D47FEF520E6B500D0ED902E030094E6
:100220003577050080841E080000204E0A0000007B
:10023000C80C333333330F986E12831141EF8D2185
:1002400014893BE65516CFFEE6DB18D1844B381BEC
:10025000F77C1D901DA4BBE424203284725E2281B1
:1002600000C9F124ECA1E53D270011241FBECFEF0A
:10027000D8E0DEBFCDBF13E0A4E0B1E001C01D9225
:10028000A13BB107E1F711E0A0E0B1E0E0E3FDE25E
:1002900002C005900D92A430B107D9F70E940F0952
:1002A0000C9496160C9400002F923F924F925F92FE
:1002B0006F927F928F929F92AF92BF92CF92DF9276
:1002C000EF92FF920F931F93DF93CF9300D000D054
:1002D000CDB7DEB7D62E5A834983662329F460E072
:1002E00070E080E090E057C09C838B830F2EF0E09D
:1002F0006F2EF0E07F2EF0E08F2EF0E09F2EF02D9D
:1003000013012401AA241DC0EB81FC81E190F1902E
:1003100001911191FC83EB83C401B301A801970102
:100320000E9495113B014C01C801B7010E94EC13DA
:100330009B01AC01C201B1010E9495111B012C016E
:10034000A394AD1408F36D2D70E0882777FD809598
:10035000982F0E9493125B016C01C401B301A601A6
:1003600095010E94FD119B01AC01E981FA81208376
:100370003183428353830E94EC137B018C01C201C1
:10038000B101A60195010E94FD11A80197010E94EB
:1003900094110E94AE130F900F900F900F90CF9179
:1003A000DF911F910F91FF90EF90DF90CF90BF9062
:1003B000AF909F908F907F906F905F904F903F9005
:1003C0002F9008950E94E5010895089500D000D06F
:1003D00000D08BEA90E0EDB7FEB7928381838091E5
:1003E0005A0190915B01A0915C01B0915D01838302
:1003F0009483A583B6830E94D8158FE990E0EDB76A
:10040000FEB79283818380912E0190912F01A0915C
:100410003001B091310183839483A583B6830E9418
:10042000D81580E990E0EDB7FEB792838183809183
:100430005E0190915F01A0916001B09161018383A1
:100440009483A583B6830E94D81584E890E0EDB725
:10045000FEB79283818380913A0190913B01A091F4
:100460003C01B0913D0183839483A583B6830E94B0
:10047000D8158AE790E0EDB7FEB79283818380912B
:10048000420190914301A0914401B09145018383C1
:100490009483A583B6830E94D81580910601E82F26
:1004A000F0E0EE0FFF1FE059FF4F859194910F9000
:1004B0000F900F900F90EDB7FEB7928381830E944B
:1004C000D81588E790E0EDB7FEB7928381830E944C
:1004D000D8150F900F90089500D088EB90E0EDB7FD
:1004E000FEB7928381830E94D8150F900F900895D4
:1004F00020E030E040E050E020932E0130932F01C7
:10050000409330015093310180E090E0A8E4B3E4DF
:100510008093420190934301A0934401B09345011D
:1005200020933E0130933F0140934001509341019D
:1005300008956F927F928F929F92AF92BF92CF92C7
:10054000DF92EF92FF920F931F937B018C018091BA
:100550002C01882349F47091360160913701909104
:10056000380180913901DDC0C801B7010E949411A2
:100570003B014C0160933A0170933B0180933C0135
:1005800090933D019F772DEC3CEC4CEC5DE30E9499
:100590004313181684F560912E0170912F018091FC
:1005A000300190913101209132013091330140911D
:1005B0003401509135010E94F9118823E4F4C401FB
:1005C000B3012DEC3CEC4CEC5DE30E9447139B0126
:1005D000AC0160914201709143018091440190917E
:1005E00045010E94951160934201709343018093ED
:1005F000440190934501C401B30120913E01309123
:100600003F0140914001509141010E9494112DEC15
:100610003CEC4CEC5DE30E94FD115B016C016093CE
:100620004601709347018093480190934901C401AA
:10063000B30120914A0130914B0140914C015091FE
:100640004D010E9447137B018C0160914E01709116
:100650004F018091500190915101209142013091C0
:10066000430140914401509145010E9447139B0171
:10067000AC01C801B7010E9495117B018C01C60134
:10068000B501209152013091530140915401509194
:1006900055010E9447139B01AC01C801B7010E949C
:1006A00095117B018C0160932E0170932F01809333
:1006B000300190933101A0903201B0903301C0908D
:1006C0003401D0903501A60195010E9443131816FC
:1006D00084F0A0903601B0903701C0903801D090DE
:1006E0003901C801B701A60195010E94F9118823BB
:1006F00044F4A0922E01B0922F01C0923001D0920A
:10070000310160923E0170923F01809240019092CF
:10071000410170912E0160912F01909130018091E3
:100720003101272F362F492F582FB901CA011F91A8
:100730000F91FF90EF90DF90CF90BF90AF909F9080
:100740008F907F906F90089581E080935601089577
:100750001092560108951092580181E0809357013C
:1007600008958091560108958091570108958091D0
:100770005601833029F070E060E099E883EC08C00E
:1007800070915A0160915B0190915C0180915D01D3
:10079000272F362F492F582FB901CA010895E4E6B3
:1007A000F0E090819E7F9083982F9064ECE7F0E0DA
:1007B000908396E890937A009081907F90839081C7
:1007C000908321E030E002C0220F331F8A95E2F7C8
:1007D00020937E00089580917A00806480937A004F
:1007E00080917A0080917A00806180937A00809174
:1007F000780090917900892B71F3209178003091E5
:100800007900C9010895539AE4E6F0E080818F7B76
:100810008083E0EBF0E080EF8083808183608083E1
:10082000E1EBF0E088E08083808184608083109237
:100830006F001092B3001092B40080E090E0A0E04E
:10084000B0E08093CA019093CB01A093CC01B09308
:10085000CD010895EF92FF920F931F939B01AC017E
:1008600060E074E284E798E40E94FD117B018C0152
:100870006093CA017093CB018093CC019093CD011A
:1008800020E030E040EA51E40E94F911882314F49A
:1008900084E10BC0C801B70120E030E04FE753E42A
:1008A0000E944313882324F08FEF8093B30006C087
:1008B000C801B7010E9465126093B30080E01F91E8
:1008C0000F91FF90EF900895AF92BF92CF92DF9279
:1008D000EF92FF920F931F935B016C012AE037EDBB
:1008E00043E25CE30E94F911882324F48FEF8093A4
:1008F000B40030C0C601B5012DEC3CEC47EC52E42D
:100900000E94431318161CF41092B40023C0609187
:10091000B30070E0882777FD8095982F0E9493128E
:100920007B018C01C601B50120E030E048EC52ECBF
:100930000E94FD1120E030E040E85FE30E94951145
:100940009B01AC01C801B7010E9447130E946512C8
:100950006093B4006091CA017091CB018091CC0189
:100960009091CD010E9465126093B30080E01F91C9
:100970000F91FF90EF90DF90CF90BF90AF900895D0
:10098000AF92BF92CF92DF92EF92FF920F931F939D
:100990007B018C0159016A010E940304C801B7015F
:1009A0000E942A04C601B5010E9464041F910F91A0
:1009B000FF90EF90DF90CF90BF90AF90089560E0F0
:1009C00070E080E090E09B01AC010E94C0040895BB
:1009D0000F931F93182F062F0E94DF0410925601C9
:1009E00010930601009307015A9A1F910F910895E1
:1009F000AF92BF92CF92DF92EF92FF920F931F932D
:100A00005B016C01809106018250823008F44DC078
:100A100081E08093560110925801809357010F2E68
:100A2000F0E0EF2EF0E0FF2EF0E00F2FF0E01F2FB0
:100A3000F02DE0922E01F0922F01009330011093DF
:100A4000310180E090E0A8E4B3E480934201909308
:100A50004301A0934401B0934501E0923E01F0921E
:100A60003F01009340011093410160E070E08AE78C
:100A700094E4A80197010E94C004A0921001B092D2
:100A80001101C0921201D09213011092090110922B
:100A90000B01E0921801F092190100931A011093D2
:100AA0001B0182E0809306015A9A1F910F91FF90DB
:100AB000EF90DF90CF90BF90AF900895E4E6F0E024
:100AC00080818F7D808392E094BD83E085BD8DE73A
:100AD00087BD90936E008AE08093C7018093C80120
:100AE0008093C90108951F920F920FB60F9211249F
:100AF0008F9381E08093C6018F910F900FBE0F906E
:100B00001F90189508950895539A5A9A08955A98DF
:100B100008955A9A08958BB1882311F05A98089530
:100B20005A9A08952F923F924F925F927F928F929E
:100B30009F92AF92BF92CF92DF92EF92FF920F936C
:100B40001F93DF93CF93CDB7DEB728970FB6F894F6
:100B5000DEBF0FBECDBF80915601882309F408C1C6
:100B600080915701813009F003C180915801082F0D
:100B700010E00E94AE14000F111F000F111F0E583D
:100B80001E4F8F5F9F43AA2797FDA095BA2FBC01E8
:100B9000CD010E94931220E03EEF4FEF56E40E94F9
:100BA000FD1120E030E040E05FE30E94471320E0C9
:100BB00030E040EA50E40E94471320E030E040E794
:100BC00052E40E94951126E03FEA4AEF5EE30E945C
:100BD000471323ED31EB46ED5EE30E949411D801FB
:100BE0006D937D938D939C931397809158018F5FA4
:100BF00080935801843108F4BBC082E791E064E13E
:100C0000AE014F5F5F4F0E9454017B018C016093E6
:100C10005E0170935F018093600190936101209168
:100C200066013091670140916801509169010E940D
:100C30004313181624F482E08093560197C0109253
:100C4000590180E090E0A0E0B0E080935A019093D9
:100C50005B01A0935C01B0935D0189819A81AB81B6
:100C6000BC818D839E83AF83B887C801B701209173
:100C700062013091630140916401509165010E94CD
:100C800047131B012C0192E7892E91E0992E7724BE
:100C90000F2EF0E0EF2EF0E0FF2EF0E00F2FF0E04F
:100CA0001F2FF02DD401AD90BD90CD90DC90C601EA
:100CB000B5012D813E814F8158850E9494119F7707
:100CC000A20191010E94F91188234CF4C801B701D7
:100CD000A60195010E9495117B018C017394E4E0BB
:100CE000F0E08E0E9F1EF2EC8F16F1E09F06D1F61B
:100CF00070925901672D70E0882777FD8095982FB5
:100D00000E9493129B01AC01C801B7010E94FD1122
:100D10007B018C0160935A0170935B0180935C01AD
:100D200090935D0183E0D82ED09256011092570126
:100D3000C801B70120E030E048EC53E40E944313BF
:100D4000181634F482E080935601D092570110C0F7
:100D5000C801B70120E030E040E050EC0E94F911FA
:100D6000882334F482E08093560184E08093570115
:100D700028960FB6F894DEBF0FBECDBFCF91DF919E
:100D80001F910F91FF90EF90DF90CF90BF90AF90A9
:100D90009F908F907F905F904F903F902F900895FD
:100DA0000E949205089580E7E6E5F1E0DF011D92DB
:100DB0008A95E9F783E393E9A8E8B3EC80935A01B5
:100DC00090935B01A0935C01B0935D018DEC9CEC72
:100DD000ACE8BFE38093620190936301A093640148
:100DE000B093650180E090E0A0EAB1E480936601F1
:100DF00090936701A0936801B093690180E090E04F
:100E0000A8ECB3E480936A0190936B01A0936C010A
:100E1000B0936D0180E090E0A0E0B0EC80936E01B3
:100E200090936F01A0937001B093710108958AE2CD
:100E3000ECE2F1E0DF011D928A95E9F780E090E0B5
:100E4000A0EAB0E480934A0190934B01A0934C0137
:100E5000B0934D018DEC9CECACECBDE380934E0166
:100E600090934F01A0935001B093510180E090E026
:100E7000A0E0BFE38093520190935301A0935401EB
:100E8000B093550180E090E0A8ECB2E48093320189
:100E900090933301A0933401B093350180E090E04A
:100EA000A0E0B0E08093360190933701A093380121
:100EB000B093390181E080932C01089586E2E6E049
:100EC000F1E0DF011D928A95E9F780E090E0A0E46F
:100ED000B0E48093140190931501A0931601B09390
:100EE000170180E090E0A4EBB2E480931C019093A2
:100EF0001D01A0931E01B0931F0120E030E046E9E0
:100F000053E4209320013093210140932201509318
:100F1000230180E090E0A0E2B2E48093240190936A
:100F20002501A0932601B093270120932801309337
:100F3000290140932A0150932B0185E080930A01F7
:100F40000E94D3060E9417070895AF92BF92CF92D6
:100F5000DF92EF92FF920F931F93809106018230F0
:100F600008F424C10E94E60180915601833059F0B3
:100F70000F2EF0E0EF2EF0E0FF2EF9E80F2FF3EC4C
:100F80001F2FF02D08C0E0905A01F0905B010091F6
:100F90005C0110915D01E0920C01F0920D01009353
:100FA0000E0110930F01C801B70120912801309163
:100FB000290140912A0150912B010E9443131816D8
:100FC0002CF481E063E00E94E804F0C01092580124
:100FD00081E080935701C801B70123E333E948E872
:100FE00053EC0E94F911882394F480910B018F5FD8
:100FF00080930B0190910A01981708F0D7C081E007
:1010000064E00E94E80400D081E391E058C01092AF
:101010000B0160911001709111018091120190916A
:101020001301A80197010E9499020E946404809113
:101030000601823009F070C06091180170911901A9
:1010400080911A0190911B012DEC3CEC4CEC5DE37E
:101050000E9495117B018C01609318017093190116
:1010600080931A0190931B01A0900C01B0900D0188
:10107000C0900E01D0900F01C601B501209124014E
:101080003091250140912601509127010E94F911CC
:101090008823F4F4C801B70120911C0130911D018F
:1010A00040911E0150911F010E944313181684F4B1
:1010B00081E061E00E94E80400D082E191E0EDB7B8
:1010C000FEB7928381830E94D8150F900F906EC057
:1010D000C601B5012091100130911101409112011A
:1010E000509113010E94F9118823B4F4C801B7018B
:1010F0002091200130912101409122015091230142
:101100000E944313181644F481E062E00E94E80450
:1011100000D083EF90E0D3CF60913A0170913B0112
:1011200080913C0190913D019F7720911401309175
:10113000150140911601509117010E94F9111816DE
:1011400064F0809109018F5F809309018B30ECF08E
:101150008AE08093090183E016C0809109018150E3
:101160008093090118168CF01092090180E090E03C
:10117000A0E0B0E08093180190931901A0931A01A8
:10118000B0931B0182E080930601809106018330B9
:1011900011F45A980BC0809108018F5F8093080169
:1011A000843020F0109208010E948B051F910F914E
:1011B000FF90EF90DF90CF90BF90AF9008950E9486
:1011C000A50708951F938091C601882311F483E039
:1011D00024C01092C6010E9492058091C7018150DF
:1011E0008093C7018823C1F41AE01093C70180914E
:1011F000C80181508093C801882371F41093C801FD
:101200000E94A5078091C90181508093C90188235C
:1012100019F41093C90101C080E01F910895F8945A
:101220000E94060E0E94170A0E94E20180E00E94BE
:10123000CF030E9403040E945E05539A5A9A0E94AB
:101240005E0778940E946C0260E070E080E293E4B4
:101250000E94F8040E94E208FDCFE82FF0E029E2A6
:1012600030E0DF01A29FF001A39FF00DB29FF00DCF
:101270001124EE52FD4F0188F289E02D0995089561
:10128000CF93DF93A82FE82FF0E082ED92E029E2E0
:1012900030E0EF01C29FF001C39FF00DD29FF00D2F
:1012A0001124E80FF91F29E2A29FD001112405881B
:1012B000F689E02D8A0F9B1F0995DF91CF91089544
:1012C000482F50E082ED92E029E230E0B901469FDC
:1012D0009001479F300D569F300D1124FC01E20F05
:1012E000F31F2F5F3F4F0788F08DE02D820F931F74
:1012F00009950895462F90E062ED72E029E230E012
:10130000FC01E29FC001E39F900DF29F900D11241C
:10131000FB01E80FF91F0196680F791F018CF28D10
:10132000E02D842F09950895FC0160FF02C081E043
:10133000858F61FD158E64FF02C081E0868F65FD9B
:10134000168E74FF02C081E0878F75FD178E80E0D6
:1013500090E0089599E2899FC00111248E529D4F1B
:101360000E9494090895089599E2899FC00111246B
:101370008D529D4F9093AC038093AB03089599E2F7
:10138000899FC00111248D529D4F9093AE0380938D
:10139000AD03089599E2899FC00111248D529D4F9C
:1013A0009093B0038093AF030895462F90E024E01C
:1013B00031E0BC01629FC001639F900D729F900D50
:1013C000112450E060E070E082539E4F0E94460A74
:1013D00080E090E00895CF92DF92EF92FF920F931A
:1013E0001F9399E2899FF0011124EE52FD4FDF0116
:1013F0001D929A95E9F78083728B618B548B438B96
:10140000368B258B108F078BF28EE18ED48EC38E98
:10141000F286E1861487038783E08483F687E58775
:101420001F910F91FF90EF90DF90CF9008950F9351
:101430001F930E94570C0E94DE0D03EE12E0E09114
:10144000E302F091E40280E060E070E045E150E109
:101450000995E0910C03F0910D0381E060E070E0EC
:1014600041E150E10995C80140979093AC03809306
:10147000AB039093AE038093AD03075E1F4F1093B1
:10148000B0030093AF031F910F9108959A01AB0130
:1014900083E0220F331F441F551F8A95D1F760E068
:1014A00074E284EF90E00E940414215030403093A5
:1014B000C5002093C400E0ECF0E080818D7F808344
:1014C0000895EF92FF920F931F93CF93DF93EC0158
:1014D0000F8518898CA1882341F481E08CA31AA27E
:1014E00078A76FA359A348A31BA29FE7E92EF80191
:1014F00091818081981709F444C080818150808354
:101500008081882309F4E082F8018081E80FF11DD1
:10151000F4808E8D882341F06091AD037091AE030D
:10152000E98DFA8D8F2D09958AA128A139A1482F1F
:1015300050E04217530754F0EFA1F8A5E20FF31F54
:10154000108282E08BA32EE030E01DC0FDE0FF168C
:1015500019F09AE0F91669F4EFA1F8A5E80FF11D6A
:1015600010828F5F8AA382E08BA31CA220E030E070
:101570000AC0EFA1F8A5E40FF51FF0828F5F8AA3E0
:10158000B6CF22E030E0C901DF91CF911F910F91DA
:10159000FF90EF9008951F93CF93DF93FC01C485D4
:1015A000D585EF85F88910C08D8D882341F083B7EC
:1015B000816083BF889583B78E7F83BF05C081E03C
:1015C0008BA32FEF3FEF29C091818081981761F3A2
:1015D0008081815080838081882311F48FE780830C
:1015E0008081E80FF11D14818E8D882341F0609178
:1015F000AD037091AE03E98DFA8D812F09951E30F0
:1016000050F41D3011F01A3031F48F8D882319F009
:101610002AE030E002C0212F30E0C901DF91CF91F4
:101620001F9108951F920F920FB60F9211242F93BE
:101630008F939F93EF93FF932091C6008091CF01EA
:1016400081508093CF018091CF01882319F48FE7D7
:101650008093CF019091CF018091CE01981739F0FE
:10166000E091CF01F0E0E253FE4F24830CC0809163
:10167000CF018F5F8093CF018091CF0187FF03C09F
:1016800081E08093CF01FF91EF919F918F912F91F6
:101690000F900FBE0F901F901895282F9091D10199
:1016A000915009F49FE78091C10080628093C1004E
:1016B0008091D0019817E1F39093D101E091D1018D
:1016C000F0E0EE5AFD4F208380E090E008951F92F5
:1016D0000F920FB60F9211248F939F93EF93FF9366
:1016E0009091D1018091D0019817A9F08091D001FB
:1016F00081508093D0018091D001882319F48FE725
:101700008093D001E091D001F0E0EE5AFD4F80814E
:101710008093C60005C08091C1008F7D8093C10079
:10172000FF91EF919F918F910F900FBE0F901F909F
:10173000189590E029E230E0829FF001839FF00D40
:10174000929FF00D1124EE52FD4F0784F089E02D99
:101750008181815081838181882311F48FE7818386
:1017600091818081981729F08181E80FF11D6483B0
:10177000089581818F5F8183818187FF02C081E02D
:10178000818308950F931F93CF93DF93082FEB016D
:1017900010E004C01F5F802F0E94990BFE01E10F33
:1017A000F11D60816623B1F7DF91CF911F910F91F9
:1017B0000895DF92EF92FF920F931F93D82E282F58
:1017C00030E089E290E0289F7001299FF00C389F5B
:1017D000F00C112482ED92E0E80EF91E84E091E015
:1017E000289F8001299F100D389F100D112402534E
:1017F0001E4FF701108B0787F8019C0111922150B1
:101800003040E1F7C701BA010E94940981E0F80174
:101810008183808383838283E4E6F0E080818D7F0F
:101820008083ED2DF0E0EE0FFF1FCF01A3E0880FC6
:10183000991FAA95E1F7E80FF91F70962FE431E0A0
:10184000E20FF31FE491E093C000ED2DF0E0EE0F06
:10185000FF1FCF0163E0880F991F6A95E1F7E80F3A
:10186000F91F7196E20FF31FE491E093C1008D2DF3
:1018700090E0880F991FFC0143E0EE0FFF1F4A958F
:10188000E1F7E80FF91F3C96E20FF31F45915591E0
:1018900065917491C8010E94460A0894E11CF11CEC
:1018A000C7011F910F91FF90EF90DF900895CF92A5
:1018B000DF92EF92FF920F931F93EFE4F1E06591B7
:1018C0007491E1E5F1E045915491E3E5F1E0259172
:1018D0003491E5E5F1E005911491E7E5F1E0E5905B
:1018E000F490E9E5F1E0C590D49080E00E94EB0926
:1018F0001F910F91FF90EF90DF90CF90089510927D
:10190000A8031092A9031092AA03089581E080937E
:10191000A803089581E08093A903089581E080934E
:10192000AA0308959091250380912403981719F430
:101930002FEF3FEF14C08091240381508093240344
:1019400080912403882319F48FE380932403E0918A
:101950002403F0E0EC5DFC4F8481282F30E0C901C6
:1019600008950F931F93CF93DF93EC018CA18823ED
:1019700041F481E08CA31AA278A76FA359A348A3CE
:101980001BA28E010F5F1F4F28A139A18AA190E0F1
:101990008217930754F0EFA1F8A5E20FF31F10820E
:1019A00082E08BA32EE030E021C0C8010E94920C9F
:1019B000982F8A3071F48AA1EFA1F8A5E80FF11DE4
:1019C00010828F5F8AA382E08BA31CA220E030E00C
:1019D0000DC0833049F08AA1EFA1F8A5E80FF11DF1
:1019E00090838F5F8AA3D0CF22E030E0C901DF91DE
:1019F000CF911F910F9108951F920F920FB60F92E2
:101A000011242F938F939F93EF93FF932EB5909173
:101A1000270380912603981791F080912603815027
:101A20008093260380912603882319F48FE3809303
:101A30002603E0912603F0E0E859FC4FE081809115
:101A4000250381508093250380912503882319F471
:101A50008FE38093250390912503809124039817A9
:101A600039F0E0912503F0E0EC5DFC4F24830CC0DD
:101A7000809125038F5F809325038091250387FF45
:101A800003C081E080932503FF91EF919F918F9197
:101A90002F910F900FBE0F901F901895282FDB01EC
:101AA0001C96ED91FC911D970784F089E02D8381B0
:101AB000815083838381882311F48FE3838393810F
:101AC0008281981749F08381E80FF11DEC5BFF4F8D
:101AD000208320E030E010C083818F5F8383838187
:101AE000803410F081E083831C96ED91FC911D976A
:101AF00084E083A32FEF3FEFC9010895DF92EF92B7
:101B0000FF920F931F93D82E19E2E12E8E9D700144
:101B1000112482ED92E0E80EF91EDA9484E8D89E52
:101B2000800111240C5D1C4FF701108B0787F80111
:101B300011928A95E9F7C701BA010E94940981E0E0
:101B4000F8018183808383838283E4E6F0E08081EF
:101B50008B7F80832CB58D2D90E0880F991FFC0121
:101B6000A3E0EE0FFF1FAA95E1F7E81BF90B3C96E7
:101B700061E671E0E60FF71FE491E22BECBD44B1A2
:101B80008D2D90E0880F991F9C0153E0220F331F89
:101B90005A95E1F7281B390B235F3F4F620F731FE4
:101BA000FB018491842B84B90894E11CF11CC701CA
:101BB0001F910F91FF90EF90DF900895CF92DF92E9
:101BC000EF92FF920F931F93E1E6F1E0659174911C
:101BD000E3E6F1E045915491E5E6F1E02591349199
:101BE000E7E6F1E005911491E9E6F1E0E590F49083
:101BF000EBE6F1E0C590D49081E00E94EB091F91E3
:101C00000F91FF90EF90DF90CF9008958FEF80932A
:101C1000640014B817B81AB80895A1E1B0E0E3E180
:101C2000FEE00C9426143C017F876E876A01FC015C
:101C300017821682838181FD03C06FEF7FEF6FC330
:101C40009E012F5F3F4F398B288BF3012381EE8557
:101C5000FF8523FD859123FF8191FF87EE878823F0
:101C600009F45AC3853251F4EE85FF8523FD859131
:101C700023FF8191FF87EE87853229F490E0B3013D
:101C80000E94AC15E2CF982F10E0882499241032DE
:101C9000B0F49B3269F09C3228F4903251F09332C8
:101CA00071F40BC09D3239F0903349F4116028C0B3
:101CB0001260146025C0186023C0106121C017FD98
:101CC0002AC0892F80538A3078F416FF06C0FAE0C4
:101CD0009F9E902C1124980E13C03AE0839E802C76
:101CE0001124880E10620CC09E3221F416FD14C31C
:101CF000106406C09C3611F4106802C0983659F47E
:101D0000EE85FF8523FD959123FF9191FF87EE8757
:101D1000992309F0BCCF892F8554833020F4812F7B
:101D20008061905E07C0892F8556833008F09FC17F
:101D3000812F8F7E86FD02C076E0972E6FE3F62E10
:101D4000F822953619F4F0E4FF2A07C0963619F404
:101D500020E8F22A02C091109A94F7FE0AC03BE3F1
:101D6000391518F45CE3B52E02C0B92CB39427E002
:101D700009C047E0491520F4BB2447E0942EF7CF73
:101D8000292DBB24C60104969D878C87F6016081AE
:101D9000718182819381AE014F5F5F4F0B2D0E9455
:101DA000BE146C010981202E332400FF04C003FD02
:101DB00002C01DE209C0F1FE02C01BE205C0F2FC38
:101DC00002C010E001C010E2C1018C709070892B3C
:101DD000B9F1112311F483E001C084E0881510F0FB
:101DE00088240AC0881AF3FC07C080E290E0B3019F
:101DF0000E94AC158A94C9F7112329F0812F90E035
:101E0000B3010E94AC1523FE03C008E610E00EC02B
:101E10000CE610E00BC0E114F10409F0805290E0F0
:101E2000B3010E94AC150F5F1F4F05C0EF2CFF24BC
:101E3000F0E1EF22FF24F8018491882361F714C1B7
:101E4000F7FE12C0BC0C24FE04C08A81813309F461
:101E5000BA941B141CF0BB24B3942DC0F8E0FB15FE
:101E600050F538E0B32E27C0F6FC25C0892D90E050
:101E70008C159D054CF02CEFC2162FEFD20624F0E6
:101E800030E8F32A01C09A94992049F0E2E0F0E0AA
:101E9000EC0FFD1FE90DF11D80818033A1F3F7FEEA
:101EA0000AC0B92CB394892D90E0C816D90614F055
:101EB000992401C09C18F7FC03C025E030E009C05C
:101EC0001C141D041CF021E030E003C096012F5FBC
:101ED0003F4F112311F02F5F3F4F992029F0892D9B
:101EE00090E00196280F391F882D90E028173907B8
:101EF00014F0882401C0821A4F2C5524C201897025
:101F00009070892B39F008C080E290E0B3010E9404
:101F1000AC158A948820C1F7112329F0812F90E015
:101F2000B3010E94AC1543FE07C008C080E390E0F7
:101F3000B3010E94AC158A948820C1F7F7FE46C011
:101F40008601D7FE02C000E010E076010894E11C93
:101F5000F11CE01AF10A41E050E04C0F5D1FE40E65
:101F6000F51E26014B185108892D90E0AA24BB24A8
:101F7000A81AB90A5FEF0F3F150729F48EE290E027
:101F8000B3010E94AC15C016D10634F040165106BC
:101F90001CF4F701808101C080E3015010400894D7
:101FA000E11CF11C0A151B052CF090E0B3010E9406
:101FB000AC15E0CF0C151D0539F49A81963318F451
:101FC000953311F424FE81E390E04BC08A81813384
:101FD00009F00F7E90E0B3010E94AC159920A1F0AA
:101FE0008EE290E0B3010E94AC1512E0E1E0F0E077
:101FF000EC0FFD1FE10FF11D1F5F808190E0B30129
:102000000E94AC159A9491F744FC03C085E690E0D9
:1020100002C085E490E0B3010E94AC15D7FC05C076
:10202000C114D10441F404FF06C0D094C194D10876
:10203000D3948DE201C08BE290E0B3010E94AC1515
:1020400080E305C08F5F26EF3FEFC20ED31E3AE05C
:10205000C316D104BCF790E0B3010E94AC15C601D1
:10206000C096B3010E94AC15CC84DD8452C1933676
:1020700031F0933799F0933509F059C023C0F60138
:10208000808189835E010894A11CB11C22E030E0AC
:10209000C20ED31E21E0E22EF12C12C0F601A08068
:1020A000B18016FD03C06FEF7FEF02C0692D70E0B5
:1020B00022E030E0C20ED31EC5010E94A1157C01B2
:1020C0001F7713C0F601A080B18016FD03C06FEF2B
:1020D0007FEF02C0692D70E022E030E0C20ED31E17
:1020E000C5010E9496157C01106813FF07C01BC034
:1020F00080E290E0B3010E94AC158A94882D90E0B4
:10210000E816F906A8F30FC0F50117FD859117FF32
:1021100081915F0190E0B3010E94AC1581108A9417
:102120000894E108F108E114F10471F7F2C0943663
:1021300011F0993689F517FF08C0F6012081318129
:102140004281538184E090E00AC0F6018081918150
:102150009C01442737FD4095542F82E090E0C80E43
:10216000D91E9FE6F92EF12257FF09C050954095E0
:10217000309521953F4F4F4F5F4F90E8F92ACA01A4
:10218000B901AE014F5F5F4F2AE030E00E94FE15BB
:10219000E82EE889EE1A41C0953721F41F7E2AE027
:1021A00030E01CC0197F9F3661F0903720F49835DD
:1021B00009F0B2C00FC0903739F0983709F0ACC0C1
:1021C00004C028E030E00AC0106114FD146020E172
:1021D00030E004C014FD166020E132E017FF08C0B3
:1021E000F601608171818281938144E050E008C0F2
:1021F000F60180819181BC0180E090E042E050E0F6
:10220000C40ED51EAE014F5F5F4F0E94FE15E82E33
:102210005889E51A8FE7F82EF122F6FE0BC08EEFF3
:10222000F822E91438F4F4FE07C0F2FC05C09FEE72
:10223000F92202C01E2D01C0192DF4FE0DC0FE01B1
:10224000EE0DF11D8081803319F4E9EEFE2208C005
:102250001F5FF2FE05C003C08F2D867809F01F5F57
:102260000F2DF3FC14C0F0FE0FC0181510F09E2CBB
:102270000BC09E2C980C911A182D06C080E290E09D
:10228000B3010E94AC151F5F1815C0F304C01815E8
:1022900010F4811A01C0882404FF0FC080E390E08D
:1022A000B3010E94AC1502FF1DC001FD03C088E709
:1022B00090E00EC088E590E00BC0802F867891F00A
:1022C00001FF02C08BE201C080E2F7FC8DE290E0EA
:1022D000B3010E94AC1506C080E390E0B3010E94F8
:1022E000AC159A94E914C0F3EA94E1E0F0E0EC0F45
:1022F000FD1FEE0DF11D808190E0B3010E94AC1531
:10230000EE2091F706C080E290E0B3010E94AC1588
:102310008A948820C1F799CCF30166817781CB013B
:102320006196E2E10C9442145058BB27AA270ED0C4
:1023300070C161D130F066D120F031F49F3F11F4CB
:102340001EF456C10EF4E095E7FB4CC1E92F72D1A3
:1023500080F3BA17620773078407950718F071F4C2
:102360009EF58AC10EF4E0950B2EBA2FA02D0B011D
:10237000B90190010C01CA01A0011124FF27591BCA
:1023800099F0593F50F4503E68F11A16F040A22FD0
:10239000232F342F4427585FF3CF46953795279541
:1023A000A795F0405395C9F77EF41F16BA0B620B40
:1023B000730B840BBAF09150A1F0FF0FBB1F661F87
:1023C000771F881FC2F70EC0BA0F621F731F841FCA
:1023D00048F4879577956795B795F7959E3F08F0F0
:1023E000B3CF9395880F08F09927EE0F97958795AF
:1023F0000895D4D008F481E008950CD00AC102D128
:1024000040F0F9D030F021F45F3F19F0EBC05111EA
:1024100034C1EEC00FD198F39923C9F35523B1F31A
:10242000951B550BBB27AA2762177307840738F043
:102430009F5F5F4F220F331F441FAA1FA9F333D0A2
:102440000E2E3AF0E0E830D091505040E695001C56
:10245000CAF729D0FE2F27D0660F771F881FBB1F12
:10246000261737074807AB07B0E809F0BB0B802DEC
:10247000BF01FF2793585F4F2AF09E3F510568F038
:10248000B1C0FBC05F3FECF3983EDCF386957795D7
:102490006795B795F7959F5FC9F7880F911D96953A
:1024A000879597F90895E1E0660F771F881FBB1F96
:1024B000621773078407BA0720F0621B730B840B43
:1024C000BA0BEE1F88F7E0950895BCD088F09F57AF
:1024D00090F0B92F9927B751A0F0D1F0660F771F70
:1024E000881F991F1AF0BA95C9F712C0B13081F050
:1024F000C3D0B1E00895C0C0672F782F8827B85F98
:1025000039F0B93FCCF3869577956795B395D9F7B0
:102510003EF490958095709561957F4F8F4F9F4FBA
:102520000895E89409C097FB3EF4909580957095C6
:1025300061957F4F8F4F9F4F9923A9F0F92F96E90F
:10254000BB279395F695879577956795B795F11184
:10255000F8CFFAF4BB0F11F460FF1BC06F5F7F4F21
:102560008F4F9F4F16C0882311F096E911C0772333
:1025700021F09EE8872F762F05C0662371F096E83C
:10258000862F70E060E02AF09A95660F771F881F0B
:10259000DAF7880F9695879597F90895990F0008AF
:1025A000550FAA0BE0E8FEEF16161706E807F90725
:1025B000C0F012161306E407F50798F0621B730BC0
:1025C000840B950B39F40A2661F0232B242B252B41
:1025D00021F408950A2609F4A140A6958FEF811DE4
:1025E000811D089597F99F6780E870E060E0089585
:1025F0009FEF80EC089500240A941616170618061B
:102600000906089500240A941216130614060506F6
:102610000895092E0394000C11F4882352F0BB0F87
:1026200040F4BF2B11F460FF04C06F5F7F4F8F4FEA
:102630009F4F089557FD9058440F551F59F05F3F25
:1026400071F04795880F97FB991F61F09F3F79F0D4
:1026500087950895121613061406551FF2CF469556
:10266000F1DF08C0161617061806991FF1CF8695D8
:102670007105610508940895E894BB2766277727BC
:10268000CB0197F908958ADF08F48FEF08950BD0F6
:10269000C0CFB1DF28F0B6DF18F0952309F0A2CF44
:1026A000A7CF1124EACFC6DFA0F3959FD1F3950FF2
:1026B00050E0551F629FF001729FBB27F00DB11DC6
:1026C000639FAA27F00DB11DAA1F649F6627B00D56
:1026D000A11D661F829F2227B00DA11D621F739F3F
:1026E000B00DA11D621F839FA00D611D221F749F4D
:1026F0003327A00D611D231F849F600D211D822F94
:10270000762F6A2F11249F5750408AF0E1F08823DA
:102710004AF0EE0FFF1FBB1F661F771F881F9150E7
:102720005040A9F79E3F510570F05CCFA6CF5F3FA8
:10273000ECF3983EDCF3869577956795B795F7951A
:10274000E7959F5FC1F7FE2B880F911D96958795A2
:1027500097F9089511F40EF44BCF41C073DFD0F315
:102760009923D9F3CEF39F57550B87FF46D000240A
:10277000A0E640EA900180585695979528F4805C31
:10278000660F771F881F20F026173707480730F499
:10279000621B730B840B202931294A2BA6951794B1
:1027A0000794202531254A2758F7660F771F881F81
:1027B00020F026173707480730F4620B730B840BA1
:1027C000200D311D411DA09581F7B901842F91582D
:1027D000880F9695879508959B01AC0158CF9F3F30
:1027E00031F0915020F4879577956795B795880FCC
:1027F000911D9695879597F9089591505040660FD1
:10280000771F881FD2F70895A1E21A2EAA1BBB1BBF
:10281000FD010DC0AA1FBB1FEE1FFF1FA217B307AC
:10282000E407F50720F0A21BB30BE40BF50B661FC2
:10283000771F881F991F1A9469F760957095809586
:1028400090959B01AC01BD01CF0108952F923F925D
:102850004F925F926F927F928F929F92AF92BF92B0
:10286000CF92DF92EF92FF920F931F93CF93DF935C
:10287000CDB7DEB7CA1BDB0B0FB6F894DEBF0FBEB9
:10288000CDBF09942A88398848885F846E847D8406
:102890008C849B84AA84B984C884DF80EE80FD8008
:1028A0000C811B81AA81B981CE0FD11D0FB6F8947E
:1028B000DEBF0FBECDBFED010895A0E0B0E0E3E6BE
:1028C000F4E10C942E14EC01A880B980CA80DB805E
:1028D000A114B104C104D10441F484E2A82E89ED0D
:1028E000B82E8BE5C82E87E0D82EC601B5012DE1A4
:1028F00033EF41E050E00E947B1627EA31E440E0EC
:1029000050E00E945C167B018C01C601B5012DE1EF
:1029100033EF41E050E00E947B16CA01B9012CEE72
:1029200034EF4FEF5FEF0E945C166E0D7F1D801F2E
:10293000911F97FF04C061507040804090486883A9
:1029400079838A839B839B013F77C901CDB7DEB72B
:10295000EAE00C944A140E945D14089580E091E02E
:102960000E945D140895A0E0B0E080930001909370
:102970000101A0930201B09303010895283008F0EB
:1029800027E03327DA01990F311D87FD916000960A
:102990006105710539F432602E5F3D9330E32A956D
:1029A000E1F708959F3F30F080387105610509F027
:1029B0003C5F3C5F3D93913008F08068911DDF9350
:1029C000CF931F930F93FF92EF92192F987F9695B5
:1029D000E92F96959695E90FFF27E753FE4F992724
:1029E0003327EE24FF24A701E701059008940794FC
:1029F00028F4360FE71EF81E491F511D660F771F7A
:102A0000881F991F0694A1F70590079428F4E70EF4
:102A1000F81E491F561FC11D770F881F991F661F7B
:102A20000694A1F70590079428F4F80E491F561F45
:102A3000C71FD11D880F991F661F771F0694A1F726
:102A40000590079420F4490F561FC71FD81F990FF0
:102A5000661F771F881F0694A9F784911095177039
:102A600041F0D695C79557954795F794E7941A95F1
:102A7000C1F7EFE6F1E068941590159135916591F5
:102A8000959105907FE27395E118F10A430B560B7F
:102A9000C90BD009C0F7E10CF11E431F561FC91F17
:102AA000D01D7EF4703311F48A95E6CFE89401507E
:102AB00030F0080F0AF40027021708F4202F23959E
:102AC000022F7A3328F079E37D932A95E9F710C035
:102AD0007D932A9589F6069497956795379517956E
:102AE0001794E118F10A430B560BC90BD00998F063
:102AF00023957E9173957A3308F070E37C932013CD
:102B0000B8F77E9170617D9330F0839571E37D938A
:102B100070E32A95E1F71124EF90FF900F911F9138
:102B2000CF91DF91992787FD90950895FC0105903D
:102B3000615070400110D8F7809590958E0F9F1FBF
:102B40000895FC016150704001900110D8F7809504
:102B500090958E0F9F1F08950F931F93CF93DF9330
:102B60008C01EB018B8181FF1BC082FF0DC02E8188
:102B70003F818C819D812817390764F4E881F981B0
:102B80000193F983E88306C0E885F985802F0995CC
:102B9000892B31F48E819F8101969F838E8302C0A1
:102BA0000FEF1FEFC801DF91CF911F910F91089593
:102BB000A0E0B0E0EEEDF5E10C943614FE013596A0
:102BC00061917191A091AD03B091AE0313968C9178
:102BD0001397886013968C938091AD039091AE0308
:102BE000AF010E940D0EE091AD03F091AE03238181
:102BF000277F23832096E2E00C945214FA01AA273F
:102C0000283051F1203181F1E8946F936E7F6E5F2F
:102C10007F4F8F4F9F4FAF4FB1E03ED0B4E03CD0DD
:102C2000670F781F891F9A1FA11D680F791F8A1FC0
:102C3000911DA11D6A0F711D811D911DA11D20D027
:102C400009F468943F912AE0269F11243019305DE1
:102C50003193DEF6CF010895462F4770405D4193D2
:102C6000B3E00FD0C9F7F6CF462F4F70405D4A331F
:102C700018F0495D31FD4052419302D0A9F7EACFE7
:102C8000B4E0A6959795879577956795BA95C9F716
:102C900000976105710508959B01AC010A2E069409
:102CA0005795479537952795BA95C9F7620F731FC2
:102CB000841F951FA01D0895629FD001739FF0018E
:102CC000829FE00DF11D649FE00DF11D929FF00DBC
:102CD000839FF00D749FF00D659FF00D9927729FF3
:102CE000B00DE11DF91F639FB00DE11DF91FBD017E
:102CF000CF011124089597FB092E05260ED057FD0C
:102D000004D082DD0AD0001C38F4509540953095EF
:102D100021953F4F4F4F5F4F0895F6F7909580955F
:102D2000709561957F4F8F4F9F4F0895F894FFCF17
:042D3000010000009E
:00000001FF
