:100000000C9428010C9445010C9445010C94450175
:100010000C9445010C9445010C9445010C94450148
:100020000C9445010C9445010C9445010C94450138
:100030000C9445010C9445010C9435060C94450133
:100040000C9445010C94D8060C947C040C94460442
:100050000C9445010C9445010C9445010C94450108
:100060000C9445010C9445016E616E00696E66004A
:10007000D300D800E300ED000A00493A25312E33C1
:10008000662020004572723A25312E33662020000A
:100090005374644465763A25312E3366202000502F
:1000A000574D3A25312E336620200054656D703A45
:1000B00025312E33662020000A4465766963652069
:1000C000496E697469616C697A65642025312E30E6
:1000D000660A0020204F4B00202053687574646F1F
:1000E000776E00202048656174696E670020205299
:1000F0004547554C4154454400486561746572203C
:1001000054696D656F7574204572726F7220536803
:100110007574646F776E0A0048656174657220417A
:100120006D6269656E74204572726F7220536875D6
:1001300074646F776E0A0048656174657220536558
:100140006E736F72204572726F722053687574649B
:100150006F776E0A0000407A10F35A00A0724E18B2
:10016000090010A5D4E80000E87648170000E40B69
:1001700054020000CA9A3B000000E1F5050000802F
:10018000969800000040420F000000A08601000089
:1001900000102700000000E80300000000640000D9
:1001A0000000000A00000000000100000000002C18
:1001B00076D888DC674F0823DFC1DFAE59E1B1B7DD
:1001C00096E5E3E453C63AE651997696E8E6C284AA
:1001D00026EB898C9B62ED407C6FFCEFBC9C9F40C2
:1001E000F2BAA56FA5F490055A2AF75C936B6CF9E7
:1001F000676DC11BFCE0E40D47FEF520E6B500D0BD
:10020000ED902E0300943577050080841E080000D1
:10021000204E0A000000C80C333333330F986E129F
:10022000831141EF8D2114893BE65516CFFEE6DBA5
:1002300018D1844B381BF77C1D901DA4BBE42420EF
:100240003284725E228100C9F124ECA1E53D2700D1
:1002500011241FBECFEFD8E0DEBFCDBF12E0A0E07B
:10026000B1E0E6E8F8E202C005900D92AC3FB107BC
:10027000D9F714E0ACEFB2E001C01D92A231B10792
:10028000E1F70E947D020C9441140C9400008E3220
:1002900049F08D3239F08B3229F020E090E0C097A0
:1002A0000A9708F421E0822F08952F923F924F92EF
:1002B0005F926F927F928F929F92AF92BF92CF92F6
:1002C000DF92EF92FF920F931F93DF93CF9300D0B3
:1002D00000D0CDB7DEB7D62E5A834983662329F4E2
:1002E00060E070E080E090E057C09C838B830F2E2D
:1002F000F0E02F2EF0E03F2EF0E04F2EF0E05F2EEA
:10030000F02DAA24420131011DC0EB81FC81E19056
:10031000F19001911191FC83EB83C401B301A80119
:1003200097010E94DB0F3B014C01C801B7010E94FD
:1003300032129B01AC01C201B1010E94DB0F1B0113
:100340002C01A394AD1408F36D2D70E0882777FD80
:100350008095982F0E94D9105B016C01C401B301F4
:10036000A60195010E9443109B01AC01E981FA812D
:1003700020833183428353830E9432127B018C019C
:10038000C201B101A60195010E944310A801970185
:100390000E94DA0F0E94F4110F900F900F900F90AF
:1003A000CF91DF911F910F91FF90EF90DF90CF9051
:1003B000BF90AF909F908F907F906F905F904F9085
:1003C0003F902F900895089500D000D000D08BEA80
:1003D00090E0EDB7FEB792838183809151039091B5
:1003E0005203A0915303B091540383839483A58354
:1003F000B6830E94BD138FE990E0EDB7FEB79283FC
:1004000081838091250390912603A0912703B091C9
:10041000280383839483A583B6830E94BD1380E958
:1004200090E0EDB7FEB79283818380915503909160
:100430005603A0915703B091580383839483A583F7
:10044000B6830E94BD1384E890E0EDB7FEB79283B7
:1004500081838091310390913203A0913303B09155
:10046000340383839483A583B6830E94BD138AE7F4
:1004700090E0EDB7FEB7928381838091390390912C
:100480003A03A0913B03B0913C0383839483A583FB
:10049000B6830E94BD138091FD02E82FF0E0EE0FBD
:1004A000FF1FE059FF4F859194910F900F900F908F
:1004B0000F90EDB7FEB7928381830E94BD1388E74A
:1004C00090E0EDB7FEB7928381830E94BD130F9039
:1004D0000F90089500D000D088EB90E0EDB7FEB704
:1004E000928381838AE290E0948383830E94BD1388
:1004F0000F900F900F900F900895F8940E940005B0
:100500000E949F030E94E3010E94460678940E9485
:100510006A020E9488030E945A06FDCFE82FF0E08D
:10052000EE0FFF1FE354FC4F0190F081E02D01809E
:10053000F281E02D09950895E82FF0E0EE0FFF1FFE
:10054000E354FC4F0190F081E02D25813681CF01ED
:10055000F90109950895E82FF0E0EE0FFF1FE3542D
:10056000FC4F0190F081E02D27813085CF0143962B
:10057000F90109950895E82FF0E0EE0FFF1FE3540D
:10058000FC4F0190F081E02D21853285862F7396F6
:10059000BF01F90109950895E82FF0E0EE0FFF1F64
:1005A000E354FC4F80819181439690930D04809396
:1005B0000C040895E82FF0E0EE0FFF1FE354FC4F0A
:1005C00080819181439690930F0480930E04089547
:1005D000E82FF0E0EE0FFF1FE354FC4F8081918184
:1005E000439690931104809310040895FC0114A283
:1005F00015A216A208950895FC0160FF02C081E0D3
:1006000081A361FD11A264FF02C081E082A365FDA8
:1006100012A274FF02C081E083A375FD13A280E0E3
:1006200090E00895E82FF0E0EE0FFF1FE354FC4F39
:10063000808191810E94FC020895FC019181828158
:10064000891719F42FEF3FEF0DC0892F8150818357
:10065000882311F4808181838181E80FF11D8381DA
:10066000282F30E0C9010895CF93DF93EC018CA1CE
:10067000882339F481E08CA37BA76AA719A658A721
:100680004FA34FA158A589A590E09A012150304071
:100690008217930744F0EAA5FBA5E40FF51F10822B
:1006A0002DE030E018C08D859E850E941D0399A520
:1006B000EAA5FBA58A3049F4E90FF11D10829F5F7E
:1006C00099A71CA220E030E006C0E90FF11D80834D
:1006D0009F5F99A7D6CFC901DF91CF910895DC0123
:1006E00012969C911297915009F49C9111968C91BD
:1006F0001197981719F42FEF3FEF08C0FD01E90F8C
:10070000F11D638312969C9320E030E0C9010895A7
:100710001F9310E0E091BD03F091BE03A12FB0E064
:10072000A050BF4F218532858C917396BF01F9018E
:1007300009958F5F9F4F71F31F5F1770EBCF80E0BC
:100740000E94EF039093BE038093BD0381E00E945B
:1007500087069093C0038093BF03E091BD03F0919F
:10076000BE030180F281E02D80E060E070E045E1B1
:1007700050E10995E091BF03F091C0030180F2813F
:10078000E02D81E060E070E040E050E1099580916B
:10079000BD039091BE03439690930D0480930C0487
:1007A00090930F0480930E048091BF039091C00337
:1007B000439690931104809310040895462FE82FD8
:1007C000F0E0EE0FFF1FE354FC4F50E060E070E0FC
:1007D000808191810E94F40380E090E008958093ED
:1007E0005E018EE591E008959A01AB0183E0220F4E
:1007F000331F441F551F8A95D1F760E074E284EFE0
:1008000090E00E944A12215030403093C50020935E
:10081000C400E0ECF0E080818D7F80830895FF923A
:100820000F931F93CF93DF938C01DC011C96ED9106
:10083000FC911D97858596850E941D03F82EF80171
:10084000C485D585EB85FC85CE0109958AA18823D1
:1008500041F060910E0470910F04E985FA858F2DA7
:100860000995FDE0FF1619F08AE0F81631F48BA126
:10087000882319F02AE030E002C02F2D30E0C901B2
:10088000DF91CF911F910F91FF9008951F920F92CA
:100890000FB60F9211242F933F934F935F936F9353
:1008A0007F938F939F93AF93BF93EF93FF93E091C9
:1008B000BD03F091BE03878590890E941D032FEF31
:1008C0008F3F920731F48091C1008F7D8093C100EA
:1008D00002C08093C600FF91EF91BF91AF919F91AD
:1008E0008F917F916F915F914F913F912F910F90D9
:1008F0000FBE0F901F9018951F920F920FB60F9278
:1009000011242F933F934F935F936F937F938F9314
:100910009F93AF93BF93EF93FF936091C600E091D5
:10092000BD03F091BE03858596850E946F03FF91FC
:10093000EF91BF91AF919F918F917F916F915F9157
:100940004F913F912F910F900FBE0F901F901895D0
:10095000282FFB010484F585E02D87859089622F7F
:100960000E946F03E1ECF0E0208120622083089573
:10097000EF92FF920F931F937A01E82FF0E0EE0FB2
:10098000FF1FE354FC4F00811181C8010E94F60251
:10099000C801B7010E94FC02D8011D96ED91FC919F
:1009A0001E9781E0828381831F96ED91FC91509781
:1009B00082838183E4E6F0E080818D7F80831092E2
:1009C000C00088E98093C100C80140E052EC61E0BA
:1009D00070E00E94F403F80181859285948F838FE3
:1009E00087819085968F858F83E0868B10A3078FF4
:1009F0000D5E1F4FC8011F910F91FF90EF9008955A
:100A00008FEF8093640014B817B81AB80895E4E61D
:100A1000F0E090819E7F9083982F9064ECE7F0E067
:100A2000908396E890937A009081907F9083908154
:100A3000908321E030E002C0220F331F8A95E2F755
:100A400020937E00089580917A00806480937A00DC
:100A500080917A0080917A00806180937A00809101
:100A6000780090917900892B71F320917800309172
:100A70007900C9010895539AE4E6F0E080818F7B04
:100A80008083E0EBF0E080EF80838081836080836F
:100A9000E1EBF0E088E080838081846080831092C5
:100AA0006F001092B3001092B40080E090E0A0E0DC
:100AB000B0E08093C5039093C603A093C703B0939F
:100AC000C8030895EF92FF920F931F939B01AC010F
:100AD00060E074E284E798E40E9443107B018C019B
:100AE0006093C5037093C6038093C7039093C803B4
:100AF00020E030E040EA51E40E943F10882314F4E3
:100B000084E10BC0C801B70120E030E04FE753E4B7
:100B10000E948911882324F08FEF8093B30006C0D0
:100B2000C801B7010E94AB106093B30080E01F9131
:100B30000F91FF90EF900895AF92BF92CF92DF9206
:100B4000EF92FF920F931F935B016C012AE037ED48
:100B500043E25CE30E943F10882324F48FEF8093EC
:100B6000B40030C0C601B5012DEC3CEC47EC52E4BA
:100B70000E94891118161CF41092B40023C06091D1
:100B8000B30070E0882777FD8095982F0E94D910D8
:100B90007B018C01C601B50120E030E048EC52EC4D
:100BA0000E94431020E030E040E85FE30E94DB0F4A
:100BB0009B01AC01C801B7010E948D110E94AB10CE
:100BC0006093B4006091C5037091C6038091C70320
:100BD0009091C8030E94AB106093B30080E01F9116
:100BE0000F91FF90EF90DF90CF90BF90AF9008955E
:100BF000AF92BF92CF92DF92EF92FF920F931F932B
:100C00007B018C0159016A010E943B05C801B701B3
:100C10000E946205C601B5010E949C051F910F91BB
:100C2000FF90EF90DF90CF90BF90AF90089560E07D
:100C300070E080E090E09B01AC010E94F80508950F
:100C4000E4E6F0E080818F7D808392E094BD83E0D4
:100C500085BD8DE787BD90936E008AE08093C203C7
:100C60008093C3038093C40308951F920F920FB61D
:100C70000F9211248F9381E08093C1038F910F9085
:100C80000FBE0F901F90189508950895539A5A9A81
:100C900008955A9808955A9A08958BB1882311F0AF
:100CA0005A9808955A9A08950E94EE0808950E944D
:100CB000ED0A08951F938091C103882311F483E006
:100CC00024C01092C1030E94ED0A8091C20381509A
:100CD0008093C2038823C1F41AE01093C203809169
:100CE000C30381508093C303882371F41093C3031B
:100CF0000E94EE088091C40381508093C40388232E
:100D000019F41093C40301C080E01F9108958093EB
:100D1000CF028FEC92E00895CF93DF93EC018CA18A
:100D2000882339F481E08CA37BA76AA719A658A76A
:100D30004FA34FA158A589A590E09A0121503040BA
:100D40008217930744F0EAA5FBA5E40FF51F108274
:100D50002DE030E01FC08D859E850E941D03982FD9
:100D600089A5EAA5FBA59A3079F4E80FF11D9083D7
:100D70008F5FEAA5FBA5E80FF11D10828F5F89A7A1
:100D80001CA220E030E006C0E80FF11D90838F5FC9
:100D900089A7CFCFC901DF91CF910895DC011C96BF
:100DA000ED91FC911D97858596850E941D03089500
:100DB0001F920F920FB60F9211241F932F933F9300
:100DC0004F935F936F937F938F939F93AF93BF9353
:100DD000EF93FF931EB5E091BF03F091C0038785A9
:100DE00090890E941D032FEF8F3F920709F483E043
:100DF0008EBDE091BF03F091C00385859685612F7C
:100E00000E946F03FF91EF91BF91AF919F918F91DE
:100E10007F916F915F914F913F912F911F910F9013
:100E20000FBE0F901F901895282FFB010484F585A5
:100E3000E02D87859089622F0E946F030895EF92BD
:100E4000FF920F931F937A01E82FF0E0EE0FFF1F40
:100E5000E354FC4F00811181C8010E94F602C801D1
:100E6000B7010E94FC02D8011D96ED91FC911E97DE
:100E700081E0828381831F96ED91FC91509782835C
:100E80008183E4E6F0E080818B7F80838CB58C6C7D
:100E90008CBD249A19968D919C911A975C969C937F
:100EA0008E935B9717968D919C9118975E969C9365
:100EB0008E935D9783E056968C93569790961C93ED
:100EC0000E935F970D5E1F4FC8011F910F91FF900A
:100ED000EF90089520E030E040E050E020932503BB
:100EE00030932603409327035093280380E090E03B
:100EF000A8E4B3E48093390390933A03A0933B03AF
:100F0000B0933C032093350330933603409337036B
:100F10005093380308956F927F928F929F92AF9271
:100F2000BF92CF92DF92EF92FF920F931F937B01BC
:100F30008C0180912303882349F470912D036091E3
:100F40002E0390912F0380913003DDC0C801B701BB
:100F50000E94DA0F3B014C0160933103709332031E
:100F600080933303909334039F772DEC3CEC4CEC4F
:100F70005DE30E948911181684F560912503709134
:100F80002603809127039091280320912903309113
:100F90002A0340912B0350912C030E943F10882379
:100FA000E4F4C401B3012DEC3CEC4CEC5DE30E9495
:100FB0008D119B01AC016091390370913A038091CE
:100FC0003B0390913C030E94DB0F609339037093C5
:100FD0003A0380933B0390933C03C401B3012091F7
:100FE00035033091360340913703509138030E9406
:100FF000DA0F2DEC3CEC4CEC5DE30E9443105B01FE
:101000006C0160933D0370933E0380933F03909384
:101010004003C401B3012091410330914203409148
:101020004303509144030E948D117B018C01609118
:1010300045037091460380914703909148032091A6
:10104000390330913A0340913B0350913C030E9495
:101050008D119B01AC01C801B7010E94DB0F7B0120
:101060008C01C601B5012091490330914A0340919A
:101070004B0350914C030E948D119B01AC01C801A0
:10108000B7010E94DB0F7B018C01609325037093F5
:1010900026038093270390932803A0902903B09000
:1010A0002A03C0902B03D0902C03A60195010E9427
:1010B0008911181684F0A0902D03B0902E03C090D3
:1010C0002F03D0903003C801B701A60195010E94FB
:1010D0003F10882344F4A0922503B0922603C092C7
:1010E0002703D092280360923503709236038092D2
:1010F00037039092380370912503609126039091F5
:10110000270380912803272F362F492F582FB90105
:10111000CA011F910F91FF90EF90DF90CF90BF9089
:10112000AF909F908F907F906F9008958AE2E3E256
:10113000F3E0DF011D928A95E9F780E090E0A0EAF4
:10114000B0E48093410390934203A0934303B09390
:1011500044038DEC9CECACECBDE380934503909391
:101160004603A0934703B093480380E090E0A0E0DB
:10117000BFE38093490390934A03A0934B03B0933A
:101180004C0380E090E0A8ECB2E4809329039093B4
:101190002A03A0932B03B0932C0380E090E0A0E0FF
:1011A000B0E080932D0390932E03A0932F03B09370
:1011B000300381E08093230308950F931F93182F2A
:1011C000062F0E9417060E94C60A1093FD02009384
:1011D000FE020E944B061F910F910895AF92BF929D
:1011E000CF92DF92EF92FF920F931F938091FD02B7
:1011F000823008F413C10E94E4010E94D50A609372
:1012000003037093040380930503909306032091D6
:101210001F033091200340912103509122030E942B
:10122000891118162CF481E063E00E94DD08F6C0F5
:101230000E94C90AE0900303F090040300910503A3
:1012400010910603C801B70123E333E948E853ECE2
:101250000E943F10882394F4809102038F5F809353
:10126000020390910103981708F0D8C081E064E070
:101270000E94DD0800D087E391E058C0109202037D
:1012800060910703709108038091090390910A030C
:10129000A80197010E948B070E949C058091FD0286
:1012A000823009F070C060910F037091100380913B
:1012B0001103909112032DEC3CEC4CEC5DE30E9489
:1012C000DB0F7B018C0160930F03709310038093FD
:1012D000110390931203A0900303B0900403C090F5
:1012E0000503D0900603C601B50120911B03309180
:1012F0001C0340911D0350911E030E943F10882340
:10130000F4F4C801B7012091130330911403409104
:101310001503509116030E948911181684F481E078
:1013200061E00E94DD0800D088E191E0EDB7FEB7F2
:10133000928381830E94BD130F900F906FC0C601EE
:10134000B5012091070330910803409109035091A2
:101350000A030E943F108823B4F4C801B70120910A
:101360001703309118034091190350911A030E94FA
:101370008911181644F481E062E00E94DD0800D073
:1013800089EF90E0D3CF6091310370913203809167
:101390003303909134039F7720910B0330910C031A
:1013A00040910D0350910E030E943F10181664F0F7
:1013B000809100038F5F809300038B30ECF08AE014
:1013C0008093000383E016C08091000381508093D6
:1013D000000318168CF01092000380E090E0A0E06B
:1013E000B0E080930F0390931003A0931103B09388
:1013F000120382E08093FD028091FD02833019F494
:101400000E9449060BC08091FF028F5F8093FF020C
:10141000843020F01092FF020E944D061F910F9120
:10142000FF90EF90DF90CF90BF90AF900895AF9274
:10143000BF92CF92DF92EF92FF920F931F935B01C7
:101440006C018091FD028250823008F44BC00E94F2
:10145000C20A0E94C90A0F2EF0E0EF2EF0E0FF2E24
:10146000F0E00F2FF0E01F2FF02DE0922503F09217
:101470002603009327031093280380E090E0A8E45C
:10148000B3E48093390390933A03A0933B03B09362
:101490003C03E0923503F092360300933703109338
:1014A000380360E070E08AE794E4A80197010E94A5
:1014B000F805A0920703B0920803C0920903D092E6
:1014C0000A031092000310920203E0920F03F092BD
:1014D0001003009311031093120382E08093FD0226
:1014E0000E944B061F910F91FF90EF90DF90CF90DD
:1014F000BF90AF90089586E2EDEFF2E0DF011D921C
:101500008A95E9F780E090E0A0E4B0E480930B03D3
:1015100090930C03A0930D03B0930E0380E090E032
:10152000A4EBB2E48093130390931403A0931503E8
:10153000B093160320E030E046E953E4209317030C
:10154000309318034093190350931A0380E090E0FE
:10155000A0E2B2E480931B0390931C03A0931D03AD
:10156000B0931E0320931F03309320034093210365
:101570005093220385E0809301030E940F0C0E9488
:101580009608089581E080934D03089510924D03CD
:10159000089510924F0381E080934E030895809147
:1015A0004D03089580914E03089580914D0383303B
:1015B00029F070E060E099E883EC08C07091510375
:1015C000609152039091530380915403272F362F3B
:1015D000492F582FB901CA0108952F923F924F9277
:1015E0005F927F928F929F92AF92BF92CF92DF9243
:1015F000EF92FF920F931F93DF93CF93CDB7DEB798
:1016000028970FB6F894DEBF0FBECDBF80914D0373
:10161000882309F4ECC080914E03813009F0E7C0C3
:1016200080914F03082F10E00E942305000F111F27
:10163000000F111F07591C4FA0E0B0E0BC01CD0105
:101640000E94D71026E03FEA4AEF5EE30E948D1128
:1016500023ED31EB46ED5EE30E94DA0FD8016D9386
:101660007D938D939C93139780914F038F5F80930D
:101670004F03843108F4BBC089E693E064E1AE0116
:101680004F5F5F4F0E9455017B018C0160935503B2
:1016900070935603809357039093580320915D03F2
:1016A00030915E0340915F03509160030E94891165
:1016B000181624F482E080934D0397C010925003D3
:1016C00080E090E0A0E0B0E080935103909352035B
:1016D000A0935303B093540389819A81AB81BC8159
:1016E0008D839E83AF83B887C801B70120915903CA
:1016F00030915A0340915B0350915C030E948D111D
:101700001B012C0199E6892E93E0992E77240F2E48
:10171000F0E0EF2EF0E0FF2EF0E00F2FF0E01F2FB3
:10172000F02DD401AD90BD90CD90DC90C601B501F7
:101730002D813E814F8158850E94DA0F9F77A2014B
:1017400091010E943F1088234CF4C801B701A60103
:1017500095010E94DB0F7B018C017394E4E0F0E0C3
:101760008E0E9F1EF9EB8F16F3E09F06D1F6709256
:101770005003672D70E0882777FD8095982F0E9491
:10178000D9109B01AC01C801B7010E9443107B0135
:101790008C01609351037093520380935303909391
:1017A000540383E0D82ED0924D0310924E03C8010B
:1017B000B70120E030E048EC53E40E94891118168C
:1017C00034F482E080934D03D0924E0310C0C801E0
:1017D000B70120E030E040E050EC0E943F10882349
:1017E00034F482E080934D0384E080934E03289686
:1017F0000FB6F894DEBF0FBECDBFCF91DF911F9122
:101800000F91FF90EF90DF90CF90BF90AF909F909F
:101810008F907F905F904F903F902F90089580E73A
:10182000EDE4F3E0DF011D928A95E9F783E393E9A4
:10183000A8E8B3EC8093510390935203A093530311
:10184000B09354038DEC9CECACE8BFE38093590358
:1018500090935A03A0935B03B0935C0380E090E005
:10186000A0EAB1E480935D0390935E03A0935F03CD
:10187000B093600380E090E0A8ECB3E48093610350
:1018800090936203A0936303B093640380E090E0BD
:10189000A0E0B0EC8093650390936603A093670388
:1018A000B09368030895A1E1B0E0E9E5FCE00C9491
:1018B0006C123C017F876E876A01FC0117821682D9
:1018C000838181FD03C06FEF7FEF6FC39E012F5FA8
:1018D0003F4F398B288BF3012381EE85FF8523FD54
:1018E000859123FF8191FF87EE87882309F45AC3EE
:1018F000853251F4EE85FF8523FD859123FF81918B
:10190000FF87EE87853229F490E0B3010E9491139E
:10191000E2CF982F10E0882499241032B0F49B3243
:1019200069F09C3228F4903251F0933271F40BC07C
:101930009D3239F0903349F4116028C01260146070
:1019400025C0186023C0106121C017FD2AC0892F4F
:1019500080538A3078F416FF06C0FAE09F9E902CE0
:101960001124980E13C03AE0839E802C1124880E17
:1019700010620CC09E3221F416FD14C3106406C020
:101980009C3611F4106802C0983659F4EE85FF8534
:1019900023FD959123FF9191FF87EE87992309F00D
:1019A000BCCF892F8554833020F4812F8061905ED5
:1019B00007C0892F8556833008F09FC1812F8F7E05
:1019C00086FD02C076E0972E6FE3F62EF82295365C
:1019D00019F4F0E4FF2A07C0963619F420E8F22A39
:1019E00002C091109A94F7FE0AC03BE3391518F42F
:1019F0005CE3B52E02C0B92CB39427E009C047E0E0
:101A0000491520F4BB2447E0942EF7CF292DBB24A1
:101A1000C60104969D878C87F60160817181828161
:101A20009381AE014F5F5F4F0B2D0E94A3126C019B
:101A30000981202E332400FF04C003FD02C01DE2F3
:101A400009C0F1FE02C01BE205C0F2FC02C010E0BA
:101A500001C010E2C1018C709070892BB9F1112383
:101A600011F483E001C084E0881510F088240AC0D6
:101A7000881AF3FC07C080E290E0B3010E94911342
:101A80008A94C9F7112329F0812F90E0B3010E94B5
:101A9000911323FE03C008E610E00EC00CE610E030
:101AA0000BC0E114F10409F0805290E0B3010E94F0
:101AB00091130F5F1F4F05C0EF2CFF24F0E1EF22C1
:101AC000FF24F8018491882361F714C1F7FE12C046
:101AD000BC0C24FE04C08A81813309F4BA941B141F
:101AE0001CF0BB24B3942DC0F8E0FB1550F538E092
:101AF000B32E27C0F6FC25C0892D90E08C159D05DE
:101B00004CF02CEFC2162FEFD20624F030E8F32A67
:101B100001C09A94992049F0E2E0F0E0EC0FFD1F3B
:101B2000E90DF11D80818033A1F3F7FE0AC0B92CC5
:101B3000B394892D90E0C816D90614F0992401C0F9
:101B40009C18F7FC03C025E030E009C01C141D04FC
:101B50001CF021E030E003C096012F5F3F4F1123BE
:101B600011F02F5F3F4F992029F0892D90E00196C9
:101B7000280F391F882D90E02817390714F0882482
:101B800001C0821A4F2C5524C20189709070892B94
:101B900039F008C080E290E0B3010E9491138A946A
:101BA0008820C1F7112329F0812F90E0B3010E9412
:101BB000911343FE07C008C080E390E0B3010E9488
:101BC00091138A948820C1F7F7FE46C08601D7FE9C
:101BD00002C000E010E076010894E11CF11CE01A5C
:101BE000F10A41E050E04C0F5D1FE40EF51E2601A6
:101BF0004B185108892D90E0AA24BB24A81AB90AD1
:101C00005FEF0F3F150729F48EE290E0B3010E94C9
:101C10009113C016D10634F0401651061CF4F7019A
:101C2000808101C080E3015010400894E11CF11C48
:101C30000A151B052CF090E0B3010E949113E0CF30
:101C40000C151D0539F49A81963318F4953311F467
:101C500024FE81E390E04BC08A81813309F00F7E3E
:101C600090E0B3010E9491139920A1F08EE290E0E0
:101C7000B3010E94911312E0E1E0F0E0EC0FFD1FD0
:101C8000E10FF11D1F5F808190E0B3010E9491136D
:101C90009A9491F744FC03C085E690E002C085E485
:101CA00090E0B3010E949113D7FC05C0C114D10488
:101CB00041F404FF06C0D094C194D108D3948DE2BE
:101CC00001C08BE290E0B3010E94911380E305C054
:101CD0008F5F26EF3FEFC20ED31E3AE0C316D1044A
:101CE000BCF790E0B3010E949113C601C096B30106
:101CF0000E949113CC84DD8452C1933631F0933726
:101D000099F0933509F059C023C0F6018081898389
:101D10005E010894A11CB11C22E030E0C20ED31E6B
:101D200021E0E22EF12C12C0F601A080B18016FD58
:101D300003C06FEF7FEF02C0692D70E022E030E05A
:101D4000C20ED31EC5010E9486137C011F7713C0EB
:101D5000F601A080B18016FD03C06FEF7FEF02C0D7
:101D6000692D70E022E030E0C20ED31EC5010E9452
:101D70007B137C01106813FF07C01BC080E290E05A
:101D8000B3010E9491138A94882D90E0E816F90619
:101D9000A8F30FC0F50117FD859117FF81915F0131
:101DA00090E0B3010E94911381108A940894E10895
:101DB000F108E114F10471F7F2C0943611F099368C
:101DC00089F517FF08C0F6012081318142815381D6
:101DD00084E090E00AC0F601808191819C01442753
:101DE00037FD4095542F82E090E0C80ED91E9FE643
:101DF000F92EF12257FF09C0509540953095219555
:101E00003F4F4F4F5F4F90E8F92ACA01B901AE0129
:101E10004F5F5F4F2AE030E00E94E313E82EE8892D
:101E2000EE1A41C0953721F41F7E2AE030E01CC035
:101E3000197F9F3661F0903720F4983509F0B2C0D1
:101E40000FC0903739F0983709F0ACC004C028E0D3
:101E500030E00AC0106114FD146020E130E004C0DD
:101E600014FD166020E132E017FF08C0F601608122
:101E700071818281938144E050E008C0F601808145
:101E80009181BC0180E090E042E050E0C40ED51E9C
:101E9000AE014F5F5F4F0E94E313E82E5889E51AA9
:101EA0008FE7F82EF122F6FE0BC08EEFF822E91430
:101EB00038F4F4FE07C0F2FC05C09FEEF92202C020
:101EC0001E2D01C0192DF4FE0DC0FE01EE0DF11DF9
:101ED0008081803319F4E9EEFE2208C01F5FF2FE14
:101EE00005C003C08F2D867809F01F5F0F2DF3FC0E
:101EF00014C0F0FE0FC0181510F09E2C0BC09E2CC5
:101F0000980C911A182D06C080E290E0B3010E944F
:101F100091131F5F1815C0F304C0181510F4811A2F
:101F200001C0882404FF0FC080E390E0B3010E9449
:101F3000911302FF1DC001FD03C088E790E00EC0B1
:101F400088E590E00BC0802F867891F001FF02C0F9
:101F50008BE201C080E2F7FC8DE290E0B3010E94C9
:101F6000911306C080E390E0B3010E9491139A940C
:101F7000E914C0F3EA94E1E0F0E0EC0FFD1FEE0D90
:101F8000F11D808190E0B3010E949113EE2091F742
:101F900006C080E290E0B3010E9491138A948820E9
:101FA000C1F799CCF30166817781CB016196E2E1BB
:101FB0000C9488125058BB27AA270ED070C161D14B
:101FC00030F066D120F031F49F3F11F41EF456C179
:101FD0000EF4E095E7FB4CC1E92F72D180F3BA17FC
:101FE000620773078407950718F071F49EF58AC19C
:101FF0000EF4E0950B2EBA2FA02D0B01B901900124
:102000000C01CA01A0011124FF27591B99F0593F67
:1020100050F4503E68F11A16F040A22F232F342FAF
:102020004427585FF3CF469537952795A795F040FD
:102030005395C9F77EF41F16BA0B620B730B840B12
:10204000BAF09150A1F0FF0FBB1F661F771F881FCA
:10205000C2F70EC0BA0F621F731F841F48F4879522
:1020600077956795B795F7959E3F08F0B3CF939511
:10207000880F08F09927EE0F979587950895D4D08B
:1020800008F481E008950CD00AC102D140F0F9D0E3
:1020900030F021F45F3F19F0EBC0511134C1EEC0B4
:1020A0000FD198F39923C9F35523B1F3951B550B21
:1020B000BB27AA2762177307840738F09F5F5F4F1B
:1020C000220F331F441FAA1FA9F333D00E2E3AF05C
:1020D000E0E830D091505040E695001CCAF729D076
:1020E000FE2F27D0660F771F881FBB1F26173707C5
:1020F0004807AB07B0E809F0BB0B802DBF01FF27F5
:1021000093585F4F2AF09E3F510568F0B1C0FBC065
:102110005F3FECF3983EDCF3869577956795B7952E
:10212000F7959F5FC9F7880F911D9695879597F949
:102130000895E1E0660F771F881FBB1F62177307C2
:102140008407BA0720F0621B730B840BBA0BEE1FD7
:1021500088F7E0950895BCD088F09F5790F0B92F8C
:102160009927B751A0F0D1F0660F771F881F991FEC
:102170001AF0BA95C9F712C0B13081F0C3D0B1E0FE
:102180000895C0C0672F782F8827B85F39F0B93F0E
:10219000CCF3869577956795B395D9F73EF49095EE
:1021A0008095709561957F4F8F4F9F4F0895E8946C
:1021B00009C097FB3EF490958095709561957F4F8F
:1021C0008F4F9F4F9923A9F0F92F96E9BB2793953D
:1021D000F695879577956795B795F111F8CFFAF44D
:1021E000BB0F11F460FF1BC06F5F7F4F8F4F9F4F7E
:1021F00016C0882311F096E911C0772321F09EE8DC
:10220000872F762F05C0662371F096E8862F70E041
:1022100060E02AF09A95660F771F881FDAF7880F1B
:102220009695879597F90895990F0008550FAA0B71
:10223000E0E8FEEF16161706E807F907C0F01216D9
:102240001306E407F50798F0621B730B840B950BDC
:1022500039F40A2661F0232B242B252B21F4089531
:102260000A2609F4A140A6958FEF811D811D0895CE
:1022700097F99F6780E870E060E008959FEF80EC39
:10228000089500240A9416161706180609060895DC
:1022900000240A9412161306140605060895092E42
:1022A0000394000C11F4882352F0BB0F40F4BF2BB1
:1022B00011F460FF04C06F5F7F4F8F4F9F4F0895F1
:1022C00057FD9058440F551F59F05F3F71F04795E7
:1022D000880F97FB991F61F09F3F79F087950895CC
:1022E000121613061406551FF2CF4695F1DF08C0EB
:1022F000161617061806991FF1CF86957105610508
:1023000008940895E894BB2766277727CB0197F9AF
:1023100008958ADF08F48FEF08950BD0C0CFB1DFA6
:1023200028F0B6DF18F0952309F0A2CFA7CF11242B
:10233000EACFC6DFA0F3959FD1F3950F50E0551F6C
:10234000629FF001729FBB27F00DB11D639FAA270A
:10235000F00DB11DAA1F649F6627B00DA11D661F59
:10236000829F2227B00DA11D621F739FB00DA11D7A
:10237000621F839FA00D611D221F749F3327A00D34
:10238000611D231F849F600D211D822F762F6A2FD0
:1023900011249F5750408AF0E1F088234AF0EE0F55
:1023A000FF1FBB1F661F771F881F91505040A9F762
:1023B0009E3F510570F05CCFA6CF5F3FECF3983E97
:1023C000DCF3869577956795B795F795E7959F5FC9
:1023D000C1F7FE2B880F911D9695879597F9089563
:1023E00011F40EF44BCF41C073DFD0F39923D9F32E
:1023F000CEF39F57550B87FF46D00024A0E640EA56
:10240000900180585695979528F4805C660F771F49
:10241000881F20F026173707480730F4621B730B1C
:10242000840B202931294A2BA6951794079420253F
:1024300031254A2758F7660F771F881F20F0261787
:102440003707480730F4620B730B840B200D311DE6
:10245000411DA09581F7B901842F9158880F969559
:10246000879508959B01AC0158CF9F3F31F0915063
:1024700020F4879577956795B795880F911D969568
:10248000879597F9089591505040660F771F881FE0
:10249000D2F70895A1E21A2EAA1BBB1BFD010DC0A5
:1024A000AA1FBB1FEE1FFF1FA217B307E407F50704
:1024B00020F0A21BB30BE40BF50B661F771F881FE0
:1024C000991F1A9469F760957095809590959B0176
:1024D000AC01BD01CF0108952F923F924F925F92C0
:1024E0006F927F928F929F92AF92BF92CF92DF9224
:1024F000EF92FF920F931F93CF93DF93CDB7DEB789
:10250000CA1BDB0B0FB6F894DEBF0FBECDBF09941C
:102510002A88398848885F846E847D848C849B8473
:10252000AA84B984C884DF80EE80FD800C811B8181
:10253000AA81B981CE0FD11D0FB6F894DEBF0FBEB0
:10254000CDBFED010895283008F027E03327DA01E8
:10255000990F311D87FD916000966105710539F471
:1025600032602E5F3D9330E32A95E1F708959F3F57
:1025700030F080387105610509F03C5F3C5F3D93A8
:10258000913008F08068911DDF93CF931F930F93D4
:10259000FF92EF92192F987F9695E92F9695969531
:1025A000E90FFF27E155FE4F99273327EE24FF243B
:1025B000A701E70105900894079428F4360FE71E59
:1025C000F81E491F511D660F771F881F991F06941B
:1025D000A1F70590079428F4E70EF81E491F561F2F
:1025E000C11D770F881F991F661F0694A1F70590DC
:1025F000079428F4F80E491F561FC71FD11D880FD6
:10260000991F661F771F0694A1F70590079420F481
:10261000490F561FC71FD81F990F661F771F881FA6
:102620000694A9F784911095177041F0D695C79537
:1026300057954795F794E7941A95C1F7E5E5F1E0CA
:1026400068941590159135916591959105907FE26B
:102650007395E118F10A430B560BC90BD009C0F76B
:10266000E10CF11E431F561FC91FD01D7EF47033AD
:1026700011F48A95E6CFE894015030F0080F0AF47F
:102680000027021708F4202F2395022F7A3328F011
:1026900079E37D932A95E9F710C07D932A9589F611
:1026A000069497956795379517951794E118F10A51
:1026B000430B560BC90BD00998F023957E91739567
:1026C0007A3308F070E37C932013B8F77E91706141
:1026D0007D9330F0839571E37D9370E32A95E1F764
:1026E0001124EF90FF900F911F91CF91DF919927C7
:1026F00087FD90950895FC01059061507040011090
:10270000D8F7809590958E0F9F1F0895FC0161501A
:10271000704001900110D8F7809590958E0F9F1F03
:1027200008950F931F93CF93DF938C01EB018B815F
:1027300081FF1BC082FF0DC02E813F818C819D8156
:102740002817390764F4E881F9810193F983E88354
:1027500006C0E885F985802F0995892B31F48E8193
:102760009F8101969F838E8302C00FEF1FEFC801E8
:10277000DF91CF911F910F910895A0E0B0E0E3ECBD
:10278000F3E10C947C12FE01359661917191A09158
:102790000E04B0910F0413968C91139788601396D2
:1027A0008C9380910E0490910F04AF010E94530C02
:1027B000E0910E04F0910F042381277F238320965C
:1027C000E2E00C949812FA01AA27283051F1203146
:1027D00081F1E8946F936E7F6E5F7F4F8F4F9F4FB5
:1027E000AF4FB1E03ED0B4E03CD0670F781F891FF7
:1027F0009A1FA11D680F791F8A1F911DA11D6A0FC5
:10280000711D811D911DA11D20D009F468943F9177
:102810002AE0269F11243019305D3193DEF6CF0176
:102820000895462F4770405D4193B3E00FD0C9F73C
:10283000F6CF462F4F70405D4A3318F0495D31FDA9
:102840004052419302D0A9F7EACFB4E0A6959795FC
:10285000879577956795BA95C9F7009761057105D2
:1028600008959B01AC010A2E06945795479537951C
:102870002795BA95C9F7620F731F841F951FA01D76
:062880000895F894FFCF5B
:1028860030313233343536370F0101000000000095
:1028960000000000000000000000003F01010000F1
:1028A6000000000000000000000000000000000022
:1028B6000000000000000000000000000000000012
:1028C6000000000000000000000000000000000002
:1028D600000000000000000000000000000000B83A
:1028E60004FC0234030F04A804FB0208011B0100C8
:1028F60000000000000000000000000000000000D2
:10290600000000000000000000003F010100000080
:1029160000000000000000000000000000000000B1
:1029260000000000000000000000000000000000A1
:102936000000000000000000000000000000000091
:1029460000000000000000000000000000FE010181
:102956000000000000000000000000000000000071
:102966000000000000000000000000000000000061
:102976000000000000000000000000000000000051
:102986000000000000000000000000000000000041
:102996000000000000000000000000000000000031
:1029A6000000000000000000000000000000000021
:1029B6000000000000000000000000000000000011
:1029C6000000000000000000000000000000000001
:1029D60000000000000000000000000000000000F1
:1029E60000000000000000000000000000000000E1
:1029F60000000000000000000000000000000000D1
:102A060000000000000000000000000000000000C0
:102A160000000000000000000000000000000000B0
:102A260000000000000000000000000000000000A0
:102A36000000000000000000000000000000000090
:102A4600000000000000000000000000000000017F
:102A56001F07FC028C06CE061407FB028A01CD0175
:102A66000000000000000000000000000000000060
:0C2A760000000000000000000000000054
:00000001FF
