:100000000C94D0000C94E2000C94E2000C94E200FA
:100010000C94E2000C94E2000C94E2000C94E200D8
:100020000C94E2000C94E2000C94E2000C94E200C8
:100030000C94E2000C94E2000C94E2000C94E200B8
:100040000C94E2000C9469040C9407030C942F03A5
:100050000C94E2000C94E2000C94E2000C94E20098
:100060000C94E2000C94E2006E616E00696E660012
:100070000A44657669636520496E697469616C69D3
:100080007A65640A0068037801BC02FC0257039792
:100090000100C2010000989C047801140454045E1D
:1000A000049701CC1000407A10F35A00A0724E1849
:1000B000090010A5D4E80000E87648170000E40B1A
:1000C00054020000CA9A3B000000E1F505000080E0
:1000D000969800000040420F000000A0860100003A
:1000E00000102700000000E803000000006400008A
:1000F0000000000A00000000000100000000002CC9
:1001000076D888DC674F0823DFC1DFAE59E1B1B78D
:1001100096E5E3E453C63AE651997696E8E6C2845A
:1001200026EB898C9B62ED407C6FFCEFBC9C9F4072
:10013000F2BAA56FA5F490055A2AF75C936B6CF997
:10014000676DC11BFCE0E40D47FEF520E6B500D06D
:10015000ED902E0300943577050080841E08000082
:10016000204E0A000000C80C333333330F986E1250
:10017000831141EF8D2114893BE65516CFFEE6DB56
:1001800018D1844B381BF77C1D901DA4BBE42420A0
:100190003284725E228100C9F124ECA1E53D270082
:1001A00011241FBECFEFD8E0DEBFCDBF13E0A0E02B
:1001B000B1E001C01D92AA32B107E1F70E9402012D
:1001C0000C94A90A0C9400000E94E7000895089579
:1001D00000D080E790E0EDB7FEB7928381830E9464
:1001E000250A0F900F900895539A5A9A08955A9895
:1001F00008955A9A08958BB1882311F05A9808955A
:100200005A9A0895F8940E9424050E9472020E944E
:10021000E400539A5A9A78940E94E8000E942E02B1
:10022000FFCFE82FF0E029E230E0DF01A29FF001EC
:10023000A39FF00DB29FF00D1124E35BFD4F0188E9
:10024000F289E02D09950895CF93DF93A82FE82F29
:10025000F0E08DE492E029E230E0EF01C29FF0018E
:10026000C39FF00DD29FF00D1124E80FF91F29E272
:10027000A29FD00111240588F689E02D8A0F9B1FCB
:100280000995DF91CF910895482F50E08DE492E0D9
:1002900029E230E0B901469F9001479F300D569FFB
:1002A000300D1124FC01E20FF31F2F5F3F4F078831
:1002B000F08DE02D820F931F09950895462F90E051
:1002C0006DE472E029E230E0FC01E29FC001E39FAF
:1002D000900DF29F900D1124FB01E80FF91F01967C
:1002E000680F791F018CF28DE02D842F09950895F8
:1002F000FC0160FF02C081E0858F61FD158E64FF07
:1003000002C081E0868F65FD168E74FF02C081E019
:10031000878F75FD178E80E090E0089599E2899FA0
:10032000C0011124835B9D4F0E94780108950895B8
:1003300099E2899FC0011124825B9D4F9093250310
:1003400080932403089599E2899FC0011124825B60
:100350009D4F9093270380932603089599E2899FE8
:10036000C0011124825B9D4F909329038093280341
:100370000895DC0111969C9111978C91981719F4AE
:100380002FEF3FEF0FC08C91FD01E80FF11D94811D
:100390008C9181508C938C91882311F48FE38C93F2
:1003A000292F30E0C9010895DC0111969C91119725
:1003B000915009F49FE38C91981719F42FEF3FEFB8
:1003C00008C0FD01E90FF11D648311969C9320E0A4
:1003D00030E0C9010895DC0113969C9113971296A1
:1003E0008C911297981719F4EFEFFFEF1AC012963D
:1003F0008C911297FD01E80FF11DEC5BFF4F90818E
:1004000012968C911297815012968C931297129695
:100410008C911297882319F48FE312968C93E92F0D
:10042000F0E0CF010895DC0113969C911397915051
:1004300009F49FE312968C911297981719F42FEFF5
:100440003FEF0AC0FD01E90FF11DEC5BFF4F608338
:1004500013969C9320E030E0C9010895E091660274
:10046000F091670285E36EE472E00995F7CF94E8B6
:10047000899FC0011124462F50E060E070E087534F
:100480009E4F0E94A10280E090E00895CF92DF92FB
:10049000EF92FF920F931F9399E2899FF00111242D
:1004A000E35BFD4FDF011D929A95E9F78083728B24
:1004B000618B548B438B368B258B108F078BF28E81
:1004C000E18ED48EC38EF286E1861487038783E0A3
:1004D0008483F687E5871F910F91FF90EF90DF905F
:1004E000CF9008950F931F930E94E5030E94FC0490
:1004F0000EE512E0E0915E02F0915F0280E060E0C4
:1005000070E045E150E10995E0918702F0918802A1
:1005100081E060E070E041E150E10995C801409759
:1005200090932503809324039093270380932603BD
:10053000075E1F4F10932903009328031F910F910B
:1005400008959A01AB0183E0220F331F441F551F0A
:100550008A95D1F760E074E284EF90E00E94B208DF
:10056000215030403093C5002093C400E0ECF0E00F
:1005700080818D7F808308950F931F93CF93DF93A6
:10058000EC010F8518898CA1882339F481E08CA3B4
:1005900078A76FA31AA259A348A348A159A18AA179
:1005A00090E09A01215030408217930744F0EFA168
:1005B000F8A5E40FF51F10822DE030E017C0C80148
:1005C0000E94B9019AA1EFA1F8A58A3049F4E90F78
:1005D000F11D10829F5F9AA31CA220E030E006C0AC
:1005E000E90FF11D80839F5F9AA3D7CFC901DF91E7
:1005F000CF911F910F910895DC011C96ED91FC9114
:100600001D97878590890E94B90190E008951F92F7
:100610000F920FB60F9211242F933F934F935F9336
:100620006F937F938F939F93AF93BF93EF93FF93BA
:100630006091C60089EC91E00E94D401FF91EF9196
:10064000BF91AF919F918F917F916F915F914F91EA
:100650003F912F910F900FBE0F901F9018951F92F2
:100660000F920FB60F9211242F933F934F935F93E6
:100670006F937F938F939F93AF93BF93EF93FF936A
:1006800089EC91E00E94EB018093C600FF91EF910D
:10069000BF91AF919F918F917F916F915F914F919A
:1006A0003F912F910F900FBE0F901F901895282FFC
:1006B000DB01E1ECF0E08081806280831C96ED91AB
:1006C000FC911D9787859089622F0E9413020895DF
:1006D000DF92EF92FF920F931F93D82E282F30E0D6
:1006E00089E290E0289F7001299FF00C389FF00C60
:1006F00011248DE492E0E80EF91E84E890E0289F32
:100700008001299F100D389F100D112407531E4F93
:10071000F701108B078784E8F80111928A95E9F7B1
:10072000C701BA010E94780181E0F80181838083CA
:1007300083838283E4E6F0E080818D7F8083ED2DEA
:10074000F0E0EE0FFF1FCF01A3E0880F991FAA95DD
:10075000E1F7E80FF91F709625E830E0E20FF31F8C
:10076000E491E093C000ED2DF0E0EE0FFF1FCF010C
:1007700063E0880F991F6A95E1F7E80FF91F7196FA
:10078000E20FF31FE491E093C1008D2D90E0880FFC
:10079000991FFC0143E0EE0FFF1F4A95E1F7E80FB8
:1007A000F91F3C96E20FF31F4591559165917491A5
:1007B000C8010E94A1020894E11CF11CC7011F910D
:1007C0000F91FF90EF90DF900895CF92DF92EF921C
:1007D000FF920F931F93E5E8F0E065917491E7E8CD
:1007E000F0E045915491E9E8F0E025913491EBE88F
:1007F000F0E005911491EDE8F0E0E590F490EFE879
:10080000F0E0C590D49080E00E9446021F910F91C5
:10081000FF90EF90DF90CF900895109223030895FA
:1008200081E08093230308950F931F93CF93DF9369
:10083000EC010F8518898CA1882339F481E08CA301
:1008400078A76FA31AA259A348A348A159A18AA1C6
:1008500090E09A01215030408217930744F0EFA1B5
:10086000F8A5E40FF51F10822DE030E017C0C80195
:100870000E94B9019AA1EFA1F8A58A3049F4E90FC5
:10088000F11D10829F5F9AA31CA220E030E006C0F9
:10089000E90FF11D80839F5F9AA3D7CFC901DF9134
:1008A000CF911F910F910895DC011C96ED91FC9161
:1008B0001D97878590890E94B9010895282FFB0113
:1008C0000484F585E02D87859089622F0E941302AC
:1008D00008951F920F920FB60F921124FF920F935B
:1008E0001F932F933F934F935F936F937F938F93B8
:1008F0009F93AF93BF93EF93FF93FEB40FE912E082
:10090000C8010E94EB018EBDC8016F2D0E94D40169
:10091000FF91EF91BF91AF919F918F917F916F91D7
:100920005F914F913F912F911F910F91FF900F90E9
:100930000FBE0F901F901895DF92EF92FF920F93CA
:100940001F93D82E19E2E12E8E9D700111248DE4A3
:1009500092E0E80EF91EDA9484E8D89E8001112412
:1009600001561D4FF701108B0787F80111928A95E8
:10097000E9F7C701BA010E94780181E0F80181839B
:10098000808383838283E4E6F0E080818B7F8083B1
:100990002CB58D2D90E0880F991FFC01A3E0EE0F80
:1009A000FF1FAA95E1F7E81BF90B3C9667E970E099
:1009B000E60FF71FE491E22BECBD44B18D2D90E0E2
:1009C000880F991F9C0153E0220F331F5A95E1F7BE
:1009D000281B390B235F3F4F620F731FFB0184916C
:1009E000842B84B90894E11CF11CC7011F910F915D
:1009F000FF90EF90DF900895CF92DF92EF92FF92F9
:100A00000F931F93E7E9F0E065917491E9E9F0E055
:100A100045915491EBE9F0E025913491EDE9F0E056
:100A200005911491EFE9F0E0E590F490E1EAF0E04F
:100A3000C590D49081E00E9446021F910F91FF90D3
:100A4000EF90DF90CF9008958FEF8093640014B8FB
:100A500017B81AB80895A1E1B0E0E1E3F5E00C940D
:100A6000D4083C017F876E876A01FC0117821682D9
:100A7000838181FD03C06FEF7FEF6FC39E012F5F06
:100A80003F4F398B288BF3012381EE85FF8523FDB2
:100A9000859123FF8191FF87EE87882309F45AC34C
:100AA000853251F4EE85FF8523FD859123FF8191E9
:100AB000FF87EE87853229F490E0B3010E94F9099F
:100AC000E2CF982F10E0882499241032B0F49B32A2
:100AD00069F09C3228F4903251F0933271F40BC0DB
:100AE0009D3239F0903349F4116028C012601460CF
:100AF00025C0186023C0106121C017FD2AC0892FAE
:100B000080538A3078F416FF06C0FAE09F9E902C3E
:100B10001124980E13C03AE0839E802C1124880E75
:100B200010620CC09E3221F416FD14C3106406C07E
:100B30009C3611F4106802C0983659F4EE85FF8592
:100B400023FD959123FF9191FF87EE87992309F06B
:100B5000BCCF892F8554833020F4812F8061905E33
:100B600007C0892F8556833008F09FC1812F8F7E63
:100B700086FD02C076E0972E6FE3F62EF8229536BA
:100B800019F4F0E4FF2A07C0963619F420E8F22A97
:100B900002C091109A94F7FE0AC03BE3391518F48D
:100BA0005CE3B52E02C0B92CB39427E009C047E03E
:100BB000491520F4BB2447E0942EF7CF292DBB2400
:100BC000C60104969D878C87F601608171818281C0
:100BD0009381AE014F5F5F4F0B2D0E940B096C019B
:100BE0000981202E332400FF04C003FD02C01DE252
:100BF00009C0F1FE02C01BE205C0F2FC02C010E019
:100C000001C010E2C1018C709070892BB9F11123E1
:100C100011F483E001C084E0881510F088240AC034
:100C2000881AF3FC07C080E290E0B3010E94F90942
:100C30008A94C9F7112329F0812F90E0B3010E9413
:100C4000F90923FE03C008E610E00EC00CE610E030
:100C50000BC0E114F10409F0805290E0B3010E944E
:100C6000F9090F5F1F4F05C0EF2CFF24F0E1EF22C1
:100C7000FF24F8018491882361F714C1F7FE12C0A4
:100C8000BC0C24FE04C08A81813309F4BA941B147D
:100C90001CF0BB24B3942DC0F8E0FB1550F538E0F0
:100CA000B32E27C0F6FC25C0892D90E08C159D053C
:100CB0004CF02CEFC2162FEFD20624F030E8F32AC6
:100CC00001C09A94992049F0E2E0F0E0EC0FFD1F9A
:100CD000E90DF11D80818033A1F3F7FE0AC0B92C24
:100CE000B394892D90E0C816D90614F0992401C058
:100CF0009C18F7FC03C025E030E009C01C141D045B
:100D00001CF021E030E003C096012F5F3F4F11231C
:100D100011F02F5F3F4F992029F0892D90E0019627
:100D2000280F391F882D90E02817390714F08824E0
:100D300001C0821A4F2C5524C20189709070892BF2
:100D400039F008C080E290E0B3010E94F9098A946A
:100D50008820C1F7112329F0812F90E0B3010E9470
:100D6000F90943FE07C008C080E390E0B3010E9488
:100D7000F9098A948820C1F7F7FE46C08601D7FE9C
:100D800002C000E010E076010894E11CF11CE01ABA
:100D9000F10A41E050E04C0F5D1FE40EF51E260104
:100DA0004B185108892D90E0AA24BB24A81AB90A2F
:100DB0005FEF0F3F150729F48EE290E0B3010E9428
:100DC000F909C016D10634F0401651061CF4F7019B
:100DD000808101C080E3015010400894E11CF11CA7
:100DE0000A151B052CF090E0B3010E94F909E0CF31
:100DF0000C151D0539F49A81963318F4953311F4C6
:100E000024FE81E390E04BC08A81813309F00F7E9C
:100E100090E0B3010E94F9099920A1F08EE290E0E0
:100E2000B3010E94F90912E0E1E0F0E0EC0FFD1FD0
:100E3000E10FF11D1F5F808190E0B3010E94F9096D
:100E40009A9491F744FC03C085E690E002C085E4E3
:100E500090E0B3010E94F909D7FC05C0C114D10488
:100E600041F404FF06C0D094C194D108D3948DE21C
:100E700001C08BE290E0B3010E94F90980E305C054
:100E80008F5F26EF3FEFC20ED31E3AE0C316D104A8
:100E9000BCF790E0B3010E94F909C601C096B30106
:100EA0000E94F909CC84DD8452C1933631F0933726
:100EB00099F0933509F059C023C0F60180818983E8
:100EC0005E010894A11CB11C22E030E0C20ED31ECA
:100ED00021E0E22EF12C12C0F601A080B18016FDB7
:100EE00003C06FEF7FEF02C0692D70E022E030E0B9
:100EF000C20ED31EC5010E94EE097C011F7713C0EC
:100F0000F601A080B18016FD03C06FEF7FEF02C035
:100F1000692D70E022E030E0C20ED31EC5010E94B0
:100F2000E3097C01106813FF07C01BC080E290E05A
:100F3000B3010E94F9098A94882D90E0E816F90619
:100F4000A8F30FC0F50117FD859117FF81915F018F
:100F500090E0B3010E94F90981108A940894E10895
:100F6000F108E114F10471F7F2C0943611F09936EA
:100F700089F517FF08C0F601208131814281538134
:100F800084E090E00AC0F601808191819C014427B1
:100F900037FD4095542F82E090E0C80ED91E9FE6A1
:100FA000F92EF12257FF09C05095409530952195B3
:100FB0003F4F4F4F5F4F90E8F92ACA01B901AE0188
:100FC0004F5F5F4F2AE030E00E944B0AE82EE8892D
:100FD000EE1A41C0953721F41F7E2AE030E01CC094
:100FE000197F9F3661F0903720F4983509F0B2C030
:100FF0000FC0903739F0983709F0ACC004C028E032
:1010000030E00AC0106114FD146020E130E004C03B
:1010100014FD166020E132E017FF08C0F601608180
:1010200071818281938144E050E008C0F6018081A3
:101030009181BC0180E090E042E050E0C40ED51EFA
:10104000AE014F5F5F4F0E944B0AE82E5889E51AA8
:101050008FE7F82EF122F6FE0BC08EEFF822E9148E
:1010600038F4F4FE07C0F2FC05C09FEEF92202C07E
:101070001E2D01C0192DF4FE0DC0FE01EE0DF11D57
:101080008081803319F4E9EEFE2208C01F5FF2FE72
:1010900005C003C08F2D867809F01F5F0F2DF3FC6C
:1010A00014C0F0FE0FC0181510F09E2C0BC09E2C23
:1010B000980C911A182D06C080E290E0B3010E94AE
:1010C000F9091F5F1815C0F304C0181510F4811A30
:1010D00001C0882404FF0FC080E390E0B3010E94A8
:1010E000F90902FF1DC001FD03C088E790E00EC0B2
:1010F00088E590E00BC0802F867891F001FF02C058
:101100008BE201C080E2F7FC8DE290E0B3010E9427
:10111000F90906C080E390E0B3010E94F9099A94AE
:10112000E914C0F3EA94E1E0F0E0EC0FFD1FEE0DEE
:10113000F11D808190E0B3010E94F909EE2091F742
:1011400006C080E290E0B3010E94F9098A948820E9
:10115000C1F799CCF30166817781CB016196E2E119
:101160000C94F008A1E21A2EAA1BBB1BFD010DC0B6
:10117000AA1FBB1FEE1FFF1FA217B307E407F50747
:1011800020F0A21BB30BE40BF50B661F771F881F23
:10119000991F1A9469F760957095809590959B01B9
:1011A000AC01BD01CF0108952F923F924F925F9203
:1011B0006F927F928F929F92AF92BF92CF92DF9267
:1011C000EF92FF920F931F93CF93DF93CDB7DEB7CC
:1011D000CA1BDB0B0FB6F894DEBF0FBECDBF099460
:1011E0002A88398848885F846E847D848C849B84B7
:1011F000AA84B984C884DF80EE80FD800C811B81C5
:10120000AA81B981CE0FD11D0FB6F894DEBF0FBEF3
:10121000CDBFED010895283008F027E03327DA012B
:10122000990F311D87FD916000966105710539F4B4
:1012300032602E5F3D9330E32A95E1F708959F3F9A
:1012400030F080387105610509F03C5F3C5F3D93EB
:10125000913008F08068911DDF93CF931F930F9317
:10126000FF92EF92192F987F9695E92F9695969574
:10127000E90FFF27E150FF4F99273327EE24FF2482
:10128000A701E70105900894079428F4360FE71E9C
:10129000F81E491F511D660F771F881F991F06945E
:1012A000A1F70590079428F4E70EF81E491F561F72
:1012B000C11D770F881F991F661F0694A1F705901F
:1012C000079428F4F80E491F561FC71FD11D880F19
:1012D000991F661F771F0694A1F70590079420F4C5
:1012E000490F561FC71FD81F990F661F771F881FEA
:1012F0000694A9F784911095177041F0D695C7957B
:1013000057954795F794E7941A95C1F7E5EAF0E009
:1013100068941590159135916591959105907FE2AE
:101320007395E118F10A430B560BC90BD009C0F7AE
:10133000E10CF11E431F561FC91FD01D7EF47033F0
:1013400011F48A95E6CFE894015030F0080F0AF4C2
:101350000027021708F4202F2395022F7A3328F054
:1013600079E37D932A95E9F710C07D932A9589F654
:10137000069497956795379517951794E118F10A94
:10138000430B560BC90BD00998F023957E917395AA
:101390007A3308F070E37C932013B8F77E91706184
:1013A0007D9330F0839571E37D9370E32A95E1F7A7
:1013B0001124EF90FF900F911F91CF91DF9199270A
:1013C00087FD90950895FC010590615070400110D3
:1013D000D8F7809590958E0F9F1F0895FC0161505E
:1013E000704001900110D8F7809590958E0F9F1F47
:1013F00008950F931F93CF93DF938C01EB018B81A3
:1014000081FF1BC082FF0DC02E813F818C819D8199
:101410002817390764F4E881F9810193F983E88397
:1014200006C0E885F985802F0995892B31F48E81D6
:101430009F8101969F838E8302C00FEF1FEFC8012B
:10144000DF91CF911F910F910895A0E0B0E0EBE202
:10145000FAE00C94E408FE01359661917191A09137
:101460002603B091270313968C91139788601396E7
:101470008C938091260390912703AF010E942B0546
:10148000E0912603F09127032381277F2383209671
:10149000E2E00C940009FA01AA27283051F120312A
:1014A00081F1E8946F936E7F6E5F7F4F8F4F9F4FF8
:1014B000AF4FB1E03ED0B4E03CD0670F781F891F3A
:1014C0009A1FA11D680F791F8A1F911DA11D6A0F08
:1014D000711D811D911DA11D20D009F468943F91BB
:1014E0002AE0269F11243019305D3193DEF6CF01BA
:1014F0000895462F4770405D4193B3E00FD0C9F780
:10150000F6CF462F4F70405D4A3318F0495D31FDEC
:101510004052419302D0A9F7EACFB4E0A69597953F
:10152000879577956795BA95C9F700976105710515
:1015300008959B01AC010A2E06945795479537955F
:101540002795BA95C9F7620F731F841F951FA01DB9
:061550000895F894FFCF9E
:00000001FF
