:100000000C94BD010C94DA010C94DA010C94DA0121
:100010000C94DA010C94DA010C94DA010C94DA01F4
:100020000C94DA010C94DA010C94DA010C94DA01E4
:100030000C94DA010C94DA010C9465070C94DA0143
:100040000C94DA010C94BC070C94CC050C94950527
:100050000C94DA010C94DA010C94DA010C94DA01B4
:100060000C94DA010C94DA016E616E00696E660020
:10007000D300D800E300ED000A00493A25312E33C1
:10008000662020004572723A25312E33662020000A
:100090005374644465763A25312E3366202000502F
:1000A000574D3A25312E336620200054656D703A45
:1000B00025312E33662020000A4465766963652069
:1000C000496E697469616C697A65642025312E30E6
:1000D000660A0020204F4B00202053687574646F1F
:1000E000776E00202048656174696E670020205299
:1000F0004547554C4154454400486561746572203C
:1001000054696D656F7574204572726F7220536803
:100110007574646F776E0A0048656174657220417A
:100120006D6269656E74204572726F7220536875D6
:1001300074646F776E0A0048656174657220536558
:100140006E736F72204572726F722053687574649B
:100150006F776E0A00737973006662000000000713
:10016000EB01C60D4B0D650D5006C3F5C04073790C
:100170007300667600000000070702C60D4B0D6590
:100180000D5406CDCCCC3D73797300687600000029
:1001900000072502C60D4B0D650D5806CDCCCC3D94
:1001A00000000000737973000000004302450DD386
:1001B0000F820DA50200000000000000007379739B
:1001C000000000004302450DD30F820DA502000080
:1001D0000000000000002400000000000043024571
:1001E0000D460D430DA502000000005B66625D2018
:1001F000206669726D77617265206275696C64252D
:1002000031382E32660A005B66765D2020666972A0
:100210006D776172652076657273696F6E25313610
:100220002E32660A005B68765D2020686172647712
:100230006172652076657273696F6E2531362E3274
:10024000660A0000494E46494E4954594E414ECD2A
:10025000CCCC3D0AD7233C17B7D13877CC2B32957D
:1002600095E6241FB14F0A000020410000C842005B
:10027000401C4620BCBE4CCA1B0E5AAEC59D740025
:10028000407A10F35A00A0724E18090010A5D4E865
:100290000000E87648170000E40B54020000CA9AF8
:1002A0003B000000E1F5050000809698000000404A
:1002B000420F000000A0860100000010270000008F
:1002C00000E803000000006400000000000A0000D5
:1002D0000000000100000000002C76D888DC674F89
:1002E0000823DFC1DFAE59E1B1B796E5E3E453C6B9
:1002F0003AE651997696E8E6C28426EB898C9B62B1
:10030000ED407C6FFCEFBC9C9F40F2BAA56FA5F45A
:1003100090055A2AF75C936B6CF9676DC11BFCE082
:10032000E40D47FEF520E6B500D0ED902E030094D5
:100330003577050080841E080000204E0A0000006A
:10034000C80C333333330F986E12831141EF8D2174
:1003500014893BE65516CFFEE6DB18D1844B381BDB
:10036000F77C1D901DA4BBE424203284725E2281A0
:1003700000C9F124ECA1E53D270011241FBECFEFF9
:10038000D8E0DEBFCDBF12E0A0E0B1E0E0E2F0E4F3
:1003900002C005900D92A43AB107D9F716E0A4EA7D
:1003A000B2E001C01D92A737B107E1F70E94180320
:1003B0000C940E200C9400008E3249F08D3239F0EE
:1003C0008B3229F020E090E0C0970A9708F421E0F2
:1003D000822F08952F923F924F925F926F927F9259
:1003E0008F929F92AF92BF92CF92DF92EF92FF9245
:1003F0000F931F93DF93CF9300D000D0CDB7DEB71C
:10040000D62E5A834983662329F460E070E080E0A9
:1004100090E057C09C838B830F2EF0E02F2EF0E0EE
:100420003F2EF0E04F2EF0E05F2EF02DAA24420187
:1004300031011DC0EB81FC81E190F190019111919E
:10044000FC83EB83C401B301A80197010E949C18AF
:100450003B014C01C801B7010E94F31A9B01AC019A
:10046000C201B1010E949C181B012C01A394AD1480
:1004700008F36D2D70E0882777FD8095982F0E94F6
:100480009A195B016C01C401B301A60195010E9498
:1004900004199B01AC01E981FA81208331834283F5
:1004A00053830E94F31A7B018C01C201B101A601A2
:1004B00095010E940419A80197010E949B180E94AF
:1004C000B51A0F900F900F900F90CF91DF911F9161
:1004D0000F91FF90EF90DF90CF90BF90AF909F90E3
:1004E0008F907F906F905F904F903F902F900895E6
:1004F000089500D000D000D08BEA90E0EDB7FEB7B1
:10050000928381838091000490910104A091020460
:10051000B091030483839483A583B6830E94FD1E58
:100520008FE990E0EDB7FEB7928381838091D40389
:100530009091D503A091D603B091D7038383948380
:10054000A583B6830E94FD1E80E990E0EDB7FEB75B
:10055000928381838091040490910504A091060404
:10056000B091070483839483A583B6830E94FD1E04
:1005700084E890E0EDB7FEB7928381838091E00339
:100580009091E103A091E203B091E303838394830C
:10059000A583B6830E94FD1E8AE790E0EDB7FEB703
:1005A000928381838091E8039091E903A091EA030B
:1005B000B091EB0383839483A583B6830E94FD1ED1
:1005C0008091AC03E82FF0E0EE0FFF1FE059FF4FE2
:1005D000859194910F900F900F900F90EDB7FEB70B
:1005E000928381830E94FD1E88E790E0EDB7FEB7FD
:1005F000928381830E94FD1E0F900F90089500D07A
:1006000000D088EB90E0EDB7FEB7928381838AE259
:1006100090E0948383830E94FD1E0F900F900F90B3
:100620000F90089580E060E071E00E949E040895BC
:10063000F8940E9430060E94EF040E9478020E9403
:10064000270F80E00E9437060E946B060E94500729
:100650000E9476070E94250B0E94B90C78940E9494
:10066000FF0280E060E071E00E949E040E948A0721
:100670008230E1F38091A9026CEA72E040E850E038
:100680000E9459038093A402882381F78CEA92E0A8
:100690000E946A14EBCFE82FF0E0EE0FFF1FE45941
:1006A000FB4F0190F081E02D0180F281E02D099552
:1006B0000895E82FF0E0EE0FFF1FE459FB4F019083
:1006C000F081E02D25813681CF01F901099508954A
:1006D000E82FF0E0EE0FFF1FE459FB4F0190F0818F
:1006E000E02D27813085CF014396F90109950895C2
:1006F000E82FF0E0EE0FFF1FE459FB4F0190F0816F
:10070000E02D21853285862F7396BF01F901099569
:100710000895E82FF0E0EE0FFF1FE459FB4F8081B2
:10072000918143969093700680936F060895E82F09
:10073000F0E0EE0FFF1FE459FB4F8081918143965B
:1007400090937206809371060895E82FF0E0EE0F03
:10075000FF1FE459FB4F808191814396909374066B
:100760008093730608950895FC0160FF02C081E044
:1007700081A361FD11A264FF02C081E082A365FD37
:1007800012A274FF02C081E083A375FD13A280E072
:1007900090E00895CF93DF93EC01ED85FE853097CF
:1007A00029F081E08283ED85FE858183EF85F889DC
:1007B000309729F081E08283EF85F88981831CA23C
:1007C0001DA21EA2CE010E94B40389859A859C8F2A
:1007D0008B8F8F8198859E8F8D8F83E08E8BD8A392
:1007E000CF8FDF91CF910895E82FF0E0EE0FFF1F3C
:1007F000E459FB4F808191810E94B4030895282F12
:10080000FB010484F585E02DA785B08912969C91A3
:100810001297915009F49C9111968C911197981709
:1008200011F42FEF07C0FD01E90FF11D238312968C
:100830009C9320E0332727FD3095C9010895FC01E2
:1008400092818181981711F48FEF089581818150F1
:1008500081838181882311F4808181838181E80FE4
:10086000F11D83810895CF93DF93EC018CA1882340
:1008700039F481E08CA37BA76AA719A658A74FA3D8
:100880004FA158A589A590E09A01215030408217C8
:10089000930744F0EAA5FBA5E40FF51F10822DE0B5
:1008A00030E023C08D859E850E941F04282F3327AA
:1008B00027FD30958FEF2F3F3807A9F099A5EAA5BE
:1008C000FBA52A30310549F4E90FF11D10829F5F25
:1008D00099A71CA220E030E008C0E90FF11D208399
:1008E0009F5F99A7CDCF22E030E0C901DF91CF9182
:1008F0000895DC011C96ED91FC911D9785859685E8
:100900000E941F04282F332727FD3095C901089521
:10091000DC0112969C911297915009F49C911196CA
:100920008C911197981711F48FEF0895FD01E90F3D
:10093000F11D638312969C9380E00895CF93DF931B
:1009400020E0C82FD0E0CC0FDD1FC459DB4F16C00C
:10095000E881F981A585B68512969C9112979150F0
:1009600009F49C9111968C911197981731F0FD0123
:10097000E90FF11D338312969C932F5FFB01E20F69
:10098000F11D3081332321F7DF91CF9108950F932B
:100990001F93CF93DF930DE016E0CBE0D1E0E09121
:1009A0006E04F0916F0425813681CF016DE076E011
:1009B00040E450E0F901099580934F06882379F7C8
:1009C00000D000D0EDB7FEB7D283C1831483038378
:1009D0000E94E81E0F900F900F900F90E0CF80E0E4
:1009E0000E94460590936D0480936C0481E00E9400
:1009F000B70790936F0480936E0482E00E9479148D
:100A00009093710480937004E0916C04F0916D04F4
:100A10000180F281E02D80E060E070E045E150E18E
:100A20000995E0916E04F0916F040180F281E02D50
:100A300081E060E070E040E050E1099580916C0455
:100A400090916D0443969093700680936F069093F7
:100A500072068093710680916E0490916F044396A4
:100A600090937406809373060895462FE82FF0E064
:100A7000EE0FFF1FE459FB4F50E060E070E0808113
:100A800091810E944B0580E090E0089580935C0185
:100A90008CE591E008959A01AB0183E0220F331FAA
:100AA000441F551F8A95D1F760E074E284EF90E00F
:100AB0000E940B1B215030403093C5002093C4008E
:100AC000E0ECF0E080818D7F808308950F931F9389
:100AD000CF93DF93FC01C485D5858D859E850E94CB
:100AE0001F04082F112707FD1095EB85FC85CE010B
:100AF00009958AA1882341F0609171067091720670
:100B0000E985FA85802F09950D30110519F00A3015
:100B1000110529F48BA1882311F00AE010E0C80127
:100B2000DF91CF911F910F9108951F920F920FB6F1
:100B30000F9211242F933F934F935F936F937F9363
:100B40008F939F93AF93BF93EF93FF9380916B012C
:100B500090916C010E941F04992787FD90952FEFBB
:100B60008F3F920731F48091C1008F7D8093C10047
:100B700002C08093C600FF91EF91BF91AF919F910A
:100B80008F917F916F915F914F913F912F910F9036
:100B90000FBE0F901F9018951F920F920FB60F92D5
:100BA00011242F933F934F935F936F937F938F9372
:100BB0009F93AF93BF93EF93FF936091C600809193
:100BC000690190916A010E948804FF91EF91BF91A1
:100BD000AF919F918F917F916F915F914F913F91D5
:100BE0002F910F900FBE0F901F901895282FFB018B
:100BF0000484F585E02D87859089622F0E94880402
:100C0000E1ECF0E0908190629083282F332727FD5C
:100C10003095C90108950F931F93E82FF0E0EE0F70
:100C2000FF1FE459FB4F00811181C801BA010E94E6
:100C3000CA03E4E6F0E080818D7F80831092C000DB
:100C400088E98093C100C80140E052EC61E070E0A7
:100C50000E944B050D5E1F4FC8011F910F91089513
:100C60008FEF8093640014B817B81AB80895E4E6BB
:100C7000F0E090819E7F9083982F9064ECE7F0E005
:100C8000908396E890937A009081907F90839081F2
:100C9000908321E030E002C0220F331F8A95E2F7F3
:100CA00020937E00089580917A00806480937A007A
:100CB00080917A0080917A00806180937A0080919F
:100CC000780090917900892B71F320917800309110
:100CD0007900C9010895539AE4E6F0E080818F7BA2
:100CE0008083E0EBF0E080EF80838081836080830D
:100CF000E1EBF0E088E08083808184608083109263
:100D00006F001092B3001092B40080E090E0A0E079
:100D1000B0E08093C7049093C804A093C904B09333
:100D2000CA040895EF92FF920F931F939B01AC01A9
:100D300060E074E284E798E40E9404197B018C016E
:100D40006093C7047093C8048093C9049093CA0445
:100D500020E030E040EA51E40E940019882314F4B6
:100D600084E10BC0C801B70120E030E04FE753E455
:100D70000E944A1A882324F08FEF8093B30006C0A4
:100D8000C801B7010E946C196093B30080E01F9105
:100D90000F91FF90EF900895AF92BF92CF92DF92A4
:100DA000EF92FF920F931F935B016C012AE037EDE6
:100DB00043E25CE30E940019882324F48FEF8093C0
:100DC000B40030C0C601B5012DEC3CEC47EC52E458
:100DD0000E944A1A18161CF41092B40023C06091A5
:100DE000B30070E0882777FD8095982F0E949A19AC
:100DF0007B018C01C601B50120E030E048EC52ECEB
:100E00000E94041920E030E040E85FE30E949C1853
:100E10009B01AC01C801B7010E944E1A0E946C19D7
:100E20006093B4006091C7047091C8048091C904B4
:100E30009091CA040E946C196093B30080E01F91E6
:100E40000F91FF90EF90DF90CF90BF90AF900895FB
:100E5000AF92BF92CF92DF92EF92FF920F931F93C8
:100E60007B018C0159016A010E946B06C801B70120
:100E70000E949206C601B5010E94CC061F910F91F7
:100E8000FF90EF90DF90CF90BF90AF90089560E01B
:100E900070E080E090E09B01AC010E94280708957B
:100EA000E4E6F0E080818F7D808392E094BD83E072
:100EB00085BD8DE787BD90936E008AE08093C40462
:100EC0008093C5048093C60408951F920F920FB6B5
:100ED0000F9211248F9381E08093C3048F910F9020
:100EE0000FBE0F901F90189508950895539A5A9A1F
:100EF00008955A9808955A9A08958BB1882311F04D
:100F00005A9808955A9A08950E94980908950E943F
:100F1000970B08951F938091C304882311F483E0F5
:100F200024C01092C3040E94970B8091C404815086
:100F30008093C4048823C1F41AE01093C404809100
:100F4000C50481508093C504882371F41093C504AF
:100F50000E9498098091C60481508093C60488231A
:100F600019F41093C60401C080E01F910895809386
:100F70000E028EE092E008951F920F920FB60F922C
:100F800011241F932F933F934F935F936F937F93FE
:100F90008F939F93AF93BF93EF93FF931EB5809171
:100FA0001D0290911E020E941F04992787FD9095B3
:100FB0002FEF8F3F920709F483E08EBD80911B02D3
:100FC00090911C02612F0E948804FF91EF91BF91C4
:100FD000AF919F918F917F916F915F914F913F91D1
:100FE0002F911F910F900FBE0F901F9018950F9388
:100FF0001F93E82FF0E0EE0FFF1FE459FB4F008135
:101000001181C801BA010E94CA03E4E6F0E08081C0
:101010008B7F80838CB58C6C8CBD249A0D5E1F4FAA
:10102000C8011F910F91089520E030E040E050E0AA
:101030002093D4033093D5034093D6035093D70322
:1010400080E090E0A8E4B3E48093E8039093E903A0
:10105000A093EA03B093EB032093E4033093E503FA
:101060004093E6035093E70308956F927F928F9227
:101070009F92AF92BF92CF92DF92EF92FF920F9327
:101080001F937B018C018091D203882349F47091D6
:10109000DC036091DD039091DE038091DF03DDC00E
:1010A000C801B7010E949B183B014C016093E0030B
:1010B0007093E1038093E2039093E3039F772DEC19
:1010C0003CEC4CEC5DE30E944A1A181684F56091E2
:1010D000D4037091D5038091D6039091D7032091CA
:1010E000D8033091D9034091DA035091DB030E9479
:1010F00000198823E4F4C401B3012DEC3CEC4CEC62
:101100005DE30E944E1A9B01AC016091E80370916F
:10111000E9038091EA039091EB030E949C1860938D
:10112000E8037093E9038093EA039093EB03C4010F
:10113000B3012091E4033091E5034091E60350911F
:10114000E7030E949B182DEC3CEC4CEC5DE30E9405
:1011500004195B016C016093EC037093ED038093C1
:10116000EE039093EF03C401B3012091F00330919B
:10117000F1034091F2035091F3030E944E1A7B0158
:101180008C016091F4037091F5038091F6039091C6
:10119000F7032091E8033091E9034091EA0350916D
:1011A000EB030E944E1A9B01AC01C801B7010E94DB
:1011B0009C187B018C01C601B5012091F803309188
:1011C000F9034091FA035091FB030E944E1A9B01D0
:1011D000AC01C801B7010E949C187B018C0160938F
:1011E000D4037093D5038093D6039093D703A09034
:1011F000D803B090D903C090DA03D090DB03A601E6
:1012000095010E944A1A181684F0A090DC03B09051
:10121000DD03C090DE03D090DF03C801B701A60153
:1012200095010E940019882344F4A092D403B0923F
:10123000D503C092D603D092D7036092E403709294
:10124000E5038092E6039092E7037091D4036091E6
:10125000D5039091D6038091D703272F362F492F9E
:10126000582FB901CA011F910F91FF90EF90DF90A5
:10127000CF90BF90AF909F908F907F906F90089588
:101280008AE2E2EDF3E0DF011D928A95E9F780E062
:1012900090E0A0EAB0E48093F0039093F103A09370
:1012A000F203B093F3038DEC9CECACECBDE38093C4
:1012B000F4039093F503A093F603B093F70380E053
:1012C00090E0A0E0BFE38093F8039093F903A0932C
:1012D000FA03B093FB0380E090E0A8ECB2E48093C3
:1012E000D8039093D903A093DA03B093DB0380E093
:1012F00090E0A0E0B0E08093DC039093DD03A09346
:10130000DE03B093DF0381E08093D20308950F934F
:101310001F93182F062F0E9447070E94700B1093EF
:10132000AC030093AD030E947B071F910F910895BA
:10133000AF92BF92CF92DF92EF92FF920F931F93E3
:101340008091AC03823008F413C10E9479020E949C
:101350007F0B6093B2037093B3038093B4039093B5
:10136000B5032091CE033091CF034091D00350912B
:10137000D1030E944A1A18162CF481E063E00E94FF
:101380008709F6C00E94730BE090B203F090B3039C
:101390000091B4031091B503C801B70123E333E909
:1013A00048E853EC0E940019882394F48091B1031B
:1013B0008F5F8093B1039091B003981708F0D8C065
:1013C00081E064E00E94870900D087E391E058C083
:1013D0001092B1036091B6037091B7038091B80386
:1013E0009091B903A80197010E9435080E94CC068C
:1013F0008091AC03823009F070C06091BE0370919F
:10140000BF038091C0039091C1032DEC3CEC4CECE8
:101410005DE30E949C187B018C016093BE03709376
:10142000BF038093C0039093C103A090B203B09018
:10143000B303C090B403D090B503C601B5012091A9
:10144000CA033091CB034091CC035091CD030E944D
:1014500000198823F4F4C801B7012091C203309128
:10146000C3034091C4035091C5030E944A1A181641
:1014700084F481E061E00E94870900D088E191E076
:10148000EDB7FEB7928381830E94FD1E0F900F90EF
:101490006FC0C601B5012091B6033091B7034091EA
:1014A000B8035091B9030E9400198823B4F4C8010D
:1014B000B7012091C6033091C7034091C8035091F2
:1014C000C9030E944A1A181644F481E062E00E949F
:1014D000870900D089EF90E0D3CF6091E00370914D
:1014E000E1038091E2039091E3039F772091BA0397
:1014F0003091BB034091BC035091BD030E94001981
:10150000181664F08091AF038F5F8093AF038B3028
:10151000ECF08AE08093AF0383E016C08091AF03C4
:1015200081508093AF0318168CF01092AF0380E0C7
:1015300090E0A0E0B0E08093BE039093BF03A0933F
:10154000C003B093C10382E08093AC038091AC03ED
:10155000833019F40E9479070BC08091AE038F5F2E
:101560008093AE03843020F01092AE030E947D077A
:101570001F910F91FF90EF90DF90CF90BF90AF90B1
:101580000895AF92BF92CF92DF92EF92FF920F93A6
:101590001F935B016C018091AC038250823008F490
:1015A0004BC00E946C0B0E94730B0F2EF0E0EF2ECD
:1015B000F0E0FF2EF0E00F2FF0E01F2FF02DE09273
:1015C000D403F092D5030093D6031093D70380E0A1
:1015D00090E0A8E4B3E48093E8039093E903A09338
:1015E000EA03B093EB03E092E403F092E503009387
:1015F000E6031093E70360E070E08AE794E4A80153
:1016000097010E942807A092B603B092B703C09238
:10161000B803D092B9031092AF031092B103E092D5
:10162000BE03F092BF030093C0031093C10382E096
:101630008093AC030E947B071F910F91FF90EF9066
:10164000DF90CF90BF90AF90089586E2ECEAF3E090
:10165000DF011D928A95E9F780E090E0A0E4B0E414
:101660008093BA039093BB03A093BC03B093BD03D4
:1016700080E090E0A4EBB2E48093C2039093C303B4
:10168000A093C403B093C50320E030E046E953E4DF
:101690002093C6033093C7034093C8035093C903F4
:1016A00080E090E0A0E2B2E48093CA039093CB0381
:1016B000A093CC03B093CD032093CE033093CF03FC
:1016C0004093D0035093D10385E08093B0030E94F0
:1016D000B90C0E944009089581E08093FC030895AD
:1016E0001092FC0308951092FE0381E08093FD03A5
:1016F00008958091FC0308958091FD0308958091E1
:10170000FC03833029F070E060E099E883EC08C0C6
:10171000709100046091010490910204809103048F
:10172000272F362F492F582FB901CA0108952F921C
:101730003F924F925F927F928F929F92AF92BF9211
:10174000CF92DF92EF92FF920F931F93DF93CF938D
:10175000CDB7DEB728970FB6F894DEBF0FBECDBF6A
:101760008091FC03882309F4ECC08091FD03813053
:1017700009F0E7C08091FE03082F10E00E94530695
:10178000000F111F000F111F085E1B4FA0E0B0E0FB
:10179000BC01CD010E94981926E03FEA4AEF5EE3C2
:1017A0000E944E1A23ED31EB46ED5EE30E949B183A
:1017B000D8016D937D938D939C9313978091FE0335
:1017C0008F5F8093FE03843108F4BBC088E194E00E
:1017D00064E1AE014F5F5F4F0E94EA017B018C0123
:1017E00060930404709305048093060490930704A7
:1017F00020910C0430910D0440910E0450910F047F
:101800000E944A1A181624F482E08093FC0397C0C1
:101810001092FF0380E090E0A0E0B0E0809300042D
:1018200090930104A0930204B093030489819A81E8
:10183000AB81BC818D839E83AF83B887C801B7011C
:10184000209108043091090440910A0450910B043E
:101850000E944E1A1B012C0198E1892E94E0992ECA
:1018600077240F2EF0E0EF2EF0E0FF2EF0E00F2FA8
:10187000F0E01F2FF02DD401AD90BD90CD90DC9005
:10188000C601B5012D813E814F8158850E949B186C
:101890009F77A20191010E94001988234CF4C8018E
:1018A000B701A60195010E949C187B018C017394DD
:1018B000E4E0F0E08E0E9F1EF8E68F16F4E09F063F
:1018C000D1F67092FF03672D70E0882777FD809531
:1018D000982F0E949A199B01AC01C801B7010E9480
:1018E00004197B018C0160930004709301048093C0
:1018F00002049093030483E0D82ED092FC0310924C
:10190000FD03C801B70120E030E048EC53E40E9439
:101910004A1A181634F482E08093FC03D092FD0337
:1019200010C0C801B70120E030E040E050EC0E9458
:101930000019882334F482E08093FC0384E08093D0
:10194000FD0328960FB6F894DEBF0FBECDBFCF9132
:10195000DF911F910F91FF90EF90DF90CF90BF909C
:10196000AF909F908F907F905F904F903F902F907F
:10197000089580E7ECEFF3E0DF011D928A95E9F727
:1019800083E393E9A8E8B3EC809300049093010407
:10199000A0930204B09303048DEC9CECACE8BFE38D
:1019A0008093080490930904A0930A04B0930B0455
:1019B00080E090E0A0EAB1E480930C0490930D04E1
:1019C000A0930E04B0930F0480E090E0A8ECB3E481
:1019D0008093100490931104A0931204B093130405
:1019E00080E090E0A0E0B0EC8093140490931504A4
:1019F000A0931604B0931704089590E0853009F47D
:101A000091E0892F0895DC0114969C9114979630EB
:101A100010F088E2089589E1989FC00111248A5945
:101A20009E4FFC0125913491CD01F901099508954E
:101A3000DC0114969C911497963010F088E208957A
:101A400089E1989FC00111248C599E4FFC0125917A
:101A50003491CD01F90109950895DC0114969C910A
:101A60001497963060F489E1989FC00111248E5933
:101A70009E4FFC0125913491CD01F90109950895FE
:101A8000089580E0089583E00895089521E0FC0121
:101A9000268383E008959C01FC01948189E1989F4D
:101AA000C001112488599E4FFC01A591B4918D91DC
:101AB0009D910D90BC91A02DF90187839087A187FE
:101AC000B28784E0868380E00895CF93DF939C0102
:101AD000FC01948189E1989FC001112488599E4F8F
:101AE000FC01C591D491F90187819085A185B285CA
:101AF00088839983AA83BB8384E0868380E0DF9117
:101B0000CF9108951F93CF93DF93EC0180916006EE
:101B1000882311F488E216C010E00A80DB81C02D12
:101B2000209779F08E81882361F0813021F4CE01F5
:101B30000E94180D03C0CE010E94030D1F5F1B30D1
:101B400061F780E0DF91CF911F910895FC0116822B
:101B5000148280E090E0A0E0B0E087839087A187C6
:101B6000B2871386118A168A158AA081B1811097CF
:101B700011F4158209C016968C91169715969C91B2
:101B8000873009F49F5F9583CF010895CF92DF924C
:101B9000EF92FF920F931F93DF93CF93CDB7DEB7F2
:101BA000C155D0400FB6F894DEBF0FBECDBF8C013B
:101BB0000E94180DC0907306D0907406D801149638
:101BC0009C9189E1989FF0011124E05AFE4F6591A4
:101BD00074917E010894E11CF11CC70140E550E0BE
:101BE0000E94CB1DEDB7FEB738970FB6F894FEBF35
:101BF0000FBEEDBF3196ADB7BEB71296DC92CE9256
:101C00001197F382E282D80117962D913D914D9163
:101C10005C911A9724833583468357830E947F1EE5
:101C2000EDB7FEB738960FB6F894FEBF0FBEEDBF06
:101C3000CF5ADF4F0FB6F894DEBF0FBECDBFCF91A6
:101C4000DF911F910F91FF90EF90DF90CF9008955B
:101C5000982F80916006813069F4413019F042304C
:101C600049F405C082EE94E00E949A120895892FEB
:101C70000E94AB120895EF92FF920F931F93CF93A0
:101C8000DF939C017A018B01C2EED4E090E08E815B
:101C9000882349F00A80DB81C02D9F5F9C30B9F713
:101CA000C0E0D0E00DC0CE010B96B90145E050E098
:101CB0000E940B1EEF82F88609871A8784E08E83C4
:101CC000CE01DF91CF911F910F91FF90EF9008957A
:101CD000EF92FF920F931F93CF93DF939C017A01B2
:101CE0008B01C2EED4E090E08E81882349F00A8017
:101CF000DB81C02D9F5F9C30B9F7C0E0D0E011C000
:101D0000CE010B96B90145E050E00E940B1EC801C0
:101D1000B7010E9498196F83788789879A8783E033
:101D20008E83CE01DF91CF911F910F91FF90EF90A5
:101D30000895EF92FF920F931F93CF93DF93EC01DF
:101D4000F62EE72E8091720490E0A62FB72FFD01AA
:101D500001900020E9F73197EA1BFB0BE80FF91F10
:101D6000E135F10510F08DE018C08C010D581B4FC6
:101D7000C8010E94041EEF2DFE2DDF010D900020F2
:101D8000E9F71197AE1BBF0B809172048F5F8A0F2A
:101D9000809372041E8B0D8B80E0DF91CF911F9199
:101DA0000F91FF90EF900895EF92FF920F931F9382
:101DB000DF93CF93CDB7DEB7C055D0400FB6F894C0
:101DC000DEBF0FBECDBF8C017E010894E11CF11C6B
:101DD000C70140E550E00E94CB1DC801B7010E9439
:101DE000990EC05BDF4F0FB6F894DEBF0FBECDBFBC
:101DF000CF91DF911F910F91FF90EF900895109276
:101E00007204E4EBF4E021E0F08FE78BCF018E96D3
:101E1000928F818F138E248F158E12A2779685E074
:101E2000E63FF80789F7138212821092CC041092D1
:101E3000CB041092D00487E08093D10486ED94E027
:101E40006AE372E00E94041E82EE94E00895DF923D
:101E5000EF92FF920F931F93CF93DF930E94FF0E99
:101E6000EC0181E08093600680E090E0A0E8BFE3B1
:101E70008F839887A987BA871C828E01055F1F4FC1
:101E800099E1E92EF12C89E1D82E28C0842F90E029
:101E90008E9D90018F9D300D9E9D300D1124F90176
:101EA000E15AFE4FE491E0FF16C0F901E659FE4FFA
:101EB00085919591A591B4918F839887A987BA87C9
:101EC0004D9DB0011124675A7E4FC8010E94AC1D80
:101ED000CE010E94030D8C818F5F8C834C81463034
:101EE000A8F2DF91CF911F910F91FF90EF90DF90BB
:101EF0000895DF92EF92FF920F931F93CF93DF939A
:101F0000EC011C81163008F046C00E94A60D1C830F
:101F100031E1E32EF12CEC0EFD1E29E1D22E1D9DA8
:101F2000B00111246B5A7E4FC7010E94AC1D8E0177
:101F3000055F1F4F6C816D9DB0011124675A7E4F64
:101F4000C8010E94AC1D89898823C1F0EC81ED9DF8
:101F5000F0011124E15AFE4FE491E2FF02C0198A18
:101F60000DC0F70101900020E9F7EE19FF093A963C
:101F7000EC0FFD1FC801BF010E94041E8C8199E176
:101F8000899FC00111248C599E4FFC0125913491E9
:101F9000CE01F9010995DF91CF911F910F91FF902B
:101FA000EF90DF9008958F929F92AF92BF92CF9261
:101FB000DF92EF92FF920F931F93DF93CF9300D0A6
:101FC00000D0CDB7DEB77C015BE0C52ED12CC80EAA
:101FD000D91E87E0F701868300E010E049E1842EF6
:101FE000912C5E010894A11CB11C089DB001099DB3
:101FF000700D189D700D11246B5A7E4FC5010E9403
:10200000AC1DC601B5010E94FB1D009749F487E194
:1020100090E0E80EF91EF7010483C7010E94790FD2
:102020000F5F1F4F0630110501F780E00F900F90F2
:102030000F900F90CF91DF911F910F91FF90EF9034
:10204000DF90CF90BF90AF909F908F900895EF92C8
:10205000FF920F931F93DF93CF9300D000D000D057
:10206000CDB7DEB79C017B018E010F5F1F4FC8010A
:10207000B9010E94041EC801B7010E94E51DE98054
:10208000BA81AB817C816D8140E050E009E110E0D4
:10209000842F409F9001419F300D509F300D11249F
:1020A000F901E75AFE4FE491EE1561F5F901E65AA0
:1020B000FE4F9491992319F4BB2321F52AC09B1755
:1020C00009F5F901E55AFE4F9491992319F4AA23D1
:1020D000C9F41FC09A17B1F4F901E45AFE4F949164
:1020E000992319F4772371F414C0971759F4F9015F
:1020F000E35AFE4FE491EE2319F4662319F409C064
:10210000E61739F04F5F5F4F4630510509F0C0CFF9
:102110008FEF26960FB6F894DEBF0FBECDBFCF91DE
:10212000DF911F910F91FF90EF900895EF92FF9232
:102130000F931F93CF93DF939C017B0190E0C2EE3E
:10214000D4E08E81882339F00A80DB81C02D9F5F27
:102150009C30B9F718C08E01055F1F4FC801B90147
:1021600045E050E00E940B1ECE01B7010E94990E7F
:10217000882349F48CE392E0B8010E9427108C83F5
:1021800085E08E8302C0C0E0D0E0CE01DF91CF9128
:102190001F910F91FF90EF9008950F931F93DF937E
:1021A000CF93CDB7DEB7C054D0400FB6F894DEBFA2
:1021B0000FBECDBF00D000D08E010F5F1F4FEDB717
:1021C000FEB712830183948383830E94471F0F907D
:1021D0000F900F900F908DE392E0B8010E9496103F
:1021E000C05CDF4F0FB6F894DEBF0FBECDBFCF91FE
:1021F000DF911F910F910895BC018DE392E00E9441
:1022000096100895EF92FF920F931F93DF93CF9351
:10221000CDB7DEB7C054D0400FB6F894DEBF0FBEC6
:10222000CDBF8C0100D000D07E010894E11CF11CD0
:10223000EDB7FEB7F282E182748363830E94471F89
:102240000F900F900F900F90C801B7010E94961049
:10225000C05CDF4F0FB6F894DEBF0FBECDBFCF918D
:10226000DF911F910F91FF90EF900895CF93DF932F
:10227000BC01C2EED4E090E08E81882339F00A8060
:10228000DB81C02D9F5F9C30B9F70BC08CE392E0DF
:102290000E9427108C838F3F21F0CE010E94790F7E
:1022A00002C0C0E0D0E0CE01DF91CF910895BC0123
:1022B00081E492E00E94331E9C0180E0232B09F40C
:1022C00081E008952F923F924F925F926F927F929A
:1022D0008F929F92AF92BF92CF92DF92EF92FF9236
:1022E0000F931F93CF93DF938C016B01DC01159645
:1022F000EC90EB018BE78993FF2490E054E4252ECA
:1023000052E0352E4EE5442E42E0542E39E5632E40
:1023100032E0732E23E5822E22E0922E8DE4A82E49
:1023200082E0B82EF8018681882309F4CBC0992376
:1023300011F0FCE2F99300D000D000D0EDB7FEB769
:102340003196ADB7BEB71296DC93CE931197338218
:102350002282055F1F4F158304830B5010400E949B
:10236000231FC80FD91FF80186812DB73EB72A5FFA
:102370003F4F0FB6F8943EBF0FBE2DBF813039F4EA
:10238000CE016AE472E00E94041E229692C083305D
:10239000A1F48DB79EB708970FB6F8949EBF0FBEF5
:1023A0008DBFEDB7FEB73196ADB7BEB71296DC93D1
:1023B000CE931197B382A28216C0843061F52DB7F7
:1023C0003EB7285030400FB6F8943EBF0FBE2DBF29
:1023D000EDB7FEB73196ADB7BEB71296DC93CE938C
:1023E000119793828282D80117962D913D914D913C
:1023F0005C911A9724833583468357830E94231F59
:10240000C80FD91FEDB7FEB738960FB6F894FEBFC8
:102410000FBEEDBF4EC0853079F400D000D000D0A3
:10242000EDB7FEB73196ADB7BEB71296DC93CE933B
:1024300011977382628210C08630E9F400D000D018
:1024400000D0EDB7FEB73196ADB7BEB71296DC93AC
:10245000CE93119753824282D80155968D919C91CB
:102460005697958384830E94231FC80FD91FEDB709
:10247000FEB73696CACF8230E1F4D80117966D9137
:102480007D918D919C911A9720E030E040E050E0E2
:102490000E940019882339F4CE0163E672E00E949D
:1024A000041E259606C0CE0169E672E00E94041E55
:1024B0002496F8018681873011F091E003C0FBE794
:1024C000F99390E0D80112960D911C911397011584
:1024D000110519F48F2D9DE70DC0F80185818F1529
:1024E0001CF4FDE7F99391E0D8011596FC901ACF02
:1024F00099938150E816E4F3CE016EE672E00E94F3
:10250000041E9E012E5F3F4F2C193D09C901DF912A
:10251000CF911F910F91FF90EF90DF90CF90BF90E0
:10252000AF909F908F907F906F905F904F903F9073
:102530002F9008950F931F930CE213E0B8010E94AF
:1025400062116091730670917406C8010E94BF1EEB
:102550001F910F9108958BEC94E00E949A120895B8
:102560002F923F924F925F926F927F928F929F92A3
:10257000AF92BF92CF92DF92EF92FF920F931F9391
:10258000DF93CF93CDB7DEB729970FB6F894DEBFB0
:102590000FBECDBF7C018091710290917202A0911B
:1025A0007302B09174028E839F83A887B987F70165
:1025B00001900020E9F73197EE19FF09E138F105A4
:1025C00010F01BE225C087016701BB241AC0BB20A5
:1025D00069F4883219F4BB24B39404C0813270F0DA
:1025E0008F3761F090E00E94A41D05C0BB248932A2
:1025F00011F0BB24B394F80181938F010894C11C9E
:10260000D11CF6018081882311F7F801108210E0B7
:102610001093A402112309F03EC102EE14E0ECE095
:10262000CE2E0F2EF0E06F2EF0E07F2EF0E88F2EF2
:10263000FFE39F2EF02D0F2EF0E02F2EF0E03F2E27
:10264000F0E04F2EF0E05F2EF02DCA9411F411E36C
:1026500022C1DE011396E5E7F2E083E001900D92DE
:102660008150E1F7C8010E94A60DC70162E270E047
:102670000E94F01D009709F42BC17C010894E11C15
:10268000F11CC70162E270E00E94F01DFC0100979E
:1026900009F41EC19A83898310827BE0A72EB12C96
:1026A000A00EB11EC501B70145E050E00E940B1E0F
:1026B00089819A8101969A8389836AE370E00E94F6
:1026C000F01DFC01009709F403C17C010894E11C92
:1026D000F11C21812E3631F0223231F4F701818153
:1026E000823211F481E04FC0822F90E0C0970A97A8
:1026F00010F02D32B1F4C701BE016F5F7F4F0E9411
:10270000641BF801678370878187928789819A812A
:102710008E159F0511F41AE2BEC084E0F80186838D
:1027200054C02B3739F487E0F80186830894E11C04
:10273000F11CCBC0223221F50894E11CF11C85E08C
:10274000F8018683C70162E270E00E94F01DFC017F
:10275000009709F4BDC09A8389831082C801B7012C
:102760000E94990ED82E8093A402882309F048C0B5
:10277000E980FA800894E11CF11CFA82E98225C004
:10278000243741F482E0F80186836782708681866F
:1027900092861BC0263641F482E0F80186832782A8
:1027A00030864186528611C02B3509F091C086E0F3
:1027B000F8018683C801B7010E94990ED82E809334
:1027C000A4028823E9F41FE266C0C701BE016D5F61
:1027D0007F4F0E94251EFC017C01009709F478C000
:1027E00080818D3719F40894E11CF11CF701808178
:1027F0008C3209F46AC00894E11CF11CDD2405C088
:10280000F2E0FD1510F41D2D46C08E81882349F09D
:10281000C8014196BE016A5F7F4F43E050E00E94CD
:102820000B1EC8014196B5010E942710F801848350
:102830008F3F11F418E22FC00E94FD0C882361F035
:10284000C5010E945711882339F0CE010696B501C3
:1028500043E050E00E940B1EF80102811381DD204D
:1028600009F0F3CE8091E804813041F482EE94E0E7
:102870000E94180D182F8093A4020DC082EE94E0E0
:102880000E94030D182F8093A402882321F482EE66
:1028900094E00E94400D812F29960FB6F894DEBF78
:1028A0000FBECDBFCF91DF911F910F91FF90EF90A1
:1028B000DF90CF90BF90AF909F908F907F906F9060
:1028C0005F904F903F902F90089562E0D62E9DCF5D
:1028D00010E3E1CF0F931F938C010E94FF0EC801FC
:1028E0000E94B01260E042E00E94280E1F910F91FA
:1028F00008958093780288E792E008958FEF9FEF24
:1029000008950F931F93CF93DF93EC01E989FA8920
:1029100084859585892B19F429E030E016C08E0155
:102920000D5E1F4FCB01BA01A8010E94521E892BD8
:1029300019F020E030E009C0E989FA89158614868B
:10294000C8010E944D1E28E030E0C901DF91CF91FF
:102950001F910F9108951F93CF93DF93FC01C485BE
:10296000D5858EA1882319F02EEF3FEF30C0E9897D
:10297000FA898485958520813181820F931FFC011E
:102980001491112311F481E08EA3E989FA898081E1
:102990009181A281B3810196A11DB11D8083918394
:1029A000A283B3838BA1882329F0112311F01D305A
:1029B00009F41AE08AA1882341F0609171067091B0
:1029C0007206812F90E00E94931E212F30E0C901F2
:1029D000DF91CF911F910895EF92FF920F931F9374
:1029E0007B01E82FF0E0EE0FFF1FE459FB4F008161
:1029F0001181C801BA010E94CA03D8015196ED9114
:102A0000FC915297F586E48680E090E4A0E0B0E087
:102A100080879187A287B3870D5E1F4FC8011F91E2
:102A20000F91FF90EF900895A1E1B0E0EAE1F5E1A8
:102A30000C942D1B3C017F876E876A01FC01178275
:102A40001682838181FD03C06FEF7FEF6FC39E010C
:102A50002F5F3F4F398B288BF3012381EE85FF8554
:102A600023FD859123FF8191FF87EE87882309F459
:102A70005AC3853251F4EE85FF8523FD859123FFEE
:102A80008191FF87EE87853229F490E0B3010E949F
:102A9000931EE2CF982F10E0882499241032B0F4CE
:102AA0009B3269F09C3228F4903251F0933271F4E9
:102AB0000BC09D3239F0903349F4116028C0126088
:102AC000146025C0186023C0106121C017FD2AC002
:102AD000892F80538A3078F416FF06C0FAE09F9E53
:102AE000902C1124980E13C03AE0839E802C112460
:102AF000880E10620CC09E3221F416FD14C31064BF
:102B000006C09C3611F4106802C0983659F4EE8560
:102B1000FF8523FD959123FF9191FF87EE879923F0
:102B200009F0BCCF892F8554833020F4812F806138
:102B3000905E07C0892F8556833008F09FC1812F92
:102B40008F7E86FD02C076E0972E6FE3F62EF82288
:102B5000953619F4F0E4FF2A07C0963619F420E8F8
:102B6000F22A02C091109A94F7FE0AC03BE339158D
:102B700018F45CE3B52E02C0B92CB39427E009C069
:102B800047E0491520F4BB2447E0942EF7CF292DC8
:102B9000BB24C60104969D878C87F60160817181F4
:102BA00082819381AE014F5F5F4F0B2D0E94C41C49
:102BB0006C010981202E332400FF04C003FD02C0F4
:102BC0001DE209C0F1FE02C01BE205C0F2FC02C01A
:102BD00010E001C010E2C1018C709070892BB9F136
:102BE000112311F483E001C084E0881510F08824DB
:102BF0000AC0881AF3FC07C080E290E0B3010E948B
:102C0000931E8A94C9F7112329F0812F90E0B30114
:102C10000E94931E23FE03C008E610E00EC00CE6DF
:102C200010E00BC0E114F10409F0805290E0B30110
:102C30000E94931E0F5F1F4F05C0EF2CFF24F0E191
:102C4000EF22FF24F8018491882361F714C1F7FE75
:102C500012C0BC0C24FE04C08A81813309F4BA94EA
:102C60001B141CF0BB24B3942DC0F8E0FB1550F5E9
:102C700038E0B32E27C0F6FC25C0892D90E08C15D6
:102C80009D054CF02CEFC2162FEFD20624F030E851
:102C9000F32A01C09A94992049F0E2E0F0E0EC0FA9
:102CA000FD1FE90DF11D80818033A1F3F7FE0AC0FD
:102CB000B92CB394892D90E0C816D90614F0992444
:102CC00001C09C18F7FC03C025E030E009C01C14CB
:102CD0001D041CF021E030E003C096012F5F3F4F40
:102CE000112311F02F5F3F4F992029F0892D90E09B
:102CF0000196280F391F882D90E02817390714F006
:102D0000882401C0821A4F2C5524C201897090700A
:102D1000892B39F008C080E290E0B3010E94931E35
:102D20008A948820C1F7112329F0812F90E0B30104
:102D30000E94931E43FE07C008C080E390E0B301E9
:102D40000E94931E8A948820C1F7F7FE46C0860130
:102D5000D7FE02C000E010E076010894E11CF11CEF
:102D6000E01AF10A41E050E04C0F5D1FE40EF51E41
:102D700026014B185108892D90E0AA24BB24A81ADB
:102D8000B90A5FEF0F3F150729F48EE290E0B30117
:102D90000E94931EC016D10634F0401651061CF452
:102DA000F701808101C080E3015010400894E11CCC
:102DB000F11C0A151B052CF090E0B3010E94931E34
:102DC000E0CF0C151D0539F49A81963318F495332C
:102DD00011F424FE81E390E04BC08A81813309F035
:102DE0000F7E90E0B3010E94931E9920A1F08EE225
:102DF00090E0B3010E94931E12E0E1E0F0E0EC0FDE
:102E0000FD1FE10FF11D1F5F808190E0B3010E9463
:102E1000931E9A9491F744FC03C085E690E002C0AB
:102E200085E490E0B3010E94931ED7FC05C0C11455
:102E3000D10441F404FF06C0D094C194D108D394C6
:102E40008DE201C08BE290E0B3010E94931E80E30B
:102E500005C08F5F26EF3FEFC20ED31E3AE0C316C8
:102E6000D104BCF790E0B3010E94931EC601C09646
:102E7000B3010E94931ECC84DD8452C1933631F09D
:102E8000933799F0933509F059C023C0F60180813A
:102E900089835E010894A11CB11C22E030E0C20EBF
:102EA000D31E21E0E22EF12C12C0F601A080B180E9
:102EB00016FD03C06FEF7FEF02C0692D70E022E0C6
:102EC00030E0C20ED31EC5010E941A1E7C011F777E
:102ED00013C0F601A080B18016FD03C06FEF7FEF35
:102EE00002C0692D70E022E030E0C20ED31EC501A1
:102EF0000E94DA1D7C01106813FF07C01BC080E22E
:102F000090E0B3010E94931E8A94882D90E0E81609
:102F1000F906A8F30FC0F50117FD859117FF819100
:102F20005F0190E0B3010E94931E81108A9408947F
:102F3000E108F108E114F10471F7F2C0943611F0E0
:102F4000993689F517FF08C0F60120813181428149
:102F5000538184E090E00AC0F601808191819C0158
:102F6000442737FD4095542F82E090E0C80ED91ECB
:102F70009FE6F92EF12257FF09C0509540953095F4
:102F800021953F4F4F4F5F4F90E8F92ACA01B90191
:102F9000AE014F5F5F4F2AE030E00E946B1FE82ECA
:102FA000E889EE1A41C0953721F41F7E2AE030E00F
:102FB0001CC0197F9F3661F0903720F4983509F0D6
:102FC000B2C00FC0903739F0983709F0ACC004C0D8
:102FD00028E030E00AC0106114FD146020E130E008
:102FE00004C014FD166020E132E017FF08C0F601AE
:102FF000608171818281938144E050E008C0F601D4
:1030000080819181BC0180E090E042E050E0C40EFC
:10301000D51EAE014F5F5F4F0E946B1FE82E58898F
:10302000E51A8FE7F82EF122F6FE0BC08EEFF8229C
:10303000E91438F4F4FE07C0F2FC05C09FEEF92253
:1030400002C01E2D01C0192DF4FE0DC0FE01EE0DB3
:10305000F11D8081803319F4E9EEFE2208C01F5F64
:10306000F2FE05C003C08F2D867809F01F5F0F2D7B
:10307000F3FC14C0F0FE0FC0181510F09E2C0BC00E
:103080009E2C980C911A182D06C080E290E0B30196
:103090000E94931E1F5F1815C0F304C0181510F48A
:1030A000811A01C0882404FF0FC080E390E0B301BF
:1030B0000E94931E02FF1DC001FD03C088E790E03F
:1030C0000EC088E590E00BC0802F867891F001FF5C
:1030D00002C08BE201C080E2F7FC8DE290E0B30118
:1030E0000E94931E06C080E390E0B3010E94931EED
:1030F0009A94E914C0F3EA94E1E0F0E0EC0FFD1FCC
:10310000EE0DF11D808190E0B3010E94931EEE2030
:1031100091F706C080E290E0B3010E94931E8A946A
:103120008820C1F799CCF30166817781CB01619644
:10313000E2E10C94491B5058BB27AA270ED070C15E
:1031400061D130F066D120F031F49F3F11F41EF4CC
:1031500056C10EF4E095E7FB4CC1E92F72D180F324
:10316000BA17620773078407950718F071F49EF584
:103170008AC10EF4E0950B2EBA2FA02D0B01B901D8
:1031800090010C01CA01A0011124FF27591B99F0DD
:10319000593F50F4503E68F11A16F040A22F232FE9
:1031A000342F4427585FF3CF469537952795A79539
:1031B000F0405395C9F77EF41F16BA0B620B730BE0
:1031C000840BBAF09150A1F0FF0FBB1F661F771F51
:1031D000881FC2F70EC0BA0F621F731F841F48F406
:1031E000879577956795B795F7959E3F08F0B3CF8C
:1031F0009395880F08F09927EE0F97958795089576
:10320000D4D008F481E008950CD00AC102D140F076
:10321000F9D030F021F45F3F19F0EBC0511134C107
:10322000EEC00FD198F39923C9F35523B1F3951B41
:10323000550BBB27AA2762177307840738F09F5FD7
:103240005F4F220F331F441FAA1FA9F333D00E2E46
:103250003AF0E0E830D091505040E695001CCAF7B3
:1032600029D0FE2F27D0660F771F881FBB1F261778
:1032700037074807AB07B0E809F0BB0B802DBF014B
:10328000FF2793585F4F2AF09E3F510568F0B1C069
:10329000FBC05F3FECF3983EDCF38695779567952E
:1032A000B795F7959F5FC9F7880F911D96958795FC
:1032B00097F90895E1E0660F771F881FBB1F62171B
:1032C00073078407BA0720F0621B730B840BBA0BD9
:1032D000EE1F88F7E0950895BCD088F09F5790F0D6
:1032E000B92F9927B751A0F0D1F0660F771F881F2B
:1032F000991F1AF0BA95C9F712C0B13081F0C3D046
:10330000B1E00895C0C0672F782F8827B85F39F0E3
:10331000B93FCCF3869577956795B395D9F73EF489
:1033200090958095709561957F4F8F4F9F4F089531
:10333000E89409C097FB3EF490958095709561954F
:103340007F4F8F4F9F4F9923A9F0F92F96E9BB2705
:103350009395F695879577956795B795F111F8CF81
:10336000FAF4BB0F11F460FF1BC06F5F7F4F8F4FEC
:103370009F4F16C0882311F096E911C0772321F0E2
:103380009EE8872F762F05C0662371F096E8862F7A
:1033900070E060E02AF09A95660F771F881FDAF7D1
:1033A000880F9695879597F90895990F0008550FFE
:1033B000AA0BE0E8FEEF16161706E807F907C0F0BB
:1033C00012161306E407F50798F0621B730B840BC3
:1033D000950B39F40A2661F0232B242B252B21F49D
:1033E00008950A2609F4A140A6958FEF811D811D3D
:1033F000089597F99F6780E870E060E008959FEF77
:1034000080EC089500240A9416161706180609067B
:10341000089500240A94121613061406050608954A
:10342000092E0394000C11F4882352F0BB0F40F4D2
:10343000BF2B11F460FF04C06F5F7F4F8F4F9F4F12
:10344000089557FD9058440F551F59F05F3F71F094
:103450004795880F97FB991F61F09F3F79F08795FB
:103460000895121613061406551FF2CF4695F1DF84
:1034700008C0161617061806991FF1CF8695710514
:10348000610508940895E894BB2766277727CB0148
:1034900097F908958ADF08F48FEF08950BD0C0CF15
:1034A000B1DF28F0B6DF18F0952309F0A2CFA7CF3F
:1034B0001124EACFC6DFA0F3959FD1F3950F50E01A
:1034C000551F629FF001729FBB27F00DB11D639FD6
:1034D000AA27F00DB11DAA1F649F6627B00DA11D7C
:1034E000661F829F2227B00DA11D621F739FB00D22
:1034F000A11D621F839FA00D611D221F749F332792
:10350000A00D611D231F849F600D211D822F762F2A
:103510006A2F11249F5750408AF0E1F088234AF027
:10352000EE0FFF1FBB1F661F771F881F9150504073
:10353000A9F79E3F510570F05CCFA6CF5F3FECF33B
:10354000983EDCF3869577956795B795F795E7955F
:103550009F5FC1F7FE2B880F911D9695879597F970
:10356000089511F40EF44BCF41C073DFD0F39923CB
:10357000D9F3CEF39F57550B87FF46D00024A0E622
:1035800040EA900180585695979528F4805C660F24
:10359000771F881F20F026173707480730F4621B73
:1035A000730B840B202931294A2BA6951794079475
:1035B000202531254A2758F7660F771F881F20F0EE
:1035C00026173707480730F4620B730B840B200D66
:1035D000311D411DA09581F7B901842F9158880FA5
:1035E0009695879508959B01AC0158CF9F3F31F088
:1035F000915020F4879577956795B795880F911D21
:103600009695879597F9089591505040660F771FCA
:10361000881FD2F70895A1E21A2EAA1BBB1BFD0139
:103620000DC0AA1FBB1FEE1FFF1FA217B307E407A1
:10363000F50720F0A21BB30BE40BF50B661F771FF9
:10364000881F991F1A9469F76095709580959095D9
:103650009B01AC01BD01CF0108952F923F924F9283
:103660005F926F927F928F929F92AF92BF92CF9212
:10367000DF92EF92FF920F931F93CF93DF93CDB71B
:10368000DEB7CA1BDB0B0FB6F894DEBF0FBECDBF93
:1036900009942A88398848885F846E847D848C8464
:1036A0009B84AA84B984C884DF80EE80FD800C816D
:1036B0001B81AA81B981CE0FD11D0FB6F894DEBF50
:1036C0000FBECDBFED010895A0E0B0E0EAE6FBE15A
:1036D0000C94331BEC015B016115710519F0FB01C2
:1036E00091838083F9908F2D90E00E949C1D892BFF
:1036F000C9F7FDE2FF1621F4F990EE24E39405C02A
:103700002BE2F21609F4F990EE248E0101501040DC
:10371000C80164E472E043E050E00E94B31D892BCD
:1037200001F58E010E5F1F4FC80167E472E045E0AE
:1037300050E00E94B31D892B19F48E01095F1F4FC1
:10374000A114B10419F0F50111830083E0FC04C059
:1037500070E090E080E814C070E090E080E86FEFE7
:1037600008C1C8016CE472E043E050E00E94B31D60
:10377000892B69F4A114B10429F470E090E080EC85
:103780006FE7F7C02296F501D183C083F6CF882476
:10379000992440E050E060E070E0EF2DE053EA3023
:1037A000A0F5F2E0EF2A8E2D90E09C012870307099
:1037B000E2FE06C0232B79F50894811C911C2BC0D6
:1037C000232B19F0089481089108DB01CA0112E04B
:1037D000880F991FAA1FBB1F1A95D1F7480F591FB1
:1037E0006A1F7B1F440F551F661F771F4E0F511D09
:1037F000611D711D483929E9520729E9620729E14C
:10380000720748F084E0E82A06C0EE3F31F4E3FC9A
:1038100039C098E0E92AF990C0CFE53311F0E531DD
:1038200089F529912D3219F4E0E1EE2A05C02B32F9
:1038300019F081E090E003C0299182E090E0E22F4E
:10384000E053EA3018F0C81BD90B1CC020E030E070
:10385000FCE020383F075CF4C901880F991F880FEE
:10386000991F280F391F220F331F2E0F311DE99189
:10387000E053EA3068F3E4FE03C0309521953F4FF2
:10388000820E931ECE2CDD24E1FE07C0A114B104EC
:1038900021F02197F501D183C083CB01BA010E94A9
:1038A00098197B018C01F3E0CF22DD2423E0C216BE
:1038B000D10421F417FB109517F9109557016801F1
:1038C000C801B70120E030E040E050E00E9400195C
:1038D000882309F44AC097FE0DC023E6E22E22E0B9
:1038E000F22E9094819491089394C0E2D0E000E08D
:1038F00010E012C09BE7E92E92E0F92EF6CFF70117
:103900002591359145915491C601B5010E944E1AF9
:103910005B016C018C1A9D0A8C169D0684F7D59567
:10392000C7950F5F1F4F0630110529F08CEF9FEFF1
:10393000E80EF91EF1CFC501D6017C018D018C2D59
:10394000880F8D2D881F8F3F51F0C601B50120E0F3
:1039500030E040E050E00E940019882331F482E218
:1039600090E090937606809375067E2D9F2D802F94
:10397000612F272F392F482F562FB901CA01CDB7F4
:10398000DEB7ECE00C944F1B283008F027E033271B
:10399000DA01990F311D87FD91600096610571056F
:1039A00039F432602E5F3D9330E32A95E1F70895B4
:1039B0009F3F30F080387105610509F03C5F3C5F46
:1039C0003D93913008F08068911DDF93CF931F9352
:1039D0000F93FF92EF92192F987F9695E92F969566
:1039E0009695E90FFF27E752FD4F99273327EE24DD
:1039F000FF24A701E70105900894079428F4360FE7
:103A0000E71EF81E491F511D660F771F881F991F5B
:103A10000694A1F70590079428F4E70EF81E491FB5
:103A2000561FC11D770F881F991F661F0694A1F7A7
:103A30000590079428F4F80E491F561FC71FD11D83
:103A4000880F991F661F771F0694A1F705900794AA
:103A500020F4490F561FC71FD81F990F661F771FE5
:103A6000881F0694A9F784911095177041F0D69598
:103A7000C79557954795F794E7941A95C1F7EFE7DF
:103A8000F2E06894159015913591659195910590A6
:103A90007FE27395E118F10A430B560BC90BD0096D
:103AA000C0F7E10CF11E431F561FC91FD01D7EF445
:103AB000703311F48A95E6CFE894015030F0080F86
:103AC0000AF40027021708F4202F2395022F7A33D7
:103AD00028F079E37D932A95E9F710C07D932A9524
:103AE00089F6069497956795379517951794E11879
:103AF000F10A430B560BC90BD00998F023957E9120
:103B000073957A3308F070E37C932013B8F77E91B5
:103B100070617D9330F0839571E37D9370E32A9516
:103B2000E1F71124EF90FF900F911F91CF91DF915A
:103B3000992787FD9095089591112BC2803219F035
:103B400089508550D0F708959111089581548A5174
:103B500008F4805E855A0895FB01DC0105900D9202
:103B60000020E1F70895FB01DC014150504088F04E
:103B70008D9181341CF08B350CF4805E659161343D
:103B80001CF06B350CF4605E861B611171F3990BB0
:103B90000895881BFCCFFB01DC014150504048F0E8
:103BA00005900D920020C9F701C01D924150504070
:103BB000E0F70895FC010590615070400110D8F7BE
:103BC000809590958E0F9F1F0895FB01DC010D904D
:103BD0000020E9F7119701900D920020E1F7089578
:103BE000FC018191861721F08823D9F79927089540
:103BF0003197CF010895FB01DC018D91019080196F
:103C00000110D9F3990B0895FB01DC0101900D928D
:103C10000020E1F70895FB01DC014150504048F0DD
:103C200001900D920020C9F701C01D9241505040F3
:103C3000E0F70895FC016150704001900110D8F741
:103C4000809590958E0F9F1F0895DC0199278D9187
:103C5000882341F0FB01019008160110E1F7B9F744
:103C60001197CD010895FB0151915523A9F0BF0192
:103C7000DC014D9145174111E1F759F4CD01019057
:103C8000002049F04D9140154111C9F3FB0141114C
:103C9000EFCF81E090E001970895FC0183818F7C54
:103CA00083830895A0E0B0E0E8E5FEE10C94371BC3
:103CB0007C016A01FA01838180FF19C0161617067C
:103CC000B4F4EB01219787010DC0C6010E94CC1FFF
:103CD000FFEF8F3F9F0759F0F80181938F010A97FB
:103CE00019F02197209789F7F801108202C0EE247D
:103CF000FF24C701CDB7DEB7E8E00C94531BA0E06A
:103D0000B0E0E5E8FEE10C943D1B9E01275F3F4FCC
:103D10008D819E816F817885A9010E94141520965E
:103D2000E2E00C94591B0F931F93CF93DF938C0108
:103D3000EB018B8181FF1BC082FF0DC02E813F8173
:103D40008C819D812817390764F4E881F9810193FA
:103D5000F983E88306C0E885F985802F0995892BCA
:103D600031F48E819F8101969F838E8302C00FEF75
:103D70001FEFC801DF91CF911F910F910895EF922E
:103D8000FF920F931F93CF93DF937C018B01DB0195
:103D900013968C9181FD03C0CFEFDFEF13C0C0E01D
:103DA000D0E00BC0D8011896ED91FC911997B8019D
:103DB0000995892B11F0CFEFDFEFF70181917F019A
:103DC000882381F7CE01CDB7DEB7E6E00C94551B12
:103DD000A0E0B0E0EEEEFEE10C943D1BFE01359656
:103DE000619171918091710690917206AF010E946C
:103DF00014152096E2E00C94591BA0E0B0E0E3E03B
:103E0000FFE10C943D1BFE01359661917191A091EB
:103E10007106B091720613968C9113978860139671
:103E20008C938091710690917206AF010E941415D7
:103E3000E0917106F09172062381277F23832096FB
:103E4000E2E00C94591BAEE0B0E0E9E2FFE10C9433
:103E50003B1B0D891E8986E08C831A8309838FEFB3
:103E60009FE79E838D839E01275E3F4FCE01019683
:103E70006F89788DA9010E9414152F813885020F52
:103E8000131FF80110822E96E4E00C94571BAEE04D
:103E9000B0E0EDE4FFE10C943B1B0D891E898EE040
:103EA0008C831A8309838FEF9FE79E838D839E0106
:103EB000275E3F4FCE0101966F89788DA9010E9440
:103EC00014152F813885020F131FF80110822E96CA
:103ED000E4E00C94571BFA01AA27283051F1203155
:103EE00081F1E8946F936E7F6E5F7F4F8F4F9F4F8E
:103EF000AF4FB1E03ED0B4E03CD0670F781F891FD0
:103F00009A1FA11D680F791F8A1F911DA11D6A0F9D
:103F1000711D811D911DA11D20D009F468943F9150
:103F20002AE0269F11243019305D3193DEF6CF014F
:103F30000895462F4770405D4193B3E00FD0C9F715
:103F4000F6CF462F4F70405D4A3318F0495D31FD82
:103F50004052419302D0A9F7EACFB4E0A6959795D5
:103F6000879577956795BA95C9F7009761057105AB
:103F700008959B01AC010A2E0694579547953795F5
:103F80002795BA95C9F7620F731F841F951FA01D4F
:103F90000895992788270895CF93DF93EC014B81EB
:103FA00040FF1AC046FF0AC04F7B4B838E819F8122
:103FB00001969F838E838A81282F2BC042FF13C0D6
:103FC000E881F9818081282F332727FD309521153D
:103FD000310529F440624B832FEF3FEF1BC0319630
:103FE000F983E88311C0EA85FB85CE0109959C0120
:103FF00097FF0AC09B812F5F3F4F11F080E201C005
:1040000080E1892B8B83E8CF8E819F8101969F83EE
:104010008E8330E0C901DF91CF910895F894FFCFEE
:104020007B226676223A22227D0A002573003031F7
:104030003233343536371F01010000000000000024
:104040000000000000000000000000000000000070
:104050000000000000000000001F0101000000003F
:104060000000000000000000000000000000000050
:10407000000000000000000000000000000B06B47B
:104080000333046605F605B3031601390100000089
:104090000000000000000000000000000000000020
:1040A00000000000000000003F01010000000000CF
:1040B0000000000000000000000000000000000000
:1040C00000000000000000000000000000000000F0
:1040D00000000000000000000000000000000000E0
:1040E00000000000000000000000003F010100008F
:1040F00000000000000000000000000000000000C0
:1041000000000000000000000000000000000000AF
:10411000000000000000000000000000000000009F
:10412000000000000000000000000000000001F797
:1041300007B40333047904FF03B3038801CB010000
:10414000000000000000000000000000000000006F
:10415000000000000000000000007200006D7367A6
:1041600000737200222573223A0022220025312E8C
:1041700030660025302E33660022257322005B2531
:10418000735D0066616C73650074727565007D0A0D
:1041900000000000007D2C0002EC14B4038114AB7D
:1041A000147E14B30300000000610600000000004C
:1041B00000000000000000000000000000000000FF
:0441C00000000000FB
:00000001FF
