:100000000C9454010C9471010C9471010C947101C5
:100010000C9471010C9471010C9471010C94710198
:100020000C9471010C9471010C9471010C94710188
:100030000C9471010C9471010C94890A0C94710157
:100040000C9471010C94FF0B0C94F9070C94B207FB
:100050000C9471010C9471010C9471010C94710158
:100060000C9471010C9471016E616E00696E6600F2
:100070000A44657669636520496E697469616C69D3
:100080007A65640A0000202054616B696E67205213
:10009000656164696E670020204261642052656179
:1000A00064696E67002020446973636F6E6E6563D8
:1000B0007465640020204E6F20506F776572008554
:1000C0000086009700A500B40020204F4B002020A0
:1000D00053687574646F776E002020486561746999
:1000E0006E67002020524547554C4154454400C995
:1000F00000CE00D900E3000A4465766963652049B3
:100100006E697469616C697A65642025312E306688
:100110000A000A00493A25312E3366202000457234
:10012000723A25312E33662020005374644465767C
:100130003A25312E336620200050574D3A25312E76
:10014000336620200054656D703A25312E336620C9
:1001500020004865617465722054696D656F75741F
:10016000204572726F722053687574646F776E0ADF
:100170000048656174657220416D6269656E742026
:100180004572726F722053687574646F776E0A00DF
:100190004865617465722053656E736F7220457295
:1001A000726F722053687574646F776E0A00004036
:1001B0007A10F35A00A0724E18090010A5D4E80076
:1001C00000E87648170000E40B54020000CA9A3B8E
:1001D000000000E1F5050000809698000000404214
:1001E0000F000000A08601000000102700000000A2
:1001F000E803000000006400000000000A000000A6
:1002000000000100000000002C76D888DC674F0851
:1002100023DFC1DFAE59E1B1B796E5E3E453C63A57
:10022000E651997696E8E6C28426EB898C9B62EDCE
:10023000407C6FFCEFBC9C9F40F2BAA56FA5F49088
:10024000055A2AF75C936B6CF9676DC11BFCE0E4FF
:100250000D47FEF520E6B500D0ED902E0300943555
:1002600077050080841E080000204E0A000000C8A8
:100270000C333333330F986E12831141EF8D2114F9
:10028000893BE65516CFFEE6DB18D1844B381BF7C9
:100290007C1D901DA4BBE424203284725E22810068
:1002A000C9F124ECA1E53D2711241FBECFEFD8E012
:1002B000DEBFCDBF12E0A0E0B1E0E2ECF6E302C0A9
:1002C00005900D92AE3FB107D9F714E0AEEFB2E062
:1002D00001C01D92A431B107E1F70E9474030C9490
:1002E0005F1B0C940000EF92FF920F931F93DF931C
:1002F000CF93CDB7DEB766970FB6F894DEBF0FBECB
:10030000CDBF9F878E87688B5A8B498B88898823BE
:1003100049F480E090E0A0E0B0E08B8B9C8BAD8B4B
:10032000BE8BAEC080E090E0A0E0B0E08A879B8703
:10033000AC87BD8780E090E0A0E0B0E08E839F8333
:10034000A887B987198243C08981882F90E09C01D2
:10035000220F331F220F331F8E859F85FC01E20F72
:10036000F31F20813181428153816A857B858C8591
:100370009D850E94DD16DC01CB018A879B87AC87B7
:10038000BD878981882F90E09C01220F331F220FA7
:10039000331F8E859F85FC01E20FF31F80819181C1
:1003A000A281B381BC01CD010E9434199B01AC0133
:1003B0006E817F81888599850E94DD16DC01CB01E5
:1003C0008E839F83A887B98789818F5F898399816D
:1003D0008889981708F4B8CF8889882F90E0AA27D1
:1003E00097FDA095BA2FBC01CD010E94DB179B01A0
:1003F000AC016A857B858C859D850E944517DC0153
:10040000CB01E989FA8980839183A283B3838889A8
:10041000882F90E0AA2797FDA095BA2FBC01CD01A7
:100420000E94DB179B01AC016E817F8188859985D5
:100430000E944517DC01CB017C018D01E989FA8915
:1004400080819181A281B381BC01CD010E943419C8
:100450009B01AC01C801B7010E94DC16DC01CB0195
:100460008A839B83AC83BD838A819B81AC81BD8160
:10047000BC01CD010E94F6186B8B7C8B8D8B9E8B03
:100480008B899C89AD89BE89BC01CD0166960FB66A
:10049000F894DEBF0FBECDBFCF91DF911F910F91BA
:1004A000FF90EF900895DF93CF9300D0CDB7DEB7E4
:1004B000898389818E3219F481E08A8316C089810B
:1004C0008D3219F481E08A8310C089818B3219F44E
:1004D00081E08A830AC08981882F90E0C0971A82C0
:1004E0008A30910510F481E08A838A810F900F9001
:1004F000CF91DF910895DF93CF93CDB7DEB7CF9142
:10050000DF910895DF93CF93CDB7DEB787EF90E00B
:1005100000D000D0EDB7FEB73196918380838AE298
:1005200090E0938382830E94DB1A0F900F900F90CC
:100530000F90CF91DF910895DF93CF9300D000D03B
:10054000CDB7DEB725E431E0809153039091540399
:10055000A0915503B091560300D000D000D0EDB764
:10056000FEB731963183208382839383A483B5833E
:100570000E94DB1A8DB79EB706960FB6F8949EBF01
:100580000FBE8DBF29E331E08091270390912803AE
:10059000A0912903B0912A0300D000D000D0EDB77C
:1005A000FEB731963183208382839383A483B583FE
:1005B0000E94DB1A8DB79EB706960FB6F8949EBFC1
:1005C0000FBE8DBF2AE231E080915703909158030E
:1005D000A0915903B0915A0300D000D000D0EDB7DC
:1005E000FEB731963183208382839383A483B583BE
:1005F0000E94DB1A8DB79EB706960FB6F8949EBF81
:100600000FBE8DBF2EE131E0809133039091340312
:10061000A0913503B091360300D000D000D0EDB7E3
:10062000FEB731963183208382839383A483B5837D
:100630000E94DB1A8DB79EB706960FB6F8949EBF40
:100640000FBE8DBF24E131E080913B0390913C03CC
:10065000A0913D03B0913E0300D000D000D0EDB793
:10066000FEB731963183208382839383A483B5833D
:100670000E94DB1A8DB79EB706960FB6F8949EBF00
:100680000FBE8DBF8091FF02882F90E0880F991FC9
:1006900081519F4F9C838B838B819C81FC01859131
:1006A00094919A838983FC83EB8389819A8100D01A
:1006B000EDB7FEB73196918380830E94DB1A0F90CD
:1006C0000F9082E191E000D0EDB7FEB731969183B3
:1006D00080830E94DB1A0F900F900F900F900F9065
:1006E0000F90CF91DF910895DF93CF93CDB7DEB711
:1006F000F8940E9482080E94CD040E947B020E940E
:10070000040B78940E9482020E9489030E94920343
:10071000FDCFDF93CF93CDB7DEB70E946A06CF91AE
:10072000DF910895DF93CF93CDB7DEB7CF91DF91FF
:100730000895DF93CF9300D000D00F92CDB7DEB7EE
:1007400089837B836A835D834C838981882F90E0D2
:10075000880F991FFC01E154FC4F0190F081E02DBE
:100760000180F281E02D2A813B814C815D8189816C
:10077000B90109950F900F900F900F900F90CF91A6
:10078000DF910895DF93CF9300D000D00F92CDB7C3
:10079000DEB789837B836A835D834C838981882F5D
:1007A00090E0880F991FFC01E154FC4F0190F0810B
:1007B000E02DA581B6818981882F90E0880F991F4F
:1007C000FC01E154FC4F808191812A813B814C8165
:1007D0005D81B901FD0109950F900F900F900F9069
:1007E0000F90CF91DF910895DF93CF930F92CDB704
:1007F000DEB789838981882F90E0880F991FFC01DB
:10080000E154FC4F0190F081E02D278130858981F2
:10081000882F90E0880F991FFC01E154FC4F8081E4
:1008200091814396F90109950F90CF91DF91089539
:10083000DF93CF9300D0CDB7DEB789836A838981F8
:10084000882F90E0880F991FFC01E154FC4F019024
:10085000F081E02D418552858981882F90E0880FB5
:10086000991FFC01E154FC4F808191819C012D5E18
:100870003F4F8A81B901FA0109950F900F90CF91EE
:10088000DF910895DF93CF9300D00F92CDB7DEB7FD
:1008900089837B836A838981882F90E0880F991FE1
:1008A000FC01E154FC4F808191812A813B81B90197
:1008B0000E941A050F900F900F90CF91DF9108952D
:1008C000DF93CF9300D0CDB7DEB789836A83898168
:1008D000882F90E0880F991FFC01E154FC4F608144
:1008E00071818A81282F30E040E050E0CB01BA01CD
:1008F000A9010E94480780E090E00F900F90CF91EF
:10090000DF910895DF93CF930F92CDB7DEB7898340
:100910008981882F90E0880F991FFC01E154FC4FDA
:1009200080819181439690930F0480930E040F90E1
:10093000CF91DF910895DF93CF930F92CDB7DEB7BC
:1009400089838981882F90E0880F991FFC01E154E9
:10095000FC4F808191814396909311048093100401
:100960000F90CF91DF910895DF93CF930F92CDB782
:10097000DEB789838981882F90E0880F991FFC0159
:10098000E154FC4F808191814396909313048093AE
:1009900012040F90CF91DF910895DF93CF93CDB7DD
:1009A000DEB780E00E94B7069093C0038093BF0338
:1009B00081E00E94410B9093C2038093C10380E0C9
:1009C00060E070E045E150E10E94990381E060E061
:1009D00070E040E050E10E94990380E00E948204B0
:1009E00080E00E949B0481E00E94B404CF91DF91DB
:1009F0000895DF93CF9300D0CDB7DEB79A83898374
:100A0000E981FA8114A2E981FA8115A2E981FA81CA
:100A100016A20F900F90CF91DF910895DF93CF939F
:100A200000D0CDB7DEB79A8389830F900F90CF9116
:100A3000DF910895DF93CF9300D000D0CDB7DEB71C
:100A40009A8389837C836B838B819C818170907076
:100A5000882321F0E981FA8181E081A38B819C8147
:100A600082709070009719F0E981FA8111A28B8150
:100A70009C8180719070009721F0E981FA8181E07A
:100A800082A38B819C8180729070009719F0E9811C
:100A9000FA8112A28B819C8180709071009721F065
:100AA000E981FA8181E083A38B819C8180709072BF
:100AB000009719F0E981FA8113A280E090E00F908D
:100AC0000F900F900F90CF91DF910895DF93CF9308
:100AD000CDB7DEB729970FB6F894DEBF0FBECDBFF6
:100AE0009B838A837D836C835F834E83EA81FB8152
:100AF00084A1882399F4EA81FB8181E084A3EA81BF
:100B0000FB818C819D8193A782A7EA81FB8111A63D
:100B1000EA81FB818E819F8190A787A3EA81FB8177
:100B200081A5282F30E0EA81FB8187A190A501975C
:100B3000281739078CF0EA81FB8122A533A5EA81C9
:100B4000FB8187A190A5F901E80FF91F10828DE0C4
:100B500090E09987888736C0EA81FB8185859685F4
:100B60000E94ED05898389818A30C1F4EA81FB8185
:100B700022A533A5EA81FB8141A5842F90E0F901EC
:100B8000E80FF91F1082842F8F5FEA81FB8181A714
:100B9000EA81FB8114A21986188614C0EA81FB81C0
:100BA00022A533A5EA81FB8141A5842F90E0F901BC
:100BB000E80FF91F89818083842F8F5FEA81FB8191
:100BC00081A7ACCF8885998529960FB6F894DEBFAA
:100BD0000FBECDBFCF91DF910895DF93CF9300D0AB
:100BE00000D0CDB7DEB79A838983E981FA819281FB
:100BF000E981FA818181981729F42FEF3FEF3C8337
:100C00002B8322C0E981FA8181818150E981FA81B7
:100C10008183E981FA818181882331F4E981FA8134
:100C20008081E981FA818183E981FA818181282F9C
:100C300030E089819A81820F931FFC013396808175
:100C4000282F30E03C832B838B819C810F900F9069
:100C50000F900F90CF91DF910895DF93CF9300D045
:100C600000D000D0CDB7DEB79B838A836C83EA8146
:100C7000FB818281815089838981882321F4EA81E3
:100C8000FB8180818983EA81FB8191818981981729
:100C900029F48FEF9FEF9E838D8311C08981282FC8
:100CA00030E08A819B81820F931FFC0133968C81F7
:100CB0008083EA81FB81898182831E821D828D81EE
:100CC0009E8126960FB6F894DEBF0FBECDBFCF91A2
:100CD000DF910895DF93CF93CDB7DEB781E00E9417
:100CE0008F06CF91DF910895DF93CF9300D0CDB7DA
:100CF000DEB78A8319828981882F90E0FC01E05059
:100D0000FF4F90818A81692F0E9418042FEF8F3F37
:100D1000920789F389818F5F87708983ECCFDF9396
:100D2000CF930F92CDB7DEB789832BEC33E0898167
:100D3000B90140E450E00E94C20380930D04809109
:100D40000D04882391F700D000D0EDB7FEB731969F
:100D500088E091E0918380838BEC93E0938382839E
:100D60000E94C61A0F900F900F900F90DECFDF9366
:100D7000CF930F92CDB7DEB78983898180936101CC
:100D800081E691E00F90CF91DF910895DF93CF93AB
:100D9000CDB7DEB727970FB6F894DEBF0FBECDBF35
:100DA0008B837D836C835F834E838B81882F90E060
:100DB000880F991FFC01E154FC4F808191819A8337
:100DC000898389819A810E94F90489819A812E817F
:100DD0003F81B9010E941A05E981FA810584F685EF
:100DE000E02D81E08283E981FA810584F685E02D9A
:100DF00081E08183E981FA810784F089E02D81E037
:100E00008283E981FA810784F089E02D81E0818382
:100E1000A4E6B0E0E4E6F0E080818D7F8C93E0EC26
:100E2000F0E01082E1ECF0E088E9808389819A812A
:100E300040E052EC61E070E00E944807E981FA81ED
:100E400081859285E981FA81948F838FE981FA8186
:100E500087819085E981FA81968F858FE981FA8172
:100E600083E0868BE981FA8110A2178EE981FA81ED
:100E700089819A8190A3878F89819A814396279649
:100E80000FB6F894DEBF0FBECDBFCF91DF910895AE
:100E90000F931F93DF93CF9300D000D000D0CDB736
:100EA000DEB79A8389834B835C836D837E8304ECF6
:100EB00010E08B819C81AD81BE81880F991FAA1F94
:100EC000BB1F880F991FAA1FBB1F880F991FAA1F3E
:100ED000BB1F9C01AD0180E094E2A4EFB0E0BC0137
:100EE000CD010E944C19DA01C9010197F8019183E3
:100EF0008083A0ECB0E0E0ECF0E080818D7F8C930B
:100F000026960FB6F894DEBF0FBECDBFCF91DF910E
:100F10001F910F910895DF93CF9300D000D00F92CF
:100F2000CDB7DEB78B837D836C83EC81FD818485B7
:100F30009585FC01878590896B810E942D069A8397
:100F40008983A1ECB0E0E1ECF0E0808180628C93D9
:100F500089819A810F900F900F900F900F90CF91F1
:100F6000DF9108951F920F920FB60F9211242F93C5
:100F70003F934F935F936F937F938F939F93AF9321
:100F8000BF93EF93FF93DF93CF9300D0CDB7DEB73E
:100F9000E091BF03F091C003878590890E94ED0521
:100FA0009A83898389819A812FEF8F3F920741F439
:100FB000A1ECB0E0E1ECF0E080818F7D8C9304C087
:100FC000E6ECF0E0898180830F900F90CF91DF9164
:100FD000FF91EF91BF91AF919F918F917F916F9111
:100FE0005F914F913F912F910F900FBE0F901F90E7
:100FF00018951F920F920FB60F9211242F933F93C3
:101000004F935F936F937F938F939F93AF93BF9310
:10101000EF93FF93DF93CF93CDB7DEB7E091BF039C
:10102000F091C00385859685E6ECF0E02081622F83
:101030000E942D06CF91DF91FF91EF91BF91AF916B
:101040009F918F917F916F915F914F913F912F91E0
:101050000F900FBE0F901F901895DF93CF93CDB7D1
:10106000DEB727970FB6F894DEBF0FBECDBF9D83C6
:101070008C83EC81FD8184859585FC018585968531
:101080000E94ED058B83EC81FD81848595859A8393
:101090008983E981FA810384F485E02D89819A812D
:1010A0000995E981FA8182A1882361F0E981FA81B9
:1010B0000184F285E02D20911004309111048B8180
:1010C000B90109958B818D3019F08B818A3051F4EB
:1010D000E981FA8183A1882329F02AE030E03F8367
:1010E0002E8305C08B81282F30E03F832E838E8195
:1010F0009F8127960FB6F894DEBF0FBECDBFCF916C
:10110000DF910895DF93CF93CDB7DEB7E4E6F0E04B
:101110008FEF8083E4E2F0E01082E7E2F0E01082FB
:10112000EAE2F0E01082CF91DF910895DF93CF9350
:101130000F92CDB7DEB78983A4E6B0E0E4E6F0E035
:1011400080818E7F8C93ECE7F0E0898180648083DE
:10115000EAE7F0E086E88083ACE7B0E0ECE7F0E0B7
:101160008081807F8C93ACE7B0E0ECE7F0E0808199
:101170008C93EEE7F0E08981282F30E081E090E069
:10118000022E02C0880F991F0A94E2F780830F9005
:10119000CF91DF910895DF93CF930F92CDB7DEB754
:1011A000AAE7B0E0EAE7F0E0808180648C93EAE7A8
:1011B000F0E08081AAE7B0E0EAE7F0E080818061BA
:1011C0008C93E8E7F0E080819181009749F3E8E7AC
:1011D000F0E0808191810F90CF91DF910895DF93AE
:1011E000CF93CDB7DEB7AAE2B0E0EAE2F0E08081CB
:1011F00088608C93A4E6B0E0E4E6F0E080818F7B29
:101200008C93E0EBF0E080EF8083A0EBB0E0E0EBCC
:10121000F0E0808183608C93E1EBF0E088E08083F4
:10122000A1EBB0E0E1EBF0E0808184608C93EFE62D
:10123000F0E01082E3EBF0E01082E4EBF0E01082EB
:1012400080E090E0A0E0B0E08093C7039093C803F3
:10125000A093C903B093CA03CF91DF910895DF93A0
:10126000CF93CDB7DEB728970FB6F894DEBF0FBE89
:10127000CDBF69837A838B839C832D833E834F8389
:1012800058870E94EF0889819A81AB81BC81BC019B
:10129000CD010E946D098D819E81AF81B885BC0111
:1012A000CD010E94D70928960FB6F894DEBF0FBE75
:1012B000CDBFCF91DF910895DF93CF93CDB7DEB748
:1012C00060E070E080E090E020E030E040E050E05E
:1012D0000E942F09CF91DF9108950F931F93DF9301
:1012E000CF9300D000D0CDB7DEB769837A838B83EC
:1012F0009C8360E074E284E798E429813A814B8121
:101300005C810E944517DC01CB018093C703909359
:10131000C803A093C903B093CA038091C7039091F7
:10132000C803A091C903B091CA03BC01CD0120E05C
:1013300030E040EA51E40E94411788232CF4E3EBAB
:10134000F0E084E1808329C08091C7039091C803B5
:10135000A091C903B091CA03BC01CD0120E030E0E7
:101360004FE753E40E948B1888232CF0E3EBF0E066
:101370008FEF808312C003EB10E08091C703909140
:10138000C803A091C903B091CA03BC01CD010E945A
:10139000AD17DC01CB01F801808380E00F900F9046
:1013A0000F900F90CF91DF911F910F910895CF92E1
:1013B000DF92EF92FF920F931F93DF93CF9300D0B2
:1013C00000D0CDB7DEB769837A838B839C83698134
:1013D0007A818B819C812AE037ED43E25CE30E94B5
:1013E000411788232CF4E4EBF0E08FEF80834AC0B0
:1013F00069817A818B819C812DEC3CEC47EC52E435
:101400000E948B18181624F4E4EBF0E010823AC026
:101410000F2EF4EBCF2EDD24F02DE3EBF0E08081F6
:10142000882F90E0AA2797FDA095BA2FBC01CD0187
:101430000E94DB177B018C0169817A818B819C8101
:1014400020E030E048EC52EC0E944517DC01CB0173
:10145000BC01CD0120E030E040E85FE30E94DD16F2
:10146000DC01CB019C01AD01C801B7010E948F18BE
:10147000DC01CB01BC01CD010E94AD17DC01CB0129
:10148000F601808303EB10E08091C7039091C803BD
:10149000A091C903B091CA03BC01CD010E94AD1750
:1014A000DC01CB01F801808380E00F900F900F905A
:1014B0000F90CF91DF911F910F91FF90EF90DF90F0
:1014C000CF900895DF93CF93CDB7DEB7A4E6B0E019
:1014D000E4E6F0E080818F7D8C93E4E4F0E082E04C
:1014E0008083E5E4F0E083E08083E7E4F0E08DE7EB
:1014F0008083EEE6F0E082E080838AE08093C4039C
:101500008AE08093C5038AE08093C603CF91DF9180
:1015100008951F920F920FB60F9211248F93DF93AD
:10152000CF93CDB7DEB781E08093C303CF91DF9136
:101530008F910F900FBE0F901F901895DF93CF9350
:101540000F92CDB7DEB78091C303882319F483E0EF
:10155000898335C01092C3030E94E40A8091C403BA
:1015600081508093C4038091C403882311F01982B1
:1015700026C08AE08093C4030E94ED0A8091C503CF
:1015800081508093C5038091C503882311F019828F
:1015900016C08AE08093C5030E94F40A8091C603B6
:1015A00081508093C6038091C603882311F019826D
:1015B00006C08AE08093C6030E94FD0A19828981D1
:1015C0000F90CF91DF910895DF93CF93CDB7DEB722
:1015D0000E94E311CF91DF910895DF93CF93CDB7B0
:1015E000DEB7CF91DF910895DF93CF93CDB7DEB70C
:1015F0000E94AE0DCF91DF910895DF93CF93CDB7C9
:10160000DEB7CF91DF910895DF93CF93CDB7DEB7EB
:10161000AAE2B0E0EAE2F0E0808188608C930E9468
:10162000220BCF91DF910895DF93CF93CDB7DEB733
:10163000ABE2B0E0EBE2F0E080818B7F8C93CF9166
:10164000DF910895DF93CF93CDB7DEB7ABE2B0E083
:10165000EBE2F0E0808184608C93CF91DF9108957C
:10166000DF93CF93CDB7DEB7EBE2F0E08081882344
:1016700019F00E94140B02C00E94220BCF91DF913F
:101680000895DF93CF930F92CDB7DEB78983898119
:101690008093D20282ED92E00F90CF91DF91089576
:1016A000DF93CF93CDB7DEB727970FB6F894DEBFA1
:1016B0000FBECDBF8B837D836C835F834E838B8115
:1016C000882F90E0880F991FFC01E154FC4F808126
:1016D00091819A83898389819A810E94F904898101
:1016E0009A812E813F81B9010E941A05E981FA8110
:1016F0000584F685E02D81E08283E981FA81058405
:10170000F685E02D81E08183E981FA810784F08903
:10171000E02D81E08283E981FA810784F089E02D60
:1017200081E08183A4E6B0E0E4E6F0E080818B7F95
:101730008C93ACE4B0E0ECE4F0E080818C6C8C93B2
:10174000A4E2B0E0E4E2F0E0808180618C93E98182
:10175000FA8181859285E981FA81948F838FE9816D
:10176000FA8187819085E981FA81968F858FE98159
:10177000FA8183E0868BE981FA8110A2178EE981D4
:10178000FA8189819A8190A3878F89819A81439672
:1017900027960FB6F894DEBF0FBECDBFCF91DF9175
:1017A0000895DF93CF9300D0CDB7DEB79A838983B6
:1017B000E981FA8184859585FC01858596850E945D
:1017C000ED050F900F90CF91DF910895DF93CF93A8
:1017D00000D00F92CDB7DEB789837B836A83EA811D
:1017E000FB8184859585FC018785908969810E94AC
:1017F0002D060F900F900F90CF91DF9108951F92BB
:101800000F920FB60F9211242F933F934F935F9334
:101810006F937F938F939F93AF93BF93EF93FF93B8
:10182000DF93CF9300D00F92CDB7DEB7EEE4F0E0B8
:1018300080818B83E091C103F091C20387859089F9
:101840000E94ED059A83898389819A812FEF8F3FCA
:10185000920729F4EEE4F0E083E0808304C0EEE434
:10186000F0E089818083E091C103F091C203858516
:1018700096856B810E942D060F900F900F90CF914F
:10188000DF91FF91EF91BF91AF919F918F917F91E8
:101890006F915F914F913F912F910F900FBE0F90DD
:1018A0001F901895DF93CF93CDB7DEB72A970FB669
:1018B000F894DEBF0FBECDBF9C838B837E836D8388
:1018C00058874F83EB81FC8184A1882399F4EB81B5
:1018D000FC8181E084A3EB81FC818D819E8193A7B3
:1018E00082A7EB81FC8111A6EB81FC818F81988519
:1018F00090A787A3EB81FC8181A5282F30E0EB81A5
:10190000FC8187A190A50197281739078CF0EB81FE
:10191000FC8122A533A5EB81FC8187A190A5F9016B
:10192000E80FF91F10828DE090E09A87898757C0F1
:10193000EB81FC81858596850E94ED059A838983DC
:1019400089819A812FEF8F3F920729F482E090E0FE
:101950009A87898744C089819A818A30910559F58F
:10196000EB81FC8122A533A5EB81FC8141A5842F6D
:1019700090E0F901E80FF91F8AE08083842F8F5FE0
:10198000EB81FC8181A7EB81FC8122A533A5EB8152
:10199000FC8141A5842F90E0F901E80FF91F108226
:1019A000842F8F5FEB81FC8181A7EB81FC8114A2E6
:1019B0001A86198614C0EB81FC8122A533A5EB8120
:1019C000FC8141A5842F90E0F901E80FF91F89817E
:1019D0008083842F8F5FEB81FC8181A78BCF8985EA
:1019E0009A852A960FB6F894DEBF0FBECDBFCF9171
:1019F000DF910895DF93CF93CDB7DEB78FEF92E0FD
:101A000060E070E046E250E00E94881A80E090E0DA
:101A1000A0E4B0E480930D0390930E03A0930F0312
:101A2000B093100380E090E0A4EBB2E48093150340
:101A300090931603A0931703B093180380E090E0EF
:101A4000A6E9B3E48093190390931A03A0931B03B0
:101A5000B0931C0380E090E0A0E2B2E480931D0309
:101A600090931E03A0931F03B093200380E090E0A7
:101A7000A6E9B3E48093210390932203A093230368
:101A8000B093240385E0809303030E943B110E94DE
:101A9000310FCF91DF910895DF93CF9300D000D025
:101AA000CDB7DEB769837A838B839C838091FF02F5
:101AB0008230A9F18091FF02833089F10E94861162
:101AC0000E9499110E947F0F60E070E08AE794E421
:101AD00020E030E040E050E00E942F0989819A81A7
:101AE000AB81BC818093090390930A03A0930B03FD
:101AF000B0930C03109202031092040380E090E074
:101B0000A0E0B0E08093110390931203A09313031D
:101B1000B093140382E08093FF020E94220B0F9087
:101B20000F900F900F90CF91DF910895DF93CF9397
:101B300000D0CDB7DEB789836A830E945C090E941A
:101B4000901189818093FF028A81809300030E9413
:101B5000220B0F900F90CF91DF910895DF93CF93D9
:101B600000D000D0CDB7DEB78091FF02882309F402
:101B700071C18091FF02813009F46CC10E949C0206
:101B80000E94B711DC01CB018093050390930603FB
:101B9000A0930703B0930803809105039091060377
:101BA000A0910703B09108032091210330912203F3
:101BB0004091230350912403BC01CD010E948B1856
:101BC00018162CF481E063E00E94960D43C10E9438
:101BD00099118091050390910603A0910703B0919C
:101BE0000803BC01CD0123E333E948E853EC0E942C
:101BF00041178823ECF4809104038F5F80930403E2
:101C00009091040380910303891708F023C181E0B8
:101C100064E00E94960D80E991E000D0EDB7FEB738
:101C20003196918380830E94DB1A0F900F9012C12E
:101C3000109204038091090390910A03A0910B0371
:101C4000B0910C03209105033091060340910703E6
:101C500050910803BC01CD010E94AA0FDC01CB0109
:101C600089839A83AB83BC8389819A81AB81BC8150
:101C7000BC01CD010E94D7098091FF02823009F09A
:101C800094C08091110390911203A0911303B0911D
:101C90001403BC01CD012DEC3CEC4CEC5DE30E9447
:101CA000DD16DC01CB018093110390931203A09306
:101CB0001303B09314038091050390910603A09140
:101CC0000703B091080320911D0330911E0340913A
:101CD0001F0350912003BC01CD010E9441178823AE
:101CE0003CF58091110390911203A0911303B091E0
:101CF000140320911503309116034091170350915E
:101D00001803BC01CD010E948B1818168CF481E0D9
:101D100061E00E94960D81E791E000D0EDB7FEB73B
:101D20003196918380830E94DB1A0F900F9092C0AE
:101D30008091050390910603A0910703B0910803D9
:101D40002091090330910A0340910B0350910C0339
:101D5000BC01CD010E94411788233CF580911103FD
:101D600090911203A0911303B091140320911903D1
:101D700030911A0340911B0350911C03BC01CD010B
:101D80000E948B1818168CF481E062E00E94960D78
:101D900082E591E000D0EDB7FEB731969183808364
:101DA0000E94DB1A0F900F9055C0809133039091E1
:101DB0003403A0913503B0913603BF7720910D0312
:101DC00030910E0340910F0350911003BC01CD01DF
:101DD0000E944117181684F0809102038F5F809350
:101DE0000203809102038B300CF18AE0809302039E
:101DF00083E08093FF021AC0809102038150809398
:101E000002038091020318168CF01092020380E006
:101E100090E0A0E0B0E08093110390931203A093B0
:101E20001303B093140382E08093FF028091FF02BA
:101E3000833019F40E94140B0DC0809101038F5F51
:101E40008093010380910103843020F010920103FC
:101E50000E94300B0F900F900F900F90CF91DF9159
:101E60000895DF93CF93CDB7DEB785E293E060E0CE
:101E700070E04AE250E00E94881A80E090E0A0EA18
:101E8000B0E48093430390934403A0934503B0933D
:101E900046038DEC9CECACECBDE380934703909340
:101EA0004803A0934903B0934A0380E090E0A0E088
:101EB000BFE380934B0390934C03A0934D03B093E7
:101EC0004E0380E090E0A8ECB2E480932B03909363
:101ED0002C03A0932D03B0932E0380E090E0A0E0AC
:101EE000B0E080932F0390933003A0933103B0931D
:101EF000320381E080932503CF91DF910895DF9332
:101F0000CF93CDB7DEB780E090E0A0E0B0E0809363
:101F1000270390932803A0932903B0932A0380E01A
:101F200090E0A8E4B3E480933B0390933C03A09338
:101F30003D03B0933E0380E090E0A0E0B0E08093EA
:101F4000370390933803A0933903B0933A03CF91AA
:101F5000DF910895EF92FF920F931F93DF93CF933A
:101F6000CDB7DEB72C970FB6F894DEBF0FBECDBF4E
:101F700069837A838B839C832D833E834F83588729
:101F800080912503882369F480912F039091300379
:101F9000A0913103B091320389879A87AB87BC87C0
:101FA00057C169817A818B819C812D813E814F81CE
:101FB00058850E94DC16DC01CB018093330390939B
:101FC0003403A0933503B09336038091330390918B
:101FD0003403A0913503B0913603BF77BC01CD0126
:101FE0002DEC3CEC4CEC5DE30E948B1818160CF0C9
:101FF00040C08091270390912803A0912903B091BC
:102000002A0320912B0330912C0340912D035091F2
:102010002E03BC01CD010E944117882354F5E090A6
:102020003B03F0903C0300913D0310913E038091EF
:10203000330390913403A0913503B0913603BC0172
:10204000CD012DEC3CEC4CEC5DE30E948F18DC01E3
:10205000CB019C01AD01C801B7010E94DD16DC0176
:10206000CB0180933B0390933C03A0933D03B0933B
:102070003E038091330390913403A0913503B091D6
:102080003603209137033091380340913903509142
:102090003A03BC01CD010E94DC16DC01CB01BC017E
:1020A000CD012DEC3CEC4CEC5DE30E944517DC01CE
:1020B000CB0180933F0390934003A0934103B093DF
:1020C00042038091430390914403A0914503B09152
:1020D00046032091330330913403409135035091EE
:1020E0003603BC01CD010E948F18DC01CB017C01BD
:1020F0008D018091470390914803A0914903B091CD
:102100004A0320913B0330913C0340913D035091A1
:102110003E03BC01CD010E948F18DC01CB019C0164
:10212000AD01C801B7010E94DD16DC01CB017C01C5
:102130008D0180914B0390914C03A0914D03B09180
:102140004E0320913F033091400340914103509151
:102150004203BC01CD010E948F18DC01CB019C0120
:10216000AD01C801B7010E94DD16DC01CB018093EF
:10217000270390932803A0932903B0932A03809107
:10218000270390912803A0912903B0912A0320915D
:102190002B0330912C0340912D0350912E03BC0151
:1021A000CD010E948B1818168CF480912B0390910E
:1021B0002C03A0912D03B0912E03809327039093BD
:1021C0002803A0932903B0932A0326C080912703F4
:1021D00090912803A0912903B0912A0320912F0305
:1021E000309130034091310350913203BC01CD0155
:1021F0000E944117882384F480912F03909130032B
:10220000A0913103B0913203809327039093280368
:10221000A0932903B0932A03809133039091340350
:10222000A0913503B0913603809337039093380320
:10223000A0933903B0933A03809127039091280328
:10224000A0912903B0912A0389879A87AB87BC871D
:1022500089859A85AB85BC85BC01CD012C960FB6CE
:10226000F894DEBF0FBECDBFCF91DF911F910F91CC
:10227000FF90EF900895DF93CF93CDB7DEB78FE453
:1022800093E060E070E040E750E00E94881A83E34A
:1022900093E9A8E8B3EC8093530390935403A0937D
:1022A0005503B09356038DEC9CECACE8BFE38093F0
:1022B0005B0390935C03A0935D03B0935E0380E0A7
:1022C00090E0A0EAB1E480935F0390936003A09351
:1022D0006103B093620380E090E0A8ECB3E48093E4
:1022E000630390936403A0936503B093660380E057
:1022F00090E0A0E0B0EC8093670390936803A09314
:102300006903B0936A03CF91DF910895DF93CF9370
:10231000CDB7DEB781E080934F03CF91DF91089571
:10232000DF93CF93CDB7DEB710924F03CF91DF91FC
:102330000895DF93CF93CDB7DEB71092510381E0BC
:1023400080935003CF91DF910895DF93CF93CDB762
:10235000DEB780914F03CF91DF910895DF93CF9344
:10236000CDB7DEB780915003CF91DF910895DF9311
:10237000CF9300D000D0CDB7DEB780914F0383302C
:1023800069F48091530390915403A0915503B09147
:10239000560389839A83AB83BC8308C080E090E0B6
:1023A000A9E8B3EC89839A83AB83BC8389819A8142
:1023B000AB81BC81BC01CD010F900F900F900F90AD
:1023C000CF91DF910895EF92FF920F931F93DF93C8
:1023D000CF9300D000D00F92CDB7DEB780914F03DE
:1023E000882309F42BC180915003813009F026C164
:1023F00080915103082F10E080E00E942A139B0176
:10240000AC01C8010796880F991F880F991FFC011E
:10241000E15BFC4F208331834283538380915103DE
:102420008F5F8093510380915103843108F406C17A
:102430008BE693E09E012E5F3F4F64E1A9010E946D
:102440007301DC01CB018093570390935803A09351
:102450005903B0935A038091570390915803A09168
:102460005903B0915A0320915F033091600340916A
:10247000610350916203BC01CD010E948B181816B4
:102480003CF482E080934F0382E080935003D6C0F7
:102490001092520380E090E0A0E0B0E080935303FC
:1024A00090935403A0935503B0935603198268C0C8
:1024B0008981882F90E00796880F991F880F991FB0
:1024C000FC01E15BFC4F80819181A281B3812A8173
:1024D0003B814C815D81BC01CD010E94DC16DC0199
:1024E000CB017C018D01E89417F980915B039091F9
:1024F0005C03A0915D03B0915E032091570330917E
:1025000058034091590350915A03BC01CD010E94D8
:102510008F18DC01CB019C01AD01C801B7010E94FD
:102520004117882354F5E0905303F0905403009131
:102530005503109156038981882F90E00796880FE4
:10254000991F880F991FFC01E15BFC4F20813181AD
:1025500042815381C801B7010E94DD16DC01CB0125
:102560008093530390935403A0935503B093560361
:10257000809152038F5F8093520389818F5F89839B
:102580008981843108F494CFE0905303F090540390
:10259000009155031091560380915203882F90E0CB
:1025A000AA2797FDA095BA2FBC01CD010E94DB1789
:1025B0009B01AC01C801B7010E944517DC01CB01AA
:1025C0008093530390935403A0935503B093560301
:1025D00083E080934F0310925003809153039091B6
:1025E0005403A0915503B0915603BC01CD0120E0E6
:1025F00030E048EC53E40E948B1818163CF482E05B
:1026000080934F0383E08093500318C0809153035D
:1026100090915403A0915503B0915603BC01CD0194
:1026200020E030E040E050EC0E944117882334F471
:1026300082E080934F0384E0809350030F900F90CB
:102640000F900F900F90CF91DF911F910F91FF90FE
:10265000EF900895DF93CF930F92CDB7DEB78983C4
:102660000E94CB08CC01A0E0B0E0BC01CD010E94EB
:10267000D917DC01CB01BC01CD0126E03FEA4AEFCE
:102680005EE30E948F18DC01CB01BC01CD0123ED7C
:1026900031EB46ED5EE30E94DC16DC01CB01BC01B0
:1026A000CD010F90CF91DF910895A1E1B0E0EBE56E
:1026B000F3E10C946E193C017F876E876A01FC017F
:1026C00017821682838181FD03C06FEF7FEF6FC396
:1026D0009E012F5F3F4F398B288BF3012381EE85BD
:1026E000FF8523FD859123FF8191FF87EE87882356
:1026F00009F45AC3853251F4EE85FF8523FD859197
:1027000023FF8191FF87EE87853229F490E0B301A2
:102710000E949A1AE2CF982F10E088249924103250
:10272000B0F49B3269F09C3228F4903251F093322D
:1027300071F40BC09D3239F0903349F4116028C018
:102740001260146025C0186023C0106121C017FDFD
:102750002AC0892F80538A3078F416FF06C0FAE029
:102760009F9E902C1124980E13C03AE0839E802CDB
:102770001124880E10620CC09E3221F416FD14C381
:10278000106406C09C3611F4106802C0983659F4E3
:10279000EE85FF8523FD959123FF9191FF87EE87BD
:1027A000992309F0BCCF892F8554833020F4812FE1
:1027B0008061905E07C0892F8556833008F09FC1E5
:1027C000812F8F7E86FD02C076E0972E6FE3F62E76
:1027D000F822953619F4F0E4FF2A07C0963619F46A
:1027E00020E8F22A02C091109A94F7FE0AC03BE357
:1027F000391518F45CE3B52E02C0B92CB39427E068
:1028000009C047E0491520F4BB2447E0942EF7CFD8
:10281000292DBB24C60104969D878C87F601608113
:10282000718182819381AE014F5F5F4F0B2D0E94BA
:10283000A5196C010981202E332400FF04C003FD7B
:1028400002C01DE209C0F1FE02C01BE205C0F2FC9D
:1028500002C010E001C010E2C1018C709070892BA1
:10286000B9F1112311F483E001C084E0881510F060
:1028700088240AC0881AF3FC07C080E290E0B30104
:102880000E949A1A8A94C9F7112329F0812F90E0A7
:10289000B3010E949A1A23FE03C008E610E00EC09E
:1028A0000CE610E00BC0E114F10409F0805290E056
:1028B000B3010E949A1A0F5F1F4F05C0EF2CFF242F
:1028C000F0E1EF22FF24F8018491882361F714C11D
:1028D000F7FE12C0BC0C24FE04C08A81813309F4C7
:1028E000BA941B141CF0BB24B3942DC0F8E0FB1564
:1028F00050F538E0B32E27C0F6FC25C0892D90E0B6
:102900008C159D054CF02CEFC2162FEFD20624F04B
:1029100030E8F32A01C09A94992049F0E2E0F0E00F
:10292000EC0FFD1FE90DF11D80818033A1F3F7FE4F
:102930000AC0B92CB394892D90E0C816D90614F0BA
:10294000992401C09C18F7FC03C025E030E009C0C1
:102950001C141D041CF021E030E003C096012F5F21
:102960003F4F112311F02F5F3F4F992029F0892D00
:1029700090E00196280F391F882D90E0281739071D
:1029800014F0882401C0821A4F2C5524C20189708A
:102990009070892B39F008C080E290E0B3010E946A
:1029A0009A1A8A948820C1F7112329F0812F90E088
:1029B000B3010E949A1A43FE07C008C080E390E06A
:1029C000B3010E949A1A8A948820C1F7F7FE46C084
:1029D0008601D7FE02C000E010E076010894E11CF9
:1029E000F11CE01AF10A41E050E04C0F5D1FE40ECB
:1029F000F51E26014B185108892D90E0AA24BB240E
:102A0000A81AB90A5FEF0F3F150729F48EE290E08C
:102A1000B3010E949A1AC016D10634F0401651062E
:102A20001CF4F701808101C080E30150104008943C
:102A3000E11CF11C0A151B052CF090E0B3010E946B
:102A40009A1AE0CF0C151D0539F49A81963318F4C3
:102A5000953311F424FE81E390E04BC08A818133E9
:102A600009F00F7E90E0B3010E949A1A9920A1F01C
:102A70008EE290E0B3010E949A1A12E0E1E0F0E0E9
:102A8000EC0FFD1FE10FF11D1F5F808190E0B3018E
:102A90000E949A1A9A9491F744FC03C085E690E04C
:102AA00002C085E490E0B3010E949A1AD7FC05C0E9
:102AB000C114D10441F404FF06C0D094C194D108DC
:102AC000D3948DE201C08BE290E0B3010E949A1A88
:102AD00080E305C08F5F26EF3FEFC20ED31E3AE0C2
:102AE000C316D104BCF790E0B3010E949A1AC60144
:102AF000C096B3010E949A1ACC84DD8452C19336E9
:102B000031F0933799F0933509F059C023C0F6019D
:102B1000808189835E010894A11CB11C22E030E011
:102B2000C20ED31E21E0E22EF12C12C0F601A080CD
:102B3000B18016FD03C06FEF7FEF02C0692D70E01A
:102B400022E030E0C20ED31EC5010E948F1A7C0124
:102B50001F7713C0F601A080B18016FD03C06FEF90
:102B60007FEF02C0692D70E022E030E0C20ED31E7C
:102B7000C5010E947D1A7C01106813FF07C01BC0AD
:102B800080E290E0B3010E949A1A8A94882D90E026
:102B9000E816F906A8F30FC0F50117FD859117FF98
:102BA00081915F0190E0B3010E949A1A81108A948A
:102BB0000894E108F108E114F10471F7F2C09436C9
:102BC00011F0993689F517FF08C0F601208131818F
:102BD0004281538184E090E00AC0F60180819181B6
:102BE0009C01442737FD4095542F82E090E0C80EA9
:102BF000D91E9FE6F92EF12257FF09C05095409546
:102C0000309521953F4F4F4F5F4F90E8F92ACA0109
:102C1000B901AE014F5F5F4F2AE030E00E94011B17
:102C2000E82EE889EE1A41C0953721F41F7E2AE08C
:102C300030E01CC0197F9F3661F0903720F4983542
:102C400009F0B2C00FC0903739F0983709F0ACC026
:102C500004C028E030E00AC0106114FD146020E1D7
:102C600030E004C014FD166020E132E017FF08C018
:102C7000F601608171818281938144E050E008C057
:102C8000F60180819181BC0180E090E042E050E05B
:102C9000C40ED51EAE014F5F5F4F0E94011BE82E90
:102CA0005889E51A8FE7F82EF122F6FE0BC08EEF59
:102CB000F822E91438F4F4FE07C0F2FC05C09FEED8
:102CC000F92202C01E2D01C0192DF4FE0DC0FE0117
:102CD000EE0DF11D8081803319F4E9EEFE2208C06B
:102CE0001F5FF2FE05C003C08F2D867809F01F5FBD
:102CF0000F2DF3FC14C0F0FE0FC0181510F09E2C21
:102D00000BC09E2C980C911A182D06C080E290E002
:102D1000B3010E949A1A1F5F1815C0F304C018155A
:102D200010F4811A01C0882404FF0FC080E390E0F2
:102D3000B3010E949A1A02FF1DC001FD03C088E77B
:102D400090E00EC088E590E00BC0802F867891F06F
:102D500001FF02C08BE201C080E2F7FC8DE290E04F
:102D6000B3010E949A1A06C080E390E0B3010E946A
:102D70009A1A9A94E914C0F3EA94E1E0F0E0EC0FB7
:102D8000FD1FEE0DF11D808190E0B3010E949A1AA3
:102D9000EE2091F706C080E290E0B3010E949A1AFB
:102DA0008A948820C1F799CCF30166817781CB01A1
:102DB0006196E2E10C948A195058BB27AA270ED0DD
:102DC00070C161D130F066D120F031F49F3F11F431
:102DD0001EF456C10EF4E095E7FB4CC1E92F72D109
:102DE00080F3BA17620773078407950718F071F428
:102DF0009EF58AC10EF4E0950B2EBA2FA02D0B0183
:102E0000B90190010C01CA01A0011124FF27591B2F
:102E100099F0593F50F4503E68F11A16F040A22F35
:102E2000232F342F4427585FF3CF469537952795A6
:102E3000A795F0405395C9F77EF41F16BA0B620BA5
:102E4000730B840BBAF09150A1F0FF0FBB1F661FEC
:102E5000771F881FC2F70EC0BA0F621F731F841F2F
:102E600048F4879577956795B795F7959E3F08F055
:102E7000B3CF9395880F08F09927EE0F9795879514
:102E80000895D4D008F481E008950CD00AC102D18D
:102E900040F0F9D030F021F45F3F19F0EBC0511150
:102EA00034C1EEC00FD198F39923C9F35523B1F380
:102EB000951B550BBB27AA2762177307840738F0A9
:102EC0009F5F5F4F220F331F441FAA1FA9F333D008
:102ED0000E2E3AF0E0E830D091505040E695001CBC
:102EE000CAF729D0FE2F27D0660F771F881FBB1F78
:102EF000261737074807AB07B0E809F0BB0B802D52
:102F0000BF01FF2793585F4F2AF09E3F510568F09D
:102F1000B1C0FBC05F3FECF3983EDCF3869577953C
:102F20006795B795F7959F5FC9F7880F911D96959F
:102F3000879597F90895E1E0660F771F881FBB1FFB
:102F4000621773078407BA0720F0621B730B840BA8
:102F5000BA0BEE1F88F7E0950895BCD088F09F5714
:102F600090F0B92F9927B751A0F0D1F0660F771FD5
:102F7000881F991F1AF0BA95C9F712C0B13081F0B5
:102F8000C3D0B1E00895C0C0672F782F8827B85FFD
:102F900039F0B93FCCF3869577956795B395D9F716
:102FA0003EF490958095709561957F4F8F4F9F4F20
:102FB0000895E89409C097FB3EF49095809570952C
:102FC00061957F4F8F4F9F4F9923A9F0F92F96E975
:102FD000BB279395F695879577956795B795F111EA
:102FE000F8CFFAF4BB0F11F460FF1BC06F5F7F4F87
:102FF0008F4F9F4F16C0882311F096E911C0772399
:1030000021F09EE8872F762F05C0662371F096E8A1
:10301000862F70E060E02AF09A95660F771F881F70
:10302000DAF7880F9695879597F90895990F000814
:10303000550FAA0BE0E8FEEF16161706E807F9078A
:10304000C0F012161306E407F50798F0621B730B25
:10305000840B950B39F40A2661F0232B242B252BA6
:1030600021F408950A2609F4A140A6958FEF811D49
:10307000811D089597F99F6780E870E060E00895EA
:103080009FEF80EC089500240A9416161706180680
:103090000906089500240A9412161306140605065C
:1030A0000895092E0394000C11F4882352F0BB0FED
:1030B00040F4BF2B11F460FF04C06F5F7F4F8F4F50
:1030C0009F4F089557FD9058440F551F59F05F3F8B
:1030D00071F04795880F97FB991F61F09F3F79F03A
:1030E00087950895121613061406551FF2CF4695BC
:1030F000F1DF08C0161617061806991FF1CF86953E
:103100007105610508940895E894BB276627772721
:10311000CB0197F908958ADF08F48FEF08950BD05B
:10312000C0CFB1DF28F0B6DF18F0952309F0A2CFA9
:10313000A7CF1124EACFC6DFA0F3959FD1F3950F57
:1031400050E0551F629FF001729FBB27F00DB11D2B
:10315000639FAA27F00DB11DAA1F649F6627B00DBB
:10316000A11D661F829F2227B00DA11D621F739FA4
:10317000B00DA11D621F839FA00D611D221F749FB2
:103180003327A00D611D231F849F600D211D822FF9
:10319000762F6A2F11249F5750408AF0E1F0882340
:1031A0004AF0EE0FFF1FBB1F661F771F881F91504D
:1031B0005040A9F79E3F510570F05CCFA6CF5F3F0E
:1031C000ECF3983EDCF3869577956795B795F79580
:1031D000E7959F5FC1F7FE2B880F911D9695879508
:1031E00097F9089511F40EF44BCF41C073DFD0F37B
:1031F0009923D9F3CEF39F57550B87FF46D0002470
:10320000A0E640EA900180585695979528F4805C96
:10321000660F771F881F20F026173707480730F4FE
:10322000621B730B840B202931294A2BA695179416
:103230000794202531254A2758F7660F771F881FE6
:1032400020F026173707480730F4620B730B840B06
:10325000200D311D411DA09581F7B901842F915892
:10326000880F9695879508959B01AC0158CF9F3F95
:1032700031F0915020F4879577956795B795880F31
:10328000911D9695879597F9089591505040660F36
:10329000771F881FD2F70895A1E21A2EAA1BBB1B25
:1032A000FD010DC0AA1FBB1FEE1FFF1FA217B30712
:1032B000E407F50720F0A21BB30BE40BF50B661F28
:1032C000771F881F991F1A9469F7609570958095EC
:1032D00090959B01AC01BD01CF0108952F923F92C3
:1032E0004F925F926F927F928F929F92AF92BF9216
:1032F000CF92DF92EF92FF920F931F93CF93DF93C2
:10330000CDB7DEB7CA1BDB0B0FB6F894DEBF0FBE1E
:10331000CDBF09942A88398848885F846E847D846B
:103320008C849B84AA84B984C884DF80EE80FD806D
:103330000C811B81AA81B981CE0FD11D0FB6F894E3
:10334000DEBF0FBECDBFED010895283008F027E0A5
:103350003327DA01990F311D87FD916000966105D1
:10336000710539F432602E5F3D9330E32A95E1F721
:1033700008959F3F30F080387105610509F03C5F8A
:103380003C5F3D93913008F08068911DDF93CF93AF
:103390001F930F93FF92EF92192F987F9695E92F25
:1033A00096959695E90FFF27E85FFD4F99273327FC
:1033B000EE24FF24A701E70105900894079428F460
:1033C000360FE71EF81E491F511D660F771F881F15
:1033D000991F0694A1F70590079428F4E70EF81EAC
:1033E000491F561FC11D770F881F991F661F06941E
:1033F000A1F70590079428F4F80E491F561FC71F20
:10340000D11D880F991F661F771F0694A1F705909D
:10341000079420F4490F561FC71FD81F990F661F26
:10342000771F881F0694A9F784911095177041F0B3
:10343000D695C79557954795F794E7941A95C1F790
:10344000EEEAF1E0689415901591359165919591AA
:1034500005907FE27395E118F10A430B560BC90BF7
:10346000D009C0F7E10CF11E431F561FC91FD01D24
:103470007EF4703311F48A95E6CFE894015030F071
:10348000080F0AF40027021708F4202F2395022FB3
:103490007A3328F079E37D932A95E9F710C07D937C
:1034A0002A9589F6069497956795379517951794F9
:1034B000E118F10A430B560BC90BD00998F023957C
:1034C0007E9173957A3308F070E37C932013B8F7FC
:1034D0007E9170617D9330F0839571E37D9370E30D
:1034E0002A95E1F71124EF90FF900F911F91CF9152
:1034F000DF91992787FD90950895FC010590615013
:1035000070400110D8F7809590958E0F9F1F0895F9
:10351000DC0101C06D9341505040E0F70895FC017B
:103520006150704001900110D8F7809590958E0FF2
:103530009F1F08950F931F93CF93DF938C01EB018F
:103540008B8181FF1BC082FF0DC02E813F818C814A
:103550009D812817390764F4E881F9810193F98383
:10356000E88306C0E885F985802F0995892B31F419
:103570008E819F8101969F838E8302C00FEF1FEF84
:10358000C801DF91CF911F910F910895A0E0B0E0A5
:10359000ECECFAE10C947E19FE0135966191719183
:1035A0008091100490911104AF010E945513209650
:1035B000E2E00C949A19A0E0B0E0E1EEFAE10C949C
:1035C0007E19FE01359661917191A0911004B09120
:1035D000110413968C911397886013968C938091A5
:1035E000100490911104AF010E945513E091100452
:1035F000F09111042381277F23832096E2E00C942D
:103600009A19FA01AA27283051F1203181F1E89462
:103610006F936E7F6E5F7F4F8F4F9F4FAF4FB1E0C5
:103620003ED0B4E03CD0670F781F891F9A1FA11DC0
:10363000680F791F8A1F911DA11D6A0F711D811DC1
:10364000911DA11D20D009F468943F912AE0269F86
:1036500011243019305D3193DEF6CF010895462FE5
:103660004770405D4193B3E00FD0C9F7F6CF462FC6
:103670004F70405D4A3318F0495D31FD405241932F
:1036800002D0A9F7EACFB4E0A695979587957795EC
:103690006795BA95C9F700976105710508959B0173
:1036A000AC010A2E06945795479537952795BA95FC
:1036B000C9F7620F731F841F951FA01D0895F8940A
:0236C000FFCF3A
:1036C20030313233343536372573000F01010000B3
:1036D20000000000000000000000000000003F01A8
:1036E20001000000000000000000000000000000D7
:1036F20000000000000000000000000000000000C8
:1037020000000000000000000000000000000000B7
:1037120000000000000000000000000000000000A7
:103722000000C6061A0566052D088B070E050B015B
:103732001E01000000000000000000000000000068
:10374200000000000000000000000000003F010136
:103752000000000000000000000000000000000067
:103762000000000000000000000000000000000057
:103772000000000000000000000000000000000047
:103782000000000000000000000000000000000037
:10379200FE01010000000000000000000000000027
:1037A2000000000000000000000000000000000017
:1037B2000000000000000000000000000000000007
:1037C20000000000000000000000000000000000F7
:1037D20000000000000000000000000000000000E7
:1037E20000000000000000000000000000000000D7
:1037F20000000000000000000000000000000000C7
:1038020000000000000000000000000000000000B6
:1038120000000000000000000000000000000000A6
:103822000000000000000000000000000000000096
:103832000000000000000000000000000000000086
:103842000000000000000000000000000000000076
:103852000000000000000000000000000000000066
:103862000000000000000000000000000000000056
:103872000000000000000000000000000000000046
:103882000000000000000000000000000000000036
:10389200000001500B1A05520CD10BE60B0E058DE0
:1038A20001D0010000000000000000000000000044
:0E38B200000000000000000000000000000008
:00000001FF
