:100000000C94C0000C94DD000C94DD000C94DD0019
:100010000C94DD000C94DD000C94DD000C94DD00EC
:100020000C94DD000C94DD000C94DD000C94DD00DC
:100030000C94DD000C94DD000C94DD000C94DD00CC
:100040000C94DD000C94DD000C9424050C94DD046C
:100050000C94DD000C94DD000C94DD000C94DD00AC
:100060000C94DD000C94DD006E616E00696E66001C
:100070000A44657669636520496E697469616C69D3
:100080007A65640A0000407A10F35A00A0724E1894
:10009000090010A5D4E80000E87648170000E40B3A
:1000A00054020000CA9A3B000000E1F50500008000
:1000B000969800000040420F000000A0860100005A
:1000C00000102700000000E80300000000640000AA
:1000D0000000000A00000000000100000000002CE9
:1000E00076D888DC674F0823DFC1DFAE59E1B1B7AE
:1000F00096E5E3E453C63AE651997696E8E6C2847B
:1001000026EB898C9B62ED407C6FFCEFBC9C9F4092
:10011000F2BAA56FA5F490055A2AF75C936B6CF9B7
:10012000676DC11BFCE0E40D47FEF520E6B500D08D
:10013000ED902E0300943577050080841E080000A2
:10014000204E0A000000C80C333333330F986E1270
:10015000831141EF8D2114893BE65516CFFEE6DB76
:1001600018D1844B381BF77C1D901DA4BBE42420C0
:100170003284725E228100C9F124ECA1E53D2700A2
:1001800011241FBECFEFD8E0DEBFCDBF11E0A0E04D
:10019000B1E0E8E3F7E102C005900D92A237B107A4
:1001A000D9F712E0A2E7B1E001C01D92AD39B10765
:1001B000E1F70E9402010C949A0B0C940000DF936B
:1001C000CF93CDB7DEB70E94E800CF91DF910895BD
:1001D000DF93CF93CDB7DEB7CF91DF910895DF9353
:1001E000CF93CDB7DEB780E790E000D0EDB7FEB794
:1001F0003196918380830E94160B0F900F90CF91C0
:10020000DF910895DF93CF93CDB7DEB7F8940E94C6
:1002100008060E9464010E94DF000E942701789472
:100220000E94EF000E9417010E942001FDCFDF9382
:10023000CF93CDB7DEB70E94B203CF91DF9108957F
:10024000DF93CF93CDB7DEB7CF91DF910895DF93E2
:10025000CF93CDB7DEB7AAE2B0E0EAE2F0E080816A
:1002600088608C930E944501CF91DF910895DF93C0
:10027000CF93CDB7DEB7ABE2B0E0EBE2F0E0808148
:100280008B7F8C93CF91DF910895DF93CF93CDB780
:10029000DEB7ABE2B0E0EBE2F0E0808184608C930B
:1002A000CF91DF910895DF93CF93CDB7DEB7EBE227
:1002B000F0E08081882319F00E94370102C00E947B
:1002C0004501CF91DF910895DF93CF93CDB7DEB78E
:1002D00080E00E94DC0390933C0280933B0281E02B
:1002E0000E94DC0390933E0280933D0280E060E038
:1002F00070E045E150E10E94A50181E060E070E01E
:1003000041E150E10E94A50180E00E94E60280E008
:100310000E94FF0281E00E941803CF91DF910895AF
:10032000DF93CF9300D0CDB7DEB79A838983E9817D
:10033000FA8114A2E981FA8115A2E981FA8116A253
:100340000F900F90CF91DF910895DF93CF9300D05E
:1003500000D00F92CDB7DEB789837B836A835D833C
:100360004C838981882F90E0880F991FFC01E55C00
:10037000FD4F0190F081E02D0180F281E02D2A8176
:100380003B814C815D818981B90109950F900F9066
:100390000F900F900F90CF91DF910895DF93CF933F
:1003A00000D000D00F92CDB7DEB789837B836A83FC
:1003B0005D834C838981882F90E0880F991FFC0111
:1003C000E55CFD4F0190F081E02DA581B68189812A
:1003D000882F90E0880F991FFC01E55CFD4F80811C
:1003E00091812A813B814C815D81B901FD01099593
:1003F0000F900F900F900F900F90CF91DF91089575
:10040000DF93CF930F92CDB7DEB789838981882F91
:1004100090E0880F991FFC01E55CFD4F0190F08191
:10042000E02D278130858981882F90E0880F991FE2
:10043000FC01E55CFD4F808191814396F9010995AE
:100440000F90CF91DF910895DF93CF9300D0CDB778
:10045000DEB789836A838981882F90E0880F991F8E
:10046000FC01E55CFD4F0190F081E02D4185528556
:100470008981882F90E0880F991FFC01E55CFD4F72
:10048000808191819C012D5E3F4F8A81B901FA01E3
:1004900009950F900F90CF91DF910895DF93CF933F
:1004A00000D00F92CDB7DEB789837B836A838981C1
:1004B000882F90E0880F991FFC01E55CFD4F80813B
:1004C00091812A813B81B9010E946C020F900F90AB
:1004D0000F90CF91DF910895DF93CF9300D000D09C
:1004E000CDB7DEB79A8389837C836B838B819C81B4
:1004F00081709070882321F0E981FA8181E081A3E5
:100500008B819C8182709070009719F0E981FA814B
:1005100011A28B819C8180719070009721F0E981FC
:10052000FA8181E082A38B819C8180729070009718
:1005300019F0E981FA8112A28B819C8180709071FF
:10054000009721F0E981FA8181E083A38B819C816E
:1005500080709072009719F0E981FA8113A280E00F
:1005600090E00F900F900F900F90CF91DF91089532
:10057000DF93CF9300D0CDB7DEB789836A838981BB
:10058000882F90E0880F991FFC01E55CFD4F60818A
:1005900071818A81282F30E040E050E0CB01BA0120
:1005A000A9010E946D0480E090E00F900F90CF9120
:1005B000DF910895DF93CF9300D0CDB7DEB79A8354
:1005C00089830F900F90CF91DF910895DF93CF93A0
:1005D0000F92CDB7DEB789838981882F90E0880F8D
:1005E000991FFC01E55CFD4F8081918143969093BA
:1005F0009802809397020F90CF91DF910895DF9337
:10060000CF930F92CDB7DEB789838981882F90E091
:10061000880F991FFC01E55CFD4F80819181439615
:1006200090939A02809399020F90CF91DF91089551
:10063000DF93CF930F92CDB7DEB789838981882F5F
:1006400090E0880F991FFC01E55CFD4F808191814E
:10065000439690939C0280939B020F90CF91DF91E1
:100660000895DF93CF9300D000D00F92CDB7DEB7BF
:100670009B838A83EA81FB819281EA81FB8181816C
:10068000981729F42FEF3FEF3D832C8324C0EA8194
:10069000FB818181282F30E08A819B81820F931F0B
:1006A000FC01339680818983EA81FB8181818150BD
:1006B000EA81FB818183EA81FB818181882331F496
:1006C000EA81FB818081EA81FB8181838981282FF6
:1006D00030E03D832C838C819D810F900F900F9093
:1006E0000F900F90CF91DF910895DF93CF9300D0BB
:1006F00000D000D0CDB7DEB79B838A836C83EA81BC
:10070000FB818281815089838981882321F4EA8158
:10071000FB8180818983EA81FB819181898198179E
:1007200029F48FEF9FEF9E838D8311C08981282F3D
:1007300030E08A819B81820F931FFC0133968C816C
:100740008083EA81FB81898182831E821D828D8163
:100750009E8126960FB6F894DEBF0FBECDBFCF9117
:10076000DF910895DF93CF93CDB7DEB780E00E948D
:10077000CA0381E00E94CA03CF91DF910895DF93FD
:10078000CF930F92CDB7DEB78983898165E30E944D
:100790002402FBCFDF93CF9300D0CDB7DEB78A839F
:1007A0008A810E940002898389818F3FC9F38A81EF
:1007B00069810E942402F4CFDF93CF930F92CDB7CB
:1007C000DEB7898389818093460186E491E00F90AA
:1007D000CF91DF910895DF93CF93CDB7DEB7279701
:1007E0000FB6F894DEBF0FBECDBF8B837D836C83C5
:1007F0005F834E838B81882F90E0880F991FFC01C7
:10080000E55CFD4F808191819A83898389819A81FA
:100810000E94900189819A812E813F81B9010E94B5
:100820006C02E981FA810584F685E02D81E08283FE
:10083000E981FA810584F685E02D81E08183E981F3
:10084000FA810784F089E02D81E08283E981FA81D1
:100850000784F089E02D81E08183A4E6B0E0E4E63E
:10086000F0E080818D7F8C93E0ECF0E01082E1EC91
:10087000F0E088E9808389819A8140E052EC61E070
:1008800070E00E946D04E981FA8181859285E98199
:10089000FA81948F838FE981FA8187819085E9813C
:1008A000FA81968F858FE981FA8183E0868BE981D1
:1008B000FA8110A2178EE981FA8189819A8190A329
:1008C000878F89819A81439627960FB6F894DEBF69
:1008D0000FBECDBFCF91DF9108950F931F93DF938C
:1008E000CF9300D000D000D0CDB7DEB79A838983F4
:1008F0004B835C836D837E8304EC10E08B819C8151
:10090000AD81BE81880F991FAA1FBB1F880F991F39
:10091000AA1FBB1F880F991FAA1FBB1F9C01AD01F7
:1009200080E094E2A4EFB0E0BC01CD010E94A309F5
:10093000DA01C9010197F80191838083A0ECB0E04E
:10094000E0ECF0E080818D7F8C9326960FB6F894D2
:10095000DEBF0FBECDBFCF91DF911F910F910895E4
:10096000DF93CF9300D000D00F92CDB7DEB78B834B
:100970007D836C83EC81FD8184859585FC01878571
:1009800090896B810E9475039A83898389819A81FA
:100990002FEF8F3F920739F0A1ECB0E0E1ECF0E0EF
:1009A000808180628C9389819A810F900F900F9043
:1009B0000F900F90CF91DF9108951F920F920FB675
:1009C0000F9211242F933F934F935F936F937F93D5
:1009D0008F939F93AF93BF93EF93FF93DF93CF9347
:1009E00000D0CDB7DEB7E0913B02F0913C028785A5
:1009F00090890E9431039A83898389819A812FEF9C
:100A00008F3F920741F4A1ECB0E0E1ECF0E080818F
:100A10008F7D8C9304C0E6ECF0E0898180830F9099
:100A20000F90CF91DF91FF91EF91BF91AF919F9187
:100A30008F917F916F915F914F913F912F910F9087
:100A40000FBE0F901F9018951F920F920FB60F9226
:100A500011242F933F934F935F936F937F938F93C3
:100A60009F93AF93BF93EF93FF93DF93CF93CDB754
:100A7000DEB7E0913B02F0913C0285859685E6EC7D
:100A8000F0E02081622F0E947503CF91DF91FF91EA
:100A9000EF91BF91AF919F918F917F916F915F91F6
:100AA0004F913F912F910F900FBE0F901F9018956F
:100AB000DF93CF9300D00F92CDB7DEB79B838A83AD
:100AC000EA81FB8184859585FC01858596850E9458
:100AD000310389838981882F90E00F900F900F90C8
:100AE000CF91DF910895DF93CF93CDB7DEB72997EC
:100AF0000FB6F894DEBF0FBECDBF9B838A837D8384
:100B00006C835F834E83EA81FB8184A1882399F4FF
:100B1000EA81FB8181E084A3EA81FB818C819D8154
:100B200093A782A7EA81FB8111A6EA81FB818E81CE
:100B30009F8190A787A3EA81FB8181A5282F30E0C0
:100B4000EA81FB8187A190A50197281739078CF0CE
:100B5000EA81FB8122A533A5EA81FB8187A190A5CB
:100B6000F901E80FF91F10828DE090E099878887DE
:100B700036C0EA81FB81858596850E943103898391
:100B800089818A30C1F4EA81FB8122A533A5EA81FB
:100B9000FB8141A5842F90E0F901E80FF91F108235
:100BA000842F8F5FEA81FB8181A7EA81FB8114A2F8
:100BB0001986188614C0EA81FB8122A533A5EA8133
:100BC000FB8141A5842F90E0F901E80FF91F89818D
:100BD0008083842F8F5FEA81FB8181A7ACCF8885DA
:100BE000998529960FB6F894DEBF0FBECDBFCF9181
:100BF000DF910895DF93CF93CDB7DEB7CF91DF912B
:100C00000895DF93CF93CDB7DEB7CF91DF910895ED
:100C1000DF93CF93CDB7DEB7E4E6F0E08FEF8083CC
:100C2000E4E2F0E01082E7E2F0E01082EAE2F0E0D5
:100C30001082CF91DF910895A1E1B0E0E2E2F6E009
:100C40000C94C5093C017F876E876A01FC011782FD
:100C50001682838181FD03C06FEF7FEF6FC39E011A
:100C60002F5F3F4F398B288BF3012381EE85FF8562
:100C700023FD859123FF8191FF87EE87882309F467
:100C80005AC3853251F4EE85FF8523FD859123FFFC
:100C90008191FF87EE87853229F490E0B3010E94AD
:100CA000EA0AE2CF982F10E0882499241032B0F499
:100CB0009B3269F09C3228F4903251F0933271F4F7
:100CC0000BC09D3239F0903349F4116028C0126096
:100CD000146025C0186023C0106121C017FD2AC010
:100CE000892F80538A3078F416FF06C0FAE09F9E61
:100CF000902C1124980E13C03AE0839E802C11246E
:100D0000880E10620CC09E3221F416FD14C31064CC
:100D100006C09C3611F4106802C0983659F4EE856E
:100D2000FF8523FD959123FF9191FF87EE879923FE
:100D300009F0BCCF892F8554833020F4812F806146
:100D4000905E07C0892F8556833008F09FC1812FA0
:100D50008F7E86FD02C076E0972E6FE3F62EF82296
:100D6000953619F4F0E4FF2A07C0963619F420E806
:100D7000F22A02C091109A94F7FE0AC03BE339159B
:100D800018F45CE3B52E02C0B92CB39427E009C077
:100D900047E0491520F4BB2447E0942EF7CF292DD6
:100DA000BB24C60104969D878C87F6016081718102
:100DB00082819381AE014F5F5F4F0B2D0E94FC0932
:100DC0006C010981202E332400FF04C003FD02C002
:100DD0001DE209C0F1FE02C01BE205C0F2FC02C028
:100DE00010E001C010E2C1018C709070892BB9F144
:100DF000112311F483E001C084E0881510F08824E9
:100E00000AC0881AF3FC07C080E290E0B3010E9498
:100E1000EA0A8A94C9F7112329F0812F90E0B301DF
:100E20000E94EA0A23FE03C008E610E00EC00CE6AA
:100E300010E00BC0E114F10409F0805290E0B3011E
:100E40000E94EA0A0F5F1F4F05C0EF2CFF24F0E15C
:100E5000EF22FF24F8018491882361F714C1F7FE83
:100E600012C0BC0C24FE04C08A81813309F4BA94F8
:100E70001B141CF0BB24B3942DC0F8E0FB1550F5F7
:100E800038E0B32E27C0F6FC25C0892D90E08C15E4
:100E90009D054CF02CEFC2162FEFD20624F030E85F
:100EA000F32A01C09A94992049F0E2E0F0E0EC0FB7
:100EB000FD1FE90DF11D80818033A1F3F7FE0AC00B
:100EC000B92CB394892D90E0C816D90614F0992452
:100ED00001C09C18F7FC03C025E030E009C01C14D9
:100EE0001D041CF021E030E003C096012F5F3F4F4E
:100EF000112311F02F5F3F4F992029F0892D90E0A9
:100F00000196280F391F882D90E02817390714F013
:100F1000882401C0821A4F2C5524C2018970907018
:100F2000892B39F008C080E290E0B3010E94EA0A00
:100F30008A948820C1F7112329F0812F90E0B30112
:100F40000E94EA0A43FE07C008C080E390E0B301B4
:100F50000E94EA0A8A948820C1F7F7FE46C08601FB
:100F6000D7FE02C000E010E076010894E11CF11CFD
:100F7000E01AF10A41E050E04C0F5D1FE40EF51E4F
:100F800026014B185108892D90E0AA24BB24A81AE9
:100F9000B90A5FEF0F3F150729F48EE290E0B30125
:100FA0000E94EA0AC016D10634F0401651061CF41D
:100FB000F701808101C080E3015010400894E11CDA
:100FC000F11C0A151B052CF090E0B3010E94EA0AFF
:100FD000E0CF0C151D0539F49A81963318F495333A
:100FE00011F424FE81E390E04BC08A81813309F043
:100FF0000F7E90E0B3010E94EA0A9920A1F08EE2F0
:1010000090E0B3010E94EA0A12E0E1E0F0E0EC0FA8
:10101000FD1FE10FF11D1F5F808190E0B3010E9471
:10102000EA0A9A9491F744FC03C085E690E002C076
:1010300085E490E0B3010E94EA0AD7FC05C0C11420
:10104000D10441F404FF06C0D094C194D108D394D4
:101050008DE201C08BE290E0B3010E94EA0A80E3D6
:1010600005C08F5F26EF3FEFC20ED31E3AE0C316D6
:10107000D104BCF790E0B3010E94EA0AC601C09611
:10108000B3010E94EA0ACC84DD8452C1933631F068
:10109000933799F0933509F059C023C0F601808148
:1010A00089835E010894A11CB11C22E030E0C20ECD
:1010B000D31E21E0E22EF12C12C0F601A080B180F7
:1010C00016FD03C06FEF7FEF02C0692D70E022E0D4
:1010D00030E0C20ED31EC5010E94DF0A7C011F77DB
:1010E00013C0F601A080B18016FD03C06FEF7FEF43
:1010F00002C0692D70E022E030E0C20ED31EC501AF
:101100000E94D40A7C01106813FF07C01BC080E254
:1011100090E0B3010E94EA0A8A94882D90E0E816D4
:10112000F906A8F30FC0F50117FD859117FF81910E
:101130005F0190E0B3010E94EA0A81108A9408944A
:10114000E108F108E114F10471F7F2C0943611F0EE
:10115000993689F517FF08C0F60120813181428157
:10116000538184E090E00AC0F601808191819C0166
:10117000442737FD4095542F82E090E0C80ED91ED9
:101180009FE6F92EF12257FF09C050954095309502
:1011900021953F4F4F4F5F4F90E8F92ACA01B9019F
:1011A000AE014F5F5F4F2AE030E00E943C0BE82E1B
:1011B000E889EE1A41C0953721F41F7E2AE030E01D
:1011C0001CC0197F9F3661F0903720F4983509F0E4
:1011D000B2C00FC0903739F0983709F0ACC004C0E6
:1011E00028E030E00AC0106114FD146020E130E016
:1011F00004C014FD166020E132E017FF08C0F601BC
:10120000608171818281938144E050E008C0F601E1
:1012100080819181BC0180E090E042E050E0C40E0A
:10122000D51EAE014F5F5F4F0E943C0BE82E5889E0
:10123000E51A8FE7F82EF122F6FE0BC08EEFF822AA
:10124000E91438F4F4FE07C0F2FC05C09FEEF92261
:1012500002C01E2D01C0192DF4FE0DC0FE01EE0DC1
:10126000F11D8081803319F4E9EEFE2208C01F5F72
:10127000F2FE05C003C08F2D867809F01F5F0F2D89
:10128000F3FC14C0F0FE0FC0181510F09E2C0BC01C
:101290009E2C980C911A182D06C080E290E0B301A4
:1012A0000E94EA0A1F5F1815C0F304C0181510F455
:1012B000811A01C0882404FF0FC080E390E0B301CD
:1012C0000E94EA0A02FF1DC001FD03C088E790E00A
:1012D0000EC088E590E00BC0802F867891F001FF6A
:1012E00002C08BE201C080E2F7FC8DE290E0B30126
:1012F0000E94EA0A06C080E390E0B3010E94EA0A75
:101300009A94E914C0F3EA94E1E0F0E0EC0FFD1FD9
:10131000EE0DF11D808190E0B3010E94EA0AEE20FB
:1013200091F706C080E290E0B3010E94EA0A8A9435
:101330008820C1F799CCF30166817781CB01619652
:10134000E2E10C94E109A1E21A2EAA1BBB1BFD01EC
:101350000DC0AA1FBB1FEE1FFF1FA217B307E40794
:10136000F50720F0A21BB30BE40BF50B661F771FEC
:10137000881F991F1A9469F76095709580959095CC
:101380009B01AC01BD01CF0108952F923F924F9276
:101390005F926F927F928F929F92AF92BF92CF9205
:1013A000DF92EF92FF920F931F93CF93DF93CDB70E
:1013B000DEB7CA1BDB0B0FB6F894DEBF0FBECDBF86
:1013C00009942A88398848885F846E847D848C8457
:1013D0009B84AA84B984C884DF80EE80FD800C8160
:1013E0001B81AA81B981CE0FD11D0FB6F894DEBF43
:1013F0000FBECDBFED010895283008F027E0332758
:10140000DA01990F311D87FD916000966105710524
:1014100039F432602E5F3D9330E32A95E1F7089569
:101420009F3F30F080387105610509F03C5F3C5FFB
:101430003D93913008F08068911DDF93CF931F9307
:101440000F93FF92EF92192F987F9695E92F96951B
:101450009695E90FFF27E152FF4F99273327EE2496
:10146000FF24A701E70105900894079428F4360F9C
:10147000E71EF81E491F511D660F771F881F991F11
:101480000694A1F70590079428F4E70EF81E491F6B
:10149000561FC11D770F881F991F661F0694A1F75D
:1014A0000590079428F4F80E491F561FC71FD11D39
:1014B000880F991F661F771F0694A1F70590079460
:1014C00020F4490F561FC71FD81F990F661F771F9B
:1014D000881F0694A9F784911095177041F0D6954E
:1014E000C79557954795F794E7941A95C1F7E5E89E
:1014F000F0E068941590159135916591959105905E
:101500007FE27395E118F10A430B560BC90BD00922
:10151000C0F7E10CF11E431F561FC91FD01D7EF4FA
:10152000703311F48A95E6CFE894015030F0080F3B
:101530000AF40027021708F4202F2395022F7A338C
:1015400028F079E37D932A95E9F710C07D932A95D9
:1015500089F6069497956795379517951794E1182E
:10156000F10A430B560BC90BD00998F023957E91D5
:1015700073957A3308F070E37C932013B8F77E916B
:1015800070617D9330F0839571E37D9370E32A95CC
:10159000E1F71124EF90FF900F911F91CF91DF9110
:1015A000992787FD90950895FC0105906150704042
:1015B0000110D8F7809590958E0F9F1F0895FC011C
:1015C0006150704001900110D8F7809590958E0F72
:1015D0009F1F08950F931F93CF93DF938C01EB010F
:1015E0008B8181FF1BC082FF0DC02E813F818C81CA
:1015F0009D812817390764F4E881F9810193F98303
:10160000E88306C0E885F985802F0995892B31F498
:101610008E819F8101969F838E8302C00FEF1FEF03
:10162000C801DF91CF911F910F910895A0E0B0E024
:10163000ECE1FBE00C94D509FE01359661917191C6
:10164000A0919902B0919A0213968C911397886099
:1016500013968C938091990290919A02AF010E9407
:101660001C06E0919902F0919A022381277F23833F
:101670002096E2E00C94F109FA01AA27283051F1F2
:10168000203181F1E8946F936E7F6E5F7F4F8F4FB3
:101690009F4FAF4FB1E03ED0B4E03CD0670F781F12
:1016A000891F9A1FA11D680F791F8A1F911DA11DF7
:1016B0006A0F711D811D911DA11D20D009F4689430
:1016C0003F912AE0269F11243019305D3193DEF6D8
:1016D000CF010895462F4770405D4193B3E00FD08E
:1016E000C9F7F6CF462F4F70405D4A3318F0495D79
:1016F00031FD4052419302D0A9F7EACFB4E0A6955C
:101700009795879577956795BA95C9F7009761057D
:10171000710508959B01AC010A2E069457954795D3
:1017200037952795BA95C9F7620F731F841F951FC8
:08173000A01D0895F894FFCFFD
:101738001F01010000000000000000000000000080
:101748000000000000000000000000000000000091
:101758000000001F01010000000000000000000060
:101768000000000000000000000000000000000071
:1017780000000000000000EB036C0273055805B080
:1017880004DA02000123010000000000000000004C
:101798000000000000000000000000000000000041
:0217A80000003F
:00000001FF
