:100000000C94C8010C94E5010C94E5010C94E501F5
:100010000C94E5010C94E5010C94E5010C94E501C8
:100020000C94E5010C94E5010C94E5010C94E501B8
:100030000C94E5010C94E5010C9432070C94E50155
:100040000C94E5010C9489070C9499050C946205B5
:100050000C94E5010C94E5010C94E5010C94E50188
:100060000C94E5010C94E5016E616E00696E66000A
:10007000D300D800E300ED000A00493A25312E33C1
:10008000662020004572723A25312E33662020000A
:100090005374644465763A25312E3366202000502F
:1000A000574D3A25312E336620200054656D703A45
:1000B00025312E33662020000A4465766963652069
:1000C000496E697469616C697A65642025312E30E6
:1000D000660A0020204F4B00202053687574646F1F
:1000E000776E00202048656174696E670020205299
:1000F0004547554C4154454400486561746572203C
:1001000054696D656F7574204572726F7220536803
:100110007574646F776E0A0048656174657220417A
:100120006D6269656E74204572726F7220536875D6
:1001300074646F776E0A0048656174657220536558
:100140006E736F72204572726F722053687574649B
:100150006F776E0A00737973006662000000000713
:100160000102BB0D550D4E0DB704EC51C040737923
:100170007300667600000000071D02BB0D550D4E92
:100180000DBB04CDCCCC3D737973006876000000C4
:1001900000073B02BB0D550DD00CBF04CDCCCC3DB0
:1001A00000000000737973000000005902750D56BD
:1001B00011760D6B0200000000000000002400001A
:1001C000000000005902750D500D4E0D6B0200002D
:1001D00000002C000A0025733A25730025733A2588
:1001E000312E30660025733A25312E3366002C00FF
:1001F0000A0025730025312E30660025312E336626
:10020000005B66625D20206669726D7761726520B1
:100210006275696C642531382E32660A005B667639
:100220005D20206669726D776172652076657273F4
:10023000696F6E2531362E32660A005B68765D2066
:100240002068617264776172652076657273696F88
:100250006E2531362E32660A0000494E46494E4917
:1002600054594E414ECDCCCC3D0AD7233C17B7D183
:100270003877CC2B329595E6241FB14F0A00002029
:10028000410000C84200401C4620BCBE4CCA1B0EA8
:100290005AAEC59D7400407A10F35A00A0724E18F1
:1002A000090010A5D4E80000E87648170000E40B28
:1002B00054020000CA9A3B000000E1F505000080EE
:1002C000969800000040420F000000A08601000048
:1002D00000102700000000E8030000000064000098
:1002E0000000000A00000000000100000000002CD7
:1002F00076D888DC674F0823DFC1DFAE59E1B1B79C
:1003000096E5E3E453C63AE651997696E8E6C28468
:1003100026EB898C9B62ED407C6FFCEFBC9C9F4080
:10032000F2BAA56FA5F490055A2AF75C936B6CF9A5
:10033000676DC11BFCE0E40D47FEF520E6B500D07B
:10034000ED902E0300943577050080841E08000090
:10035000204E0A000000C80C333333330F986E125E
:10036000831141EF8D2114893BE65516CFFEE6DB64
:1003700018D1844B381BF77C1D901DA4BBE42420AE
:100380003284725E228100C9F124ECA1E53D270090
:1003900011241FBECFEFD8E0DEBFCDBF12E0A0E03A
:1003A000B1E0EAE2F1E402C005900D92AA36B1078D
:1003B000D9F715E0AAE6B2E001C01D92AB3DB10746
:1003C000E1F70E941D030C9493200C9400008E32E0
:1003D00049F08D3239F08B3229F020E090E0C0975F
:1003E0000A9708F421E0822F08952F923F924F92AE
:1003F0005F926F927F928F929F92AF92BF92CF92B5
:10040000DF92EF92FF920F931F93DF93CF9300D071
:1004100000D0CDB7DEB7D62E5A834983662329F4A0
:1004200060E070E080E090E057C09C838B830F2EEB
:10043000F0E02F2EF0E03F2EF0E04F2EF0E05F2EA8
:10044000F02DAA24420131011DC0EB81FC81E19015
:10045000F19001911191FC83EB83C401B301A801D8
:1004600097010E948D193B014C01C801B7010E9400
:10047000E41B9B01AC01C201B1010E948D191B015B
:100480002C01A394AD1408F36D2D70E0882777FD3F
:100490008095982F0E948B1A5B016C01C401B301F7
:1004A000A60195010E94F5199B01AC01E981FA8131
:1004B00020833183428353830E94E41B7B018C01A0
:1004C000C201B101A60195010E94F519A801970189
:1004D0000E948C190E94A61B0F900F900F900F90F6
:1004E000CF91DF911F910F91FF90EF90DF90CF9010
:1004F000BF90AF909F908F907F906F905F904F9044
:100500003F902F900895089500D000D000D08BEA3E
:1005100090E0EDB7FEB7928381838091C6039091FE
:10052000C703A091C803B091C90383839483A583B3
:10053000B6830E94C41F8FE990E0EDB7FEB79283A7
:10054000818380919A0390919B03A0919C03B09129
:100550009D0383839483A583B6830E94C41F80E98F
:1005600090E0EDB7FEB7928381838091CA039091AA
:10057000CB03A091CC03B091CD0383839483A58357
:10058000B6830E94C41F84E890E0EDB7FEB7928363
:1005900081838091A6039091A703A091A803B091B5
:1005A000A90383839483A583B6830E94C41F8AE72B
:1005B00090E0EDB7FEB7928381838091AE03909176
:1005C000AF03A091B003B091B10383839483A5835B
:1005D000B6830E94C41F80917203E82FF0E0EE0FF3
:1005E000FF1FE059FF4F859194910F900F900F904E
:1005F0000F90EDB7FEB7928381830E94C41F88E7F6
:1006000090E0EDB7FEB7928381830E94C41F0F90E4
:100610000F90089500D000D088EB90E0EDB7FEB7C2
:10062000928381838AE290E0948383830E94C41F33
:100630000F900F900F900F900895F8940E94FD0571
:100640000E94C3040E94830280E00E9404060E946C
:1006500038060E941D070E9443070E94F20A0E946A
:10066000860C78940E940A030E949E040E945707F9
:100670008230E1F380916F0262E772E040E850E07F
:100680000E94590380936A02882381F782E792E0EF
:100690000E94F615EBCFE82FF0E0EE0FFF1FEE5CA7
:1006A000FB4F0190F081E02D0180F281E02D099552
:1006B0000895E82FF0E0EE0FFF1FEE5CFB4F019076
:1006C000F081E02D25813681CF01F901099508954A
:1006D000E82FF0E0EE0FFF1FEE5CFB4F0190F08182
:1006E000E02D27813085CF014396F90109950895C2
:1006F000E82FF0E0EE0FFF1FEE5CFB4F0190F08162
:10070000E02D21853285862F7396BF01F901099569
:100710000895E82FF0E0EE0FFF1FEE5CFB4F8081A5
:10072000918143969093D4058093D3050895E82F43
:10073000F0E0EE0FFF1FEE5CFB4F8081918143964E
:100740009093D6058093D5050895E82FF0E0EE0F3D
:10075000FF1FEE5CFB4F8081918143969093D805FB
:100760008093D70508950895FC0160FF02C081E0E1
:1007700081A361FD11A264FF02C081E082A365FD37
:1007800012A274FF02C081E083A375FD13A280E072
:1007900090E00895CF93DF93EC01ED85FE853097CF
:1007A00029F081E08283ED85FE858183EF85F889DC
:1007B000309729F081E08283EF85F88981831CA23C
:1007C0001DA21EA2CE010E94B40389859A859C8F2A
:1007D0008B8F8F8198859E8F8D8F83E08E8BD8A392
:1007E000CF8FDF91CF910895E82FF0E0EE0FFF1F3C
:1007F000EE5CFB4F808191810E94B4030895282F05
:10080000FB010484F585E02DA785B08912969C91A3
:100810001297915009F49C9111968C911197981709
:1008200011F42FEF07C0FD01E90FF11D238312968C
:100830009C9320E0332727FD3095C9010895FC01E2
:1008400092818181981711F48FEF089581818150F1
:1008500081838181882311F4808181838181E80FE4
:10086000F11D83810895CF93DF93EC018CA1882340
:1008700039F481E08CA37BA76AA719A658A74FA3D8
:100880004FA158A589A590E09A01215030408217C8
:10089000930744F0EAA5FBA5E40FF51F10822DE0B5
:1008A00030E023C08D859E850E941F04282F3327AA
:1008B00027FD30958FEF2F3F3807A9F099A5EAA5BE
:1008C000FBA52A30310549F4E90FF11D10829F5F25
:1008D00099A71CA220E030E008C0E90FF11D208399
:1008E0009F5F99A7CDCF22E030E0C901DF91CF9182
:1008F0000895DC011C96ED91FC911D9785859685E8
:100900000E941F04282F332727FD3095C901089521
:10091000DC0112969C911297915009F49C911196CA
:100920008C911197981711F48FEF0895FD01E90F3D
:10093000F11D638312969C9380E008951F93E091CC
:100940003204F091330427813085CF014396F901B9
:1009500009959093D1058093D00510E0E091320481
:10096000F0913304A12FB0E0A050BF4F2185328514
:100970008C917396BF01F90109958F5F9F4F71F3B9
:100980001F5F1770EBCF80E00E9413059093330434
:100990008093320481E00E94840790933504809311
:1009A0003404E0913204F09133040180F281E02DAF
:1009B00080E060E070E045E150E10995E0913404A9
:1009C000F09135040180F281E02D81E060E070E07B
:1009D00040E050E1099580913204909133044396B0
:1009E0009093D4058093D3059093D6058093D50535
:1009F000809134049091350443969093D805809368
:100A0000D7050895462FE82FF0E0EE0FFF1FEE5CAC
:100A1000FB4F50E060E070E0808191810E941805FA
:100A200080E090E0089580934E018EE491E0089577
:100A30009A01AB0183E0220F331F441F551F8A9593
:100A4000D1F760E074E284EF90E00E94FC1B21503B
:100A500030403093C5002093C400E0ECF0E080818A
:100A60008D7F808308950F931F93CF93DF93FC01B5
:100A7000C485D5858D859E850E941F04082F11276A
:100A800007FD1095EB85FC85CE0109958AA1882389
:100A900041F06091D5057091D605E985FA85802FE2
:100AA00009950D30110519F00A30110529F48BA1B3
:100AB000882311F00AE010E0C801DF91CF911F9167
:100AC0000F9108951F920F920FB60F9211242F933A
:100AD0003F934F935F936F937F938F939F93AF93C6
:100AE000BF93EF93FF9380915D0190915E010E940F
:100AF0001F04992787FD90952FEF8F3F920731F4C0
:100B00008091C1008F7D8093C10002C08093C60098
:100B1000FF91EF91BF91AF919F918F917F916F91D5
:100B20005F914F913F912F910F900FBE0F901F90AB
:100B300018951F920F920FB60F9211242F933F9387
:100B40004F935F936F937F938F939F93AF93BF93D5
:100B5000EF93FF936091C60080915B0190915C01DF
:100B60000E948804FF91EF91BF91AF919F918F9167
:100B70007F916F915F914F913F912F910F900FBE99
:100B80000F901F901895282FFB010484F585E02D08
:100B900087859089622F0E948804E1ECF0E09081C3
:100BA00090629083282F332727FD3095C90108953F
:100BB0000F931F93E82FF0E0EE0FFF1FEE5CFB4F4B
:100BC00000811181C801BA010E94CA03E4E6F0E085
:100BD00080818D7F80831092C00088E98093C1005E
:100BE000C80140E052EC61E070E00E9418050D5E23
:100BF0001F4FC8011F910F9108958FEF80936400DC
:100C000014B817B81AB80895E4E6F0E090819E7F12
:100C10009083982F9064ECE7F0E0908396E89093AF
:100C20007A009081907F90839081908321E030E0E2
:100C300002C0220F331F8A95E2F720937E000895A9
:100C400080917A00806480937A0080917A0080910C
:100C50007A00806180937A00809178009091790089
:100C6000892B71F32091780030917900C9010895A2
:100C7000539AE4E6F0E080818F7B8083E0EBF0E044
:100C800080EF8083808183608083E1EBF0E088E007
:100C9000808380818460808310926F001092B30003
:100CA0001092B40080E090E0A0E0B0E08093CC042B
:100CB0009093CD04A093CE04B093CF040895EF9207
:100CC000FF920F931F939B01AC0160E074E284E7F5
:100CD00098E40E94F5197B018C016093CC04709319
:100CE000CD048093CE049093CF0420E030E040EA1E
:100CF00051E40E94F119882314F484E10BC0C80167
:100D0000B70120E030E04FE753E40E943B1B88230B
:100D100024F08FEF8093B30006C0C801B7010E9492
:100D20005D1A6093B30080E01F910F91FF90EF90E8
:100D30000895AF92BF92CF92DF92EF92FF920F93FE
:100D40001F935B016C012AE037ED43E25CE30E94F4
:100D5000F119882324F48FEF8093B40030C0C601CA
:100D6000B5012DEC3CEC47EC52E40E943B1B1816FD
:100D70001CF41092B40023C06091B30070E0882787
:100D800077FD8095982F0E948B1A7B018C01C601FC
:100D9000B50120E030E048EC52EC0E94F51920E06B
:100DA00030E040E85FE30E948D199B01AC01C8016F
:100DB000B7010E943F1B0E945D1A6093B4006091CE
:100DC000CC047091CD048091CE049091CF040E9408
:100DD0005D1A6093B30080E01F910F91FF90EF9038
:100DE000DF90CF90BF90AF900895AF92BF92CF9217
:100DF000DF92EF92FF920F931F937B018C015901B9
:100E00006A010E943806C801B7010E945F06C60148
:100E1000B5010E9499061F910F91FF90EF90DF900E
:100E2000CF90BF90AF90089560E070E080E090E0D8
:100E30009B01AC010E94F5060895E4E6F0E0808194
:100E40008F7D808392E094BD83E085BD8DE787BD73
:100E500090936E008AE08093C9048093CA048093C3
:100E6000CB0408951F920F920FB60F9211248F9307
:100E700081E08093C8048F910F900FBE0F901F9058
:100E8000189508950895539A5A9A08955A9808956E
:100E90005A9A08958BB1882311F05A9808955A9A56
:100EA00008950E94650908950E94640B08951F9398
:100EB0008091C804882311F483E024C01092C804F0
:100EC0000E94640B8091C90481508093C9048823D7
:100ED000C1F41AE01093C9048091CA048150809330
:100EE000CA04882371F41093CA040E946509809192
:100EF000CB0481508093CB04882319F41093CB0446
:100F000001C080E01F9108958093000280E092E08C
:100F100008951F920F920FB60F9211241F932F93D3
:100F20003F934F935F936F937F938F939F93AF9371
:100F3000BF93EF93FF931EB580910F029091100223
:100F40000E941F04992787FD90952FEF8F3F9207EE
:100F500009F483E08EBD80910D0290910E02612F05
:100F60000E948804FF91EF91BF91AF919F918F9163
:100F70007F916F915F914F913F912F911F910F90B2
:100F80000FBE0F901F9018950F931F93E82FF0E05E
:100F9000EE0FFF1FEE5CFB4F00811181C801BA010B
:100FA0000E94CA03E4E6F0E080818B7F80838CB5E9
:100FB0008C6C8CBD249A0D5E1F4FC8011F910F9140
:100FC000089520E030E040E050E020939A03309311
:100FD0009B0340939C0350939D0380E090E0A8E422
:100FE000B3E48093AE039093AF03A093B003B093A8
:100FF000B1032093AA033093AB034093AC03509307
:10100000AD0308956F927F928F929F92AF92BF929D
:10101000CF92DF92EF92FF920F931F937B018C018F
:1010200080919803882349F47091A2036091A303EF
:101030009091A4038091A503DDC0C801B7010E946F
:101040008C193B014C016093A6037093A703809316
:10105000A8039093A9039F772DEC3CEC4CEC5DE347
:101060000E943B1B181684F560919A0370919B03B4
:1010700080919C0390919D0320919E0330919F034A
:101080004091A0035091A1030E94F1198823E4F438
:10109000C401B3012DEC3CEC4CEC5DE30E943F1B22
:1010A0009B01AC016091AE037091AF038091B003DE
:1010B0009091B1030E948D196093AE037093AF03BA
:1010C0008093B0039093B103C401B3012091AA03AC
:1010D0003091AB034091AC035091AD030E948C1949
:1010E0002DEC3CEC4CEC5DE30E94F5195B016C01CE
:1010F0006093B2037093B3038093B4039093B503EA
:10110000C401B3012091B6033091B7034091B803F5
:101110005091B9030E943F1B7B018C016091BA037F
:101120007091BB038091BC039091BD032091AE03ED
:101130003091AF034091B0035091B1030E943F1B27
:101140009B01AC01C801B7010E948D197B018C0184
:10115000C601B5012091BE033091BF034091C00389
:101160005091C1030E943F1B9B01AC01C801B70114
:101170000E948D197B018C0160939A0370939B03ED
:1011800080939C0390939D03A0909E03B0909F0337
:10119000C090A003D090A103A60195010E943B1B23
:1011A000181684F0A090A203B090A303C090A403EB
:1011B000D090A503C801B701A60195010E94F119BD
:1011C000882344F4A0929A03B0929B03C0929C039C
:1011D000D0929D036092AA037092AB038092AC03FD
:1011E0009092AD0370919A0360919B0390919C0340
:1011F00080919D03272F362F492F582FB901CA01FF
:101200001F910F91FF90EF90DF90CF90BF90AF9024
:101210009F908F907F906F9008958AE2E8E9F3E0C5
:10122000DF011D928A95E9F780E090E0A0EAB0E442
:101230008093B6039093B703A093B803B093B90318
:101240008DEC9CECACECBDE38093BA039093BB03B4
:10125000A093BC03B093BD0380E090E0A0E0BFE3A7
:101260008093BE039093BF03A093C003B093C103C8
:1012700080E090E0A8ECB2E480939E0390939F03FB
:10128000A093A003B093A10380E090E0A0E0B0E0C1
:101290008093A2039093A303A093A403B093A50308
:1012A00081E08093980308950F931F93182F062FC2
:1012B0000E9414070E943D0B109372030093730366
:1012C0000E9448071F910F910895AF92BF92CF924D
:1012D000DF92EF92FF920F931F93809172038230FF
:1012E00008F413C10E9484020E944C0B609378039F
:1012F0007093790380937A0390937B0320919403F6
:101300003091950340919603509197030E943B1BA7
:1013100018162CF481E063E00E945409F6C00E9484
:10132000400BE0907803F090790300917A031091DC
:101330007B03C801B70123E333E948E853EC0E947B
:10134000F119882394F4809177038F5F809377035A
:1013500090917603981708F0D8C081E064E00E946D
:10136000540900D087E391E058C010927703609150
:101370007C0370917D0380917E0390917F03A8018F
:1013800097010E9402080E949906809172038230A0
:1013900009F070C060918403709185038091860389
:1013A000909187032DEC3CEC4CEC5DE30E948D1991
:1013B0007B018C0160938403709385038093860383
:1013C00090938703A0907803B0907903C0907A033C
:1013D000D0907B03C601B501209190033091910319
:1013E00040919203509193030E94F1198823F4F4E1
:1013F000C801B701209188033091890340918A0385
:1014000050918B030E943B1B181684F481E061E02D
:101410000E94540900D088E191E0EDB7FEB79283B5
:1014200081830E94C41F0F900F906FC0C601B50149
:1014300020917C0330917D0340917E0350917F0386
:101440000E94F1198823B4F4C801B70120918C03DC
:1014500030918D0340918E0350918F030E943B1B6E
:10146000181644F481E062E00E94540900D089EF2C
:1014700090E0D3CF6091A6037091A7038091A80359
:101480009091A9039F77209180033091810340912F
:101490008203509183030E94F119181664F0809121
:1014A00075038F5F809375038B30ECF08AE0809337
:1014B000750383E016C08091750381508093750396
:1014C00018168CF01092750380E090E0A0E0B0E078
:1014D0008093840390938503A0938603B09387033E
:1014E00082E08093720380917203833019F40E942A
:1014F00046070BC0809174038F5F80937403843020
:1015000020F0109274030E944A071F910F91FF90E0
:10151000EF90DF90CF90BF90AF900895AF92BF92C1
:10152000CF92DF92EF92FF920F931F935B016C01BA
:10153000809172038250823008F44BC00E94390BB4
:101540000E94400B0F2EF0E0EF2EF0E0FF2EF0E0B7
:101550000F2FF0E01F2FF02DE0929A03F0929B03E3
:1015600000939C0310939D0380E090E0A8E4B3E413
:101570008093AE039093AF03A093B003B093B103F5
:10158000E092AA03F092AB030093AC031093AD0377
:1015900060E070E08AE794E4A80197010E94F506F4
:1015A000A0927C03B0927D03C0927E03D0927F0311
:1015B0001092750310927703E0928403F0928503F2
:1015C000009386031093870382E0809372030E9446
:1015D00048071F910F91FF90EF90DF90CF90BF9041
:1015E000AF90089586E2E2E7F3E0DF011D928A956D
:1015F000E9F780E090E0A0E4B0E48093800390936A
:101600008103A0938203B093830380E090E0A4EB76
:10161000B2E48093880390938903A0938A03B093E4
:101620008B0320E030E046E953E420938C033093B1
:101630008D0340938E0350938F0380E090E0A0E2EF
:10164000B2E48093900390939103A0939203B0939C
:101650009303209394033093950340939603509300
:10166000970385E0809376030E94860C0E940D0903
:10167000089581E08093C20308951092C2030895F3
:101680001092C40381E08093C30308958091C20344
:1016900008958091C30308958091C203833029F097
:1016A00070E060E099E883EC08C07091C603609137
:1016B000C7039091C8038091C903272F362F492F64
:1016C000582FB901CA0108952F923F924F925F920D
:1016D0007F928F929F92AF92BF92CF92DF92EF92C2
:1016E000FF920F931F93DF93CF93CDB7DEB7289769
:1016F0000FB6F894DEBF0FBECDBF8091C203882322
:1017000009F4ECC08091C303813009F0E7C08091F7
:10171000C403082F10E00E942006000F111F000FC5
:10172000111F02521C4FA0E0B0E0BC01CD010E948D
:10173000891A26E03FEA4AEF5EE30E943F1B23ED51
:1017400031EB46ED5EE30E948C19D8016D937D93D9
:101750008D939C9313978091C4038F5F8093C403F0
:10176000843108F4BBC08EED93E064E1AE014F5FBD
:101770005F4F0E94F5017B018C016093CA03709357
:10178000CB038093CC039093CD032091D20330916F
:10179000D3034091D4035091D5030E943B1B1816EC
:1017A00024F482E08093C20397C01092C50380E0C6
:1017B00090E0A0E0B0E08093C6039093C703A093AD
:1017C000C803B093C90389819A81AB81BC818D83A1
:1017D0009E83AF83B887C801B7012091CE033091B3
:1017E000CF034091D0035091D1030E943F1B1B01B6
:1017F0002C019EED892E93E0992E77240F2EF0E098
:10180000EF2EF0E0FF2EF0E00F2FF0E01F2FF02D75
:10181000D401AD90BD90CD90DC90C601B5012D8175
:101820003E814F8158850E948C199F77A2019101BA
:101830000E94F11988234CF4C801B701A601950153
:101840000E948D197B018C017394E4E0F0E08E0E10
:101850009F1EFEE28F16F4E09F06D1F67092C5033C
:10186000672D70E0882777FD8095982F0E948B1A4E
:101870009B01AC01C801B7010E94F5197B018C01E5
:101880006093C6037093C7038093C8039093C90302
:1018900083E0D82ED092C2031092C303C801B701CF
:1018A00020E030E048EC53E40E943B1B181634F46F
:1018B00082E08093C203D092C30310C0C801B70175
:1018C00020E030E040E050EC0E94F119882334F42D
:1018D00082E08093C20384E08093C30328960FB60E
:1018E000F894DEBF0FBECDBFCF91DF911F910F9156
:1018F000FF90EF90DF90CF90BF90AF909F908F9030
:101900007F905F904F903F902F90089580E7E2EC9A
:10191000F3E0DF011D928A95E9F783E393E9A8E8F4
:10192000B3EC8093C6039093C703A093C803B0930E
:10193000C9038DEC9CECACE8BFE38093CE0390939D
:10194000CF03A093D003B093D10380E090E0A0EA4E
:10195000B1E48093D2039093D303A093D403B093C4
:10196000D50380E090E0A8ECB3E48093D603909395
:10197000D703A093D803B093D90380E090E0A0E010
:10198000B0EC8093DA039093DB03A093DC03B09375
:10199000DD03089520E0039709F421E0822F0895E4
:1019A000CF93DF93AC01FC012481358189E190E084
:1019B000289FB001299F700D389F700D1124685920
:1019C0007E4FFB01C591D491FA0180859185A28556
:1019D000B38588839983AA83BB8384E0878380E06F
:1019E000DF91CF91089580E0089580E0089580E030
:1019F0000895DC0114964D915C9115974530510581
:101A000010F088E2089589E190E0489F9001499F95
:101A1000300D589F300D11242A593E4FF901459140
:101A20005491CD01FA0109950895DC0114964D9168
:101A30005C9115974530510510F088E2089589E1D1
:101A400090E0489F9001499F300D589F300D112420
:101A50002C593E4FF90145915491CD01FA01099558
:101A60000895DC0114964D915C9115974530510510
:101A700088F489E190E0489F9001499F300D589F7C
:101A8000300D11242E593E4FF90145915491CD014D
:101A9000FA0109950895089580E0089583E0089576
:101AA00021E0FC01278383E00895AC01FC0124813F
:101AB000358189E190E0289FB001299F700D389F02
:101AC000700D112468597E4FFB01A591B4918D9141
:101AD0009D910D90BC91A02DFA0180879187A287DE
:101AE000B38784E0878380E0089508951F93CF93A0
:101AF000DF93EC018091C704882311F488E216C0BB
:101B000010E00A80DB81C02D209779F08F81882337
:101B100061F0813021F4CE010E94150D03C0CE0189
:101B20000E94F90C1F5F153061F780E0DF91CF91C3
:101B30001F910895FC0117821582148280E090E0C5
:101B4000A0E0B0E080879187A287B3871486128ACD
:101B5000178A168AA081B181109711F4168209C0E4
:101B600017968C91179716969C91873009F49F5F72
:101B70009683CF010895CF92DF92EF92FF920F9359
:101B80001F93DF93CF93CDB7DEB7C155D0400FB6CB
:101B9000F894DEBF0FBECDBF8C010E94150DC09022
:101BA000D705D090D805D80114962D913C91159762
:101BB00089E190E0289FF001299FF00D389FF00DFA
:101BC0001124E05AFE4F659174917E010894E11C46
:101BD000F11CC70140E550E00E94BC1EEDB7FEB706
:101BE00038970FB6F894FEBF0FBEEDBF3196ADB774
:101BF000BEB71296DC92CE921197F382E282D801A0
:101C000018962D913D914D915C911B9724833583BE
:101C1000468357830E943E1FEDB7FEB738960FB636
:101C2000F894FEBF0FBEEDBFCF5ADF4F0FB6F8944A
:101C3000DEBF0FBECDBFCF91DF911F910F91FF90FF
:101C4000EF90DF90CF9008958F929F92AF92BF92C6
:101C5000CF92DF92EF92FF921F93CF93DF93982F53
:101C60008091C704813079F4413021F0423009F08D
:101C7000A2C105C088EE94E00E9423149CC1892F64
:101C80000E94341498C1623009F4C6C0633009F46C
:101C900080C1613009F08FC1C8EED4E010E072ED70
:101CA000872E71E0972E65EEA62E61E0B62E56EDDA
:101CB000C52E51E0D52E4CEDE42E41E0F42E8F815F
:101CC000843099F085303CF4882309F479C083305E
:101CD00009F085C022C0853009F44DC0873009F075
:101CE0007EC00A80DB81C02D92C08DB79EB70A9757
:101CF0000FB6F8949EBF0FBE8DBFEDB7FEB73196FD
:101D00008091D7059091D805ADB7BEB712969C9338
:101D10008E931197B382A28217C08DB79EB70A9790
:101D20000FB6F8949EBF0FBE8DBFEDB7FEB73196CC
:101D30008091D7059091D805ADB7BEB712969C9308
:101D40008E931197F382E2822C96D583C4832C97CD
:101D500088859985AA85BB8586839783A087B18767
:101D60000E94521FEDB7FEB73A960FB6F894FEBF29
:101D70000FBEEDBF34C08DB79EB708970FB6F8946D
:101D80009EBF0FBE8DBFEDB7FEB731968091D705D0
:101D90009091D805ADB7BEB712969C938E931197CC
:101DA000D382C2822C96D583C4832C978E899F8937
:101DB000978386830E94521FEDB7FEB73896D5CF22
:101DC00000D000D08091D7059091D805ADB7BEB7AF
:101DD00012969C938E93119784ED91E0B2C00A8085
:101DE000DB81C02D8F81882391F000D000D08091BD
:101DF000D7059091D805EDB7FEB792838183948281
:101E000083820E94521F0F900F900F900F901F5FC0
:101E1000153009F054CFCFC0C8EED4E010E03EEE4C
:101E2000832E31E0932E2BEFA22E21E0B22E92EFE3
:101E3000C92E91E0D92E85EFE82E81E0F82E8F8112
:101E4000843099F085303CF4882309F46CC08330E9
:101E500009F082C022C0853009F449C0873009F0FA
:101E60007BC00A80DB81C02D8FC08DB79EB70897DD
:101E70000FB6F8949EBF0FBE8DBFEDB7FEB731967B
:101E80008091D7059091D805ADB7BEB712969C93B7
:101E90008E931197B382A28217C08DB79EB7089711
:101EA0000FB6F8949EBF0FBE8DBFEDB7FEB731964B
:101EB0008091D7059091D805ADB7BEB712969C9387
:101EC0008E931197F382E28288859985AA85BB85D6
:101ED00084839583A683B7830E94521FEDB7FEB714
:101EE00038960FB6F894FEBF0FBEEDBF35C000D0D8
:101EF00000D000D0EDB7FEB731968091D705909114
:101F0000D805ADB7BEB712969C938E931197D38226
:101F1000C2828E899F89958384830E94521FEDB768
:101F2000FEB73696DECF00D000D08091D7059091D5
:101F3000D805ADB7BEB712969C938E93119780EFDC
:101F400091E014969C938E9313970E94521F0F90CA
:101F50000F900F900F902FC00A80DB81C02D8F81D2
:101F6000882391F000D000D08091D7059091D805BA
:101F7000EDB7FEB792838183948283820E94521FC1
:101F80000F900F900F900F901F5F153009F057CFF3
:101F900012C0C8EED4E010E08F81873019F0CE0176
:101FA0000E94310D0A80DB81C02D8F81882319F0BA
:101FB0001F5F153089F7DF91CF911F91FF90EF9050
:101FC000DF90CF90BF90AF909F908F900895EF9249
:101FD000FF920F931F93CF93DF939C017A018B01A4
:101FE000C8EED4E090E08F81882349F00A80DB813D
:101FF000C02D9F5F9630B9F7C0E0D0E00DC0CE0194
:102000000C96B90145E050E00E94FC1EE886F98676
:102010000A871B8784E08F83CE01DF91CF911F91C8
:102020000F91FF90EF900895EF92FF920F931F93FF
:10203000CF93DF939C017A018B01C8EED4E090E04E
:102040008F81882349F00A80DB81C02D9F5F963005
:10205000B9F7C0E0D0E011C0CE010C96B90145E05F
:1020600050E00E94FC1EC801B7010E94891A6887CF
:1020700079878A879B8783E08F83CE01DF91CF9119
:102080001F910F91FF90EF900895EF92FF920F93A1
:102090001F93CF93DF93EC01F62EE72E8091360449
:1020A00090E0A62FB72FFD0101900020E9F73197AE
:1020B000EA1BFB0BE80FF91FE138F10510F08DE08A
:1020C00018C08C01095C1B4FC8010E94F51EEF2D42
:1020D000FE2DDF010D900020E9F71197AE1BBF0B1D
:1020E000809136048F5F8A0F809336041F8B0E8B8E
:1020F00080E0DF91CF911F910F91FF90EF900895B5
:10210000EF92FF920F931F93DF93CF93CDB7DEB77C
:10211000C058D0400FB6F894DEBF0FBECDBF8C01C3
:102120007E010894E11CF11CC70140E850E00E94C8
:10213000BC1EC801B7010E944510C058DF4F0FB642
:10214000F894DEBF0FBECDBFCF91DF911F910F91ED
:10215000FF90EF90089510923604E8EBF4E021E050
:10216000F18FE08FCF01C096938F828F158E148EE2
:10217000268F178E14A2789685E0E837F80781F746
:10218000138212821092D1041092D0041092D604BD
:1021900087E08093D7048CED94E06CE272E00E94BB
:1021A000F51E88EE94E008950E94AB1021E0209384
:1021B000C704FC01158214820895CF92DF92EF923A
:1021C000FF920F931F93CF93DF938C01FC01C48187
:1021D000D581C530D10508F060C00E949A0DF80184
:1021E000D583C483F2E1EF2EF12CE00EF11EE9E17C
:1021F000CE2ED12CCC9DB001CD9D700DDC9D700DEF
:1022000011246B5A7E4FC7010E949D1EE8012C9637
:10221000F801848195818C9DB0018D9D700D9C9DF0
:10222000700D1124675A7E4FCE010E949D1EF80149
:1022300082898823F1F0848195818C9DF0018D9DA8
:10224000F00D9C9DF00D1124E15AFE4FE491E2FF48
:1022500003C0F801128A0DC0F70101900020E9F7D0
:10226000EE19FF093B96E00FF11FCE01BF010E945E
:10227000F51EF8018481958129E130E0829FA0015B
:10228000839F500D929F500D11244C595E4FFA01BF
:1022900025913491C801F9010995DF91CF911F91E2
:1022A0000F91FF90EF90DF90CF9008958F929F92C3
:1022B000AF92BF92CF92DF92EF92FF920F931F9354
:1022C000DF93CF9300D000D0CDB7DEB77C01BCE068
:1022D000CB2ED12CC80ED91E87E0F701878300E0F2
:1022E00010E0A9E18A2E912C5E010894A11CB11C7A
:1022F000089DB001099D700D189D700D11246B5A39
:102300007E4FC5010E949D1EC601B5010E94EC1EB4
:10231000009751F488E190E0E80EF91EF70115836B
:102320000483C7010E94DD100F5F1F4FFFEF0F3FB7
:102330001F07F1F680E00F900F900F900F90CF9154
:10234000DF911F910F91FF90EF90DF90CF90BF90A2
:10235000AF909F908F900895EF92FF920F931F93ED
:10236000DF93CF9300D000D000D0CDB7DEB79C0173
:102370007B018E010F5F1F4FC801B9010E94F51E3E
:10238000C801B7010E94D61EB981AA817B816C81E8
:102390009D8140E050E009E110E0409F9001419FA5
:1023A000300D509F300D1124F901E75AFE4FE49192
:1023B000EB1761F5F901E65AFE4F8491882319F471
:1023C000AA2321F52BC08A1709F5F901E55AFE4F1A
:1023D0008491882319F47723C9F420C08717B1F4B6
:1023E000F901E45AFE4F8491882319F4662371F4AD
:1023F00015C0861759F4F901E35AFE4FE491EE2314
:1024000019F4992319F40AC0E91741F04F5F5F4F9F
:102410004530510509F0C1CF4FEF5FEFCA01269655
:102420000FB6F894DEBF0FBECDBFCF91DF911F91E5
:102430000F91FF90EF900895EF92FF920F931F93EB
:10244000CF93DF939C017B01C8EED4E090E08F81B5
:10245000882339F00A80DB81C02D9F5F9630B9F761
:1024600019C08E01045F1F4FC801B90145E050E05B
:102470000E94FC1ECE01B7010E944510882351F432
:102480008EE292E0B8010E94AC119D838C8385E0BE
:102490008F8302C0C0E0D0E0CE01DF91CF911F91C9
:1024A0000F91FF90EF9008950F931F93DF93CF93B9
:1024B000CDB7DEB7C055D0400FB6F894DEBF0FBE23
:1024C000CDBF00D000D08E010F5F1F4FEDB7FEB71C
:1024D00012830183948383830E940E200F900F90B8
:1024E0000F900F908FE292E0B8010E941C12C05B27
:1024F000DF4F0FB6F894DEBF0FBECDBFCF91DF9197
:102500001F910F910895BC018FE292E00E941C126E
:102510000895EF92FF920F931F93DF93CF93CDB760
:10252000DEB7C055D0400FB6F894DEBF0FBECDBFAA
:102530008C0100D000D07E010894E11CF11CEDB7A5
:10254000FEB7F282E182748363830E940E200F90B3
:102550000F900F900F90C801B7010E941C12C05B32
:10256000DF4F0FB6F894DEBF0FBECDBFCF91DF9126
:102570001F910F91FF90EF900895CF93DF93BC01CF
:10258000C8EED4E090E08F81882339F00A80DB81A7
:10259000C02D9F5F9630B9F70DC08EE292E00E9489
:1025A000AC119D838C838F5F9F4F21F0CE010E94E1
:1025B000DD1002C0C0E0D0E0CE01DF91CF910895E0
:1025C000BC0183E392E00E94241F9C0180E0232B46
:1025D00009F481E008952F923F924F925F926F929B
:1025E0007F928F929F92AF92BF92CF92DF92EF92A3
:1025F000FF920F931F93CF93DF938C016B01DC014C
:102600001696EC90EB018BE78993FF2490E056E35C
:10261000252E52E0352E40E5442E42E0542E3BE478
:10262000632E32E0732E25E4822E22E0922E8FE379
:10263000A82E82E0B82EF8018781882309F4CBC048
:10264000992311F0FCE2F99300D000D000D0EDB74F
:10265000FEB73196ADB7BEB71296DC93CE93119705
:1026600033822282045F1F4F158304830C50104075
:102670000E94EA1FC80FD91FF80187812DB73EB706
:102680002A5F3F4F0FB6F8943EBF0FBE2DBF81307B
:1026900039F4CE016CE372E00E94F51E229692C0DE
:1026A0008330A1F48DB79EB708970FB6F8949EBFFC
:1026B0000FBE8DBFEDB7FEB73196ADB7BEB7129660
:1026C000DC93CE931197B382A28216C0843061F559
:1026D0002DB73EB7285030400FB6F8943EBF0FBE1E
:1026E0002DBFEDB7FEB73196ADB7BEB71296DC93EE
:1026F000CE93119793828282D80118962D913D91A5
:102700004D915C911B9724833583468357830E94A8
:10271000EA1FC80FD91FEDB7FEB738960FB6F89469
:10272000FEBF0FBEEDBF4EC0853079F400D000D0A3
:1027300000D0EDB7FEB73196ADB7BEB71296DC93B9
:10274000CE9311977382628210C08630E9F400D074
:1027500000D000D0EDB7FEB73196ADB7BEB7129638
:10276000DC93CE93119753824282D80156968D9175
:102770009C915797958384830E94EA1FC80FD91FA5
:10278000EDB7FEB73696CACF8230E1F4D80118967D
:102790006D917D918D919C911B9720E030E040E000
:1027A00050E00E94F119882339F4CE0165E572E00A
:1027B0000E94F51E259606C0CE016BE572E00E94D0
:1027C000F51E2496F8018781873011F091E003C04F
:1027D000FBE7F99390E0D80112960D911C911397A5
:1027E0000115110519F48F2D9DE70DC0F8018681A3
:1027F0008F151CF4FDE7F99391E0D8011696FC9033
:102800001ACF99938150E816E4F3CE0160E672E0A6
:102810000E94F51E9E012E5F3F4F2C193D09C901F4
:10282000DF91CF911F910F91FF90EF90DF90CF90AC
:10283000BF90AF909F908F907F906F905F904F90E0
:102840003F902F9008950F931F9302EF12E0B8016D
:102850000E94EB126091D7057091D805C8010E94C3
:102860009B1F1F910F91089580ED94E00E94231407
:1028700008952F923F924F925F926F927F928F9224
:102880009F92AF92BF92CF92DF92EF92FF920F93FF
:102890001F93DF93CF93CDB7DEB729970FB6F89488
:1028A000DEBF0FBECDBF7C018091630290916402B8
:1028B000A0916502B09166028E839F83A887B98735
:1028C000F70101900020E9F73197EE19FF09E1388F
:1028D000F10510F01BE225C087016701BB241AC077
:1028E000BB2069F4883219F4BB24B39404C081324C
:1028F00070F08F3761F090E00E94951E05C0BB24F8
:10290000893211F0BB24B394F80181938F010894AC
:10291000C11CD11CF6018081882311F7F8011082B7
:1029200010E010936A02112309F041C1E6E0CE2EB7
:1029300008EE14E00F2EF0E06F2EF0E07F2EF0E8AE
:102940008F2EFFE39F2EF02D0F2EF0E02F2EF0E0C4
:102950003F2EF0E04F2EF0E05F2EF02DCA9411F4E0
:1029600011E325C1DE011396E7E6F2E083E0019072
:102970000D928150E1F7C8010E949A0DC70162E2F1
:1029800070E00E94E11E009709F42EC17C010894BA
:10299000E11CF11CC70162E270E00E94E11EFC0133
:1029A000009709F421C19A83898310827CE0A72EC5
:1029B000B12CA00EB11EC501B70145E050E00E9448
:1029C000FC1E89819A8101969A8389836AE370E06B
:1029D0000E94E11EFC01009709F406C17C010894E5
:1029E000E11CF11C21812E3631F0223231F4F70145
:1029F0008181823211F421E04FC0822F90E0C09794
:102A00000A9710F02D32B1F4C701BE016F5F7F4FFE
:102A10000E94551CF801608771878287938789819E
:102A20009A818E159F0511F41AE2C1C024E0F801C5
:102A3000278354C02B3739F427E0F8012783089403
:102A4000E11CF11CCEC0223221F50894E11CF11CDE
:102A500025E0F8012783C70162E270E00E94E11ED1
:102A6000FC01009709F4C0C09A8389831082C801D1
:102A7000B7010E944510D82E80936A02882309F07E
:102A800048C0E980FA800894E11CF11CFA82E982CE
:102A900025C0243741F422E0F8012783608671863F
:102AA000828693861BC0263641F422E0F8012783F4
:102AB000208631864286538611C02B3509F094C09A
:102AC00026E0F8012783C801B7010E944510D82EDF
:102AD00080936A028823E9F41FE269C0C701BE013E
:102AE0006D5F7F4F0E94161FFC017C01009709F467
:102AF0007BC080818D3719F40894E11CF11CF7012B
:102B000080818C3209F46DC00894E11CF11CDD2435
:102B100005C0F2E0FD1510F41D2D49C08E818823FB
:102B200049F0C8014296BE016A5F7F4F43E050E022
:102B30000E94FC1EC8014296B5010E94AC11F8012A
:102B400095838483FFEF8F3F9F0711F418E22FC016
:102B50000E94CA0C882361F0C5010E94E0128823FC
:102B600039F0CE010696B50143E050E00E94FC1E0C
:102B7000F80102811381DD2009F0F0CE8091EF048D
:102B8000813041F488EE94E00E94150D182F809357
:102B90006A020DC088EE94E00E94F90C182F809311
:102BA0006A02882321F488EE94E00E944B0D812F65
:102BB00029960FB6F894DEBF0FBECDBFCF91DF913F
:102BC0001F910F91FF90EF90DF90CF90BF90AF904B
:102BD0009F908F907F906F905F904F903F902F903D
:102BE000089562E0D62E9ACF10E3E1CF0F931F93A2
:102BF0008C010E94AB10C8010E94391460E042E0D1
:102C00000E94240E1F910F910895A1E1B0E0EBE026
:102C1000F6E10C941E1C3C017F876E876A01FC0163
:102C200017821682838181FD03C06FEF7FEF6FC330
:102C30009E012F5F3F4F398B288BF3012381EE8557
:102C4000FF8523FD859123FF8191FF87EE878823F0
:102C500009F45AC3853251F4EE85FF8523FD859131
:102C600023FF8191FF87EE87853229F490E0B3013D
:102C70000E946F1FE2CF982F10E088249924103211
:102C8000B0F49B3269F09C3228F4903251F09332C8
:102C900071F40BC09D3239F0903349F4116028C0B3
:102CA0001260146025C0186023C0106121C017FD98
:102CB0002AC0892F80538A3078F416FF06C0FAE0C4
:102CC0009F9E902C1124980E13C03AE0839E802C76
:102CD0001124880E10620CC09E3221F416FD14C31C
:102CE000106406C09C3611F4106802C0983659F47E
:102CF000EE85FF8523FD959123FF9191FF87EE8758
:102D0000992309F0BCCF892F8554833020F4812F7B
:102D10008061905E07C0892F8556833008F09FC17F
:102D2000812F8F7E86FD02C076E0972E6FE3F62E10
:102D3000F822953619F4F0E4FF2A07C0963619F404
:102D400020E8F22A02C091109A94F7FE0AC03BE3F1
:102D5000391518F45CE3B52E02C0B92CB39427E002
:102D600009C047E0491520F4BB2447E0942EF7CF73
:102D7000292DBB24C60104969D878C87F6016081AE
:102D8000718182819381AE014F5F5F4F0B2D0E9455
:102D9000B51D6C010981202E332400FF04C003FD02
:102DA00002C01DE209C0F1FE02C01BE205C0F2FC38
:102DB00002C010E001C010E2C1018C709070892B3C
:102DC000B9F1112311F483E001C084E0881510F0FB
:102DD00088240AC0881AF3FC07C080E290E0B3019F
:102DE0000E946F1F8A94C9F7112329F0812F90E068
:102DF000B3010E946F1F23FE03C008E610E00EC05F
:102E00000CE610E00BC0E114F10409F0805290E0F0
:102E1000B3010E946F1F0F5F1F4F05C0EF2CFF24EF
:102E2000F0E1EF22FF24F8018491882361F714C1B7
:102E3000F7FE12C0BC0C24FE04C08A81813309F461
:102E4000BA941B141CF0BB24B3942DC0F8E0FB15FE
:102E500050F538E0B32E27C0F6FC25C0892D90E050
:102E60008C159D054CF02CEFC2162FEFD20624F0E6
:102E700030E8F32A01C09A94992049F0E2E0F0E0AA
:102E8000EC0FFD1FE90DF11D80818033A1F3F7FEEA
:102E90000AC0B92CB394892D90E0C816D90614F055
:102EA000992401C09C18F7FC03C025E030E009C05C
:102EB0001C141D041CF021E030E003C096012F5FBC
:102EC0003F4F112311F02F5F3F4F992029F0892D9B
:102ED00090E00196280F391F882D90E028173907B8
:102EE00014F0882401C0821A4F2C5524C201897025
:102EF0009070892B39F008C080E290E0B3010E9405
:102F00006F1F8A948820C1F7112329F0812F90E048
:102F1000B3010E946F1F43FE07C008C080E390E02A
:102F2000B3010E946F1F8A948820C1F7F7FE46C044
:102F30008601D7FE02C000E010E076010894E11C93
:102F4000F11CE01AF10A41E050E04C0F5D1FE40E65
:102F5000F51E26014B185108892D90E0AA24BB24A8
:102F6000A81AB90A5FEF0F3F150729F48EE290E027
:102F7000B3010E946F1FC016D10634F040165106EF
:102F80001CF4F701808101C080E3015010400894D7
:102F9000E11CF11C0A151B052CF090E0B3010E9406
:102FA0006F1FE0CF0C151D0539F49A81963318F484
:102FB000953311F424FE81E390E04BC08A81813384
:102FC00009F00F7E90E0B3010E946F1F9920A1F0DD
:102FD0008EE290E0B3010E946F1F12E0E1E0F0E0AA
:102FE000EC0FFD1FE10FF11D1F5F808190E0B30129
:102FF0000E946F1F9A9491F744FC03C085E690E00D
:1030000002C085E490E0B3010E946F1FD7FC05C0A9
:10301000C114D10441F404FF06C0D094C194D10876
:10302000D3948DE201C08BE290E0B3010E946F1F48
:1030300080E305C08F5F26EF3FEFC20ED31E3AE05C
:10304000C316D104BCF790E0B3010E946F1FC60104
:10305000C096B3010E946F1FCC84DD8452C19336A9
:1030600031F0933799F0933509F059C023C0F60138
:10307000808189835E010894A11CB11C22E030E0AC
:10308000C20ED31E21E0E22EF12C12C0F601A08068
:10309000B18016FD03C06FEF7FEF02C0692D70E0B5
:1030A00022E030E0C20ED31EC5010E940B1F7C013E
:1030B0001F7713C0F601A080B18016FD03C06FEF2B
:1030C0007FEF02C0692D70E022E030E0C20ED31E17
:1030D000C5010E94CB1E7C01106813FF07C01BC0F6
:1030E00080E290E0B3010E946F1F8A94882D90E0E7
:1030F000E816F906A8F30FC0F50117FD859117FF33
:1031000081915F0190E0B3010E946F1F81108A944A
:103110000894E108F108E114F10471F7F2C0943663
:1031200011F0993689F517FF08C0F6012081318129
:103130004281538184E090E00AC0F6018081918150
:103140009C01442737FD4095542F82E090E0C80E43
:10315000D91E9FE6F92EF12257FF09C050954095E0
:10316000309521953F4F4F4F5F4F90E8F92ACA01A4
:10317000B901AE014F5F5F4F2AE030E00E9432207C
:10318000E82EE889EE1A41C0953721F41F7E2AE027
:1031900030E01CC0197F9F3661F0903720F49835DD
:1031A00009F0B2C00FC0903739F0983709F0ACC0C1
:1031B00004C028E030E00AC0106114FD146020E172
:1031C00030E004C014FD166020E132E017FF08C0B3
:1031D000F601608171818281938144E050E008C0F2
:1031E000F60180819181BC0180E090E042E050E0F6
:1031F000C40ED51EAE014F5F5F4F0E943220E82EF5
:103200005889E51A8FE7F82EF122F6FE0BC08EEFF3
:10321000F822E91438F4F4FE07C0F2FC05C09FEE72
:10322000F92202C01E2D01C0192DF4FE0DC0FE01B1
:10323000EE0DF11D8081803319F4E9EEFE2208C005
:103240001F5FF2FE05C003C08F2D867809F01F5F57
:103250000F2DF3FC14C0F0FE0FC0181510F09E2CBB
:103260000BC09E2C980C911A182D06C080E290E09D
:10327000B3010E946F1F1F5F1815C0F304C018151B
:1032800010F4811A01C0882404FF0FC080E390E08D
:10329000B3010E946F1F02FF1DC001FD03C088E73C
:1032A00090E00EC088E590E00BC0802F867891F00A
:1032B00001FF02C08BE201C080E2F7FC8DE290E0EA
:1032C000B3010E946F1F06C080E390E0B3010E942B
:1032D0006F1F9A94E914C0F3EA94E1E0F0E0EC0F78
:1032E000FD1FEE0DF11D808190E0B3010E946F1F64
:1032F000EE2091F706C080E290E0B3010E946F1FBC
:103300008A948820C1F799CCF30166817781CB013B
:103310006196E2E10C943A1C5058BB27AA270ED0C4
:1033200070C161D130F066D120F031F49F3F11F4CB
:103330001EF456C10EF4E095E7FB4CC1E92F72D1A3
:1033400080F3BA17620773078407950718F071F4C2
:103350009EF58AC10EF4E0950B2EBA2FA02D0B011D
:10336000B90190010C01CA01A0011124FF27591BCA
:1033700099F0593F50F4503E68F11A16F040A22FD0
:10338000232F342F4427585FF3CF46953795279541
:10339000A795F0405395C9F77EF41F16BA0B620B40
:1033A000730B840BBAF09150A1F0FF0FBB1F661F87
:1033B000771F881FC2F70EC0BA0F621F731F841FCA
:1033C00048F4879577956795B795F7959E3F08F0F0
:1033D000B3CF9395880F08F09927EE0F97958795AF
:1033E0000895D4D008F481E008950CD00AC102D128
:1033F00040F0F9D030F021F45F3F19F0EBC05111EB
:1034000034C1EEC00FD198F39923C9F35523B1F31A
:10341000951B550BBB27AA2762177307840738F043
:103420009F5F5F4F220F331F441FAA1FA9F333D0A2
:103430000E2E3AF0E0E830D091505040E695001C56
:10344000CAF729D0FE2F27D0660F771F881FBB1F12
:10345000261737074807AB07B0E809F0BB0B802DEC
:10346000BF01FF2793585F4F2AF09E3F510568F038
:10347000B1C0FBC05F3FECF3983EDCF386957795D7
:103480006795B795F7959F5FC9F7880F911D96953A
:10349000879597F90895E1E0660F771F881FBB1F96
:1034A000621773078407BA0720F0621B730B840B43
:1034B000BA0BEE1F88F7E0950895BCD088F09F57AF
:1034C00090F0B92F9927B751A0F0D1F0660F771F70
:1034D000881F991F1AF0BA95C9F712C0B13081F050
:1034E000C3D0B1E00895C0C0672F782F8827B85F98
:1034F00039F0B93FCCF3869577956795B395D9F7B1
:103500003EF490958095709561957F4F8F4F9F4FBA
:103510000895E89409C097FB3EF4909580957095C6
:1035200061957F4F8F4F9F4F9923A9F0F92F96E90F
:10353000BB279395F695879577956795B795F11184
:10354000F8CFFAF4BB0F11F460FF1BC06F5F7F4F21
:103550008F4F9F4F16C0882311F096E911C0772333
:1035600021F09EE8872F762F05C0662371F096E83C
:10357000862F70E060E02AF09A95660F771F881F0B
:10358000DAF7880F9695879597F90895990F0008AF
:10359000550FAA0BE0E8FEEF16161706E807F90725
:1035A000C0F012161306E407F50798F0621B730BC0
:1035B000840B950B39F40A2661F0232B242B252B41
:1035C00021F408950A2609F4A140A6958FEF811DE4
:1035D000811D089597F99F6780E870E060E0089585
:1035E0009FEF80EC089500240A941616170618061B
:1035F0000906089500240A941216130614060506F7
:103600000895092E0394000C11F4882352F0BB0F87
:1036100040F4BF2B11F460FF04C06F5F7F4F8F4FEA
:103620009F4F089557FD9058440F551F59F05F3F25
:1036300071F04795880F97FB991F61F09F3F79F0D4
:1036400087950895121613061406551FF2CF469556
:10365000F1DF08C0161617061806991FF1CF8695D8
:103660007105610508940895E894BB2766277727BC
:10367000CB0197F908958ADF08F48FEF08950BD0F6
:10368000C0CFB1DF28F0B6DF18F0952309F0A2CF44
:10369000A7CF1124EACFC6DFA0F3959FD1F3950FF2
:1036A00050E0551F629FF001729FBB27F00DB11DC6
:1036B000639FAA27F00DB11DAA1F649F6627B00D56
:1036C000A11D661F829F2227B00DA11D621F739F3F
:1036D000B00DA11D621F839FA00D611D221F749F4D
:1036E0003327A00D611D231F849F600D211D822F94
:1036F000762F6A2F11249F5750408AF0E1F08823DB
:103700004AF0EE0FFF1FBB1F661F771F881F9150E7
:103710005040A9F79E3F510570F05CCFA6CF5F3FA8
:10372000ECF3983EDCF3869577956795B795F7951A
:10373000E7959F5FC1F7FE2B880F911D96958795A2
:1037400097F9089511F40EF44BCF41C073DFD0F315
:103750009923D9F3CEF39F57550B87FF46D000240A
:10376000A0E640EA900180585695979528F4805C31
:10377000660F771F881F20F026173707480730F499
:10378000621B730B840B202931294A2BA6951794B1
:103790000794202531254A2758F7660F771F881F81
:1037A00020F026173707480730F4620B730B840BA1
:1037B000200D311D411DA09581F7B901842F91582D
:1037C000880F9695879508959B01AC0158CF9F3F30
:1037D00031F0915020F4879577956795B795880FCC
:1037E000911D9695879597F9089591505040660FD1
:1037F000771F881FD2F70895A1E21A2EAA1BBB1BC0
:10380000FD010DC0AA1FBB1FEE1FFF1FA217B307AC
:10381000E407F50720F0A21BB30BE40BF50B661FC2
:10382000771F881F991F1A9469F760957095809586
:1038300090959B01AC01BD01CF0108952F923F925D
:103840004F925F926F927F928F929F92AF92BF92B0
:10385000CF92DF92EF92FF920F931F93CF93DF935C
:10386000CDB7DEB7CA1BDB0B0FB6F894DEBF0FBEB9
:10387000CDBF09942A88398848885F846E847D8406
:103880008C849B84AA84B984C884DF80EE80FD8008
:103890000C811B81AA81B981CE0FD11D0FB6F8947E
:1038A000DEBF0FBECDBFED010895A0E0B0E0EBE5B7
:1038B000FCE10C94241CEC015B016115710519F00D
:1038C000FB0191838083F9908F2D90E00E948D1EE3
:1038D000892BC9F7FDE2FF1621F4F990EE24E39459
:1038E00005C02BE2F21609F4F990EE248E01015086
:1038F0001040C8016AE572E043E050E00E94A41E57
:10390000892B01F58E010E5F1F4FC8016DE572E036
:1039100045E050E00E94A41E892B19F48E01095F36
:103920001F4FA114B10419F0F50111830083E0FCCD
:1039300004C070E090E080E814C070E090E080E89F
:103940006FEF08C1C80162E672E043E050E00E94F8
:10395000A41E892B69F4A114B10429F470E090E04D
:1039600080EC6FE7F7C02296F501D183C083F6CFD4
:103970008824992440E050E060E070E0EF2DE053AF
:10398000EA30A0F5F2E0EF2A8E2D90E09C0128703D
:103990003070E2FE06C0232B79F50894811C911C3F
:1039A0002BC0232B19F0089481089108DB01CA0170
:1039B00012E0880F991FAA1FBB1F1A95D1F7480F55
:1039C000591F6A1F7B1F440F551F661F771F4E0F1D
:1039D000511D611D711D483929E9520729E9620706
:1039E00029E1720748F084E0E82A06C0EE3F31F48E
:1039F000E3FC39C098E0E92AF990C0CFE53311F033
:103A0000E53189F529912D3219F4E0E1EE2A05C05E
:103A10002B3219F081E090E003C0299182E090E020
:103A2000E22FE053EA3018F0C81BD90B1CC020E08D
:103A300030E0FCE020383F075CF4C901880F991F93
:103A4000880F991F280F391F220F331F2E0F311D8A
:103A5000E991E053EA3068F3E4FE03C03095219524
:103A60003F4F820E931ECE2CDD24E1FE07C0A11431
:103A7000B10421F02197F501D183C083CB01BA01B4
:103A80000E94891A7B018C01F3E0CF22DD2423E020
:103A9000C216D10421F417FB109517F910955701A0
:103AA0006801C801B70120E030E040E050E00E942A
:103AB000F119882309F44AC097FE0DC029E7E22EC8
:103AC00022E0F22E9094819491089394C0E2D0E089
:103AD00000E010E012C091E9E92E92E0F92EF6CF55
:103AE000F7012591359145915491C601B5010E9488
:103AF0003F1B5B016C018C1A9D0A8C169D0684F796
:103B0000D595C7950F5F1F4F0630110529F08CEF33
:103B10009FEFE80EF91EF1CFC501D6017C018D01A2
:103B20008C2D880F8D2D881F8F3F51F0C601B50158
:103B300020E030E040E050E00E94F119882331F4A9
:103B400082E290E09093DA058093D9057E2D9F2D37
:103B5000802F612F272F392F482F562FB901CA01E7
:103B6000CDB7DEB7ECE00C94401C283008F027E01D
:103B70003327DA01990F311D87FD916000966105A9
:103B8000710539F432602E5F3D9330E32A95E1F7F9
:103B900008959F3F30F080387105610509F03C5F62
:103BA0003C5F3D93913008F08068911DDF93CF9387
:103BB0001F930F93FF92EF92192F987F9695E92FFD
:103BC00096959695E90FFF27E151FD4F99273327E9
:103BD000EE24FF24A701E70105900894079428F438
:103BE000360FE71EF81E491F511D660F771F881FED
:103BF000991F0694A1F70590079428F4E70EF81E84
:103C0000491F561FC11D770F881F991F661F0694F5
:103C1000A1F70590079428F4F80E491F561FC71FF7
:103C2000D11D880F991F661F771F0694A1F7059075
:103C3000079420F4490F561FC71FD81F990F661FFE
:103C4000771F881F0694A9F784911095177041F08B
:103C5000D695C79557954795F794E7941A95C1F768
:103C6000E5E9F2E06894159015913591659195918B
:103C700005907FE27395E118F10A430B560BC90BCF
:103C8000D009C0F7E10CF11E431F561FC91FD01DFC
:103C90007EF4703311F48A95E6CFE894015030F049
:103CA000080F0AF40027021708F4202F2395022F8B
:103CB0007A3328F079E37D932A95E9F710C07D9354
:103CC0002A9589F6069497956795379517951794D1
:103CD000E118F10A430B560BC90BD00998F0239554
:103CE0007E9173957A3308F070E37C932013B8F7D4
:103CF0007E9170617D9330F0839571E37D9370E3E5
:103D00002A95E1F71124EF90FF900F911F91CF9129
:103D1000DF91992787FD90950895911101C2803216
:103D200019F089508550D0F7089591110895815464
:103D30008A5108F4805E855A0895FB01DC010590E4
:103D40000D920020E1F70895FB01DC014150504045
:103D500088F08D9181341CF08B350CF4805E659178
:103D600061341CF06B350CF4605E861B611171F3DD
:103D7000990B0895881BFCCFFB01DC01415050409A
:103D800048F005900D920020C9F701C01D924150E6
:103D90005040E0F70895FC0105906150704001101B
:103DA000D8F7809590958E0F9F1F0895FB01DC0139
:103DB0000D900020E9F7119701900D920020E1F796
:103DC0000895FC018191861721F08823D9F799275E
:103DD00008953197CF010895FB01DC018D91019089
:103DE00080190110D9F3990B0895FB01DC010190B2
:103DF0000D920020E1F70895FB01DC014150504095
:103E000048F001900D920020C9F701C01D92415069
:103E10005040E0F70895FC0161507040019001109E
:103E2000D8F7809590958E0F9F1F0895DC019927F4
:103E30008D91882341F0FB01019008160110E1F7F4
:103E4000B9F71197CD010895FB0151915523A9F0C0
:103E5000BF01DC014D9145174111E1F759F4CD0146
:103E60000190002049F04D9140154111C9F3FB012B
:103E70004111EFCF81E090E001970895A0E0B0E01C
:103E8000E4E4FFE10C942E1C9E01275F3F4F8D81DF
:103E90009E816F817885A9010E9405162096E2E037
:103EA0000C944A1CA0E0B0E0E8E5FFE10C942C1C67
:103EB0000F8118859E01255F3F4FF801838188603F
:103EC0008383C80169857A85A9010E940516F801D6
:103ED0002381277F23832096E4E00C94481C0F93D2
:103EE0001F93CF93DF938C01EB018B8181FF1BC06C
:103EF00082FF0DC02E813F818C819D81281739075B
:103F000064F4E881F9810193F983E88306C0E885C8
:103F1000F985802F0995892B31F48E819F81019637
:103F20009F838E8302C00FEF1FEFC801DF91CF91F7
:103F30001F910F910895EF92FF920F931F93CF93CC
:103F4000DF937C018B01DB0113968C9181FD03C013
:103F5000CFEFDFEF13C0C0E0D0E00BC0D801189660
:103F6000ED91FC911997B8010995892B11F0CFEFCC
:103F7000DFEFF70181917F01882381F7CE01CDB773
:103F8000DEB7E6E00C94461CA0E0B0E0EAECFFE10E
:103F90000C942E1CFE01359661917191A091D5056E
:103FA000B091D60513968C911397886013968C93D5
:103FB0008091D5059091D605AF010E940516E0913C
:103FC000D505F091D6052381277F23832096E2E053
:103FD0000C944A1CAEE0B0E0E0EFFFE10C942C1C26
:103FE0000D891E8986E08C831A8309838FEF9FE7F2
:103FF0009E838D839E01275E3F4FCE0101966F8980
:10400000788DA9010E9405162F813885020F131F94
:10401000F80110822E96E4E00C94481CAEE0B0E06B
:10402000E4E1F0E20C942C1C0D891E898EE08C8357
:104030001A8309838FEF9FE79E838D839E01275EFE
:104040003F4FCE0101966F89788DA9010E94051618
:104050002F813885020F131FF80110822E96E4E09D
:104060000C94481CFA01AA27283051F1203181F123
:10407000E8946F936E7F6E5F7F4F8F4F9F4FAF4F70
:10408000B1E03ED0B4E03CD0670F781F891F9A1F83
:10409000A11D680F791F8A1F911DA11D6A0F711D37
:1040A000811D911DA11D20D009F468943F912AE043
:1040B000269F11243019305D3193DEF6CF0108952B
:1040C000462F4770405D4193B3E00FD0C9F7F6CF5C
:1040D000462F4F70405D4A3318F0495D31FD405224
:1040E000419302D0A9F7EACFB4E0A69597958795BA
:1040F00077956795BA95C9F7009761057105089599
:104100009B01AC010A2E0694579547953795279544
:10411000BA95C9F7620F731F841F951FA01D0895DC
:0A412000992788270895F894FFCF2F
:10412A0030313233343536371F01010000000000C8
:10413A000000000000000000000000000000000075
:10414A0000000000000000000000001F0101000044
:10415A000000000000000000000000000000000055
:10416A00000000000000000000000000000000D86D
:10417A0005B40333043305C305B30308012B010057
:10418A000000000000000000000000000000000025
:10419A00000000000000000000003F0101000000D4
:1041AA000000000000000000000000000000000005
:1041BA0000000000000000000000000000000000F5
:1041CA0000000000000000000000000000000000E5
:1041DA00000000000000000000000000003F010194
:1041EA0000000000000000000000000000000000C5
:1041FA0000000000000000000000000000000000B5
:10420A0000000000000000000000000000000000A4
:10421A000000000000000000000000000000000094
:10422A0001C407B40333047904FF03B3037A01BD5D
:10423A000100000000000000000000000000000073
:10424A000000000000000000000000007200006D85
:10425A00736700737200222573223A002222002516
:10426A00312E30660025302E336600222573220057
:10427A005B25735D0066616C736500747275650019
:0A428A007D0A00000000007D2C00FA
:00000001FF
