:100000000C9436010C9448010C9448010C9448015E
:100010000C9448010C9448010C9448010C9448013C
:100020000C9448010C9448010C9448010C9448012C
:100030000C9448010C9448010C9486050C944801DA
:100040000C9448010C94FC0C0C94F90A0C944E0B83
:100050000C9448010C9448010C9448010C944801FC
:100060000C9448010C9448016E616E00696E660044
:10007000CC00D100DC00E6000A00493A25312E33DD
:10008000662020004572723A25312E33662020000A
:100090005374644465763A25312E3366202000542B
:1000A000656D703A25312E3366202050574D3A2524
:1000B000312E33662020000A446576696365204945
:1000C0006E697469616C697A65640A0020204F4B1F
:1000D00000202053687574646F776E002020486597
:1000E0006174696E67002020524547554C41544564
:1000F00044004865617465722054696D656F75745C
:10010000204572726F722053687574646F776E0A3F
:100110000048656174657220416D6269656E742086
:100120004572726F722053687574646F776E0A003F
:100130004865617465722053656E736F72204572F5
:10014000726F722053687574646F776E0A00C00B0B
:100150008109480AB20A340BA00900C201000098C4
:10016000300D8109B10C790C060DA00900C2010007
:10017000009800407A10F35A00A0724E180900103F
:10018000A5D4E80000E87648170000E40B5402000C
:1001900000CA9A3B000000E1F50500008096980037
:1001A000000040420F000000A08601000000102760
:1001B00000000000E80300000000640000000000F0
:1001C0000A00000000000100000000002C76D88822
:1001D000DC674F0823DFC1DFAE59E1B1B796E5E335
:1001E000E453C63AE651997696E8E6C28426EB894E
:1001F0008C9B62ED407C6FFCEFBC9C9F40F2BAA5EB
:100200006FA5F490055A2AF75C936B6CF9676DC182
:100210001BFCE0E40D47FEF520E6B500D0ED902E86
:100220000300943577050080841E080000204E0AE4
:10023000000000C80C333333330F986E1283114122
:10024000EF8D2114893BE65516CFFEE6DB18D184ED
:100250004B381BF77C1D901DA4BBE4242032847214
:100260005E228100C9F124ECA1E53D2711241FBEC7
:10027000CFEFD8E0DEBFCDBF13E0A0E0B1E001C01A
:100280001D92AF3CB107E1F70E9403090C947B1566
:100290000C9400002F923F924F925F926F927F9248
:1002A0008F929F92AF92BF92CF92DF92EF92FF9286
:1002B0000F931F93DF93CF9300D000D0CDB7DEB75D
:1002C000D62E5A834983662329F460E070E080E0EB
:1002D00090E057C09C838B830F2EF0E06F2EF0E0F0
:1002E0007F2EF0E08F2EF0E09F2EF02D13012401E1
:1002F000AA241DC0EB81FC81E190F1900191119144
:10030000FC83EB83C401B301A80197010E9415117E
:100310003B014C01C801B7010E946C139B01AC0169
:10032000C201B1010E9415111B012C01A394AD144F
:1003300008F36D2D70E0882777FD8095982F0E9437
:1003400013125B016C01C401B301A60195010E9467
:100350007D119B01AC01E981FA81208331834283C5
:1003600053830E946C137B018C01C201B101A60171
:1003700095010E947D11A80197010E9414110E940D
:100380002E130F900F900F900F90CF91DF911F9130
:100390000F91FF90EF90DF90CF90BF90AF909F9024
:1003A0008F907F906F905F904F903F902F90089527
:1003B0000E94DB01089508958DB79EB70A970FB686
:1003C000F8949EBF0FBE8DBFEDB7FEB731968FE993
:1003D00090E0ADB7BEB712969C938E931197809123
:1003E000560190915701A0915801B0915901828313
:1003F0009383A483B58380912A0190912B01A091CE
:100400002C01B0912D0186839783A087B1870E942C
:10041000F7140F900F900F900F9080E990E0EDB7D8
:10042000FEB79283818380915A0190915B01A091E4
:100430005C01B0915D0183839483A583B6830E94A0
:10044000F71484E890E0ADB7BEB712969C938E93F4
:1004500011978091360190913701A0913801B091A8
:100460003901EDB7FEB783839483A583B6830E94D9
:10047000F7148AE790E0ADB7BEB712969C938E93BF
:10048000119780913E0190913F01A0914001B09160
:100490004101EDB7FEB783839483A583B6830E94A1
:1004A000F71480910201E82FF0E0EE0FFF1FE059F2
:1004B000FF4F859194910F900F900F900F90ADB7D3
:1004C000BEB712969C938E9311970E94F71488E7FB
:1004D00090E0EDB7FEB7928381830E94F7140F90EE
:1004E0000F90089500D087EB90E0EDB7FEB79283B0
:1004F00081830E94F7140F900F90089520E030E060
:1005000040E050E020932A0130932B0140932C01CE
:1005100050932D0180E090E0A8E4B3E480933E0185
:1005200090933F01A0934001B093410120933A0181
:1005300030933B0140933C0150933D0108956F92ED
:100540007F928F929F92AF92BF92CF92DF92EF9263
:10055000FF920F931F937B018C01809128018823C8
:1005600049F470913201609133019091340180918E
:100570003501DDC0C801B7010E9414113B014C01D7
:10058000609336017093370180933801909339015D
:100590009F772DEC3CEC4CEC5DE30E94C3121816E7
:1005A00084F560912A0170912B0180912C0190912A
:1005B0002D0120912E0130912F0140913001509159
:1005C00031010E9479118823E4F4C401B3012DECB8
:1005D0003CEC4CEC5DE30E94C7129B01AC016091C6
:1005E0003E0170913F0180914001909141010E9434
:1005F000151160933E0170933F01809340019093E9
:100600004101C401B30120913A0130913B01409175
:100610003C0150913D010E9414112DEC3CEC4CEC3E
:100620005DE30E947D115B016C0160934201709358
:1006300043018093440190934501C401B30120918B
:1006400046013091470140914801509149010E9473
:10065000C7127B018C0160914A0170914B0180911E
:100660004C0190914D0120913E0130913F0140910C
:100670004001509141010E94C7129B01AC01C80189
:10068000B7010E9415117B018C01C601B5012091B3
:100690004E0130914F0140915001509151010E9403
:1006A000C7129B01AC01C801B7010E9415117B0163
:1006B0008C0160932A0170932B0180932C019093FD
:1006C0002D01A0902E01B0902F01C0903001D0904C
:1006D0003101A60195010E94C312181684F0A09062
:1006E0003201B0903301C0903401D0903501C8017F
:1006F000B701A60195010E947911882344F4A092C4
:100700002A01B0922B01C0922C01D0922D0160924F
:100710003A0170923B0180923C0190923D017091B0
:100720002A0160912B0190912C0180912D01272F9E
:10073000362F492F582FB901CA011F910F91FF90F1
:10074000EF90DF90CF90BF90AF909F908F907F9071
:100750006F90089581E080935201089510925201A4
:1007600008951092540181E080935301089580917F
:100770005201089580915301089580915201833070
:1007800029F070E060E099E883EC08C070915601B0
:10079000609157019091580180915901272F362F70
:1007A000492F582FB901CA010895E4E6F0E090817D
:1007B0009E7F9083982F9064ECE7F0E0908396E81A
:1007C00090937A009081907F90839081908321E034
:1007D00030E002C0220F331F8A95E2F720937E009B
:1007E000089580917A00806480937A0080917A00E5
:1007F00080917A00806180937A0080917800909156
:100800007900892B71F32091780030917900C9012A
:100810000895E4E6F0E080818F7B8083E0EBF0E0F8
:1008200080EF8083808183608083E1EBF0E088E06B
:10083000808380818460808310926F001092B30067
:100840001092B40080E090E0A0E0B0E08093C60198
:100850009093C701A093C801B093C9010895EF9286
:10086000FF920F931F939B01AC0160E074E284E759
:1008700098E40E947D117B018C016093C601709306
:10088000C7018093C8019093C90120E030E040EA9D
:1008900051E40E947911882314F484E10BC0C8014B
:1008A000B70120E030E04FE753E40E94C3128823F1
:1008B00024F08FEF8093B30006C0C801B7010E94F7
:1008C000E5116093B30080E01F910F91FF90EF90CE
:1008D0000895AF92BF92CF92DF92EF92FF920F9363
:1008E0001F935B016C012AE037ED43E25CE30E9459
:1008F0007911882324F48FEF8093B40030C0C601AF
:10090000B5012DEC3CEC47EC52E40E94C3121816E2
:100910001CF41092B40023C06091B30070E08827EB
:1009200077FD8095982F0E9413127B018C01C601E0
:10093000B50120E030E048EC52EC0E947D1120E04F
:1009400030E040E85FE30E9415119B01AC01C80153
:10095000B7010E94C7120E94E5116093B400609134
:10096000C6017091C7018091C8019091C9010E9490
:10097000E5116093B30080E01F910F91FF90EF901D
:10098000DF90CF90BF90AF900895AF92BF92CF927B
:10099000DF92EF92FF920F931F937B018C0159011D
:1009A0006A010E940904C801B7010E942F04C60110
:1009B000B5010E9469041F910F91FF90EF90DF90A5
:1009C000CF90BF90AF90089560E070E080E090E03D
:1009D0009B01AC010E94C50408950F931F93182F2B
:1009E000062F0E94E404109252011093020100931A
:1009F00003015A9A1F910F910895AF92BF92CF921F
:100A0000DF92EF92FF920F931F935B016C01809135
:100A100002018250823008F44DC081E0809352017F
:100A200010925401809353010F2EF0E0EF2EF0E06E
:100A3000FF2EF0E00F2FF0E01F2FF02DE0922A01A3
:100A4000F0922B0100932C0110932D0180E090E097
:100A5000A8E4B3E480933E0190933F01A09340014A
:100A6000B0934101E0923A01F0923B0100933C01C6
:100A700010933D0160E070E08AE794E4A8019701DB
:100A80000E94C504A0920C01B0920D01C0920E010B
:100A9000D0920F011092050110920701E09214010B
:100AA000F0921501009316011093170182E08093D4
:100AB00002015A9A1F910F91FF90EF90DF90CF9013
:100AC000BF90AF900895E4E6F0E080818F7D808351
:100AD00092E094BD83E085BD8DE787BD90936E0065
:100AE0008AE08093C3018093C4018093C501089577
:100AF00080E184B917B88CE08AB980E00E94D50300
:100B00000E9409040E9463055A9A08951F920F9249
:100B10000FB60F9211248F9381E08093C2018F91C1
:100B20000F900FBE0F901F901895089508955A9832
:100B300008955A9A08958BB1882311F05A98089510
:100B40005A9A08952F923F924F925F927F928F927E
:100B50009F92AF92BF92CF92DF92EF92FF920F934C
:100B60001F93DF93CF93CDB7DEB728970FB6F894D6
:100B7000DEBF0FBECDBF80915201882309F4ECC0C7
:100B800080915301813009F0E7C080915401082F12
:100B900010E00E94F103000F111F000F111F0259F6
:100BA0001E4FA0E0B0E0BC01CD010E94111226E072
:100BB0003FEA4AEF5EE30E94C71223ED31EB46EDB8
:100BC0005EE30E941411D8016D937D938D939C93E5
:100BD0001397809154018F5F80935401843108F4FE
:100BE000BBC08EE691E064E1AE014F5F5F4F0E94B3
:100BF0004A017B018C0160935A0170935B018093E1
:100C00005C0190935D0120916201309163014091FC
:100C10006401509165010E94C312181624F482E009
:100C20008093520197C01092550180E090E0A0E0BF
:100C3000B0E08093560190935701A0935801B09370
:100C4000590189819A81AB81BC818D839E83AF8359
:100C5000B887C801B70120915E0130915F014091D2
:100C60006001509161010E94C7121B012C019EE698
:100C7000892E91E0992E77240F2EF0E0EF2EF0E0F0
:100C8000FF2EF0E00F2FF0E01F2FF02DD401AD90DC
:100C9000BD90CD90DC90C601B5012D813E814F8184
:100CA00058850E9414119F77A20191010E94791129
:100CB00088234CF4C801B701A60195010E941511C3
:100CC0007B018C017394E4E0F0E08E0E9F1EFEEB3E
:100CD0008F16F1E09F06D1F670925501672D70E0F6
:100CE000882777FD8095982F0E9413129B01AC01F5
:100CF000C801B7010E947D117B018C0160935601F0
:100D000070935701809358019093590183E0D82E36
:100D1000D092520110925301C801B70120E030E097
:100D200048EC53E40E94C312181634F482E0809316
:100D30005201D092530110C0C801B70120E030E049
:100D400040E050EC0E947911882334F482E08093D3
:100D5000520184E08093530128960FB6F894DEBFC9
:100D60000FBECDBFCF91DF911F910F91FF90EF90FC
:100D7000DF90CF90BF90AF909F908F907F905F90CB
:100D80004F903F902F9008950E94A205089580E70C
:100D9000E2E5F1E0DF011D928A95E9F783E393E94B
:100DA000A8E8B3EC8093560190935701A0935801A3
:100DB000B09359018DEC9CECACE8BFE380935E01ED
:100DC00090935F01A0936001B093610180E090E097
:100DD000A0EAB1E48093620190936301A09364015F
:100DE000B093650180E090E0A8ECB3E480936601E5
:100DF00090936701A0936801B093690180E090E04F
:100E0000A0E0B0EC80936A0190936B01A0936C0119
:100E1000B0936D0108958AE2E8E2F1E0DF011D92EE
:100E20008A95E9F780E090E0A0EAB0E4809346017B
:100E300090934701A0934801B09349018DEC9CEC3D
:100E4000ACECBDE380934A0190934B01A0934C011D
:100E5000B0934D0180E090E0A0E0BFE380934E01AD
:100E600090934F01A0935001B093510180E090E026
:100E7000A8ECB2E480932E0190932F01A09330014F
:100E8000B093310180E090E0A0E0B0E080933201C7
:100E900090933301A0933401B093350181E08093A6
:100EA0002801089586E2E2E0F1E0DF011D928A95D3
:100EB000E9F780E090E0A0E4B0E480931001909323
:100EC0001101A0931201B093130180E090E0A4EB14
:100ED000B2E48093180190931901A0931A01B09382
:100EE0001B0120E030E046E953E420931C013093DD
:100EF0001D0140931E0150931F0180E090E0A0E28D
:100F0000B2E48093200190932101A0932201B09339
:100F1000230120932401309325014093260150930F
:100F2000270185E0809306010E94C7060E940B07F7
:100F30000895AF92BF92CF92DF92EF92FF920F93FC
:100F40001F9380910201823008F424C10E94DC01C9
:100F500080915201833059F00F2EF0E0EF2EF0E037
:100F6000FF2EF9E80F2FF3EC1F2FF02D08C0E090B3
:100F70005601F09057010091580110915901E092EB
:100F80000801F092090100930A0110930B01C801B6
:100F9000B701209124013091250140912601509103
:100FA00027010E94C31218162CF481E063E00E940E
:100FB000ED04F0C01092540181E080935301C80108
:100FC000B70123E333E948E853EC0E947911882301
:100FD00094F4809107018F5F80930701909106013F
:100FE000981708F0D7C081E064E00E94ED0400D0BB
:100FF00080E391E058C01092070160910C0170915C
:101000000D0180910E0190910F01A80197010E949E
:101010009F020E94690480910201823009F070C031
:101020006091140170911501809116019091170142
:101030002DEC3CEC4CEC5DE30E9415117B018C0126
:10104000609314017093150180931601909317011A
:10105000A0900801B0900901C0900A01D0900B0146
:10106000C601B5012091200130912101409122015A
:10107000509123010E9479118823F4F4C801B7012B
:10108000209118013091190140911A0150911B01D2
:101090000E94C312181684F481E061E00E94ED04FE
:1010A00000D081E191E0EDB7FEB7928381830E9489
:1010B000F7140F900F906EC0C601B50120910C017E
:1010C00030910D0140910E0150910F010E94791154
:1010D0008823B4F4C801B70120911C0130911D018F
:1010E00040911E0150911F010E94C312181644F432
:1010F00081E062E00E94ED0400D082EF90E0D3CF67
:1011000060913601709137018091380190913901D9
:101110009F7720911001309111014091120150915F
:1011200013010E947911181664F0809105018F5FF8
:10113000809305018B30ECF08AE08093050183E019
:1011400016C08091050181508093050118168CF01E
:101150001092050180E090E0A0E0B0E080931401DF
:1011600090931501A0931601B093170182E080932C
:10117000020180910201833011F45A980BC08091D2
:1011800004018F5F80930401843020F010920401E9
:101190000E949B051F910F91FF90EF90DF90CF90E1
:1011A000BF90AF9008950E94990708951F93809172
:1011B000C201882311F483E024C01092C2010E946E
:1011C000A2058091C30181508093C3018823C1F49B
:1011D0001AE01093C3018091C40181508093C4012F
:1011E000882371F41093C4010E9499078091C5016E
:1011F00081508093C501882319F41093C50101C063
:1012000080E01F910895F8940E948C0D0E94FE09C1
:101210000E94D8010E9478050E945207789460E0ED
:1012200070E080E293E40E94FD040E9472020E943A
:10123000D608FDCFE82FF0E029E230E0DF01A29FE1
:10124000F001A39FF00DB29FF00D1124E852FD4F65
:101250000188F289E02D09950895CF93DF93A82F97
:10126000E82FF0E088ED92E029E230E0EF01C29F44
:10127000F001C39FF00DD29FF00D1124E80FF91F6C
:1012800029E2A29FD00111240588F689E02D8A0F5A
:101290009B1F0995DF91CF910895482F50E088ED6D
:1012A00092E029E230E0B901469F9001479F300D5E
:1012B000569F300D1124FC01E20FF31F2F5F3F4FAB
:1012C0000788F08DE02D820F931F09950895462F12
:1012D00090E068ED72E029E230E0FC01E29FC0019D
:1012E000E39F900DF29F900D1124FB01E80FF91F71
:1012F0000196680F791F018CF28DE02D842F0995DE
:101300000895FC0160FF02C081E0858F61FD158EAC
:1013100064FF02C081E0868F65FD168E74FF02C0F7
:1013200081E0878F75FD178E80E090E0089599E247
:10133000899FC001112488529D4F0E948109089500
:10134000089599E2899FC001112487529D4F90937F
:10135000CA038093C903089599E2899FC0011124AB
:1013600087529D4F9093CC038093CB03089599E2CD
:10137000899FC001112487529D4F9093CE03809383
:10138000CD030895462F90E024E031E0BC01629F38
:10139000C001639F900D729F900D112450E060E09A
:1013A00070E08C529E4F0E942D0A80E090E00895DC
:1013B000EF92FF920F931F9399E2899FF0011124FE
:1013C000E852FD4FDF011D929A95E9F78083728BF9
:1013D000618B548B438B368B258B108F078BF28E52
:1013E000E18EF286E1861487038783E08483F687A3
:1013F000E5871F910F91FF90EF9008950F931F9332
:101400000E943E0C0E94640D09EE12E0E091E90298
:10141000F091EA0280E060E070E045E150E109957A
:10142000E0911203F091130381E060E070E041E18C
:1014300050E10995C80140979093CA038093C9036E
:101440009093CC038093CB03075E1F4F1093CE0382
:101450000093CD031F910F9108959A01AB0183E092
:10146000220F331F441F551F8A95D1F760E074E2A5
:1014700084EF90E00E948413215030403093C500E7
:101480002093C400E0ECF0E080818D7F808308959C
:10149000EF92FF920F931F93CF93DF93EC010F8591
:1014A00018898CA1882341F481E08CA31AA278A723
:1014B0006FA359A348A31BA29FE7E92EF8019181CE
:1014C0008081981709F444C0808181508083808195
:1014D000882309F4E082F8018081E80FF11DF4808F
:1014E0008E8D882341F06091CB037091CC03E98D00
:1014F000FA8D8F2D09958AA128A139A1482F50E096
:101500004217530754F0EFA1F8A5E20FF31F108222
:1015100082E08BA32EE030E01DC0FDE0FF1619F045
:101520009AE0F91669F4EFA1F8A5E80FF11D108211
:101530008F5F8AA382E08BA31CA220E030E00AC068
:10154000EFA1F8A5E40FF51FF0828F5F8AA3B6CF55
:1015500022E030E0C901DF91CF911F910F91FF9000
:10156000EF9008951F93CF93DF93FC01C485D58539
:10157000EF85F88910C08D8D882341F083B7816095
:1015800083BF889583B78E7F83BF05C081E08BA31F
:101590002FEF3FEF29C091818081981761F38081FF
:1015A000815080838081882311F48FE7808380813C
:1015B000E80FF11D14818E8D882341F06091CB03DB
:1015C0007091CC03E98DFA8D812F09951E3050F46E
:1015D0001D3011F01A3031F48F8D882319F02AE074
:1015E00030E002C0212F30E0C901DF91CF911F917F
:1015F00008951F920F920FB60F9211242F938F937D
:101600009F93EF93FF932091C6008091D501815065
:101610008093D5018091D501882319F48FE78093B9
:10162000D5019091D5018091D401981739F0E091BE
:10163000D501F0E0EC52FE4F24830CC08091D5011F
:101640008F5F8093D5018091D50187FF03C081E032
:101650008093D501FF91EF919F918F912F910F90E2
:101660000FBE0F901F901895282F9091D701915081
:1016700009F49FE78091C10080628093C10080914E
:10168000D6019817E1F39093D701E091D701F0E0EC
:10169000E85AFD4F208380E090E008951F920F925A
:1016A0000FB60F9211248F939F93EF93FF93909116
:1016B000D7018091D6019817A9F08091D601815069
:1016C0008093D6018091D601882319F48FE7809307
:1016D000D601E091D601F0E0E85AFD4F8081809379
:1016E000C60005C08091C1008F7D8093C100FF912D
:1016F000EF919F918F910F900FBE0F901F901895B3
:1017000090E029E230E0829FF001839FF00D929FEC
:10171000F00D1124E852FD4F0784F089E02D8181FE
:10172000815081838181882311F48FE781839181A6
:101730008081981729F08181E80FF11D6483089555
:1017400081818F5F8183818187FF02C081E08183F6
:1017500008950F931F93CF93DF93082FEB0110E0B1
:1017600004C01F5F802F0E94800BFE01E10FF11D5E
:1017700060816623B1F7DF91CF911F910F9108959A
:10178000DF92EF92FF920F931F93D82E282F30E015
:1017900089E290E0289F7001299FF00C389FF00C9F
:1017A000112488ED92E0E80EF91E84E091E0289F74
:1017B0008001299F100D389F100D11240C521E4FCF
:1017C000F701108B0787F8019C01119221503040DE
:1017D000E1F7C701BA010E94810981E0F801818324
:1017E000808383838283E4E6F0E080818D7F808341
:1017F000ED2DF0E0EE0FFF1FCF01A3E0880F991F42
:10180000AA95E1F7E80FF91F70962EE431E0E20F98
:10181000F31FE491E093C000ED2DF0E0EE0FFF1F09
:10182000CF0163E0880F991F6A95E1F7E80FF91F70
:101830007196E20FF31FE491E093C1008D2D90E0CB
:10184000880F991FFC0143E0EE0FFF1F4A95E1F757
:10185000E80FF91F3C96E20FF31F459155916591F2
:101860007491C8010E942D0A0894E11CF11CC70163
:101870001F910F91FF90EF90DF900895CF92DF922C
:10188000EF92FF920F931F93EEE4F1E06591749154
:10189000E0E5F1E045915491E2E5F1E025913491E4
:1018A000E4E5F1E005911491E6E5F1E0E590F490CE
:1018B000E8E5F1E0C590D49080E00E94D8091F913E
:1018C0000F91FF90EF90DF90CF9008951092C60394
:1018D0001092C7031092C803089581E08093C60355
:1018E000089581E08093C703089581E08093C80341
:1018F0000895DC011C96ED91FC911D97A785B08998
:1019000011969C9111978C91981719F420E030E072
:1019100026C08C9181508C938C91882311F48FE395
:101920008C938C91FD01E80FF11D948111968C919F
:101930001197815011968C93119711968C91119754
:10194000882321F48FE311968C93119711968C9133
:101950001197A80FB11D14961C92292F30E0C901D0
:1019600008950F931F93CF93DF93EC018CA18823ED
:1019700041F481E08CA31AA278A76FA359A348A3CE
:101980001BA28E010F5F1F4F28A139A18AA190E0F1
:101990008217930754F0EFA1F8A5E20FF31F10820E
:1019A00082E08BA32EE030E021C0C8010E94790CB8
:1019B000982F8A3071F48AA1EFA1F8A5E80FF11DE4
:1019C00010828F5F8AA382E08BA31CA220E030E00C
:1019D0000DC0833049F08AA1EFA1F8A5E80FF11DF1
:1019E00090838F5F8AA3D0CF22E030E0C901DF91DE
:1019F000CF911F910F9108951F920F920FB60F92E2
:101A000011240F900FBE0F901F901895DB011C96AC
:101A1000ED91FC911D970784F089E02D8181815023
:101A200081838181882311F48FE381839181808177
:101A3000981729F08181E80FF11D14820EC0818171
:101A40008F5F81838181803410F081E081831C96D7
:101A5000ED91FC911D9784E083A380E090E00895D0
:101A60000F931F93CF93DF93982F09E2809F8001FC
:101A7000112408521D4F915084E8989FE0011124D1
:101A8000CE5BDC4FF801D08BC787FE0111928A959F
:101A9000E9F7C801BA010E94810981E0898388833E
:101AA0008B838A83E4E6F0E080818B7F80832498B7
:101AB00080EC8CBD8CE08CBD0F5F1F4FC801DF91A7
:101AC000CF911F910F910895CF92DF92EF92FF92E5
:101AD0000F931F93E0E6F1E065917491E2E6F1E087
:101AE00045915491E4E6F1E025913491E6E6F1E088
:101AF00005911491E8E6F1E0E590F490EAE6F1E072
:101B0000C590D49081E00E94D8091F910F91FF9059
:101B1000EF90DF90CF9008950895A1E1B0E0E3E960
:101B2000FDE00C94A6133C017F876E876A01FC01DF
:101B300017821682838181FD03C06FEF7FEF6FC331
:101B40009E012F5F3F4F398B288BF3012381EE8558
:101B5000FF8523FD859123FF8191FF87EE878823F1
:101B600009F45AC3853251F4EE85FF8523FD859132
:101B700023FF8191FF87EE87853229F490E0B3013E
:101B80000E94CB14E2CF982F10E0882499241032C1
:101B9000B0F49B3269F09C3228F4903251F09332C9
:101BA00071F40BC09D3239F0903349F4116028C0B4
:101BB0001260146025C0186023C0106121C017FD99
:101BC0002AC0892F80538A3078F416FF06C0FAE0C5
:101BD0009F9E902C1124980E13C03AE0839E802C77
:101BE0001124880E10620CC09E3221F416FD14C31D
:101BF000106406C09C3611F4106802C0983659F47F
:101C0000EE85FF8523FD959123FF9191FF87EE8758
:101C1000992309F0BCCF892F8554833020F4812F7C
:101C20008061905E07C0892F8556833008F09FC180
:101C3000812F8F7E86FD02C076E0972E6FE3F62E11
:101C4000F822953619F4F0E4FF2A07C0963619F405
:101C500020E8F22A02C091109A94F7FE0AC03BE3F2
:101C6000391518F45CE3B52E02C0B92CB39427E003
:101C700009C047E0491520F4BB2447E0942EF7CF74
:101C8000292DBB24C60104969D878C87F6016081AF
:101C9000718182819381AE014F5F5F4F0B2D0E9456
:101CA000DD136C010981202E332400FF04C003FDE5
:101CB00002C01DE209C0F1FE02C01BE205C0F2FC39
:101CC00002C010E001C010E2C1018C709070892B3D
:101CD000B9F1112311F483E001C084E0881510F0FC
:101CE00088240AC0881AF3FC07C080E290E0B301A0
:101CF0000E94CB148A94C9F7112329F0812F90E018
:101D0000B3010E94CB1423FE03C008E610E00EC00E
:101D10000CE610E00BC0E114F10409F0805290E0F1
:101D2000B3010E94CB140F5F1F4F05C0EF2CFF249F
:101D3000F0E1EF22FF24F8018491882361F714C1B8
:101D4000F7FE12C0BC0C24FE04C08A81813309F462
:101D5000BA941B141CF0BB24B3942DC0F8E0FB15FF
:101D600050F538E0B32E27C0F6FC25C0892D90E051
:101D70008C159D054CF02CEFC2162FEFD20624F0E7
:101D800030E8F32A01C09A94992049F0E2E0F0E0AB
:101D9000EC0FFD1FE90DF11D80818033A1F3F7FEEB
:101DA0000AC0B92CB394892D90E0C816D90614F056
:101DB000992401C09C18F7FC03C025E030E009C05D
:101DC0001C141D041CF021E030E003C096012F5FBD
:101DD0003F4F112311F02F5F3F4F992029F0892D9C
:101DE00090E00196280F391F882D90E028173907B9
:101DF00014F0882401C0821A4F2C5524C201897026
:101E00009070892B39F008C080E290E0B3010E9405
:101E1000CB148A948820C1F7112329F0812F90E0F8
:101E2000B3010E94CB1443FE07C008C080E390E0DA
:101E3000B3010E94CB148A948820C1F7F7FE46C0F4
:101E40008601D7FE02C000E010E076010894E11C94
:101E5000F11CE01AF10A41E050E04C0F5D1FE40E66
:101E6000F51E26014B185108892D90E0AA24BB24A9
:101E7000A81AB90A5FEF0F3F150729F48EE290E028
:101E8000B3010E94CB14C016D10634F0401651069F
:101E90001CF4F701808101C080E3015010400894D8
:101EA000E11CF11C0A151B052CF090E0B3010E9407
:101EB000CB14E0CF0C151D0539F49A81963318F434
:101EC000953311F424FE81E390E04BC08A81813385
:101ED00009F00F7E90E0B3010E94CB149920A1F08D
:101EE0008EE290E0B3010E94CB1412E0E1E0F0E05A
:101EF000EC0FFD1FE10FF11D1F5F808190E0B3012A
:101F00000E94CB149A9491F744FC03C085E690E0BC
:101F100002C085E490E0B3010E94CB14D7FC05C059
:101F2000C114D10441F404FF06C0D094C194D10877
:101F3000D3948DE201C08BE290E0B3010E94CB14F8
:101F400080E305C08F5F26EF3FEFC20ED31E3AE05D
:101F5000C316D104BCF790E0B3010E94CB14C601B4
:101F6000C096B3010E94CB14CC84DD8452C1933659
:101F700031F0933799F0933509F059C023C0F60139
:101F8000808189835E010894A11CB11C22E030E0AD
:101F9000C20ED31E21E0E22EF12C12C0F601A08069
:101FA000B18016FD03C06FEF7FEF02C0692D70E0B6
:101FB00022E030E0C20ED31EC5010E94C0147C0195
:101FC0001F7713C0F601A080B18016FD03C06FEF2C
:101FD0007FEF02C0692D70E022E030E0C20ED31E18
:101FE000C5010E94B5147C01106813FF07C01BC017
:101FF00080E290E0B3010E94CB148A94882D90E097
:10200000E816F906A8F30FC0F50117FD859117FF33
:1020100081915F0190E0B3010E94CB1481108A94FA
:102020000894E108F108E114F10471F7F2C0943664
:1020300011F0993689F517FF08C0F601208131812A
:102040004281538184E090E00AC0F6018081918151
:102050009C01442737FD4095542F82E090E0C80E44
:10206000D91E9FE6F92EF12257FF09C050954095E1
:10207000309521953F4F4F4F5F4F90E8F92ACA01A5
:10208000B901AE014F5F5F4F2AE030E00E941D159D
:10209000E82EE889EE1A41C0953721F41F7E2AE028
:1020A00030E01CC0197F9F3661F0903720F49835DE
:1020B00009F0B2C00FC0903739F0983709F0ACC0C2
:1020C00004C028E030E00AC0106114FD146020E173
:1020D00030E004C014FD166020E132E017FF08C0B4
:1020E000F601608171818281938144E050E008C0F3
:1020F000F60180819181BC0180E090E042E050E0F7
:10210000C40ED51EAE014F5F5F4F0E941D15E82E15
:102110005889E51A8FE7F82EF122F6FE0BC08EEFF4
:10212000F822E91438F4F4FE07C0F2FC05C09FEE73
:10213000F92202C01E2D01C0192DF4FE0DC0FE01B2
:10214000EE0DF11D8081803319F4E9EEFE2208C006
:102150001F5FF2FE05C003C08F2D867809F01F5F58
:102160000F2DF3FC14C0F0FE0FC0181510F09E2CBC
:102170000BC09E2C980C911A182D06C080E290E09E
:10218000B3010E94CB141F5F1815C0F304C01815CB
:1021900010F4811A01C0882404FF0FC080E390E08E
:1021A000B3010E94CB1402FF1DC001FD03C088E7EC
:1021B00090E00EC088E590E00BC0802F867891F00B
:1021C00001FF02C08BE201C080E2F7FC8DE290E0EB
:1021D000B3010E94CB1406C080E390E0B3010E94DB
:1021E000CB149A94E914C0F3EA94E1E0F0E0EC0F28
:1021F000FD1FEE0DF11D808190E0B3010E94CB1414
:10220000EE2091F706C080E290E0B3010E94CB146B
:102210008A948820C1F799CCF30166817781CB013C
:102220006196E2E10C94C2135058BB27AA270ED046
:1022300070C161D130F066D120F031F49F3F11F4CC
:102240001EF456C10EF4E095E7FB4CC1E92F72D1A4
:1022500080F3BA17620773078407950718F071F4C3
:102260009EF58AC10EF4E0950B2EBA2FA02D0B011E
:10227000B90190010C01CA01A0011124FF27591BCB
:1022800099F0593F50F4503E68F11A16F040A22FD1
:10229000232F342F4427585FF3CF46953795279542
:1022A000A795F0405395C9F77EF41F16BA0B620B41
:1022B000730B840BBAF09150A1F0FF0FBB1F661F88
:1022C000771F881FC2F70EC0BA0F621F731F841FCB
:1022D00048F4879577956795B795F7959E3F08F0F1
:1022E000B3CF9395880F08F09927EE0F97958795B0
:1022F0000895D4D008F481E008950CD00AC102D129
:1023000040F0F9D030F021F45F3F19F0EBC05111EB
:1023100034C1EEC00FD198F39923C9F35523B1F31B
:10232000951B550BBB27AA2762177307840738F044
:102330009F5F5F4F220F331F441FAA1FA9F333D0A3
:102340000E2E3AF0E0E830D091505040E695001C57
:10235000CAF729D0FE2F27D0660F771F881FBB1F13
:10236000261737074807AB07B0E809F0BB0B802DED
:10237000BF01FF2793585F4F2AF09E3F510568F039
:10238000B1C0FBC05F3FECF3983EDCF386957795D8
:102390006795B795F7959F5FC9F7880F911D96953B
:1023A000879597F90895E1E0660F771F881FBB1F97
:1023B000621773078407BA0720F0621B730B840B44
:1023C000BA0BEE1F88F7E0950895BCD088F09F57B0
:1023D00090F0B92F9927B751A0F0D1F0660F771F71
:1023E000881F991F1AF0BA95C9F712C0B13081F051
:1023F000C3D0B1E00895C0C0672F782F8827B85F99
:1024000039F0B93FCCF3869577956795B395D9F7B1
:102410003EF490958095709561957F4F8F4F9F4FBB
:102420000895E89409C097FB3EF4909580957095C7
:1024300061957F4F8F4F9F4F9923A9F0F92F96E910
:10244000BB279395F695879577956795B795F11185
:10245000F8CFFAF4BB0F11F460FF1BC06F5F7F4F22
:102460008F4F9F4F16C0882311F096E911C0772334
:1024700021F09EE8872F762F05C0662371F096E83D
:10248000862F70E060E02AF09A95660F771F881F0C
:10249000DAF7880F9695879597F90895990F0008B0
:1024A000550FAA0BE0E8FEEF16161706E807F90726
:1024B000C0F012161306E407F50798F0621B730BC1
:1024C000840B950B39F40A2661F0232B242B252B42
:1024D00021F408950A2609F4A140A6958FEF811DE5
:1024E000811D089597F99F6780E870E060E0089586
:1024F0009FEF80EC089500240A941616170618061C
:102500000906089500240A941216130614060506F7
:102510000895092E0394000C11F4882352F0BB0F88
:1025200040F4BF2B11F460FF04C06F5F7F4F8F4FEB
:102530009F4F089557FD9058440F551F59F05F3F26
:1025400071F04795880F97FB991F61F09F3F79F0D5
:1025500087950895121613061406551FF2CF469557
:10256000F1DF08C0161617061806991FF1CF8695D9
:102570007105610508940895E894BB2766277727BD
:10258000CB0197F908958ADF08F48FEF08950BD0F7
:10259000C0CFB1DF28F0B6DF18F0952309F0A2CF45
:1025A000A7CF1124EACFC6DFA0F3959FD1F3950FF3
:1025B00050E0551F629FF001729FBB27F00DB11DC7
:1025C000639FAA27F00DB11DAA1F649F6627B00D57
:1025D000A11D661F829F2227B00DA11D621F739F40
:1025E000B00DA11D621F839FA00D611D221F749F4E
:1025F0003327A00D611D231F849F600D211D822F95
:10260000762F6A2F11249F5750408AF0E1F08823DB
:102610004AF0EE0FFF1FBB1F661F771F881F9150E8
:102620005040A9F79E3F510570F05CCFA6CF5F3FA9
:10263000ECF3983EDCF3869577956795B795F7951B
:10264000E7959F5FC1F7FE2B880F911D96958795A3
:1026500097F9089511F40EF44BCF41C073DFD0F316
:102660009923D9F3CEF39F57550B87FF46D000240B
:10267000A0E640EA900180585695979528F4805C32
:10268000660F771F881F20F026173707480730F49A
:10269000621B730B840B202931294A2BA6951794B2
:1026A0000794202531254A2758F7660F771F881F82
:1026B00020F026173707480730F4620B730B840BA2
:1026C000200D311D411DA09581F7B901842F91582E
:1026D000880F9695879508959B01AC0158CF9F3F31
:1026E00031F0915020F4879577956795B795880FCD
:1026F000911D9695879597F9089591505040660FD2
:10270000771F881FD2F70895A1E21A2EAA1BBB1BC0
:10271000FD010DC0AA1FBB1FEE1FFF1FA217B307AD
:10272000E407F50720F0A21BB30BE40BF50B661FC3
:10273000771F881F991F1A9469F760957095809587
:1027400090959B01AC01BD01CF0108952F923F925E
:102750004F925F926F927F928F929F92AF92BF92B1
:10276000CF92DF92EF92FF920F931F93CF93DF935D
:10277000CDB7DEB7CA1BDB0B0FB6F894DEBF0FBEBA
:10278000CDBF09942A88398848885F846E847D8407
:102790008C849B84AA84B984C884DF80EE80FD8009
:1027A0000C811B81AA81B981CE0FD11D0FB6F8947F
:1027B000DEBF0FBECDBFED010895283008F027E041
:1027C0003327DA01990F311D87FD9160009661056D
:1027D000710539F432602E5F3D9330E32A95E1F7BD
:1027E00008959F3F30F080387105610509F03C5F26
:1027F0003C5F3D93913008F08068911DDF93CF934B
:102800001F930F93FF92EF92192F987F9695E92FC0
:1028100096959695E90FFF27E453FE4F99273327A6
:10282000EE24FF24A701E70105900894079428F4FB
:10283000360FE71EF81E491F511D660F771F881FB0
:10284000991F0694A1F70590079428F4E70EF81E47
:10285000491F561FC11D770F881F991F661F0694B9
:10286000A1F70590079428F4F80E491F561FC71FBB
:10287000D11D880F991F661F771F0694A1F7059039
:10288000079420F4490F561FC71FD81F990F661FC2
:10289000771F881F0694A9F784911095177041F04F
:1028A000D695C79557954795F794E7941A95C1F72C
:1028B000E2E7F1E068941590159135916591959155
:1028C00005907FE27395E118F10A430B560BC90B93
:1028D000D009C0F7E10CF11E431F561FC91FD01DC0
:1028E0007EF4703311F48A95E6CFE894015030F00D
:1028F000080F0AF40027021708F4202F2395022F4F
:102900007A3328F079E37D932A95E9F710C07D9317
:102910002A9589F606949795679537951795179494
:10292000E118F10A430B560BC90BD00998F0239517
:102930007E9173957A3308F070E37C932013B8F797
:102940007E9170617D9330F0839571E37D9370E3A8
:102950002A95E1F71124EF90FF900F911F91CF91ED
:10296000DF91992787FD90950895FC0105906150AE
:1029700070400110D8F7809590958E0F9F1F089595
:10298000FC016150704001900110D8F7809590953E
:102990008E0F9F1F08950F931F93CF93DF938C018A
:1029A000EB018B8181FF1BC082FF0DC02E813F8117
:1029B0008C819D812817390764F4E881F98101939E
:1029C000F983E88306C0E885F985802F0995892B6E
:1029D00031F48E819F8101969F838E8302C00FEF19
:1029E0001FEFC801DF91CF911F910F910895A0E0D3
:1029F000B0E0EDEFF4E10C94B613FE013596619171
:102A00007191A091CB03B091CC0313968C91139745
:102A1000886013968C938091CB039091CC03AF0187
:102A20000E948D0DE091CB03F091CC032381277F91
:102A300023832096E2E00C94D213FA01AA272830CF
:102A400051F1203181F1E8946F936E7F6E5F7F4F7B
:102A50008F4F9F4FAF4FB1E03ED0B4E03CD0670FF7
:102A6000781F891F9A1FA11D680F791F8A1F911D4A
:102A7000A11D6A0F711D811D911DA11D20D009F49A
:102A800068943F912AE0269F11243019305D3193DC
:102A9000DEF6CF010895462F4770405D4193B3E0C5
:102AA0000FD0C9F7F6CF462F4F70405D4A3318F06C
:102AB000495D31FD4052419302D0A9F7EACFB4E01D
:102AC000A6959795879577956795BA95C9F70097D5
:102AD0006105710508959B01AC010A2E0694579576
:102AE000479537952795BA95C9F7620F731F841FCD
:0A2AF000951FA01D0895F894FFCF74
:00000001FF
