:100000000C94D2000C94EF000C94EF000C94EF00D1
:100010000C94EF000C94EF000C94EF000C94EF00A4
:100020000C94EF000C94EF000C94EF000C94EF0094
:100030000C94EF000C94EF000C94C10D0C94EF00A5
:100040000C94EF000C941D020C941A150C9493154B
:100050000C94EF000C94EF000C94EF000C94EF0064
:100060000C94EF000C94EF000A44657669636520F8
:10007000496E697469616C697A65640A00002020C0
:1000800054616B696E672052656164696E67002018
:10009000204261642052656164696E6700202044DB
:1000A0006973636F6E6E65637465640020204E6FC4
:1000B00020506F776572007D007E008F009D00AC40
:1000C0000020204F4B00202053687574646F776EBA
:1000D00000202048656174696E6700202052454702
:1000E000554C4154454400C100C600D100DB000A14
:1000F00044657669636520496E697469616C697AE3
:1001000065640A000A002020493A002020457272E6
:100110003A0020205374644465763A0020205057FA
:100120004D3A0054656D703A0048656174657220FF
:1001300054696D656F7574204572726F72205368D3
:100140007574646F776E0A0048656174657220414A
:100150006D6269656E74204572726F7220536875A6
:1001600074646F776E0A0048656174657220536528
:100170006E736F72204572726F722053687574646B
:100180006F776E0A005912441071138314601509B9
:10019000118025000000987D174410DC17BD184819
:1001A0001909110011241FBECFEFD8E0DEBFCDBF6B
:1001B00014E0A8E0B2E001C01D92A33BB107E1F753
:1001C00012E0A0E0B1E0E2E2F4E402C005900D929A
:1001D000A830B107D9F70E9464050C940F220C9443
:1001E0000000EF92FF920F931F93DF93CF93CDB751
:1001F000DEB766970FB6F894DEBF0FBECDBF9F8700
:100200008E87688B5A8B498B8889882349F480E0D4
:1002100090E0A0E0B0E08B8B9C8BAD8BBE8BAEC032
:1002200080E090E0A0E0B0E08A879B87AC87BD8744
:1002300080E090E0A0E0B0E08E839F83A887B9873C
:10024000198243C08981882F90E09C01220F331FBF
:10025000220F331F8E859F85FC01E20FF31F208143
:100260003181428153816A857B858C859D850E9481
:100270007D1BDC01CB018A879B87AC87BD87898189
:10028000882F90E09C01220F331F220F331F8E8591
:100290009F85FC01E20FF31F80819181A281B381D0
:1002A000BC01CD010E94D2219B01AC016E817F81F6
:1002B000888599850E947D1BDC01CB018E839F83FD
:1002C000A887B98789818F5F8983998188899817E1
:1002D00008F4B8CF8889882F90E0AA2797FDA095C9
:1002E000BA2FBC01CD010E94101E9B01AC016A8592
:1002F0007B858C859D850E94A41CDC01CB01E9894E
:10030000FA8980839183A283B3838889882F90E0C0
:10031000AA2797FDA095BA2FBC01CD010E94101EFF
:100320009B01AC016E817F81888599850E94A41C08
:10033000DC01CB017C018D01E989FA898081918101
:10034000A281B381BC01CD010E94D2219B01AC01ED
:10035000C801B7010E944C1BDC01CB018A839B833F
:10036000AC83BD838A819B81AC81BD81BC01CD0101
:100370000E9494216B8B7C8B8D8B9E8B8B899C89AF
:10038000AD89BE89BC01CD0166960FB6F894DEBF7B
:100390000FBECDBFCF91DF911F910F91FF90EF90D6
:1003A0000895DF93CF93CDB7DEB70E94E201CF91DE
:1003B000DF910895DF93CF93CDB7DEB783E0CF9180
:1003C000DF910895DF93CF93CDB7DEB7A4E2B0E01D
:1003D000E4E2F0E080818F7E8C93ECE4F0E080EC4E
:1003E0008083ECE4F0E08CE080838DE092E060E0DC
:1003F00070E040E150E00E9489218AE08093100281
:1004000084E0809315021092160281E08093170217
:100410001092180281E08093190210921A02109231
:100420001B0210921C0210920E02EEE4F0E080918A
:100430000E028083CF91DF9108951F920F920FB625
:100440000F9211242F933F934F935F936F937F935A
:100450008F939F93AF93BF93EF93FF93DF93CF93CC
:10046000CDB7DEB7809108028823C9F581E080937B
:100470000802EEE4F0E080818093090280910D0291
:10048000813029F4EEE4F0E08AE580834AC080916F
:100490000902803160F4AEE4B0E080910902882F57
:1004A00090E0FC01E35FFD4F80818C933AC0809126
:1004B00009022AE032E0B9010E94700E80930E0218
:1004C00080910E02882331F4EEE4F0E080910A027C
:1004D000808327C0EEE4F0E085EA808322C010929A
:1004E0000802EEE4F0E0808180930A0280910D0220
:1004F0008130B9F480910902803150F48091090271
:1005000090910A02692F0E94A40280930E0209C0F2
:100510008091090290910A02692F0E94950E8093A2
:100520000E02CF91DF91FF91EF91BF91AF919F911B
:100530008F917F916F915F914F913F912F910F908C
:100540000FBE0F901F901895DF93CF9300D00F929E
:10055000CDB7DEB789836A838981882321F48A81B4
:1005600080930D0212C08981843021F48A818093A6
:1005700011020BC08981853029F40E94E2010E949A
:10058000690E03C089E18B8301C01B828B810F90B0
:100590000F900F90CF91DF910895DF93CF9300D00C
:1005A000CDB7DEB79A8389830DC0E981FA812081B6
:1005B00089819A8101969A838983822F60E070E015
:1005C0000E946015E981FA818081882371F70F907C
:1005D0000F90CF91DF910895DF93CF9300D000D09B
:1005E00000D0CDB7DEB79E838D8305C08C8160E0DF
:1005F00070E00E9460158D819E819B838A838D812E
:100600009E8101969E838D83EA81FB8184918983FB
:1006100089818C838C81882349F726960FB6F894BC
:10062000DEBF0FBECDBFCF91DF910895DF93CF9393
:10063000CDB7DEB72A970FB6F894DEBF0FBECDBF99
:100640008A87198212C08981282F30E08A85482F35
:100650004170CE010296FC01E20FF31F40838A85B0
:1006600086958A8789818F5F89838981883058F34D
:1006700014C08981882F90E09C0121503040CE0128
:100680000296FC01E20FF31F8081805D60E070E064
:100690000E9460158981815089838981882349F767
:1006A0002A960FB6F894DEBF0FBECDBFCF91DF9173
:1006B00008950F931F93DF93CF93CDB7DEB72F9796
:1006C0000FB6F894DEBF0FBECDBF6C877D878E87D7
:1006D0009F8719828C859D85AE85BF850097A10572
:1006E000B105A1F580E360E070E00E9460154DC0A7
:1006F0008981082F10E08C859D85AE85BF852AE015
:1007000030E040E050E0BC01CD010E943021DC012E
:10071000CB01282F205DCE010296FC01E00FF11FD6
:10072000208389818F5F89838C859D85AE85BF8578
:100730002AE030E040E050E0BC01CD010E943021D1
:10074000DA01C9018C879D87AE87BF878C859D851F
:10075000AE85BF850097A105B10551F613C089810B
:10076000882F90E09C0121503040CE010296FC0180
:10077000E20FF31F808160E070E00E9460158981C4
:10078000815089838981882351F72F960FB6F89479
:10079000DEBF0FBECDBFCF91DF911F910F910895A6
:1007A000DF93CF9300D000D0CDB7DEB769837A83D3
:1007B0008B839C8389819A81AB81BC81BC01CD01F3
:1007C0000E9459030F900F900F900F90CF91DF91DF
:1007D00008950F931F93DF93CF93CDB7DEB7649740
:1007E0000FB6F894DEBF0FBECDBF698B7A8B8B8BB3
:1007F0009C8B69897A898B899C8920E030E040E074
:1008000050E00E94B01D882374F48DE260E070E037
:100810000E94601589899A89AB89BC89B058898BF7
:100820009A8BAB8BBC8B82E08E8313C069897A89EB
:100830008B899C8920E030E048EC52E40E94AA1B9E
:10084000DC01CB01898B9A8BAB8BBC8B8E81825068
:100850008E838E81823050F78E81882381F0698962
:100860007A898B899C8920E030E040E251E40E9443
:10087000AA1BDC01CB01898B9A8BAB8BBC8B698962
:100880007A898B899C8920E030E040E05FE30E9418
:100890007D1BDC01CB01898B9A8BAB8BBC8B1D82C2
:1008A00069897A898B899C890E946E1EDC01CB0143
:1008B00089839A83AB83BC838EE2898734C08D8120
:1008C000823019F48D818F5F8D838D81082F10E028
:1008D00089819A81AB81BC812AE030E040E050E020
:1008E000BC01CD010E943021DC01CB01282F205D0D
:1008F000CE010796FC01E00FF11F20838D818F5FF1
:100900008D8389819A81AB81BC812AE030E040E00F
:1009100050E0BC01CD010E943021DA01C901898378
:100920009A83AB83BC8389819A81AB81BC81009718
:10093000A105B10521F60DC08D81282F30E0CE0133
:100940000796FC01E20FF31F80E380838D818F5FA8
:100950008D838D81823080F38D81823021F58D8170
:100960008F5F8D838D81282F30E0CE010796FC01AB
:10097000E20FF31F80E380838D818F5F8D8313C02F
:100980008D81882F90E09C0121503040CE01079648
:10099000FC01E20FF31F808160E070E00E946015AF
:1009A0008D8181508D838D81882351F764960FB698
:1009B000F894DEBF0FBECDBFCF91DF911F910F9195
:1009C0000895DF93CF93CDB7DEB78FEE90E00E940E
:1009D000EC02CF91DF910895DF93CF9300D000D048
:1009E000CDB7DEB783E291E00E94EC028091710204
:1009F00090917202A0917302B0917402BC01CD017A
:100A00000E94E9038CE191E00E94EC028091450292
:100A100090914602A0914702B0914802BC01CD01DD
:100A20000E94E90382E191E00E94EC02809175024C
:100A300090917602A0917702B0917802BC01CD012D
:100A40000E94E9038BE091E00E94EC028091510248
:100A500090915202A0915302B0915402BC01CD0179
:100A60000E94E90386E091E00E94EC028091590225
:100A700090915A02A0915B02B0915C02BC01CD0141
:100A80000E94E90380911D02882F90E0880F991F32
:100A900089519F4F9C838B838B819C81FC01859125
:100AA00094919A838983FC83EB8389819A810E9444
:100AB000EC0284E091E00E94EC020F900F900F9006
:100AC0000F90CF91DF910895DF93CF93CDB7DEB72D
:100AD000F8940E94CD190E94B60E0E94D1010E9486
:100AE0007F050E94A705789460E070E080E293E4BF
:100AF0000E94F9050E94E1040E949A05FDCFDF9350
:100B0000CF93CDB7DEB7E4E2F0E080E18083E7E2A7
:100B1000F0E01082EAE2F0E08CE0808380E00E9466
:100B2000EA0B0E943C0C0E94A10D0E944A0ECF913C
:100B3000DF910895DF93CF93CDB7DEB70E94DA013E
:100B4000823011F00E94D60DCF91DF910895DF938E
:100B5000CF93CDB7DEB78DE192E060E070E046E282
:100B600050E00E94892180E090E0A0E4B0E480930E
:100B70002B0290932C02A0932D02B0932E0280E0C2
:100B800090E0A4EBB2E48093330290933402A093FC
:100B90003502B093360280E090E0A6E9B3E480939A
:100BA000370290933802A0933902B0933A0280E062
:100BB00090E0A0E2B2E480933B0290933C02A093C9
:100BC0003D02B0933E0280E090E0A6E9B3E480935A
:100BD0003F0290934002A0934102B093420285E00D
:100BE000809321020E94D0090E94C607CF91DF9115
:100BF0000895DF93CF9300D000D0CDB7DEB76983DF
:100C00007A838B839C8380911D028230A9F180912D
:100C10001D02833089F10E941B0A0E942E0A0E9445
:100C2000140860E070E08AE794E420E030E040E0FF
:100C300050E00E946E0C89819A81AB81BC818093C7
:100C4000270290932802A0932902B0932A021092BF
:100C500020021092220280E090E0A0E0B0E08093B9
:100C60002F0290933002A0933102B093320282E0BF
:100C700080931D020E944A0E0F900F900F900F90CC
:100C8000CF91DF910895DF93CF9300D0CDB7DEB73A
:100C900089836A830E949B0C0E94250A8981809324
:100CA0001D028A8180931E020E944A0E0F900F90AF
:100CB000CF91DF910895DF93CF9300D000D0CDB7CF
:100CC000DEB780911D02882309F459C180911D026D
:100CD000813009F454C10E94EC040E944C0ADC01EA
:100CE000CB018093230290932402A0932502B0931A
:100CF00026028091230290912402A0912502B091B6
:100D0000260220913F0230914002409141025091D1
:100D10004202BC01CD010E94501D18162CF481E046
:100D200063E00E9443062BC10E942E0A8091230299
:100D300090912402A0912502B0912602BC01CD0120
:100D400023E333E948E853EC0E94B01D8823ACF458
:100D5000809122028F5F80932202909122028091E3
:100D60002102891708F00BC181E064E00E9443066C
:100D700087E691E00E94EC0202C11092220280916B
:100D8000270290912802A0912902B0912A02209175
:100D90002302309124024091250250912602BC0189
:100DA000CD010E943F08DC01CB0189839A83AB838C
:100DB000BC8389819A81AB81BC81BC01CD010E9439
:100DC000160D80911D02823009F084C080912F029F
:100DD00090913002A0913102B0913202BC01CD015C
:100DE0002DEC3CEC4CEC5DE30E947D1BDC01CB0167
:100DF00080932F0290933002A0933102B09332027D
:100E00008091230290912402A0912502B0912602A4
:100E100020913B0230913C0240913D0250913E02B4
:100E2000BC01CD010E94B01D8823FCF480912F02EB
:100E300090913002A0913102B091320220913302A0
:100E4000309134024091350250913602BC01CD01FF
:100E50000E94501D18164CF481E061E00E94430688
:100E600088E491E00E94EC028AC080912302909174
:100E70002402A0912502B0912602209127023091F0
:100E800028024091290250912A02BC01CD010E9402
:100E9000B01D8823FCF480912F0290913002A09124
:100EA0003102B091320220913702309138024091E4
:100EB000390250913A02BC01CD010E94501D181612
:100EC0004CF481E062E00E94430689E291E00E94D6
:100ED000EC0255C08091510290915202A0915302B0
:100EE000B0915402BF7720912B0230912C02409197
:100EF0002D0250912E02BC01CD010E94E01D18165A
:100F000084F0809120028F5F8093200280912002E4
:100F10008B300CF18AE08093200283E080931D02E5
:100F20001AC080912002815080932002809120027B
:100F300018168CF01092200280E090E0A0E0B0E063
:100F400080932F0290933002A0933102B09332022B
:100F500082E080931D0280911D02833019F40E946B
:100F60003C0E0DC080911F028F5F80931F02809105
:100F70001F02843020F010921F020E94580E0F9022
:100F80000F900F900F90CF91DF910895DF93CF9343
:100F9000CDB7DEB783E492E060E070E04AE250E073
:100FA0000E94892180E090E0A0EAB0E48093610291
:100FB00090936202A0936302B09364028DEC9CEC68
:100FC000ACECBDE38093650290936602A093670248
:100FD000B093680280E090E0A0E0BFE380936902F4
:100FE00090936A02A0936B02B0936C0280E090E051
:100FF000A8ECB2E48093490290934A02A0934B027A
:10100000B0934C0280E090E0A0E0B0E080934D020D
:1010100090934E02A0934F02B093500281E08093D0
:101020004302CF91DF910895DF93CF93CDB7DEB721
:1010300080E090E0A0E0B0E080934502909346020B
:10104000A0934702B093480280E090E0A8E4B3E4A4
:101050008093590290935A02A0935B02B0935C0272
:1010600080E090E0A0E0B0E08093550290935602BB
:10107000A0935702B0935802CF91DF910895EF9259
:10108000FF920F931F93DF93CF93CDB7DEB72C97CB
:101090000FB6F894DEBF0FBECDBF69837A838B8312
:1010A0009C832D833E834F835887809143028823FE
:1010B00069F480914D0290914E02A0914F02B0913F
:1010C000500289879A87AB87BC8757C169817A812B
:1010D0008B819C812D813E814F8158850E944C1BC4
:1010E000DC01CB018093510290935202A0935302F2
:1010F000B09354028091510290915202A0915302F8
:10110000B0915402BF77BC01CD012DEC3CEC4CEC0E
:101110005DE30E94501D18160CF040C080914502FE
:1011200090914602A0914702B09148022091490255
:1011300030914A0240914B0250914C02BC01CD01CA
:101140000E94B01D882354F5E0905902F0905A0295
:1011500000915B0210915C028091510290915202C9
:10116000A0915302B0915402BC01CD012DEC3CEC96
:101170004CEC5DE30E94AA1BDC01CB019C01AD019C
:10118000C801B7010E947D1BDC01CB01809359028D
:1011900090935A02A0935B02B0935C02809151023B
:1011A00090915202A0915302B091540220915502A5
:1011B000309156024091570250915802BC01CD0126
:1011C0000E944C1BDC01CB01BC01CD012DEC3CECA1
:1011D0004CEC5DE30E94A41CDC01CB0180935D021A
:1011E00090935E02A0935F02B093600280916102CF
:1011F00090916202A0916302B09164022091510229
:10120000309152024091530250915402BC01CD01E1
:101210000E94AA1BDC01CB017C018D01809165023B
:1012200090916602A0916702B091680220915902E4
:1012300030915A0240915B0250915C02BC01CD0199
:101240000E94AA1BDC01CB019C01AD01C801B701C2
:101250000E947D1BDC01CB017C018D018091690224
:1012600090916A02A0916B02B0916C0220915D0294
:1012700030915E0240915F0250916002BC01CD014D
:101280000E94AA1BDC01CB019C01AD01C801B70182
:101290000E947D1BDC01CB018093450290934602A6
:1012A000A0934702B0934802809145029091460274
:1012B000A0914702B09148022091490230914A0220
:1012C00040914B0250914C02BC01CD010E94501D37
:1012D00018168CF48091490290914A02A0914B0219
:1012E000B0914C028093450290934602A09347022E
:1012F000B093480226C08091450290914602A09189
:101300004702B091480220914D0230914E02409127
:101310004F0250915002BC01CD010E94B01D8823A4
:1013200084F480914D0290914E02A0914F02B091B1
:1013300050028093450290934602A0934702B093D7
:1013400048028091510290915202A0915302B091B3
:1013500054028093550290935602A0935702B09383
:1013600058028091450290914602A0914702B091A7
:10137000480289879A87AB87BC8789859A85AB8520
:10138000BC85BC01CD012C960FB6F894DEBF0FBE14
:10139000CDBFCF91DF911F910F91FF90EF900895F6
:1013A000DF93CF93CDB7DEB78DE692E060E070E0DB
:1013B00040E750E00E94892183E393E9A8E8B3EC79
:1013C0008093710290937202A0937302B09374029F
:1013D0008DEC9CECACE8BFE38093790290937A02A9
:1013E000A0937B02B0937C0280E090E0A0EAB1E49D
:1013F00080937D0290937E02A0937F02B09380023F
:1014000080E090E0A8ECB3E48093810290938202A4
:10141000A0938302B093840280E090E0A0E0B0EC5F
:101420008093850290938602A0938702B0938802EE
:10143000CF91DF910895DF93CF93CDB7DEB781E0F1
:1014400080936D02CF91DF910895DF93CF93CDB755
:10145000DEB710926D02CF91DF910895DF93CF93A5
:10146000CDB7DEB710926F0281E080936E02CF910C
:10147000DF910895DF93CF93CDB7DEB780916D02F2
:10148000CF91DF910895DF93CF93CDB7DEB78091F1
:101490006E02CF91DF910895DF93CF9300D000D0FB
:1014A000CDB7DEB780916D02833069F4809171020F
:1014B00090917202A0917302B091740289839A8311
:1014C000AB83BC8308C080E090E0A9E8B3EC8983DB
:1014D0009A83AB83BC8389819A81AB81BC81BC0137
:1014E000CD010F900F900F900F90CF91DF91089545
:1014F000EF92FF920F931F93DF93CF9300D000D012
:101500000F92CDB7DEB780916D02882309F42BC10D
:1015100080916E02813009F026C180916F02082F00
:1015200010E080E00E94BF0B9B01AC01C801079650
:10153000880F991F880F991FFC01E359FD4F2083E5
:1015400031834283538380916F028F5F80936F0258
:1015500080916F02843108F406C189E892E09E010F
:101560002E5F3F4F64E1A9010E94F100DC01CB0135
:101570008093750290937602A0937702B0937802DD
:101580008091750290917602A0917702B0917802D5
:1015900020917D0230917E0240917F025091800225
:1015A000BC01CD010E94501D18163CF482E08093CE
:1015B0006D0282E080936E02D6C01092700280E0CD
:1015C00090E0A0E0B0E08093710290937202A0934B
:1015D0007302B0937402198268C08981882F90E0E9
:1015E0000796880F991F880F991FFC01E359FD4F3B
:1015F00080819181A281B3812A813B814C815D816F
:10160000BC01CD010E944C1BDC01CB017C018D0192
:10161000E89417F98091790290917A02A0917B0267
:10162000B0917C0220917502309176024091770250
:1016300050917802BC01CD010E94AA1BDC01CB01B4
:101640009C01AD01C801B7010E94B01D882354F56B
:10165000E0907102F0907202009173021091740296
:101660008981882F90E00796880F991F880F991F0E
:10167000FC01E359FD4F2081318142815381C80132
:10168000B7010E947D1BDC01CB0180937102909316
:101690007202A0937302B0937402809170028F5F04
:1016A0008093700289818F5F89838981843108F4F6
:1016B00094CFE0907102F090720200917302109149
:1016C000740280917002882F90E0AA2797FDA09560
:1016D000BA2FBC01CD010E94101E9B01AC01C801B4
:1016E000B7010E94A41CDC01CB018093710290938E
:1016F0007202A0937302B093740283E080936D0230
:1017000010926E028091710290917202A091730208
:10171000B0917402BC01CD0120E030E048EC53E40C
:101720000E94501D18163CF482E080936D0283E005
:1017300080936E0218C08091710290917202A09104
:101740007302B0917402BC01CD0120E030E040E0B2
:1017500050EC0E94B01D882334F482E080936D0227
:1017600084E080936E020F900F900F900F900F9077
:10177000CF91DF911F910F91FF90EF900895DF932C
:10178000CF930F92CDB7DEB789830E94180CCC019E
:10179000A0E0B0E0BC01CD010E94C21EDC01CB0183
:1017A000BC01CD0126E03FEA4AEF5EE30E94AA1B9E
:1017B000DC01CB01BC01CD0123ED31EB46ED5EE355
:1017C0000E944C1BDC01CB01BC01CD010F90CF91DD
:1017D000DF910895DF93CF930F92CDB7DEB7898362
:1017E000ECE7F0E0898180648083EAE7F0E086E856
:1017F0008083ACE7B0E0ECE7F0E08081807F8C9301
:10180000ACE7B0E0ECE7F0E080818C93EEE7F0E04D
:101810008981282F30E081E090E0022E02C0880FFD
:10182000991F0A94E2F780830F90CF91DF9108957A
:10183000DF93CF930F92CDB7DEB7AAE7B0E0EAE728
:10184000F0E0808180648C93EAE7F0E08081AAE791
:10185000B0E0EAE7F0E0808180618C93E8E7F0E0B7
:1018600080819181009749F3E8E7F0E080819181E0
:101870000F90CF91DF910895DF93CF93CDB7DEB76F
:10188000E0EBF0E080EF8083A0EBB0E0E0EBF0E095
:10189000808183608C93E1EBF0E088E08083A1EBB2
:1018A000B0E0E1EBF0E0808184608C93EFE6F0E063
:1018B0001082E3EBF0E01082E4EBF0E0108280E0D5
:1018C00090E0A0E0B0E08093E1029093E202A09368
:1018D000E302B093E402CF91DF910895DF93CF93B9
:1018E000CDB7DEB728970FB6F894DEBF0FBECDBFD9
:1018F00069837A838B839C832D833E834F835887B0
:101900000E943C0C89819A81AB81BC81BC01CD01D4
:101910000E94AC0C8D819E81AF81B885BC01CD0148
:101920000E94160D28960FB6F894DEBF0FBECDBFED
:10193000CF91DF910895DF93CF93CDB7DEB760E00D
:1019400070E080E090E020E030E040E050E00E9475
:101950006E0CCF91DF9108950F931F93DF93CF9378
:1019600000D000D0CDB7DEB769837A838B839C83A8
:1019700060E074E284E798E429813A814B815C81DC
:101980000E94A41CDC01CB018093E1029093E2024F
:10199000A093E302B093E4028091E1029091E2020D
:1019A000A091E302B091E402BC01CD0120E030E05F
:1019B00040EA51E40E94B01D88232CF4E3EBF0E0F0
:1019C00084E1808329C08091E1029091E202A0919C
:1019D000E302B091E402BC01CD0120E030E04FE72A
:1019E00053E40E94801D88232CF0E3EBF0E08FEF9E
:1019F000808312C003EB10E08091E1029091E2023B
:101A0000A091E302B091E402BC01CD010E94D4197F
:101A1000DC01CB01F801808380E00F900F900F90E4
:101A20000F90CF91DF911F910F910895CF92DF9288
:101A3000EF92FF920F931F93DF93CF9300D000D0CC
:101A4000CDB7DEB769837A838B839C8369817A8182
:101A50008B819C812AE037ED43E25CE30E94B01D5C
:101A600088232CF4E4EBF0E08FEF80834AC0698197
:101A70007A818B819C812DEC3CEC47EC52E40E94F6
:101A8000501D181624F4E4EBF0E010823AC00F2E3B
:101A9000F4EBCF2EDD24F02DE3EBF0E08081882FF6
:101AA00090E0AA2797FDA095BA2FBC01CD010E9416
:101AB000101E7B018C0169817A818B819C8120E0E1
:101AC00030E048EC52EC0E94A41CDC01CB01BC01CC
:101AD000CD0120E030E040E85FE30E947D1BDC01A7
:101AE000CB019C01AD01C801B7010E94AA1BDC011A
:101AF000CB01BC01CD010E94D419DC01CB01F60160
:101B0000808303EB10E08091E1029091E202A091CA
:101B1000E302B091E402BC01CD010E94D419DC01C2
:101B2000CB01F801808380E00F900F900F900F9011
:101B3000CF91DF911F910F91FF90EF90DF90CF90A9
:101B40000895DF93CF93CDB7DEB7E4E4F0E082E011
:101B50008083E5E4F0E083E08083E7E4F0E08DE774
:101B60008083EEE6F0E082E080838AE08093DE020C
:101B70008AE08093DF028AE08093E002CF91DF91D8
:101B800008951F920F920FB60F9211248F93DF9337
:101B9000CF93CDB7DEB781E08093DD02CF91DF91A7
:101BA0008F910F900FBE0F901F901895DF93CF93DA
:101BB0000F92CDB7DEB78091DD02882319F483E060
:101BC000898335C01092DD020E941C0E8091DE02D6
:101BD00081508093DE028091DE02882311F0198209
:101BE00026C08AE08093DE020E94250E8091DF02EB
:101BF00081508093DF028091DF02882311F01982E7
:101C000016C08AE08093DF020E942C0E8091E002D1
:101C100081508093E0028091E002882311F01982C4
:101C200006C08AE08093E0020E94350E1982898105
:101C30000F90CF91DF910895DF93CF93CDB7DEB7AB
:101C40000E94780ACF91DF910895DF93CF93CDB7AB
:101C5000DEB7CF91DF910895DF93CF93CDB7DEB795
:101C60000E945B06CF91DF910895DF93CF93CDB7AC
:101C7000DEB7CF91DF910895DF93CF93CDB7DEB775
:101C8000ABE2B0E0EBE2F0E080818B7F8C93CF9110
:101C9000DF910895DF93CF93CDB7DEB7ABE2B0E02D
:101CA000EBE2F0E0808184608C93CF91DF91089526
:101CB000DF93CF93CDB7DEB7EBE2F0E080818823EE
:101CC00019F00E943C0E02C00E944A0ECF91DF9193
:101CD0000895DF93CF93CDB7DEB7CF91DF9108950D
:101CE000DF93CF9300D000D0CDB7DEB789837B835D
:101CF0006A8389818051898389818A3018F088E1DB
:101D00008C830BC08981882F90E0FC01EB51FD4F43
:101D10008081EA81FB8180831C828C810F900F90EF
:101D20000F900F90CF91DF910895DF93CF9300D064
:101D30000F92CDB7DEB789836A8389818051898309
:101D400089818A3018F088E18B8309C08981882FC6
:101D500090E0FC01EB51FD4F8A8180831B828B81D7
:101D60000F900F900F90CF91DF910895DF93CF9355
:101D7000CDB7DEB70E946F110E949D1680E060E033
:101D800070E045E150E10E94560F81E060E070E0B4
:101D900041E150E10E94560FCF91DF910895CF921B
:101DA000DF92EF92FF920F931F93DF93CF93CDB704
:101DB000DEB72F970FB6F894DEBF0FBECDBF8B8373
:101DC0007D836C835F834E83398728871B870A87CF
:101DD000FD86EC86DF86CE868B81282F30E08DE273
:101DE00090E0AC01249FC001259F900D349F900D81
:101DF00011248B509C4F9A83898389819A8160E05A
:101E000070E04DE250E00E948921E981FA818B81E6
:101E10008083E981FA818C819D81928B818BE9811C
:101E2000FA818E819F81948B838BE981FA818885E9
:101E30009985968B858BE981FA818A859B85908F20
:101E4000878BE981FA818C859D85928F818FE981CD
:101E5000FA818E859F85948F838FE981FA818C85A5
:101E60009D8592878187E981FA818A859B85948700
:101E70008387E981FA8183E08483E981FA81168688
:101E80001586E981FA8189819A81968785872F96BF
:101E90000FB6F894DEBF0FBECDBFCF91DF911F917B
:101EA0000F91FF90EF90DF90CF900895DF93CF9345
:101EB00000D000D00F92CDB7DEB789837B836A83D1
:101EC0005D834C838981282F30E08DE290E0AC0166
:101ED000249FC001259F900D349F900D1124FC017B
:101EE000EA5FFB4F0190F081E02D2A813B814C811C
:101EF0005D818981B90109950F900F900F900F9026
:101F00000F90CF91DF910895DF93CF9300D000D051
:101F10000F92CDB7DEB789837B836A835D834C8361
:101F20008981282F30E08DE290E0AC01249FC00130
:101F3000259F900D349F900D1124FC01E65FFB4F0F
:101F40000190F081E02D8981282F30E08DE290E032
:101F5000AC01249FC001259F900D349F900D11244A
:101F60008B509C4F2A813B814C815D81B901099541
:101F70000F900F900F900F900F90CF91DF910895D9
:101F8000DF93CF930F92CDB7DEB789838981282F56
:101F900030E08DE290E0AC01249FC001259F900DC0
:101FA000349F900D1124FC01E45FFB4F0190F08100
:101FB000E02D8981282F30E08DE290E0AC01249F54
:101FC000C001259F900D349F900D112401968B50D8
:101FD0009C4F09950F90CF91DF910895DF93CF9398
:101FE00000D0CDB7DEB789836A838981282F30E09E
:101FF0008DE290E0AC01249FC001259F900D349F9D
:10200000900D1124FC01E25FFB4F0190F081E02D67
:102010008981282F30E08DE290E0AC01249FC0013F
:10202000259F900D349F900D112401969C012B50FB
:102030003C4F8A81B90109950F900F90CF91DF91A4
:102040000895DF93CF9300D00F92CDB7DEB7898389
:102050007B836A838981282F30E08DE290E0AC0198
:10206000249FC001259F900D349F900D11248B500B
:102070009C4F2A813B81B9010E9444100F900F9020
:102080000F90CF91DF910895DF93CF9300D000D0D0
:10209000CDB7DEB79A8389837C836B838B819C81E8
:1020A00081709070882321F0E981FA8181E0858F29
:1020B0008B819C8182709070009719F0E981FA8180
:1020C000158E8B819C8184709070009721F0E9813E
:1020D000FA8181E083A38B819C8188709070009746
:1020E00019F0E981FA8113A28B819C818071907033
:1020F000009721F0E981FA8181E0868F8B819C81B4
:1021000080729070009719F0E981FA81168E8B81A8
:102110009C8180749070009721F0E981FA8181E0C0
:10212000878F8B819C8180789070009719F0E9816E
:10213000FA81178E8B819C8180709170009721F0BD
:10214000E981FA8181E080A38B819C81807092700B
:10215000009719F0E981FA8110A28B819C8180702F
:102160009470009721F0E981FA8181E081A38B814D
:102170009C8180709870009719F0E981FA8111A212
:102180008B819C8180709071009721F0E981FA81A8
:1021900081E082A38B819C8180709072009719F0FE
:1021A000E981FA8112A280E090E00F900F900F90E9
:1021B0000F90CF91DF910895DF93CF9300D000D09F
:1021C000CDB7DEB78B836C838B81282F30E086E020
:1021D00091E0AC01249FC001259F900D349F900D8C
:1021E000112481519D4F9A8389838C81282F30E05F
:1021F00040E050E089819A81BA01A9010E94271329
:1022000080E090E00F900F900F900F90CF91DF91B2
:102210000895DF93CF9300D0CDB7DEB79A8389833B
:102220000F900F90CF91DF910895DF93CF930F928E
:10223000CDB7DEB789838981282F30E08DE290E029
:10224000AC01249FC001259F900D349F900D112457
:1022500001968B509C4F9093AE048093AD040F90E9
:10226000CF91DF910895DF93CF930F92CDB7DEB773
:1022700089838981282F30E08DE290E0AC01249F92
:10228000C001259F900D349F900D112401968B5015
:102290009C4F9093B0048093AF040F90CF91DF9147
:1022A0000895DF93CF930F92CDB7DEB789838981ED
:1022B000282F30E08DE290E0AC01249FC001259FE3
:1022C000900D349F900D112401968B509C4F90934C
:1022D000B2048093B1040F90CF91DF910895CF9213
:1022E000DF92EF92FF920F931F93DF93CF93CDB7BF
:1022F000DEB769970FB6F894DEBF0FBECDBF198E5B
:10230000C5C0898D882F90E0880F991F9C01220FEE
:10231000331F220F331F220F331F820F931F8B5740
:102320009E4F988F8F8B8F89988DFC01859194910A
:102330009E8B8D8BF88FEF8B8D899E89AC01898D5B
:10234000282F30E0C901880F991F880F991F880F27
:10235000991F820F931F0196880F991F8B579E4FCD
:102360009C8B8B8B8B899C89FC01859194919A8B9A
:10237000898BFC8BEB8B89899A89DC01898D882F6D
:1023800090E0880F991F9C01220F331F220F331FEB
:10239000220F331F820F931F04968B579E4F988BEB
:1023A0008F878F859889FC01859194919E878D8771
:1023B000F88BEF878D859E858C01898D882F90E025
:1023C000880F991F9C01220F331F220F331F220FEA
:1023D000331F820F931F06968B579E4F9C878B87C8
:1023E0008B859C85FC01859194919A878987FC87D0
:1023F000EB8789859A857C01898D882F90E0880FED
:10240000991F9C01220F331F220F331F220F331FEE
:10241000820F931F08968B579E4F98878F838F81CB
:102420009885FC01859194919E838D83F887EF8335
:102430008D819E816C01898D882F90E0880F991F76
:102440009C01220F331F220F331F220F331F820FD5
:10245000931F0A968B579E4F9C838B838B819C8105
:10246000FC01859194919A838983FC83EB83898114
:102470009A81FC01898DBA01AD019801870176012D
:102480006F010E94CF0E898D8F5F898F898D882380
:1024900009F437CF69960FB6F894DEBF0FBECDBFF3
:1024A000CF91DF911F910F91FF90EF90DF90CF9030
:1024B0000895DF93CF93CDB7DEB76A970FB6F89440
:1024C000DEBF0FBECDBF8E8B788F6F8B5A8F498F3B
:1024D0008E89282F30E08DE290E0AC01249FC0016E
:1024E000259F900D349F900D11248B509C4F9D8BF8
:1024F0008C8B8E898B8B8B89282F30E086E091E046
:10250000AC01249FC001259F900D349F900D112494
:1025100081519D4FEC89FD89908B8787EC89FD89DE
:10252000878590899A8B898B89899A8960E070E088
:1025300046E051E00E9489218C899D89298D3A8D40
:10254000B9010E944410E989FA8981E08383E9890D
:10255000FA8981E08283E989FA8981E08583E989C2
:10256000FA8981E08483A0ECB0E08B89882F90E029
:10257000880F991F9C01220F331F220F331F220F38
:10258000331F820F931F40968B579E4F9C878B87DC
:10259000EB85FC8584918A878A858C93A1ECB0E0D9
:1025A0008B89882F90E0880F991F9C01220F331F81
:1025B000220F331F220F331F820F931F41968B5719
:1025C0009E4F99878887E885F98584918F838F81CD
:1025D0008C938B89882F90E0880F991F9C01220F84
:1025E000331F220F331F220F331F820F931F0C96AE
:1025F0008B579E4F9E838D838D819E81FC0185919B
:102600009591A591B49189839A83AB83BC83FE8312
:10261000ED8389819A81AB81BC818D879E87AF874D
:10262000B88B89899A892D853E854F855889BA014D
:10263000A9010E9427138C899D8901966A960FB67D
:10264000F894DEBF0FBECDBFCF91DF910895DF9329
:10265000CF93CDB7DEB728970FB6F894DEBF0FBE85
:10266000CDBF9C838B834D835E836F8378878D8101
:102670009E81AF81B885880F991FAA1FBB1F880F45
:10268000991FAA1FBB1F880F991FAA1FBB1F9C0160
:10269000AD0180E094E2A4EFB0E0BC01CD010E9466
:1026A0003021DA01C90101979A838983E5ECF0E0D2
:1026B00089819A81892F99278083E4ECF0E08981D0
:1026C0008083A0ECB0E0E0ECF0E080818D7F8C9323
:1026D00028960FB6F894DEBF0FBECDBFCF91DF9125
:1026E0000895DF93CF93CDB7DEB72C970FB6F8944C
:1026F000DEBF0FBECDBF9C838B837E836D835887E7
:102700004F83EB81FC81878590899A838983EB8154
:10271000FC8180A58823B1F4EB81FC8181E080A756
:10272000EB81FC8116A2EB81FC818D819E8194A7B7
:1027300083A7EB81FC818F81988595A384A3EB818E
:10274000FC8117A28B819C8129813A81B9010E9469
:10275000D2139C878B878B859C858C30910559F093
:102760008B859C858E30910559F08B859C858730B3
:10277000910559F0E7CF82E090E09A87898707C0FA
:102780008EE090E09A87898702C01A86198689852B
:102790009A852C960FB6F894DEBF0FBECDBFCF91B1
:1027A000DF910895DF93CF93CDB7DEB727970FB6AC
:1027B000F894DEBF0FBECDBF9B838A837D836C837D
:1027C0001982EC81FD819381EC81FD8182819817D2
:1027D00029F48CE090E09F838E838AC0EC81FD8198
:1027E00082818150EC81FD818283EC81FD81828137
:1027F000882321F4EC81FD818FE78283EC81FD81C8
:102800008281282F30E08C819D81820F931FFC01F3
:10281000369680818983EA81FB81868D882361F0E9
:10282000EA81FB81018CF28DE02D2091AF04309183
:10283000B0048981B9010995EA81FB8186A1282F1D
:1028400030E0EA81FB8184A195A128173907ACF01B
:10285000EA81FB8123A534A5EA81FB8184A195A1AE
:10286000F901E80FF91F1082EA81FB8182E087A35A
:102870008EE090E09F838E833BC089818D3019F07C
:1028800089818A30F1F4EA81FB8123A534A5EA81AC
:10289000FB8146A1842F90E0F901E80FF91F108217
:1028A000842F8F5FEA81FB8186A3EA81FB8182E02E
:1028B00087A3EA81FB8110A687E090E09F838E8347
:1028C00017C0EA81FB8123A534A5EA81FB8146A1DB
:1028D000842F90E0F901E80FF91F89818083842F0C
:1028E0008F5FEA81FB8186A382E090E09F838E83E5
:1028F0008E819F8127960FB6F894DEBF0FBECDBFA5
:10290000CF91DF910895DF93CF93CDB7DEB72997AD
:102910000FB6F894DEBF0FBECDBF9F838E83EE81CE
:10292000FF81848595859D838C83EC81FD818785DE
:1029300090899B838A831EC0EC81FD81858D8823CD
:1029400081F0A3E5B0E0E3E5F0E0808181608C9365
:102950008895A3E5B0E0E3E5F0E080818E7F8C937D
:1029600009C0EC81FD8181E087A32FEF3FEF39871C
:10297000288755C0EA81FB819381EA81FB818281AE
:102980009817D1F2EA81FB8182818150EA81FB8133
:102990008283EA81FB818281882321F4EA81FB81A1
:1029A0008FE78283EA81FB818281282F30E08A8150
:1029B0009B81820F931FFC01369680818F778983DC
:1029C000EC81FD81868D882361F0EC81FD81018C95
:1029D000F28DE02D2091AF043091B0048981B901CE
:1029E000099589818E3030F08981282F30E0398730
:1029F000288715C089818D3019F089818A3051F47A
:102A0000EC81FD8182A1882329F08AE090E09987FA
:102A1000888705C08981282F30E0398728878885F5
:102A2000998529960FB6F894DEBF0FBECDBFCF9122
:102A3000DF9108951F920F920FB60F9211248F937A
:102A40009F93EF93FF93DF93CF930F92CDB7DEB7B2
:102A5000E6ECF0E0808189838091F20281508093DE
:102A6000F2028091F202882319F48FE78093F20238
:102A70009091F2028091F102981751F08091F20248
:102A8000882F90E0FC01EB50FD4F898180830CC0C2
:102A90008091F2028F5F8093F2028091F20288238C
:102AA0001CF481E08093F2020F90CF91DF91FF91AF
:102AB000EF919F918F910F900FBE0F901F901895DF
:102AC000DF93CF9300D000D0CDB7DEB78A837C836D
:102AD0006B838091F402815089838981882311F46A
:102AE0008FE78983A1ECB0E0E1ECF0E080818062C7
:102AF0008C939091F30289819817D9F389818093FF
:102B0000F4028091F402882F90E0FC01EB58FC4F16
:102B10008A81808380E090E00F900F900F900F905B
:102B2000CF91DF9108951F920F920FB60F9211244B
:102B30008F939F93AF93BF93EF93FF93DF93CF93C5
:102B4000CDB7DEB79091F4028091F3029817C1F0EF
:102B50008091F30281508093F3028091F3028823E5
:102B600019F48FE78093F302A6ECB0E08091F302B2
:102B7000882F90E0FC01EB58FC4F80818C9307C0BC
:102B8000A1ECB0E0E1ECF0E080818F7D8C93CF91FF
:102B9000DF91FF91EF91BF91AF919F918F910F9036
:102BA0000FBE0F901F901895DF93CF9300D0CDB735
:102BB000DEB79A83898329813A8180E0B9010E9436
:102BC000E6150F900F90CF91DF910895DF93CF938B
:102BD00000D000D0CDB7DEB78A837C836B831982A7
:102BE00010C08981282F30E08B819C81FC01E20F8D
:102BF000F31F908189818F5F89838A81692F0E9469
:102C000013168981282F30E08B819C81FC01E20F13
:102C1000F31F8081882329F70F900F900F900F905A
:102C2000CF91DF910895DF93CF9300D000D000D0F3
:102C3000CDB7DEB78D836E838D81282F30E08DE296
:102C400090E0AC01249FC001259F900D349F900D12
:102C500011248B509C4F9C838B83EB81FC81878557
:102C600090899A838983E981FA8183818150E981FE
:102C7000FA818383E981FA818381882321F4E981C0
:102C8000FA818FE78383E981FA819381E981FA816F
:102C90008281981771F0E981FA818381282F30E0D1
:102CA00089819A81820F931FFC0136968E818083E1
:102CB00010C0E981FA8183818F5FE981FA81838382
:102CC000E981FA818381882324F4E981FA8181E012
:102CD000838326960FB6F894DEBF0FBECDBFCF918B
:102CE000DF910895DF93CF93CDB7DEB710929204B2
:102CF0001092930410929404CF91DF910895DF9382
:102D0000CF93CDB7DEB781E080939204CF91DF916E
:102D10000895DF93CF93CDB7DEB781E0809393041E
:102D2000CF91DF910895DF93CF93CDB7DEB781E0E8
:102D300080939404CF91DF910895CF92DF92EF9228
:102D4000FF920F931F93DF93CF93CDB7DEB76997B1
:102D50000FB6F894DEBF0FBECDBF198EBBC0898DF4
:102D6000482F4F5F898D282F30E0C901880F991FA8
:102D7000820F931F880F991F880F991F89569E4FA6
:102D8000988F8F8B8F89988DFC01859194919E8B64
:102D90008D8BF88FEF8B8D899E89BC01898D282FB3
:102DA00030E0C901880F991F820F931F880F991F68
:102DB0000196880F991F89569E4F9C8B8B8B8B8910
:102DC0009C89FC01859194919A8B898BFC8BEB8B70
:102DD00089899A89DC01898D282F30E0C901880F03
:102DE000991F820F931F0196880F991F880F991FB3
:102DF00089569E4F988B8F878F859889FC01859186
:102E000094919E878D87F88BEF878D859E858C01A9
:102E1000898D282F30E0C901880F991F820F931FD9
:102E2000880F991F880F991F069689569E4F9C8779
:102E30008B878B859C85FC01859194919A878987E6
:102E4000FC87EB8789859A857C01898D282F30E066
:102E5000C901880F991F820F931F880F991F880F30
:102E6000991F089689569E4F98878F838F819885E2
:102E7000FC01859194919E838D83F887EF838D81EA
:102E80009E816C01898D282F30E0C901880F991F20
:102E9000820F931F880F991F880F991F0A968956D2
:102EA0009E4F9C838B838B819C81FC0185919491A7
:102EB0009A838983FC83EB8389819A81FC01842F27
:102EC000AD019801870176016F010E94CF0E898DB7
:102ED0008F5F898F898D882309F441CF69960FB65A
:102EE000F894DEBF0FBECDBFCF91DF911F910F9140
:102EF000FF90EF90DF90CF900895DF93CF93CDB701
:102F0000DEB72A970FB6F894DEBF0FBECDBF8E8313
:102F100078876F835A8749878E81282F30E08DE22A
:102F200090E0AC01249FC001259F900D349F900D2F
:102F300011248B509C4F9D838C838E8181508B8379
:102F40008B81282F30E083E490E0AC01249FC00106
:102F5000259F900D349F900D1124815B9B4FEC8138
:102F6000FD81908B8787EC81FD81878590899A838D
:102F7000898389819A8160E070E043E450E00E9497
:102F800089218C819D8129853A85B9010E9444104F
:102F9000E981FA8181E08283E981FA8181E081839C
:102FA0008C819D8101962A960FB6F894DEBF0FBEE4
:102FB000CDBFCF91DF910895DF93CF93CDB7DEB72B
:102FC0002C970FB6F894DEBF0FBECDBF9C838B83CA
:102FD0007E836D8358874F83EB81FC818785908941
:102FE0009A838983EB81FC8180A58823B1F4EB81EE
:102FF000FC8181E080A7EB81FC8116A2EB81FC8142
:103000008D819E8194A783A7EB81FC818F81988518
:1030100095A384A3EB81FC8117A28B819C812981DC
:103020003A81B9010E943D189C878B878B859C85CE
:103030008C30910559F08B859C858E30910559F027
:103040008B859C858730910559F0E7CF82E090E031
:103050009A87898707C08EE090E09A87898702C0A7
:103060001A86198689859A852C960FB6F894DEBF44
:103070000FBECDBFCF91DF910895DF93CF93CDB732
:10308000DEB727970FB6F894DEBF0FBECDBF9B8388
:103090008A837D836C83EA81FB8186A1282F30E0BF
:1030A000EA81FB8184A195A128173907ACF0EA8158
:1030B000FB8123A534A5EA81FB8184A195A1F901B7
:1030C000E80FF91F1082EA81FB8182E087A38EE07E
:1030D00090E09F838E8346C08A819B8101960E94E7
:1030E000BD18898389818A30F1F4EA81FB8123A5A7
:1030F00034A5EA81FB8146A1842F90E0F901E80F15
:10310000F91F1082842F8F5FEA81FB8186A3EA81F9
:10311000FB8182E087A3EA81FB8110A687E090E033
:103120009F838E831FC08981833029F48CE090E0D7
:103130009F838E8317C0EA81FB8123A534A5EA8192
:10314000FB8146A1842F90E0F901E80FF91F8981E6
:103150008083842F8F5FEA81FB8186A382E090E0E9
:103160009F838E838E819F8127960FB6F894DEBF52
:103170000FBECDBFCF91DF910895DF93CF93CDB731
:10318000DEB72B970FB6F894DEBF0FBECDBF998781
:103190008887E885F985848595859F838E83EE8170
:1031A000FF81878590899D838C83EC81FD8192814D
:1031B000EC81FD8181819817C1F48C819D8162E051
:1031C0000E94BB1989838981833031F08981282F3E
:1031D00030E03B872A8751C0EE81FF8182E087A3E0
:1031E0008FEF9FEF9B878A8748C0EC81FD818181AB
:1031F0008150EC81FD818183EC81FD818181882377
:1032000021F4EC81FD818FE38183EC81FD8181815B
:10321000282F30E08C819D81820F931FFC01339613
:1032200080818B838C819D8162E00E94BB198A839F
:103230008A818330E9F0EC81FD8182818150EC81CB
:10324000FD818283EC81FD818281882321F4EC81E0
:10325000FD818FE38283EC81FD818281282F30E024
:103260008C819D81820F931FFC0133968A8180831C
:103270008B81282F30E03B872A878A859B852B9678
:103280000FB6F894DEBF0FBECDBFCF91DF9108958A
:10329000DF93CF93CDB7DEB728970FB6F894DEBF94
:1032A0000FBECDBF8C837E836D83ED81FE818485CF
:1032B0009585FC01878590899B838A838A819B8180
:1032C0006C810E94BB1989838981833051F4ED811F
:1032D000FE8184859585FC0183E087A318861F8283
:1032E0003FC0EA81FB8182818150EA81FB81828338
:1032F000EA81FB818281882321F4EA81FB818FE3CB
:103300008283EA81FB819281EA81FB818181981726
:1033100071F0EA81FB818281282F30E08A819B81D4
:10332000820F931FFC0133968981808317C0EA8145
:10333000FB8182818F5FEA81FB818283EA81FB814D
:103340008281803420F0EA81FB8181E08283ED81FB
:10335000FE8184859585FC0184E087A318861F8201
:103360008F81988528960FB6F894DEBF0FBECDBF2B
:10337000CF91DF910895DF93CF9300D000D0CDB7E8
:10338000DEB79B838A836C83198289810F900F90AB
:103390000F900F90CF91DF910895DF93CF93CDB72A
:1033A000DEB7CF91DF910895EF92FF920F931F93B5
:1033B0007B018C0120E030E040E05FE40E94801D52
:1033C00088238CF0C801B70120E030E040E05FE4E2
:1033D0000E944C1B0E946E1E9B01AC01205030408D
:1033E0004040504806C0C801B7010E946E1E9B01B4
:1033F000AC01B901CA011F910F91FF90EF900895A0
:10340000A0E0B0E0E6E0FAE10C945221DC012B01EF
:10341000FA019C91923008F439C1EB018881823025
:1034200008F433C1943069F4843009F02FC1119647
:103430009C9111978981981709F428C1A0E0B1E007
:1034400025C1843009F421C18230A9F4923009F0F9
:103450001DC19A01AD0188E0EA010990AE01E901C0
:1034600009929E018150C1F7E201898111969C91D8
:103470008923818308C1923009F407C112962D90E7
:103480003C901397EB018A819B811496AD90BD907F
:10349000CD90DC901797EC80FD800E811F8191010B
:1034A000281B390BB90137FF04C066277727621B39
:1034B000730B603271050CF061C0121613066CF5C7
:1034C00037014801062E04C0969487947794679438
:1034D0000A94D2F721E030E040E050E004C0220F2F
:1034E000331F441F551F6A95D2F72150304040408A
:1034F00050402E213F214023512321153105410504
:10350000510521F021E030E040E050E079018A01EE
:10351000E628F728082919293CC0232BD1F1260ECB
:10352000371E35014601062E04C096948794779481
:1035300067940A94D2F721E030E040E050E004C004
:10354000220F331F441F551F6A95D2F72150304078
:10355000404050402A213B214C215D21211531055D
:103560004105510521F021E030E040E050E05901F3
:103570006A01A628B728C828D9280BC08215930548
:103580002CF01C01AA24BB24650103C0EE24FF24F7
:10359000870111969C91D20111968C91981709F48C
:1035A00045C0992339F0A80197012A193B094C0914
:1035B0005D0906C0A60195012E193F09400B510B6C
:1035C00057FD08C0118233822282248335834683CB
:1035D00057831DC081E08183338222828827992707
:1035E000DC01821B930BA40BB50B84839583A6830C
:1035F000B7830DC0220F331F441F551F248335830B
:1036000046835783828193810197938382832481A8
:10361000358146815781DA01C9010197A109B109B4
:103620008F5F9F4FAF4FBF4328F30BC0918333820F
:103630002282EA0CFB1C0C1D1D1DE482F582068310
:10364000178383E08083248135814681578157FF2A
:103650001AC0C901AA2797FDA095BA2F8170907052
:10366000A070B0705695479537952795822B932B70
:10367000A42BB52B84839583A683B7838281938102
:10368000019693838283DF0101C0D201CD01CDB7C2
:10369000DEB7E2E10C946E21A0E2B0E0E2E5FBE1EE
:1036A0000C945E2169837A838B839C832D833E8374
:1036B0004F835887E9E0EE2EF12CEC0EFD1ECE0173
:1036C0000196B7010E945F208E010F5E1F4FCE0151
:1036D0000596B8010E945F208A8991E089278A8B2C
:1036E000C701B801AE01475E5F4F0E94001A0E94F9
:1036F0008A1FA096E6E00C947A21A0E2B0E0E3E80D
:10370000FBE10C945E2169837A838B839C832D83F8
:103710003E834F835887F9E0EF2EF12CEC0EFD1E0F
:10372000CE010196B7010E945F208E010F5E1F4FF0
:10373000CE010596B8010E945F20C701B801AE0115
:10374000475E5F4F0E94001A0E948A1FA096E6E023
:103750000C947A21A0E2B0E0E0EBFBE10C94522162
:1037600069837A838B839C832D833E834F83588721
:10377000CE010196BE01675F7F4F0E945F20CE01A0
:103780000596BE016F5E7F4F0E945F209985923043
:1037900088F089898230C8F0943019F4823051F46D
:1037A00004C0843029F4923081F480E091E0C6C0F6
:1037B000923049F420E09A858A89981321E02A877B
:1037C000CE010996BBC0823049F420E09A858A89EF
:1037D000981321E02A8BCE014196B0C02D843E84FF
:1037E0004F8458886D887E888F88988CEE24FF24BB
:1037F0008701AA24BB24650140E050E060E070E04E
:10380000E0E0F0E0C10181709070892BE9F0E60CF6
:10381000F71C081D191D9A01AB012A0D3B1D4C1DFB
:103820005D1D80E090E0A0E0B0E0E614F70408053C
:10383000190520F481E090E0A0E0B0E0BA01A90110
:10384000480F591F6A1F7B1FAA0CBB1CCC1CDD1C18
:1038500097FE08C081E090E0A0E0B0E0A82AB92A75
:10386000CA2ADB2A3196E032F10549F0660C771C52
:10387000881C991C5694479437942794C3CFFA8593
:10388000EA892B893C898B859C85280F391F2E5FFF
:103890003F4F17C0CA0181709070892B61F0169557
:1038A0000795F794E79480E090E0A0E0B0E8E82A7C
:1038B000F92A0A2B1B2B76956795579547952F5F0D
:1038C0003F4F77FDE7CF0CC0440F551F661F771F92
:1038D00017FD4160EE0CFF1C001F111F21503040EE
:1038E000403090E0590790E0690790E4790760F371
:1038F0002B8F3C8FDB01CA018F779070A070B07066
:1039000080349105A105B10561F447FD0AC0E114B9
:10391000F1040105110529F0405C5F4F6F4F7F4FA7
:1039200040781A8EFE1711F081E08A8F4D8F5E8FDE
:103930006F8F78A383E0898FCE0149960E948A1FFA
:10394000A096E2E10C946E21A8E1B0E0EAEAFCE185
:103950000C945A2169837A838B839C832D833E83C5
:103960004F835887B9E0EB2EF12CEC0EFD1ECE01F3
:103970000196B7010E945F208E010F5E1F4FCE019E
:103980000596B8010E945F202985223008F47EC088
:103990003989323010F4B8017CC08A859A89892728
:1039A0008A87243011F0223031F4231709F06EC0D9
:1039B00060E071E06EC0343039F41D861E861F86CB
:1039C000188A1C861B8604C0323021F484E0898763
:1039D000B7015FC02B853C858B899C89281B390BDF
:1039E0003C872B87ED84FE840F851889AD88BE88BF
:1039F000CF88D88CEA14FB040C051D0540F4EE0CAE
:103A0000FF1C001F111F215030403C872B8720E0F6
:103A100030E040E050E080E090E0A0E0B0E460E022
:103A200070E0EA14FB040C051D0540F0282B392B2F
:103A30004A2B5B2BEA18FB080C091D09B695A795C4
:103A400097958795EE0CFF1C001F111F6F5F7F4F2E
:103A50006F31710531F7DA01C9018F779070A0706D
:103A6000B07080349105A105B10561F427FD0AC04D
:103A7000E114F1040105110529F0205C3F4F4F4F7F
:103A80005F4F20782D873E874F87588BBE01675F39
:103A90007F4FCB010E948A1F6896EAE00C94762142
:103AA000A8E1B0E0E6E5FDE10C945E2169837A834C
:103AB0008B839C832D833E834F83588789E0E82E38
:103AC000F12CEC0EFD1ECE010196B7010E945F2085
:103AD0008E010F5E1F4FCE010596B8010E945F2038
:103AE0008985823040F08989823028F0C701B80189
:103AF0000E94D72001C08FEF6896E6E00C947A21EF
:103B0000A8E1B0E0E6E8FDE10C945E2169837A83E8
:103B10008B839C832D833E834F83588789E0E82ED7
:103B2000F12CEC0EFD1ECE010196B7010E945F2024
:103B30008E010F5E1F4FCE010596B8010E945F20D7
:103B40008985823040F08989823028F0C701B80128
:103B50000E94D72001C08FEF6896E6E00C947A218E
:103B6000A8E1B0E0E6EBFDE10C945E2169837A8385
:103B70008B839C832D833E834F83588789E0E82E77
:103B8000F12CEC0EFD1ECE010196B7010E945F20C4
:103B90008E010F5E1F4FCE010596B8010E945F2077
:103BA0008985823040F08989823028F0C701B801C8
:103BB0000E94D72001C081E06896E6E00C947A214B
:103BC000A8E1B0E0E6EEFDE10C945E2169837A8322
:103BD0008B839C832D833E834F83588789E0E82E17
:103BE000F12CEC0EFD1ECE010196B7010E945F2064
:103BF0008E010F5E1F4FCE010596B8010E945F2017
:103C00008985823040F08989823028F0C701B80167
:103C10000E94D72001C081E06896E6E00C947A21EA
:103C2000A8E0B0E0E6E1FEE10C945B219B01AC0171
:103C300083E08983DA01C9018827B7FD8395992735
:103C4000AA27BB27B82E211531054105510519F4C6
:103C500082E089833AC08823A9F0203080E03807C9
:103C600080E0480780E8580729F460E070E080E0D1
:103C70009FEC30C0EE24FF248701E21AF30A040B04
:103C8000150B02C079018A018EE1C82ED12CDC828D
:103C9000CB82ED82FE820F831887C801B7010E9494
:103CA0003B1F01971816190684F4082E04C0EE0C69
:103CB000FF1C001F111F0A94D2F7ED82FE820F83B2
:103CC0001887C81AD90ADC82CB82BA82CE01019643
:103CD0000E948A1F2896E9E00C947721ACE0B0E0BE
:103CE000E4E7FEE10C94622169837A838B839C83F1
:103CF000CE010196BE016B5F7F4F0E945F208D81D8
:103D0000823061F1823050F1843021F48E81882339
:103D100051F12EC02F81388537FD20C06E812F31A3
:103D200031051CF06623F9F023C08EE190E0821B80
:103D3000930B29853A854B855C8504C0569547953C
:103D4000379527958A95D2F76623B1F0509540951F
:103D5000309521953F4F4F4F5F4F0EC020E030E030
:103D600040E050E009C02FEF3FEF4FEF5FE704C0A6
:103D700020E030E040E050E8B901CA012C96E2E0D2
:103D80000C947E21A8E0B0E0E8ECFEE10C945A210E
:103D90007B018C01611571058105910519F482E0A3
:103DA000898360C083E089838EE1C82ED12CDC82B8
:103DB000CB82ED82FE820F831887C801B7010E9473
:103DC0003B1FFC013197F7FF3BC0222733272E1BF7
:103DD0003F0B57016801022E04C0D694C794B794D4
:103DE000A7940A94D2F740E050E060E070E081E0F0
:103DF00090E0A0E0B0E004C0880F991FAA1FBB1F8D
:103E00002A95D2F70197A109B1098E219F21A023FC
:103E1000B1230097A105B10521F041E050E060E039
:103E200070E04A295B296C297D294D835E836F836D
:103E300078878EE190E08E1B9F0B9C838B8312C052
:103E4000309781F00E2E04C0EE0CFF1C001F111FD6
:103E50000A94D2F7ED82FE820F831887CE1ADF0A0A
:103E6000DC82CB821A82CE0101960E948A1F28969C
:103E7000EAE00C947621EF92FF920F931F937B015F
:103E80008C0180E0E81680E0F80681E0080780E019
:103E9000180788F48FEFE816F1040105110531F0D9
:103EA00028F088E090E0A0E0B0E017C080E090E06B
:103EB000A0E0B0E012C080E0E81680E0F80680E004
:103EC000080781E0180728F088E190E0A0E0B0E062
:103ED00004C080E190E0A0E0B0E020E230E040E00B
:103EE00050E0281B390B4A0B5B0B04C01695079555
:103EF000F794E7948A95D2F7F701E85FFE4F808147
:103F0000281B310941095109C9011F910F91FF90E7
:103F1000EF900895DF92EF92FF920F931F93FC01B1
:103F2000E480F58006811781D1808081823048F459
:103F300080E090E0A0E1B0E0E82AF92A0A2B1B2BF0
:103F4000A5C0843009F49FC0823021F4EE24FF2400
:103F5000870105C0E114F1040105110519F4E0E041
:103F6000F0E096C0628173819FEF623879070CF0B0
:103F70005BC022E83FEF261B370B2A3131052CF0BE
:103F800020E030E040E050E02AC0B801A701022E56
:103F900004C076956795579547950A94D2F781E0C6
:103FA00090E0A0E0B0E004C0880F991FAA1FBB1FDB
:103FB0002A95D2F70197A109B1098E219F21A0234B
:103FC000B1230097A105B10521F081E090E0A0E0C8
:103FD000B0E09A01AB01282B392B4A2B5B2BDA017D
:103FE000C9018F779070A070B07080349105A105E1
:103FF000B10539F427FF09C0205C3F4F4F4F5F4F99
:1040000004C0215C3F4F4F4F5F4FE0E0F0E02030B5
:10401000A0E03A07A0E04A07A0E45A0710F0E1E068
:10402000F0E079018A0127C06038710564F5FB0171
:10403000E158FF4FD801C7018F779070A070B07022
:1040400080349105A105B10539F4E7FE0DC080E487
:1040500090E0A0E0B0E004C08FE390E0A0E0B0E02A
:10406000E80EF91E0A1F1B1F17FF05C016950795BE
:10407000F794E794319687E016950795F794E794BF
:104080008A95D1F705C0EE24FF248701EFEFF0E019
:104090006E2F679566276795902F9F77D794DD24BD
:1040A000D7948E2F8695492F462B582F5D29B7011F
:1040B000CA011F910F91FF90EF90DF900895FC01CE
:1040C000DB01408151812281622F6F7770E0221FD6
:1040D0002227221F9381892F880F822B282F30E0DF
:1040E000991F9927991F11969C93119721153105B6
:1040F000A9F5411551056105710511F482E037C03C
:1041000082E89FEF13969C938E9312979A01AB01CE
:1041100067E0220F331F441F551F6A95D1F783E0D4
:104120008C930DC0220F331F441F551F12968D9183
:104130009C911397019713969C938E93129720301E
:1041400080E0380780E0480780E4580758F3149669
:104150002D933D934D935C93179708952F3F310511
:1041600079F4411551056105710519F484E08C93CA
:10417000089564FF03C081E08C9312C01C9210C0AC
:104180002F57304013963C932E93129783E08C93D5
:1041900087E0440F551F661F771F8A95D1F770641B
:1041A00014964D935D936D937C93179708951F9389
:1041B000DC01FB019C91923008F447C08081823081
:1041C00008F443C0943051F411961C91843099F551
:1041D0008181682F70E0611B71093FC0843021F03C
:1041E000923031F48230B9F18181882389F12DC078
:1041F00011961C9111978230F1F081811817D9F432
:1042000012962D913C911397828193818217930787
:1042100094F028173907BCF014968D919D910D905C
:10422000BC91A02D248135814681578128173907FB
:104230004A075B0718F4112341F00AC0821793075D
:10424000A407B50740F4112319F061E070E005C040
:104250006FEF7FEF02C060E070E0CB011F91089527
:10426000A1E21A2EAA1BBB1BFD010DC0AA1FBB1F7A
:10427000EE1FFF1FA217B307E407F50720F0A21BEC
:10428000B30BE40BF50B661F771F881F991F1A9459
:1042900069F760957095809590959B01AC01BD0183
:1042A000CF0108952F923F924F925F926F927F922B
:1042B0008F929F92AF92BF92CF92DF92EF92FF9236
:1042C0000F931F93CF93DF93CDB7DEB7CA1BDB0BE2
:1042D0000FB6F894DEBF0FBECDBF09942A88398887
:1042E00048885F846E847D848C849B84AA84B9848E
:1042F000C884DF80EE80FD800C811B81AA81B9819A
:10430000CE0FD11D0FB6F894DEBF0FBECDBFED01AD
:104310000895DC0101C06D9341505040E0F70895CD
:1043200011F40EF450C041C060D0D0F39923D9F3FA
:10433000CEF39F57550B87FF49D00024A0E640EAF3
:10434000900180585695979528F4805C660F771FEA
:10435000881F20F026173707480730F4621B730BBD
:10436000840B202931294A2BA695179407942025E0
:1043700031254A2758F7660F771F881F20F0261728
:104380003707480730F4620B730B840B200D311D87
:10439000411DA09581F7B901842F9158880F9695FA
:1043A000879508959B01AC01D5C99F3F31F091508D
:1043B00020F4879577956795B795880F911D969509
:1043C000879597F908959FEF80EC0895915050409C
:1043D000660F771F881FD2F7089557FD9058440F36
:1043E000551F59F05F3F71F04795880F97FB991F54
:1043F00061F09F3F79F08795089512161306140611
:10440000551FF2CF4695F1DF08C01616170618069D
:10441000991FF1CF86957105610508940895F89468
:02442000FFCFCC
:104422000000000000000000000102020303030379
:104432000404040404040404050505050505050532
:104442000505050505050505060606060606060612
:1044520006060606060606060606060606060606FA
:1044620006060606060606060707070707070707E2
:1044720007070707070707070707070707070707CA
:1044820007070707070707070707070707070707BA
:1044920007070707070707070707070707070707AA
:1044A2000707070707070707080808080808080892
:1044B200080808080808080808080808080808087A
:1044C200080808080808080808080808080808086A
:1044D200080808080808080808080808080808085A
:1044E200080808080808080808080808080808084A
:1044F200080808080808080808080808080808083A
:104502000808080808080808080808080808080829
:104512000808080808080808080808080808080819
:08452200080808080808080851
:00000001FF
