:100000000C94A5000C94C2000C94C2000C94C20085
:100010000C94C2000C94C2000C94C2000C94C20058
:100020000C94C2000C94C2000C94C2000C94C20048
:100030000C94C2000C94C2000C943D070C94C200B6
:100040000C94C2000C94840C0C943A0E0C94720E16
:100050000C94C2000C94C2000C94C2000C94C20018
:100060000C94C2000C94C2000A4465766963652052
:10007000496E697469616C697A65640A0054656DDA
:10008000703A00202050574D3A00202053746444A9
:1000900065763A0020204572723A002020493A00E5
:1000A000AA00AF00BA00C4000A0020204F4B002075
:1000B0002053687574646F776E0020204865617402
:1000C000696E67002020524547554C415445440015
:1000D0004865617465722053656E736F7220457256
:1000E000726F722053687574646F776E0A0048658A
:1000F0006174657220416D6269656E74204572722B
:100100006F722053687574646F776E0A004865617A
:100110007465722054696D656F7574204572726FD5
:10012000722053687574646F776E0A00260CB90AE2
:10013000DC0B9C0B5A0BFC0AB50DB90A8E0C020D98
:10014000520DFC0A00C20100009811241FBECFEF1F
:10015000D8E0DEBFCDBF11E0A0E0B1E0E6E0F3E221
:1001600002C005900D92A030B107D9F713E0A0E0CE
:10017000B1E001C01D92AE38B107E1F70E94240939
:100180000C9481110C9400000E94C70008950895FA
:10019000CF93DF93EC018881882341F0219660E0C2
:1001A00070E00E94520D89918823C9F7DF91CF91A9
:1001B0000895CF93DF93EC01FC018491882351F0E3
:1001C000219660E070E00E94520DFE01219684911C
:1001D0008823B9F7DF91CF910895EF92FF920F93A3
:1001E0001F93CF93DF93CDB7DEB728970FB6F89460
:1001F000DEBF0FBECDBFFE0131967F019E01275F9E
:100200003F4F982F917091938695E217F307C9F7A6
:100210008E01075F1F4FF80182918F01805D60E0C2
:1002200070E00E94520D0E151F05A9F728960FB613
:10023000F894DEBF0FBECDBFDF91CF911F910F911C
:10024000FF90EF9008958F929F92AF92BF92EF929E
:10025000FF921F93CF93DF93CDB7DEB72A970FB6E8
:10026000F894DEBF0FBECDBFDC01CB010097A10526
:10027000B10531F480E360E070E00E94520D30C0BF
:1002800010E00F2EFAE08F2EF0E09F2EF0E0AF2E60
:10029000F0E0BF2EF02DEE24FF24E394EC0EFD1EC3
:1002A000E10EF11CBC01CD01A50194010E945F117A
:1002B000605DF70160831F5F822F932FA42FB52FFE
:1002C0000097A105B10539F7112351F0FE01E10FA7
:1002D000F11D808160E070E00E94520D1150B1F775
:1002E0002A960FB6F894DEBF0FBECDBFDF91CF9137
:1002F0001F91FF90EF90BF90AF909F908F900895C7
:100300004F925F926F927F928F929F92AF92BF9225
:10031000CF92DF92EF92FF920F931F93CF93DF93D1
:10032000CDB7DEB72A970FB6F894DEBF0FBECDBFAC
:100330006B017C0120E030E0A9010E944F0F88236F
:100340004CF48DE260E070E00E94520DF7FAF094F8
:10035000F7F8F094C701B60120E030E048EC52E431
:100360000E94A210462F572F682F792FCB01BA0178
:1003700020E030E040E05FE30E94EB0E0E94BB0F04
:10038000862E972EA82EB92E8EE28B83811491048F
:10039000A104B10431F410E02CC0123071F4102F1C
:1003A0000CC010E00F2EFAE04F2EF0E05F2EF0E0D0
:1003B0006F2EF0E07F2EF02D03E0CC24DD24C394DB
:1003C000CC0EDD1EC10ED11CC501B401A3019201EA
:1003D0000E945F11605DF60160831F5F822E932E85
:1003E000A42EB52E81149104A104B104B1F61230EB
:1003F00058F480E3E1E0F0E0EC0FFD1FE10FF11DA8
:1004000080831F5F1230B0F3123021F480E38C83BD
:1004100014E002C0112351F0FE01E10FF11D8081B3
:1004200060E070E00E94520D1150B1F72A960FB6AD
:10043000F894DEBF0FBECDBFDF91CF911F910F911A
:10044000FF90EF90DF90CF90BF90AF909F908F90F4
:100450007F906F905F904F90089588E690E00E94A3
:10046000D90008958DE790E00E94D9006091550170
:100470007091560180915701909158010E9480011E
:1004800083E890E00E94D9006091290170912A01CF
:1004900080912B0190912C010E9480018AE890E0CC
:1004A0000E94D9006091590170915A0180915B01BD
:1004B00090915C010E94800184E990E00E94D90043
:1004C000609135017091360180913701909138012A
:1004D0000E9480018BE990E00E94D90060913D016B
:1004E00070913E0180913F01909140010E948001F6
:1004F000E0910101F0E0EE0FFF1FE056FF4F859104
:1005000094910E94D90088EA90E00E94D900089551
:1005100008958AE2E7E2F1E0DF011D928A95E9F7AA
:1005200080E090E0A0EAB0E480934501909346011A
:10053000A0934701B09348018DEC9CECACECBDE37B
:100540008093490190934A01A0934B01B0934C01D1
:1005500080E090E0A0E0BFE380934D0190934E01D6
:10056000A0934F01B093500180E090E0A8ECB2E47A
:1005700080932D0190932E01A0932F01B093300111
:1005800081E080932701089580E090E0DC01809372
:10059000290190932A01A0932B01B0932C0140E0F4
:1005A00050E068E473E440933D0150933E01609352
:1005B0003F01709340018093390190933A01A093D9
:1005C0003B01B0933C0108958F929F92AF92BF92EE
:1005D000CF92DF92EF92FF921F93CF93DF93E09140
:1005E0002701EE2349F4709131016091320190911D
:1005F00033018091340112C10E94EA0EC62ED72E1B
:10060000E82EF92E462F572F682F792F409335016A
:10061000509336016093370170933801C701B601DA
:100620009F772DEC3CEC4CEC5DE30E949E1018167D
:1006300094F56091290170912A0180912B0190918C
:100640002C0120912D0130912E0140912F015091CC
:1006500030010E944F0F8823F4F4C701B6012DEC3E
:100660003CEC4CEC5DE30E94A2109B01AC0160915C
:100670003D0170913E0180913F01909140010E94A7
:10068000EB0EDC01CB0180933D0190933E01A093E2
:100690003F01B0934001C0903501D0903601E09009
:1006A0003701F0903801C701B6012091390130912E
:1006B0003A0140913B0150913C010E94EA0E2DEC21
:1006C0003CEC4CEC5DE30E94530FC62FD72F182F44
:1006D000892E862F9D2FA12FB82D809341019093B5
:1006E0004201A0934301B0934401C701B601209198
:1006F00045013091460140914701509148010E94C7
:10070000A2106B017C016091490170914A018091B6
:100710004B0190914C0120913D0130913E0140915F
:100720003F01509140010E94A2109B01AC01C70102
:10073000B6010E94EB0E6B017C018C2F9D2FA12F27
:10074000B82DBC01CD0120914D0130914E01409159
:100750004F01509150010E94A2109B01AC01C701B2
:10076000B6010E94EB0E162FD72FC82FC92E862F49
:100770009D2FAC2FBC2D8093290190932A01A0932B
:100780002B01B0932C0180902D0190902E01A09010
:100790002F01B0903001BC01CD01A50194010E9450
:1007A0009E1018164CF48092290190922A01A09272
:1007B0002B01B0922C011CC080903101909032012D
:1007C000A0903301B0903401812F9D2FAC2FBC2D10
:1007D000BC01CD01A50194010E944F0F882344F470
:1007E0008092290190922A01A0922B01B0922C01B3
:1007F0008091350190913601A0913701B091380177
:100800008093390190933A01A0933B01B0933C014E
:10081000E9E2F1E07081618192818381392F282F93
:10082000872F962FA32FB22FBC01CD01DF91CF913F
:100830001F91FF90EF90DF90CF90BF90AF909F906F
:100840008F90089580E7E1E5F1E0DF011D928A9540
:10085000E9F783E393E9A8E8B3EC8093550190931B
:100860005601A0935701B09358018DEC9CECACE875
:10087000BFE380935D0190935E01A0935F01B0930D
:10088000600180E090E0A0EAB1E480936101909380
:100890006201A0936301B093640180E090E0A8EC52
:1008A000B3E48093650190936601A0936701B093D0
:1008B000680180E090E0A0E0B0EC80936901909343
:1008C0006A01A0936B01B0936C01089586E2E1E0A8
:1008D000F1E0DF011D928A95E9F780E090E0A0E465
:1008E000B0E480930F0190931001A0931101B09395
:1008F000120180E090E0A4EBB2E4809317019093A2
:100900001801A0931901B0931A0180E090E0A6E9C4
:10091000B3E480931B0190931C01A0931D01B0933D
:100920001E0140E050E060E272E440931F015093EA
:100930002001609321017093220180932301909301
:100940002401A0932501B093260185E08093050141
:100950000E9422040E948902089581E0809351013F
:1009600008951092510108951092530181E08093EF
:100970005201089580915101089580915201089586
:1009800080915101833049F4709155016091560175
:10099000909157018091580104C070E060E099E89F
:1009A00083EC392F282F872F962FA32FB22FBC012E
:1009B000CD010895982F9064ECE7F0E0908396E8DD
:1009C00090937A009081907F90839081908321E032
:1009D00030E0A90102C0440F551F8A95E2F7409309
:1009E0007E000895EAE7F0E0A8E7B0E08081806447
:1009F000808380818081806180838D919C9111971B
:100A00000097A1F3809178009091790008952F923A
:100A10003F924F925F926F927F928F929F92AF928E
:100A2000BF92CF92DF92EF92FF920F931F93CF93DB
:100A3000DF93CDB7DEB729970FB6F894DEBF0FBEB0
:100A4000CDBF80915101882309F4FFC080915201EC
:100A5000813009F0FAC00091530110E00E94F204C5
:100A6000000F111F000F111F03591E4FBC0180E022
:100A700090E00E94EC0F26E03FEA4AEF5EE30E941E
:100A8000A21023ED31EB46ED5EE30E94EA0EDC019D
:100A9000CB01F80180839183A283B38380915301BA
:100AA0008F5F80935301843108F4CFC08DE691E0CD
:100AB00064E1AE014F5F5F4F0E943B096B017C0117
:100AC0006093590170935A0180935B0190935C018C
:100AD0002091610130916201409163015091640164
:100AE0000E949E10181634F482E080935101809386
:100AF0005201ABC01092540180E090E0DC01809381
:100B0000550190935601A0935701B0935801298045
:100B10003A804B805C80C701B60120915D01309125
:100B20005E0140915F01509160010E94A2106E83AE
:100B30007F83888799871D820F2EFDE6AF2EF1E017
:100B4000BF2EF02D9924882477246624F501C190C6
:100B5000D190E190F1905F01C701B601A20191012E
:100B60000E94EA0E9F77FE81EF81588549850F2FFD
:100B70001E2F252F342FA90198010E944F0F882383
:100B80008CF4892D982DA72DB62DBC01CD01A70180
:100B900096010E94EB0E962E872E782E692EFD81EF
:100BA000FF5FFD832DEBA21621E0B20679F68D8161
:100BB00080935401682F70E080E090E00E94EE0F77
:100BC0009B01AC01892D982DA72DB62DBC01CD011F
:100BD0000E94530FC62E072FA82E992E862F902FD6
:100BE000AA2DB92D8093550190935601A0935701DA
:100BF000B0935801E1E5F1E083E0808311828C2D10
:100C0000BC01CD0120E030E048EC53E40E949E108E
:100C100018163CF482E08093510183E080935201E6
:100C200014C08C2D902FAA2DB92DBC01CD0120E030
:100C300030E040E050EC0E944F0F882334F482E013
:100C40008093510184E08093520129960FB6F89465
:100C5000DEBF0FBECDBFDF91CF911F910F91FF90EF
:100C6000EF90DF90CF90BF90AF909F908F907F904C
:100C70006F905F904F903F902F900895E0EBF0E0E1
:100C800080EF8083808183608083E1EBF0E088E007
:100C9000808380818460808310926F001092B30003
:100CA0001092B40080E090E0DC018093C501909345
:100CB000C601A093C701B093C80108950F931F9375
:100CC000CF93DF939B01AC0160E074E284E798E48A
:100CD0000E94530F062F172FD82FC92F862F912F21
:100CE000AD2FBC2F8093C5019093C601A093C7017F
:100CF000B093C801BC01CD0120E030E040EA51E4EE
:100D00000E944F0F882324F484E18093B3001CC019
:100D1000802F912FAD2FBC2FBC01CD0120E030E002
:100D20004FE753E40E949E10882324F08FEF8093B6
:100D3000B3000AC0802F912FAD2FBC2FBC01CD0175
:100D40000E94C00F6093B30080E0DF91CF911F91AC
:100D50000F9108958F929F92AF92BF92CF92DF92A0
:100D6000EF92FF926B017C012AE037ED43E25CE3F6
:100D70000E944F0F882324F48FEF8093B40030C07B
:100D8000C701B6012DEC3CEC47EC52E40E949E10EA
:100D900018161CF41092B40023C06091B30070E0E8
:100DA00080E090E00E94EE0F4B015C01C701B601AC
:100DB00020E030E048EC52E40E94530F9B01AC016C
:100DC00060E070E080E89FE30E94EA0E9B01AC01C6
:100DD000C501B4010E94A2100E94C00F6093B4002C
:100DE0006091C5017091C6018091C7019091C801C1
:100DF0000E94C00F6093B30080E0FF90EF90DF90FF
:100E0000CF90BF90AF909F908F9008958F929F92B8
:100E1000AF92BF92CF92DF92EF92FF926B017C0173
:100E200049015A010E943E06C701B6010E945E06B2
:100E3000C501B4010E94AA06FF90EF90DF90CF9009
:100E4000BF90AF909F908F90089560E070E0CB01CD
:100E50009B01AC010E940607089582E084BD93E0E7
:100E600095BD9DE797BD80936E008AE08093C20197
:100E70008093C3018093C40108951F920F920FB60F
:100E80000F9211248F9381E08093C1018F910F9075
:100E90000FBE0F901F9018950E94070508950895A2
:100EA00008955A9808955A9A0895CF93DF93D82FAA
:100EB000C62F0E9425070E94B104D0930101C09360
:100EC00002010E945307DF91CF910895CF92DF92E4
:100ED000EF92FF926B017C01809101018250823080
:100EE00058F10E94AD040E94B4040E94C40260E064
:100EF00070E08AE794E420E030E0A9010E94060750
:100F0000C0920B01D0920C01E0920D01F0920E0103
:100F1000109204011092060180E090E0DC018093C1
:100F2000130190931401A0931501B093160182E070
:100F3000809301010E945307FF90EF90DF90CF90C4
:100F4000089580E184B917B88CE08AB980E00E94E6
:100F5000DA040E943E060E942D070E94530708955E
:100F60008BB1882319F00E94510708950E945307FE
:100F70000895CF92DF92EF92FF920F931F93CF933A
:100F8000DF9380910101823008F420C10E94320277
:100F90000E94C004609307017093080180930901C7
:100FA00090930A0120912301309124014091250161
:100FB000509126010E949E1018162CF481E063E0E7
:100FC0000E94550703C10E94B404C0900701D0904D
:100FD0000801E0900901F0900A01C701B60123E37E
:100FE00033E948E853EC0E944F0F88239CF480912A
:100FF00006018F5F8093060190910501981708F014
:10100000E5C081E064E00E94550780ED90E00E9419
:10101000D900DCC01092060160910B0170910C01A7
:1010200080910D0190910E01A70196010E94E402AA
:101030000E94AA0680910101823009F078C0609177
:1010400013017091140180911501909116012DECFE
:101050003CEC4CEC5DE30E94EB0ED62FC72F182F13
:10106000092F862F9C2FA12FB02F809313019093CF
:101070001401A0931501B0931601C0900701D09000
:101080000801E0900901F0900A01C701B601209122
:101090001F013091200140912101509122010E94B5
:1010A0004F0F8823DCF48D2F9C2FA12FB02FBC0174
:1010B000CD012091170130911801409119015091F3
:1010C0001A010E949E1018164CF481E061E00E9403
:1010D00055078EEE90E00E94D90078C0C701B60196
:1010E00020910B0130910C0140910D0150910E01A6
:1010F0000E944F0F8823DCF48D2F9C2FA12FB02F3F
:10110000BC01CD0120911B0130911C0140911D01BA
:1011100050911E010E949E1018164CF481E062E06E
:101120000E9455078DE091E00E94D9004FC0809148
:10113000350190913601A0913701B0913801BC0181
:10114000CD019F7720910F01309110014091110145
:10115000509112010E944F0F181674F080910401F3
:101160008F5F809304018B30FCF08AE08093040150
:1011700083E0809301011CC0809104018150809321
:10118000040118168CF01092040180E090E0DC015C
:101190008093130190931401A0931501B09316014D
:1011A00082E08093010107C080910101833019F42E
:1011B0000E9451070BC0809103018F5F8093030150
:1011C000843020F0109203010E94B007DF91CF918C
:1011D0001F910F91FF90EF90DF90CF9008950E94A4
:1011E000B90708958091C101882331F11092C1019E
:1011F0000E944C078091C20181508093C2018823D4
:10120000E9F48AE08093C2018091C3018150809308
:10121000C3018823A9F48AE08093C3010E94EF08E8
:101220008091C40181508093C401882359F48AE0DD
:101230008093C40180E0089583E0089580E00895DC
:1012400080E0089580E00895F8940E9488020E944A
:101250004D0A0E94C4000E94A1070E94660478946F
:1012600060E070E080E293E40E9466070E942D0235
:101270000E94F208FDCF2F923F924F925F926F92A1
:101280007F928F929F92AF92BF92CF92DF92EF9216
:10129000FF920F931F93CF93DF93662E1A0166235D
:1012A00009F476C0482E592EC0E0AA249924882437
:1012B0007724D0E010E000E0BB24F201C190D1908F
:1012C000E190F1902F018D2F912FA02FBB2DBC010C
:1012D000CD01A70196010E94EB0ED62F172F082FE4
:1012E000B92EC701B6010E9447119B01AC018A2D9E
:1012F000992DA82DB72DBC01CD010E94EB0EA62E75
:10130000972E882E792ECF5FC615B9F6662D70E020
:1013100080E090E00E94EE0F6B017C018D2F912FF9
:10132000A02FBB2DBC01CD01A70196010E94530F38
:10133000C62FD72F182F092F862F9D2FA12FB02F03
:10134000F10180839183A283B3838A2D992DA82DE7
:10135000B72DBC01CD01A70196010E94530FB62EF7
:10136000C72EA82E992E8C2F9D2FA12FB02FBC01F8
:10137000CD010E9447119B01AC018B2D9C2DAA2D04
:10138000B92DBC01CD010E94EA0E0E94091104C0D2
:1013900060E070E080E090E0382F292F862F972FB3
:1013A000A32FB22FBC01CD01DF91CF911F910F91DF
:1013B000FF90EF90DF90CF90BF90AF909F908F9075
:1013C0007F906F905F904F903F902F900895BF92C5
:1013D000CF92DF92EF92FF920F931F93CF93DF9301
:1013E000B82E6B01EA01B901482F50E0CA01880FFD
:1013F000991F880F991F880F991F9C01220F331F77
:10140000220F331F820F931F840F951FFC01E95297
:10141000FD4F89E2DF011D928A95E9F7B082D28AF9
:10142000C18AD48BC38B768B658B108F078BF28E22
:10143000E18EF286E1861487038783E08483F68752
:10144000E587DF91CF911F910F91FF90EF90DF9093
:10145000CF90BF900895CF93DF93A82FEA01482F34
:1014600050E0CA01880F991F880F991F880F991F94
:101470009C01220F331F220F331F820F931F840FF3
:10148000951FFC01E952FD4F0188F289E02D8A2F5A
:10149000AE010995DF91CF9108950E946C0D0E94D5
:1014A0005B0C80E060E070E045E150E10E942B0AB7
:1014B00081E060E070E041E150E10E942B0A089574
:1014C000DA01482F50E0CA01880F991F880F991F31
:1014D000880F991F9C01220F331F220F331F820F89
:1014E000931F840F951FFC01E952FD4F0588F68973
:1014F000E02D89529D4FAD0109950895282F30E0C8
:10150000A901440F551F440F551F440F551FCA0111
:10151000880F991F880F991F840F951F820F931FA3
:10152000FC01E952FD4F0788F08DE02D88529D4F58
:1015300009950895482F50E0FA01EE0FFF1FEE0FB6
:10154000FF1FEE0FFF1F9F01220F331F220F331FBC
:101550002E0F3F1F240F351FD901A952BD4F28520E
:101560003D4F5996ED91FC915A97862FB9010995F7
:101570000895FC0160FF02C081E0858F61FD158E3A
:1015800064FF02C081E0868F65FD168E74FF02C085
:1015900081E0878F75FD178E80E090E00895482FD9
:1015A00050E0CA01880F991F880F991F880F991F53
:1015B0009C01220F331F220F331F820F931F840FB2
:1015C000951F89529D4F0E94B90A0895E82FF0E0B7
:1015D00024E031E0E29FC001E39F900DF29F900D67
:1015E0001124462F50E060E070E08D529E4F0E9423
:1015F000950D80E090E00895089590E09C01220F01
:10160000331F220F331F220F331FA901440F551F11
:10161000440F551F240F351F820F931F88529D4F73
:101620009093890380938803089590E09C01220F92
:10163000331F220F331F220F331FA901440F551FE1
:10164000440F551F240F351F820F931F88529D4F43
:1016500090938B0380938A03089590E09C01220F5E
:10166000331F220F331F220F331FA901440F551FB1
:10167000440F551F240F351F820F931F88529D4F13
:1016800090938D0380938C03089510926C031092B5
:101690006D0310926E03089581E080936C030895AA
:1016A00081E080936D03089581E080936E03089537
:1016B00080E00895EF92FF920F931F93CF93DF93F3
:1016C000282F8B01DB011C96ED90FC901D97F701F4
:1016D000C785D089CE01622F0E94580B833029F430
:1016E000D70193968C9393971EC09A8191509A83B9
:1016F000992311F49FE39A832A819981291729F06C
:101700009A81C90FD11D8B830EC08A818F5F8A8316
:10171000803410F081E08A83D8011C96ED91FC9111
:101720001D9784E083A380E090E0DF91CF911F912B
:101730000F91FF90EF9008950F931F93CF93DF9336
:10174000FC0104851585F801C785D0899A818981B6
:10175000981771F4CE0162E00E94580B833011F0AB
:1017600090E025C082E0F80183A38FEF9FEF1FC0B8
:10177000898181508983882311F48FE3898389814A
:10178000FE01E80FF11D0381CE0162E00E94580BBB
:10179000833059F09A8191509A83992311F49FE3F1
:1017A0009A839A81C90FD11D8B83802F90E0DF919E
:1017B000CF911F910F9108950F931F93CF93DF93B4
:1017C000EC018CA1882341F481E08CA31AA278A7B4
:1017D0006FA359A348A31BA28E010F5F1F4F28A11F
:1017E00039A18AA190E0821793075CF08FA198A598
:1017F000280F391FF901108282E08BA38EE090E060
:1018000020C0C8010E949C0B8A3071F48AA1EFA10C
:10181000F8A5E80FF11D10828F5F8AA382E08BA3E9
:101820001CA280E090E00DC0833049F09AA1EFA1A6
:10183000F8A5E90FF11D80839F5F9AA3D0CF82E0C6
:1018400090E0DF91CF911F910F910895CF93DF9397
:10185000FA01682F70E09B01220F331F220F331F04
:10186000220F331FA901440F551F440F551F240F8A
:10187000351F260F371FE901C952DD4F815090E017
:1018800023E430E0829FA001839F500D929F500D72
:101890001124475D5C4F588B4F8783E4DA011D921A
:1018A0008A95E9F7CE01BF010E94B90ACE010196DF
:1018B000DF91CF910895CF92DF92EF92FF920F9335
:1018C0001F938CE291E0FC0165917491FC013296CA
:1018D00045915491FC01349625913491FC01369642
:1018E00005911491FC013896E590F490FC013A962C
:1018F000C590D49081E00E94E7091F910F91FF905D
:10190000EF90DF90CF9008951F920F920FB60F9235
:1019100011240F900FBE0F901F901895CF92DF9259
:10192000EF92FF920F931F93CF93DF93EC010F85FC
:1019300018898CA1882341F481E08CA31AA278A78E
:101940006FA359A348A31BA20F2EFFE7EF2EF02D84
:101950000F2EFAE8CF2EF3E0DF2EF02DF801918163
:101960008081981709F443C0808181508083882347
:1019700009F4E082F8018081E80FF11DF4808E8D7A
:10198000882339F0F60160817181E98DFA8D8F2D00
:1019900009954AA188A199A1242F30E02817390779
:1019A0005CF02FA138A5820F931FFC01108282E00A
:1019B0008BA38EE090E01DC0FDE0FF1619F08AE0D9
:1019C000F81669F4EFA1F8A5E40FF11D10824F5F3E
:1019D0004AA382E08BA31CA280E090E00AC0EFA1A2
:1019E000F8A5E40FF11DF0824F5F4AA3B7CF82E064
:1019F00090E0DF91CF911F910F91FF90EF90DF90DA
:101A0000CF9008951F93CF93DF93FC01C485D585B4
:101A1000EF85F889918180819817A9F018C08D8D84
:101A2000882361F083B7816083BF889583B78E7FF9
:101A300083BF91818081981791F309C081E08BA3C6
:101A40008FEF9FEF2BC08D8D882361F7F7CF8081BB
:101A500081508083882311F48FE780838081E80F91
:101A6000F11D14818E8D882341F060918A0370915D
:101A70008B03E98DFA8D812F09951E3018F0812F87
:101A800090E00CC01D3011F01A3019F48F8D8823AE
:101A900019F4812F90E002C08AE090E0DF91CF91AD
:101AA0001F9108952091D601215009F42FE7E1EC10
:101AB000F0E0908190629083E5EDF1E090819217E3
:101AC000E9F32093D601E091D601F0E0E95AFD4F09
:101AD000808380E090E00895CF92DF92EF92FF92B2
:101AE0000F931F9388E391E0FC0165917491FC01D1
:101AF000329645915491FC01349625913491FC0124
:101B0000369605911491FC013896E590F490FC010D
:101B10003A96C590D49080E00E94E7091F910F91FA
:101B2000FF90EF90DF90CF900895440F551F661FF0
:101B3000771F440F551F661F771F9A01AB01220FB5
:101B4000331F441F551F60E074E284EF90E00E9451
:101B50005F11215030403093C5002093C400E0EC69
:101B6000F0E080818D7F80830895EF92FF920F9344
:101B70001F93CF93DF93082FBA01482F50E0CA017B
:101B8000880F991F880F991F880F991F9C01220F9A
:101B9000331F220F331F820F931F840F951F0F2EA9
:101BA000F7EDEF2EF2E0FF2EF02DE80EF91E24E007
:101BB00031E0429FC001439F900D529F900D112430
:101BC000EC01CD52DE4FF701D08BC787FE01C90172
:101BD00011920197E9F7C7010E94B90A81E0898350
:101BE00088838B838A83802F90E0880F991FFC0164
:101BF000EE0FFF1FEE0FFF1FEE0FFF1FE80FF91F85
:101C0000E85BFE4FE491E093C000802F90E0880FE6
:101C1000991FFC01EE0FFF1FEE0FFF1FEE0FFF1FBE
:101C2000E80FF91FE75BFE4FE491E093C100802FBE
:101C300090E0880F991FFC01EE0FFF1FEE0FFF1FB2
:101C4000EE0FFF1FE80FF91FEC5BFE4F059115919A
:101C500025913491CE01402F512F622F732F0E9476
:101C6000950DC7010196DF91CF911F910F91FF90C4
:101C7000EF9008951F920F920FB60F9211242F9399
:101C80008F939F93EF93FF932091C6008091D4018F
:101C900081508093D401882319F48FE78093D40175
:101CA0009091D4018091D301981741F08091D40193
:101CB000E3EDF1E0E80FF11D24830AC08091D40127
:101CC0008F5F8093D40188231CF481E08093D4013A
:101CD000FF91EF919F918F912F910F900FBE0F90D9
:101CE0001F9018951F920F920FB60F9211248F9389
:101CF0009F93EF93FF939091D6018091D501981710
:101D000099F08091D50181508093D501882319F4F1
:101D10008FE78093D501E091D501F0E0E95AFD4FBE
:101D200080818093C60005C0E1ECF0E080818F7D6A
:101D30008083FF91EF919F918F910F900FBE0F9035
:101D40001F90189590E09C01220F331F220F331F24
:101D5000220F331FF901EE0FFF1FEE0FFF1FE20FDF
:101D6000F31FE80FF91FE952FD4F0784F089E02DBA
:101D7000818181508183882311F48FE78183918150
:101D80008081981729F08181E80FF11D64830895FF
:101D900081818F5F8183882314F481E0818308959A
:101DA0000F931F93CF93DF93D82F8B01FB0160819B
:101DB000662359F0C0E0CF5F8D2F0E94A20EF8017C
:101DC000EC0FF11D60816623B1F7DF91CF911F9178
:101DD0000F9108955058BB27AA270ED075C166D120
:101DE00030F06BD120F031F49F3F11F41EF45BC151
:101DF0000EF4E095E7FB51C1E92F77D180F3BA17D4
:101E0000620773078407950718F071F49EF58FC178
:101E10000EF4E0950B2EBA2FA02D0B01B901900105
:101E20000C01CA01A0011124FF27591B99F0593F49
:101E300050F4503E68F11A16F040A22F232F342F91
:101E40004427585FF3CF469537952795A795F040DF
:101E50005395C9F77EF41F16BA0B620B730B840BF4
:101E6000BAF09150A1F0FF0FBB1F661F771F881FAC
:101E7000C2F70EC0BA0F621F731F841F48F4879504
:101E800077956795B795F7959E3F08F0B3CF9395F3
:101E9000880F08F09927EE0F979587950895D9D068
:101EA00008F481E008950CD00FC107D140F0FED0B6
:101EB00030F021F45F3F19F0F0C0511139C1F3C087
:101EC00014D198F39923C9F35523B1F3951B550BFE
:101ED000BB27AA2762177307840738F09F5F5F4FFD
:101EE000220F331F441FAA1FA9F333D00E2E3AF03E
:101EF000E0E830D091505040E695001CCAF729D058
:101F0000FE2F27D0660F771F881FBB1F26173707A6
:101F10004807AB07B0E809F0BB0B802DBF01FF27D6
:101F200093585F4F2AF09E3F510568F0B6C000C13C
:101F30005F3FECF3983EDCF3869577956795B79510
:101F4000F7959F5FC9F7880F911D9695879597F92B
:101F50000895E1E0660F771F881FBB1F62177307A4
:101F60008407BA0720F0621B730B840BBA0BEE1FB9
:101F700088F7E095089504D06894B111D9C0089508
:101F8000BCD088F09F5790F0B92F9927B751A0F097
:101F9000D1F0660F771F881F991F1AF0BA95C9F7FD
:101FA00012C0B13081F0C3D0B1E00895C0C0672F36
:101FB000782F8827B85F39F0B93FCCF386957795AD
:101FC0006795B395D9F73EF4909580957095619596
:101FD0007F4F8F4F9F4F0895E89409C097FB3EF4C1
:101FE00090958095709561957F4F8F4F9F4F992366
:101FF000A9F0F92F96E9BB279395F69587957795E4
:102000006795B795F111F8CFFAF4BB0F11F460FFA3
:102010001BC06F5F7F4F8F4F9F4F16C0882311F0FB
:1020200096E911C0772321F09EE8872F762F05C00F
:10203000662371F096E8862F70E060E02AF09A95AA
:10204000660F771F881FDAF7880F9695879597F99F
:102050000895990F0008550FAA0BE0E8FEEF161639
:102060001706E807F907C0F012161306E407F5078C
:1020700098F0621B730B840B950B39F40A2661F000
:10208000232B242B252B21F408950A2609F4A140A3
:10209000A6958FEF811D811D089597F99F6780E8B0
:1020A00070E060E008959FEF80EC089500240A94AA
:1020B0001616170618060906089500240A94121623
:1020C0001306140605060895092E0394000C11F456
:1020D000882352F0BB0F40F4BF2B11F460FF04C003
:1020E0006F5F7F4F8F4F9F4F089557FD9058440F5C
:1020F000551F59F05F3F71F04795880F97FB991F67
:1021000061F09F3F79F08795089512161306140623
:10211000551FF2CF4695F1DF08C0161617061806B0
:10212000991FF1CF86957105610508940895E8948B
:10213000BB2766277727CB0197F908958ADF08F434
:102140008FEF08950BD0C0CFB1DF28F0B6DF18F0C5
:10215000952309F0A2CFA7CF1124EACFC6DFA0F3C1
:10216000959FD1F3950F50E0551F629FF001729F2C
:10217000BB27F00DB11D639FAA27F00DB11DAA1F4B
:10218000649F6627B00DA11D661F829F2227B00D98
:10219000A11D621F739FB00DA11D621F839FA00D23
:1021A000611D221F749F3327A00D611D231F849F73
:1021B000600D211D822F762F6A2F11249F575040CA
:1021C0008AF0E1F088234AF0EE0FFF1FBB1F661F65
:1021D000771F881F91505040A9F79E3F510570F01E
:1021E0005CCFA6CF5F3FECF3983EDCF38695779506
:1021F0006795B795F795E7959F5FC1F7FE2B880F19
:10220000911D9695879597F9089511F40EF44BCF8B
:1022100041C073DFD0F39923D9F3CEF39F57550B09
:1022200087FF46D00024A0E640EA900180585695EA
:10223000979528F4805C660F771F881F20F026177B
:102240003707480730F4621B730B840B20293129B0
:102250004A2BA69517940794202531254A2758F72D
:10226000660F771F881F20F026173707480730F4BE
:10227000620B730B840B200D311D411DA09581F75E
:10228000B901842F9158880F9695879508959B01E1
:10229000AC0158CF9F3F31F0915020F4879577954E
:1022A0006795B795880F911D9695879597F908952D
:1022B00091505040660F771F881FD2F70895A1E212
:1022C0001A2EAA1BBB1BFD010DC0AA1FBB1FEE1FB0
:1022D000FF1FA217B307E407F50720F0A21BB30BFB
:1022E000E40BF50B661F771F881F991F1A9469F777
:1022F00060957095809590959B01AC01BD01CF01D3
:062300000895F894FFCFE0
:00000001FF
