:100000000C94A7000C94C4000C94C4000C94C4007D
:100010000C94C4000C94C4000C94C4000C94C40050
:100020000C94C4000C94C4000C94C4000C94C40040
:100030000C94C4000C94C4000C94D2070C94C4001B
:100040000C94C4000C94D90A0C94F40B0C94BE0BC1
:100050000C94C4000C94C4000C94C4000C94C40010
:100060000C94C4000C94C4004865617465722053FC
:10007000656E736F72204572726F7220536875746B
:10008000646F776E0A0048656174657220416D6225
:1000900069656E74204572726F722053687574645E
:1000A0006F776E0A004865617465722054696D65EA
:1000B0006F7574204572726F722053687574646F27
:1000C000776E0A000A44657669636520496E697433
:1000D00069616C697A65642025312E30660A0054A6
:1000E000656D703A25312E336620200050574D3A09
:1000F00025312E33662020005374644465763A25FA
:10010000312E33662020004572723A25312E336637
:10011000202000493A25312E336620200027012C6B
:1001200001370141010A0020204F4B002020536875
:100130007574646F776E00202048656174696E671E
:10014000002020524547554C41544544000011249D
:100150001FBECFEFD8E0DEBFCDBF12E0A0E0B1E020
:10016000E8E1F3E202C005900D92AC3FB107D9F788
:1001700014E0ACEFB2E001C01D92A231B107E1F78B
:100180000E943E040C948A110C940000CF93DF93DC
:10019000D82FC62F0E94B5070E942F05D093FC02CE
:1001A000C093FD020E941D08DF91CF9108958AE25D
:1001B000E2E2F3E0DF011D928A95E9F780E090E04A
:1001C000A0EAB0E48093400390934103A0934203DC
:1001D000B09343038DEC9CECACECBDE38093440303
:1001E00090934503A0934603B093470380E090E0CB
:1001F000A0E0BFE38093480390934903A0934A0390
:10020000B0934B0380E090E0A8ECB2E48093280325
:1002100090932903A0932A03B0932B0381E080934A
:100220002203089586E2ECEFF2E0DF011D928A9549
:10023000E9F780E090E0A0E4B0E480930A039093B3
:100240000B03A0930C03B0930D0380E090E0A4EBAC
:10025000B2E48093120390931303A0931403B0931A
:10026000150380E090E0A6E9B3E480931603909331
:100270001703A0931803B093190340E050E060E225
:1002800072E440931A0350931B0360931C03709312
:100290001D0380931E0390931F03A0932003B0932C
:1002A000210385E0809300030E94E7040E94D700A9
:1002B000089580E090E0DC0180932403909325036F
:1002C000A0932603B093270340E050E068E473E472
:1002D000409338035093390360933A0370933B0380
:1002E0008093340390933503A0933603B093370380
:1002F0000895CF92DF92EF92FF926B017C01809183
:10030000FC028250823058F10E942B050E94320577
:100310000E94590160E070E08AE794E420E030E058
:10032000A9010E949607C0920603D0920703E092AB
:100330000803F09209031092FF021092010380E07B
:1003400090E0DC0180930E0390930F03A0931003C1
:10035000B093110382E08093FC020E941D08FF907D
:10036000EF90DF90CF9008958F929F92AF92BF92BF
:10037000CF92DF92EF92FF921F93CF93DF93E091A2
:100380002203EE2349F470912C0360912D03909188
:100390002E0380912F0312C10E94200CC62ED72E4F
:1003A000E82EF92E462F572F682F792F40933003D0
:1003B000509331036093320370933303C701B60146
:1003C0009F772DEC3CEC4CEC5DE30E94CF0D1816B2
:1003D00094F56091240370912503809126039091F8
:1003E0002703209128033091290340912A0350913B
:1003F0002B030E94850C8823F4F4C701B6012DEC71
:100400003CEC4CEC5DE30E94D30D9B01AC01609190
:1004100038037091390380913A0390913B030E9415
:10042000210CDC01CB018093380390933903A09316
:100430003A03B0933B03C0903003D0903103E09077
:100440003203F0903303C701B60120913403309199
:10045000350340913603509137030E94200C2DEC58
:100460003CEC4CEC5DE30E94890CC62FD72F182F73
:10047000892E862F9D2FA12FB82D80933C0390931A
:100480003D03A0933E03B0933F03C701B601209103
:1004900040033091410340914203509143030E9435
:1004A000D30D6B017C0160914403709145038091F1
:1004B00046039091470320913803309139034091CE
:1004C0003A0350913B030E94D30D9B01AC01C7013D
:1004D000B6010E94210C6B017C018C2F9D2FA12F56
:1004E000B82DBC01CD0120914803309149034091C2
:1004F0004A0350914B030E94D30D9B01AC01C701ED
:10050000B6010E94210C162FD72FC82FC92E862F77
:100510009D2FAC2FBC2D8093240390932503A09393
:100520002603B09327038090280390902903A0907E
:100530002A03B0902B03BC01CD01A50194010E94B8
:10054000CF0D18164CF48092240390922503A092AC
:100550002603B09227031CC080902C0390902D039B
:10056000A0902E03B0902F03812F9D2FAC2FBC2D78
:10057000BC01CD01A50194010E94850C882344F49F
:100580008092240390922503A0922603B092270321
:100590008091300390913103A0913203B0913303E5
:1005A0008093340390933503A0933603B0933703BD
:1005B000E4E2F3E07081618192818381392F282FF9
:1005C000872F962FA32FB22FBC01CD01DF91CF91A2
:1005D0001F91FF90EF90DF90CF90BF90AF909F90D2
:1005E0008F900895CF92DF92EF92FF920F931F9317
:1005F000CF93DF938091FC02823008F435C10E94D2
:1006000062040E943E05609302037093030380938B
:1006100004039093050320911E0330911F03409122
:100620002003509121030E94CF0D18162CF481E075
:1006300063E00E94C60018C10E943205C090020308
:10064000D0900303E0900403F0900503C701B601C6
:1006500023E333E948E853EC0E94850C8823D4F463
:10066000809101038F5F809301039091000398179D
:1006700008F0FAC081E064E00E94C60000D088E67D
:1006800090E0EDB7FEB7928381830E94B20E0F9087
:100690000F90EAC010920103609106037091070366
:1006A0008091080390910903A70196010E94B4016B
:1006B0000E943A078091FC02823009F086C0609166
:1006C0000E0370910F0380911003909111032DEC94
:1006D0003CEC4CEC5DE30E94210CD62FC72F182F69
:1006E000092F862F9C2FA12FB02F80930E0390935C
:1006F0000F03A0931003B0931103C0900203D09096
:100700000303E0900403F0900503C701B6012091B4
:100710001A0330911B0340911C0350911D030E944A
:10072000850C882314F58D2F9C2FA12FB02FBC0191
:10073000CD01209112033091130340911403509185
:1007400015030E94CF0D181684F481E061E00E9429
:10075000C60000D086E890E0EDB7FEB792838183B3
:100760000E94B20E0F900F907FC0C701B60120917A
:1007700006033091070340910803509109030E943A
:10078000850C882314F58D2F9C2FA12FB02FBC0131
:10079000CD01209116033091170340911803509119
:1007A00019030E94CF0D181684F481E062E00E94C4
:1007B000C60000D085EA90E0EDB7FEB79283818352
:1007C0000E94B20E0F900F904FC080913003909115
:1007D0003103A0913203B0913303BC01CD019F7767
:1007E00020910A0330910B0340910C0350910D03AB
:1007F0000E94850C181674F08091FF028F5F809321
:10080000FF028B30FCF08AE08093FF0283E080934C
:10081000FC021CC08091FF0281508093FF021816D9
:100820008CF01092FF0280E090E0DC0180930E03D8
:1008300090930F03A0931003B093110382E0809371
:10084000FC0207C08091FC02833019F40E941B084F
:100850000BC08091FE028F5F8093FE02843020F0F7
:100860001092FE020E942308DF91CF911F910F91F9
:10087000FF90EF90DF90CF9008950895F8940E9434
:100880008F060E9469090E943D040E941F08789407
:100890000E944F040E94240A0E94E807FDCF00D066
:1008A00000D084EC90E0EDB7FEB7928381838AE2BA
:1008B00090E0948383830E94B20E0F900F900F906C
:1008C0000F90089500D000D000D08FED90E0EDB7EC
:1008D000FEB7928381838091500390915103A09140
:1008E0005203B091530383839483A583B6830E94FC
:1008F000B20E8CEE90E0EDB7FEB7928381838091CB
:10090000240390912503A0912603B09127038383AC
:100910009483A583B6830E94B20E88EF90E0EDB772
:10092000FEB7928381838091540390915503A091E7
:100930005603B091570383839483A583B6830E94A3
:10094000B20E87E091E0EDB7FEB79283818380918C
:10095000300390913103A0913203B091330383832C
:100960009483A583B6830E94B20E83E191E0EDB734
:10097000FEB7928381838091380390913903A091CF
:100980003A03B0913B0383839483A583B6830E948B
:10099000B20EE091FC02F0E0EE0FFF1FE35EFE4FAF
:1009A000859194910F900F900F900F90EDB7FEB737
:1009B000818392830E94B20E85E291E0EDB7FEB78B
:1009C000928381830E94B20E0F900F90089580E76A
:1009D000ECE4F3E0DF011D928A95E9F783E393E904
:1009E000A8E8B3EC8093500390935103A093520373
:1009F000B09353038DEC9CECACE8BFE380935803B9
:100A000090935903A0935A03B0935B0380E090E066
:100A1000A0EAB1E480935C0390935D03A0935E032E
:100A2000B0935F0380E090E0A8ECB3E480936003B0
:100A300090936103A0936203B093630380E090E01E
:100A4000A0E0B0EC8093640390936503A0936603E9
:100A5000B0936703089581E080934C03089510924A
:100A60004C03089510924E0381E080934D03089546
:100A700080914C03089580914D03089580914C031B
:100A8000833049F470915003609151039091520367
:100A90008091530304C070E060E099E883EC392F43
:100AA000282F872F962FA32FB22FBC01CD01089599
:100AB0002F923F924F925F926F927F928F929F926E
:100AC000AF92BF92CF92DF92EF92FF920F931F935C
:100AD000CF93DF93CDB7DEB729970FB6F894DEBF7B
:100AE0000FBECDBF80914C03882309F4FFC08091D5
:100AF0004D03813009F0FAC000914E0310E00E94CE
:100B0000B306000F111F000F111F08591C4FBC0125
:100B100080E090E00E941D0D26E03FEA4AEF5EE390
:100B20000E94D30D23ED31EB46ED5EE30E94200CD5
:100B3000DC01CB01F80180839183A283B383809190
:100B40004E038F5F80934E03843108F4CFC088E654
:100B500093E064E1AE014F5F5F4F0E942C086B0190
:100B60007C016093540370935503809356039093D4
:100B7000570320915C0330915D0340915E035091D7
:100B80005F030E94CF0D181634F482E080934C036B
:100B900080934D03ABC010924F0380E090E0DC01E6
:100BA0008093500390935103A0935203B093530347
:100BB00029803A804B805C80C701B60120915803A0
:100BC0003091590340915A0350915B030E94D30D19
:100BD0006E837F83888799871D820F2EF8E6AF2E5C
:100BE000F3E0BF2EF02D9924882477246624F501A4
:100BF000C190D190E190F1905F01C701B601A201CF
:100C000091010E94200C9F77FE81EF8158854985D4
:100C10000F2F1E2F252F342FA90198010E94850C1C
:100C200088238CF4892D982DA72DB62DBC01CD01DC
:100C3000A70196010E94210C962E872E782E692EF0
:100C4000FD81FF5FFD8328EBA21623E0B20679F653
:100C50008D8180934F03682F70E080E090E00E94C8
:100C60001F0D9B01AC01892D982DA72DB62DBC0120
:100C7000CD010E94890CC62E072FA82E992E862FF3
:100C8000902FAA2DB92D8093500390935103A093D8
:100C90005203B0935303ECE4F3E083E080831182CA
:100CA0008C2DBC01CD0120E030E048EC53E40E94E3
:100CB000CF0D18163CF482E080934C0383E08093C0
:100CC0004D0314C08C2D902FAA2DB92DBC01CD0140
:100CD00020E030E040E050EC0E94850C882334F4A2
:100CE00082E080934C0384E080934D0329960FB6F5
:100CF000F894DEBF0FBECDBFDF91CF911F910F9152
:100D0000FF90EF90DF90CF90BF90AF909F908F902B
:100D10007F906F905F904F903F902F9008958FEF4E
:100D20008093640014B817B81AB80895E4E6F0E0A8
:100D300090819E7F9083982F9064ECE7F0E0908301
:100D400096E890937A009081907F90839081908331
:100D500021E030E0A90102C0440F551F8A95E2F757
:100D600040937E000895EAE7F0E0A8E7B0E08081D4
:100D70008064808380818081806180838D919C915B
:100D800011970097A1F380917800909179000895D0
:100D9000539AE4E6F0E080818F7B8083E0EBF0E023
:100DA00080EF8083808183608083E1EBF0E088E0E6
:100DB000808380818460808310926F001092B300E2
:100DC0001092B40080E090E0DC018093C003909327
:100DD000C103A093C203B093C30308950F931F935D
:100DE000CF93DF939B01AC0160E074E284E798E469
:100DF0000E94890C062F172FD82FC92F862F912FCD
:100E0000AD2FBC2F8093C0039093C103A093C20366
:100E1000B093C303BC01CD0120E030E040EA51E4CF
:100E20000E94850C882324F484E18093B3001CC0C5
:100E3000802F912FAD2FBC2FBC01CD0120E030E0E1
:100E40004FE753E40E94CF0D882324F08FEF809367
:100E5000B3000AC0802F912FAD2FBC2FBC01CD0154
:100E60000E94F10C6093B30080E0DF91CF911F915D
:100E70000F9108958F929F92AF92BF92CF92DF927F
:100E8000EF92FF926B017C012AE037ED43E25CE3D5
:100E90000E94850C882324F48FEF8093B40030C027
:100EA000C701B6012DEC3CEC47EC52E40E94CF0D9B
:100EB00018161CF41092B40023C06091B30070E0C7
:100EC00080E090E00E941F0D4B015C01C701B6015C
:100ED00020E030E048EC52E40E94890C9B01AC0118
:100EE00060E070E080E89FE30E94200C9B01AC0171
:100EF000C501B4010E94D30D0E94F10C6093B400AF
:100F00006091C0037091C1038091C2039091C303AB
:100F10000E94F10C6093B30080E0FF90EF90DF90AF
:100F2000CF90BF90AF909F908F9008958F929F9297
:100F3000AF92BF92CF92DF92EF92FF926B017C0152
:100F400049015A010E94C806C701B6010E94EE0677
:100F5000C501B4010E943A07FF90EF90DF90CF9057
:100F6000BF90AF909F908F90089560E070E0CB01AC
:100F70009B01AC010E9496070895E4E6F0E08081B1
:100F80008F7D808382E084BD93E095BD9DE797BD12
:100F900080936E008AE08093BD038093BE038093AC
:100FA000BF0308951F920F920FB60F9211248F93D3
:100FB00081E08093BC038F910F900FBE0F901F9024
:100FC00018950E945805089508950E94F202089508
:100FD0008091BC03882331F11092BC030E94E10789
:100FE0008091BD0381508093BD038823E9F48AE09A
:100FF0008093BD038091BE0381508093BE038823FC
:10100000A9F48AE08093BE030E94E5078091BF03A4
:1010100081508093BF03882359F48AE08093BF03F3
:1010200080E0089583E0089580E0089580E00895C9
:1010300080E0089508955A9808955A9A0895539A09
:101040000E941D0808958BB1882319F00E941B0887
:1010500008950E941D0808952F923F924F925F922B
:101060006F927F928F929F92AF92BF92CF92DF92B8
:10107000EF92FF920F931F93CF93DF93662E1A0187
:10108000662309F476C0482E592EC0E0AA2499247C
:1010900088247724D0E010E000E0BB24F201C19066
:1010A000D190E190F1902F018D2F912FA02FBB2D8A
:1010B000BC01CD01A70196010E94210CD62F172F4C
:1010C000082FB92EC701B6010E94780E9B01AC0112
:1010D0008A2D992DA82DB72DBC01CD010E94210C80
:1010E000A62E972E882E792ECF5FC615B9F6662DBF
:1010F00070E080E090E00E941F0D6B017C018D2F5D
:10110000912FA02FBB2DBC01CD01A70196010E94FC
:10111000890CC62FD72F182F092F862F9D2FA12F6F
:10112000B02FF10180839183A283B3838A2D992DFF
:10113000A82DB72DBC01CD01A70196010E94890CF5
:10114000B62EC72EA82E992E8C2F9D2FA12FB02FF3
:10115000BC01CD010E94780E9B01AC018B2D9C2D12
:10116000AA2DB92DBC01CD010E94200C0E943A0E7F
:1011700004C060E070E080E090E0382F292F862FD7
:10118000972FA32FB22FBC01CD01DF91CF911F91DB
:101190000F91FF90EF90DF90CF90BF90AF909F9016
:1011A0008F907F906F905F904F903F902F90089519
:1011B0008E3271F08D3271F08B3271F0282F30E069
:1011C0002053304081E02A30310538F080E0089526
:1011D00081E0089581E0089581E00895E82FF0E02E
:1011E000EE0FFF1FEC53FC4F0190F081E02D0180CA
:1011F000F281E02D09950895E82FF0E0EE0FFF1F32
:10120000EC53FC4F80819181DC011596ED91FC91AE
:10121000169709950895E82FF0E0EE0FFF1FEC53A5
:10122000FC4F80819181DC011796ED91FC9118971C
:10123000439609950895E82FF0E0EE0FFF1FEC5359
:10124000FC4F0190F081E02D9F012D5E3F4F018406
:10125000F285E02D862FB90109950895E82FF0E079
:10126000EE0FFF1FEC53FC4F462F50E060E070E0A4
:10127000808191810E94590B80E090E00895E82FD1
:10128000F0E0EE0FFF1FEC53FC4F808191814396FD
:1012900090930D0480930C040895E82FF0E0EE0F76
:1012A000FF1FEC53FC4F80819181439690930F0474
:1012B00080930E040895E82FF0E0EE0FFF1FEC532B
:1012C000FC4F808191814396909311048093100488
:1012D000089580E00E94540B9093C5038093C4034B
:1012E00081E00E94D40A9093C7038093C60380E0F4
:1012F00060E070E045E150E10E94EE0881E060E0CE
:1013000070E040E050E10E94EE0880E00E943F095A
:1013100080E00E944D0981E00E945B090895FC0174
:1013200014A215A216A208950895FC0160FF02C040
:1013300081E081A361FD11A264FF02C081E082A36C
:1013400065FD12A274FF02C081E083A375FD13A2A4
:1013500080E090E00895E82FF0E0EE0FFF1FEC53DF
:10136000FC4F808191810E9495090895FC01818143
:101370009281981761F081508183882311F48081D4
:1013800081838181E80FF11D838190E008958FEFC3
:101390009FEF0895CF93DF93EC018CA1882339F45C
:1013A00081E08CA37BA76AA719A658A74FA34FA1DA
:1013B00058A529A530E0CA010197281739074CF034
:1013C0008AA59BA5480F591FFA0110828DE090E075
:1013D00023C08D859E850E94B6098A3061F489A557
:1013E000EAA5FBA5E80FF11D10828F5F89A71CA25B
:1013F00080E090E011C029A5EAA5FBA5E20FF11D50
:1014000080832F5F29A74FA158A530E0CA0101971B
:1014100028173907F4F2D4CFDF91CF910895FC015A
:101420008281815009F480819181981751F0DF0108
:10143000A80FB11D13966C931397828380E090E000
:1014400008958FEF9FEF0895C0E000E011E0F801EC
:10145000EC0FF11D80E060810E941B092FEF8F3F90
:101460009207A9F3CF5FC770F2CFCF93DF93EC0160
:101470008CA1882339F481E08CA37BA76AA719A6E5
:1014800058A74FA34FA158A529A530E0CA0101973D
:10149000281739074CF08AA59BA5480F591FFA0158
:1014A00010828DE090E02BC08D859E850E94B6094C
:1014B0008A30A1F489A5EAA5FBA5E80FF11D9AE001
:1014C0009083982F9F5FEAA5FBA5E90FF11D10827D
:1014D0008E5F89A71CA280E090E011C029A5EAA533
:1014E000FBA5E20FF11D80832F5F29A74FA158A50F
:1014F00030E0CA01019728173907B4F2CCCFDF9149
:10150000CF910895DC011C96ED91FC911D97858586
:1015100096850E94B6090895282FFB010484F5855D
:10152000E02D87859089622F0E940F0A08950F93FE
:101530001F93CF93DF938A01E82FF0E0EE0FFF1F98
:10154000EC53FC4FC081D181CE010E948F09CE01A6
:10155000B8010E949509ED85FE8581E08283ED85C5
:10156000FE858183EF85F8898283EF85F889818301
:10157000E4E6F0E080818B7F80838CB58C6C8CBD41
:10158000249A89859A859C8F8B8F8F8198859E8FD1
:101590008D8F83E08E8BD8A3CF8FCE014396DF91C2
:1015A000CF911F910F9108958093080188E091E0F9
:1015B00008951F920F920FB60F9211242F933F930D
:1015C0004F935F936F937F938F939F93AF93BF934B
:1015D000CF93EF93FF93CEB5E091C603F091C7038D
:1015E000878590890E94B6092FEF8F3F920719F4E3
:1015F00083E08EBD01C08EBDE091C603F091C703AC
:10160000858596856C2F0E940F0AFF91EF91CF91EF
:10161000BF91AF919F918F917F916F915F914F910A
:101620003F912F910F900FBE0F901F9018951F9311
:10163000CF93DF93EC01EC85FD85858596850E942F
:10164000B609182F0C84DD85C02DEB85FC85CE01F5
:1016500009958AA1882341F060910E0470910F04CE
:10166000E985FA85812F09951D3011F01A3019F49A
:101670008BA1882319F4812F90E002C08AE090E0CA
:10168000DF91CF911F910895282FFB010484F585E8
:10169000E02D87859089622F0E940F0AE1ECF0E02F
:1016A00020812062208308958093790289E792E067
:1016B0000895440F551F661F771F440F551F661F5F
:1016C000771F9A01AB01220F331F441F551F60E0A3
:1016D00074E284EF90E00E94900E215030403093ED
:1016E000C5002093C400E0ECF0E080818D7F808312
:1016F00008950F931F93CF93DF938A01E82FF0E0B3
:10170000EE0FFF1FEC53FC4FC081D181CE010E9430
:101710008F09CE01B8010E949509ED85FE8581E013
:101720008283ED85FE858183EF85F8898283EF854D
:10173000F8898183E4E6F0E080818D7F80831092D8
:10174000C00088E98093C100CE0140E052EC61E026
:1017500070E00E94590B89859A859C8F8B8F8F81B1
:1017600098859E8F8D8F83E08E8BD8A3CF8FCE01EF
:101770004396DF91CF911F910F9108951F920F9281
:101780000FB60F9211242F933F934F935F936F9354
:101790007F938F939F93AF93BF93EF93FF93E091CA
:1017A000C403F091C503878590890E94B6092FEF85
:1017B0008F3F920731F4E1ECF0E080818F7D8083F0
:1017C00002C08093C600FF91EF91BF91AF919F91AE
:1017D0008F917F916F915F914F913F912F910F90DA
:1017E0000FBE0F901F9018951F920F920FB60F9279
:1017F00011242F933F934F935F936F937F938F9316
:101800009F93AF93BF93EF93FF936091C600E091D6
:10181000C403F091C503858596850E940F0AFF9148
:10182000EF91BF91AF919F918F917F916F915F9158
:101830004F913F912F910F900FBE0F901F901895D1
:101840005058BB27AA270ED070C161D130F066D1A5
:1018500020F031F49F3F11F41EF456C10EF4E095D0
:10186000E7FB4CC1E92F72D180F3BA176207730707
:101870008407950718F071F49EF58AC10EF4E0957F
:101880000B2EBA2FA02D0B01B90190010C01CA013A
:10189000A0011124FF27591B99F0593F50F4503EE5
:1018A00068F11A16F040A22F232F342F4427585FD7
:1018B000F3CF469537952795A795F0405395C9F7EF
:1018C0007EF41F16BA0B620B730B840BBAF09150A7
:1018D000A1F0FF0FBB1F661F771F881FC2F70EC046
:1018E000BA0F621F731F841F48F487957795679519
:1018F000B795F7959E3F08F0B3CF9395880F08F002
:101900009927EE0F979587950895D4D008F481E034
:1019100008950CD00AC102D140F0F9D030F021F482
:101920005F3F19F0EBC0511134C1EEC00FD198F3F5
:101930009923C9F35523B1F3951B550BBB27AA2750
:1019400062177307840738F09F5F5F4F220F331FC2
:10195000441FAA1FA9F333D00E2E3AF0E0E830D08E
:1019600091505040E695001CCAF729D0FE2F27D091
:10197000660F771F881FBB1F261737074807AB075F
:10198000B0E809F0BB0B802DBF01FF2793585F4FD4
:101990002AF09E3F510568F0B1C0FBC05F3FECF3F9
:1019A000983EDCF3869577956795B795F7959F5F99
:1019B000C9F7880F911D9695879597F90895E1E0ED
:1019C000660F771F881FBB1F621773078407BA074C
:1019D00020F0621B730B840BBA0BEE1F88F7E095A7
:1019E0000895BCD088F09F5790F0B92F9927B75130
:1019F000A0F0D1F0660F771F881F991F1AF0BA95D3
:101A0000C9F712C0B13081F0C3D0B1E00895C0C0B1
:101A1000672F782F8827B85F39F0B93FCCF38695C8
:101A200077956795B395D9F73EF490958095709525
:101A300061957F4F8F4F9F4F0895E89409C097FBA2
:101A40003EF490958095709561957F4F8F4F9F4F95
:101A50009923A9F0F92F96E9BB279395F6958795D9
:101A600077956795B795F111F8CFFAF4BB0F11F49C
:101A700060FF1BC06F5F7F4F8F4F9F4F16C0882343
:101A800011F096E911C0772321F09EE8872F762F79
:101A900005C0662371F096E8862F70E060E02AF0BA
:101AA0009A95660F771F881FDAF7880F96958795A6
:101AB00097F90895990F0008550FAA0BE0E8FEEF7B
:101AC00016161706E807F907C0F012161306E40702
:101AD000F50798F0621B730B840B950B39F40A26FB
:101AE00061F0232B242B252B21F408950A2609F4D9
:101AF000A140A6958FEF811D811D089597F99F67DD
:101B000080E870E060E008959FEF80EC0895002485
:101B10000A941616170618060906089500240A9452
:101B200012161306140605060895092E0394000CD8
:101B300011F4882352F0BB0F40F4BF2B11F460FF67
:101B400004C06F5F7F4F8F4F9F4F089557FD905890
:101B5000440F551F59F05F3F71F04795880F97FB71
:101B6000991F61F09F3F79F087950895121613062B
:101B70001406551FF2CF4695F1DF08C0161617065A
:101B80001806991FF1CF869571056105089408958F
:101B9000E894BB2766277727CB0197F908958ADF5A
:101BA00008F48FEF08950BD0C0CFB1DF28F0B6DF77
:101BB00018F0952309F0A2CFA7CF1124EACFC6DFF2
:101BC000A0F3959FD1F3950F50E0551F629FF00150
:101BD000729FBB27F00DB11D639FAA27F00DB11DA9
:101BE000AA1F649F6627B00DA11D661F829F222732
:101BF000B00DA11D621F739FB00DA11D621F839FB9
:101C0000A00D611D221F749F3327A00D611D231F8E
:101C1000849F600D211D822F762F6A2F11249F57DC
:101C200050408AF0E1F088234AF0EE0FFF1FBB1FFF
:101C3000661F771F881F91505040A9F79E3F51059E
:101C400070F05CCFA6CF5F3FECF3983EDCF3869557
:101C500077956795B795F795E7959F5FC1F7FE2B49
:101C6000880F911D9695879597F9089511F40EF4B4
:101C70004BCF41C073DFD0F39923D9F3CEF39F57F5
:101C8000550B87FF46D00024A0E640EA900180581B
:101C90005695979528F4805C660F771F881F20F073
:101CA00026173707480730F4621B730B840B202973
:101CB00031294A2BA69517940794202531254A27C8
:101CC00058F7660F771F881F20F026173707480739
:101CD00030F4620B730B840B200D311D411DA09558
:101CE00081F7B901842F9158880F969587950895AB
:101CF0009B01AC0158CF9F3F31F0915020F4879564
:101D000077956795B795880F911D9695879597F963
:101D1000089591505040660F771F881FD2F708959D
:101D2000A1E21A2EAA1BBB1BFD010DC0AA1FBB1FDF
:101D3000EE1FFF1FA217B307E407F50720F0A21B51
:101D4000B30BE40BF50B661F771F881F991F1A94BE
:101D500069F760957095809590959B01AC01BD01E8
:101D6000CF010895A0E0B0E0E8EBFEE00C94631131
:101D7000FE0135966191719180910E0490910F044E
:101D8000DC0113962C911397286013962C93AF01C6
:101D90000E94D50EE0910E04F0910F042381277F5D
:101DA00023832096E2E00C947F11ADE0B0E0EBEDF0
:101DB000FEE00C9453113C017D876C875A01FC01B5
:101DC00017821682838181FFC8C12E010894411CAD
:101DD000511CF3019381EC85FD8593FD859193FF63
:101DE0008191FD87EC87882309F4B3C1853241F4E2
:101DF00093FD859193FF8191FD87EC87853229F4CE
:101E000090E0B3010E94C910E4CFFF24EE2410E05B
:101E10001032B0F48B3269F08C3228F4803251F0F9
:101E2000833271F40BC08D3239F0803349F4116084
:101E30002CC01260146029C0186027C0106125C032
:101E400017FD2EC0282F20532A3098F416FF08C003
:101E50008F2D880FF82EFF0CFF0CF80EF20E15C018
:101E60008E2D880FE82EEE0CEE0CE80EE20E1062BE
:101E70000CC08E3221F416FD6CC1106406C08C3685
:101E800011F4106802C0883659F4EC85FD8593FD85
:101E9000859193FF8191FD87EC87882309F0B8CF66
:101EA000982F9554933018F09052933038F424E0E2
:101EB00030E0A20EB31E3FE339830FC0833631F00A
:101EC000833781F0833509F05AC022C0F501808143
:101ED000898322E030E0A20EB31E21E0C22ED12C75
:101EE000420114C092E0292E312C2A0C3B1CF50132
:101EF0008080918016FF03C06F2D70E002C06FEFED
:101F00007FEFC4010E94BE106C0151011F7715C004
:101F100082E0282E312C2A0C3B1CF5018080918018
:101F200016FF03C06F2D70E002C06FEF7FEFC4019A
:101F30000E94B3106C011068510113FD1CC006C053
:101F400080E290E0B3010E94C910EA948E2D90E0E7
:101F5000C816D906A8F30FC0F40117FD859117FF25
:101F600081914F0190E0B3010E94C910E110EA9401
:101F70000894C108D108C114D10471F7E7C08436B0
:101F800011F0893651F5F50117FF07C08081918165
:101F9000A281B38124E030E008C080819181AA272A
:101FA00097FDA095BA2F22E030E0A20EB31E012FBC
:101FB0000F76B7FF08C0B095A095909581959F4F7B
:101FC000AF4FBF4F0068BC01CD01A2012AE030E055
:101FD0000E94F510D82ED4183FC0853721F41F7EFB
:101FE0002AE030E020C0197F8F36A9F0803720F436
:101FF000883509F0AEC00BC0803721F0883709F072
:10200000A8C001C0106114FF09C0146007C014FF0C
:1020100008C0166006C028E030E005C020E130E0CE
:1020200002C020E132E0F50117FF07C06081718135
:102030008281938144E050E006C06081718180E03C
:1020400090E042E050E0A40EB51EA2010E94F510FF
:10205000D82ED418012F0F7706FF09C00E7FDF148A
:1020600030F404FF06C002FD04C00F7E02C01D2D27
:1020700001C01F2D802F90E004FF0CC0FE01ED0D6C
:10208000F11D2081203311F4097E09C002FF06C032
:102090001E5F05C086789070009709F01F5F802E44
:1020A000992403FD12C000FF0DC0FD2C1E1550F435
:1020B000FE0CF11A1E2D06C080E290E0B3010E94D2
:1020C000C9101F5F1E15C0F304C01E1510F4E11ADD
:1020D00001C0EE2484FE0FC080E390E0B3010E94B3
:1020E000C91082FE1FC081FE03C088E590E010C0C9
:1020F00088E790E00DC0C40186789070009791F059
:1021000081FC02C080E201C08BE207FD8DE290E01D
:10211000B3010E94C91006C080E390E0B3010E94A1
:10212000C910FA94DF14C0F3DA94F201ED0DF11D39
:10213000808190E0B3010E94C910DD20A9F706C09C
:1021400080E290E0B3010E94C910EA94EE20C1F74A
:1021500040CEF3018681978102C08FEF9FEF2D96CD
:10216000E2E10C946F11FC01059061507040011088
:10217000D8F7809590958E0F9F1F0895FC016150B0
:10218000704001900110D8F7809590958E0F9F1F99
:1021900008950F931F93CF93DF938C01EB018B81F5
:1021A00081FF1BC082FF0DC02E813F818C819D81EC
:1021B0002817390764F4E881F9810193F983E883EA
:1021C00006C0E885F985802F0995009731F48E8146
:1021D0009F8101969F838E8302C00FEF1FEFC8017E
:1021E000DF91CF911F910F910895FA01AA2728300E
:1021F00051F1203181F1E8946F936E7F6E5F7F4FD4
:102200008F4F9F4FAF4FB1E03ED0B4E03CD0670F4F
:10221000781F891F9A1FA11D680F791F8A1F911DA2
:10222000A11D6A0F711D811D911DA11D20D009F4F2
:1022300068943F912AE0269F11243019305D319334
:10224000DEF6CF010895462F4770405D4193B3E01D
:102250000FD0C9F7F6CF462F4F70405D4A3318F0C4
:10226000495D31FD4052419302D0A9F7EACFB4E075
:10227000A6959795879577956795BA95C9F700972D
:102280006105710508959B01AC010A2E06945795CE
:10229000479537952795BA95C9F7620F731F841F25
:1022A000951FA01D08952F923F924F925F926F92BB
:1022B0007F928F929F92AF92BF92CF92DF92EF92D6
:1022C000FF920F931F93CF93DF93CDB7DEB7CA1B57
:1022D000DB0B0FB6F894DEBF0FBECDBF09942A8882
:1022E000398848885F846E847D848C849B84AA842A
:1022F000B984C884DF80EE80FD800C811B81AA81B7
:10230000B981CE0FD11D0FB6F894DEBF0FBECDBF81
:08231000ED010895F894FFCFE0
:10231800303132333435363701970A9509350A8218
:102328000A8C0A94093602340100000000000000FB
:102338000000000000000000000000000000000095
:1023480000000000FE010100000000000000000085
:102358000000000000000000000000000000000075
:102368000000000000000000000000000000000065
:102378000000000000000000000000000000000055
:102388000000000000000000000000000000000045
:102398000000000000000000000000000000000035
:1023A8000000000000000000000000000000000025
:1023B8000000000000000000000000000000000015
:1023C8000000000000000000000000000000000005
:1023D80000000000000000000000000000000000F5
:1023E80000000000000000000000000000000000E5
:1023F80000000000000000000000000000000000D5
:1024080000000000000000000000000000000000C4
:1024180000000000000000000000000000000000B4
:1024280000000000000000000000000000000000A4
:102438000000000000000000000000000000000094
:102448000000000000003F01010000000000000043
:102458000000000000000000000000000000000074
:102468000000000000000000000000000000000064
:102478000000000000000000000000000000000054
:1024880000000000000000000000790B9509CA094F
:10249800170B440B9409E802A50200000000000095
:1024A8000000000000000000000000000000000024
:1024B80000000000003F01010000000000000000D3
:1024C8000000000000000000000000000000000004
:1024D80000000000000000000000000000000000F4
:1024E80000000000000000000000000000000000E4
:1024F80000000000000000000F01010000000000C3
:0C250800000000000000000000000000C7
:00000001FF
