:100000000C944F000C946C000C946C000C946C00DD
:100010000C946C000C946C000C946C000C946C00B0
:100020000C946C000C946C000C946C000C946C00A0
:100030000C946C000C946C000C946C000C946C0090
:100040000C946C000C943F030C9471050C944105C6
:100050000C946C000C946C000C946C000C946C0070
:100060000C946C000C946C000A44657669636520FE
:10007000496E697469616C697A65640A00A0025707
:100080000156023B020E029A01CC10B7045701FA46
:1000900003AA0390039A0100C201000098001124F2
:1000A0001FBECFEFD8E0DEBFCDBF11E0A0E0B1E0D2
:1000B000EAE4F1E102C005900D92A030B107D9F752
:1000C00013E0A0E0B1E001C01D92AA32B107E1F750
:1000D0000E9472000C94A3080C9400000E9471000E
:1000E00008950895F8940E948B000E94E3010E94F5
:1000F0006E0078940E947F000E94FF01FFCF00D025
:1001000088E690E0EDB7FEB7928381830E94CB052D
:100110000F900F9008958FEF8093640014B817B874
:100120001AB808959F92AF92BF92CF92DF92EF924A
:10013000FF920F931F93CF93DF93982E5B01EA01F9
:10014000B901482F50E0CA01880F991F880F991FE5
:10015000880F991F9C01220F331F220F331F820F1C
:10016000931F840F951FFC01E45BFD4F89E2DF01C3
:100170001D928A95E9F79082B28AA18AD48BC38BAB
:10018000768B658B108F078BF28EE18ED48EC38EAB
:10019000F286E1861487038783E08483F687E58708
:1001A000DF91CF911F910F91FF90EF90DF90CF9053
:1001B000BF90AF909F900895CF93DF93A82FEA014F
:1001C000482F50E0CA01880F991F880F991F880F88
:1001D000991F9C01220F331F220F331F820F931F81
:1001E000840F951FFC01E45BFD4F0188F289E02D2F
:1001F0008A2FAE010995DF91CF910895DA01482F3A
:1002000050E0CA01880F991F880F991F880F991F06
:100210009C01220F331F220F331F820F931F840F65
:10022000951FFC01E45BFD4F0588F689E02D845B9A
:100230009D4FAD0109950895282F30E0A901440F85
:10024000551F440F551F440F551FCA01880F991F92
:10025000880F991F840F951F820F931FFC01E45B89
:10026000FD4F0788F08DE02D835B9D4F0995089524
:10027000482F50E0FA01EE0FFF1FEE0FFF1FEE0FA9
:10028000FF1F9F01220F331F220F331F2E0F3F1F0F
:10029000240F351FD901A45BBD4F235B3D4F5996F9
:1002A000ED91FC915A97862FB90109950895FC01AB
:1002B00060FF02C081E0858F61FD158E64FF02C082
:1002C00081E0868F65FD168E74FF02C081E0878F06
:1002D00075FD178E80E090E00895482F50E0CA0128
:1002E000880F991F880F991F880F991F9C01220F53
:1002F000331F220F331F820F931F840F951F845BC0
:100300009D4F0E9457010895E82FF0E024E830E067
:10031000E29FC001E39F900DF29F900D1124462FA4
:1003200050E060E070E088539E4F0E94970480E0A8
:1003300090E00895089590E09C01220F331F220F52
:10034000331F220F331FA901440F551F440F551FA0
:10035000240F351F820F931F835B9D4F90932503BE
:1003600080932403089590E09C01220F331F220FF5
:10037000331F220F331FA901440F551F440F551F70
:10038000240F351F820F931F835B9D4F909327038C
:1003900080932603089590E09C01220F331F220FC3
:1003A000331F220F331FA901440F551F440F551F40
:1003B000240F351F820F931F835B9D4F909329035A
:1003C0008093280308950E946E040E94160380E023
:1003D00060E070E045E150E10E94DC0081E060E017
:1003E00070E041E150E10E94DC0080E00E949B014E
:1003F00080E00E94B30181E00E94CB01089581E07A
:100400000E941C01682F81E00E943801F8CF1092F1
:100410002303089581E08093230308959091A2021D
:1004200091509093A202992319F49FE39093A20212
:100430002091A2029091A102291749F0E091A20215
:10044000F0E0ED51FD4F808380E090E008958091D1
:10045000A2028F5F8093A202803418F081E0809323
:10046000A202DB011C96ED91FC911D9784E083A311
:100470008FEF9FEF08959091A00280919F029817AF
:1004800091F080919F02815080939F02882319F4FC
:100490008FE380939F02E0919F02F0E0E156FD4FD1
:1004A000848190E008958FEF9FEF08950F931F933D
:1004B000CF93DF93EC018CA1882341F481E08CA3DE
:1004C0001AA278A76FA359A348A31BA28E010F5F9E
:1004D0001F4F28A139A18AA190E0821793075CF0F1
:1004E0008FA198A5280F391FF901108282E08BA3F4
:1004F0008EE090E020C0C8010E943B028A3071F477
:100500008AA1EFA1F8A5E80FF11D10828F5F8AA3E1
:1005100082E08BA31CA280E090E00DC0833049F004
:100520009AA1EFA1F8A5E90FF11D80839F5F9AA31F
:10053000D0CF82E090E0DF91CF911F910F9108958D
:10054000EF92FF921F93CF93DF93FA01682F70E031
:100550009B01220F331F220F331F220F331FA901CC
:10056000440F551F440F551F240F351F260F371FEB
:100570000F2EFCE4EF2EF2E0FF2EF02DE20EF31E24
:10058000182F1150812F90E024E830E0829FA001C5
:10059000839F500D929F500D1124EA01C156DD4FEB
:1005A000D7015096DC93CE931F9784E8DE011D920D
:1005B0008A95E9F7C701BF010E94570181E089834D
:1005C00088838B838A83E4E6F0E080818B7F80835D
:1005D0002CB5812F90E0880F991FFC01EE0FFF1FB3
:1005E000EE0FFF1FEE0FFF1FE81BF90BE757FF4F42
:1005F000E4912E2B2CBD24B1812F90E0880F991F00
:10060000FC01EE0FFF1FEE0FFF1FEE0FFF1FE81B99
:10061000F90BE657FF4FE4912E2B24B9C701019641
:10062000DF91CF911F91FF90EF900895CF92DF92CD
:10063000EF92FF920F931F938DE790E0FC0165917D
:100640007491FC01329645915491FC0134962591A8
:100650003491FC01369605911491FC013896E59091
:10066000F490FC013A96C590D49081E00E949200EB
:100670001F910F91FF90EF90DF90CF9008951F9200
:100680000F920FB60F9211242F938F939F93EF9396
:10069000FF932EB59091A2028091A102981791F03C
:1006A0008091A10281508093A102882319F48FE3E5
:1006B0008093A102E091A102F0E0ED51FD4F808115
:1006C0008EBD02C083E08EBD8091A00281508093D8
:1006D000A002882319F48FE38093A0029091A002D6
:1006E00080919F02981741F08091A002EFE9F2E01B
:1006F000E80FF11D24830AC08091A0028F5F8093D0
:10070000A002803418F081E08093A002FF91EF9165
:100710009F918F912F910F900FBE0F901F90189562
:100720002091CB01215009F42FE3E1ECF0E090811E
:1007300090629083EAECF1E090819217E9F32093C4
:10074000CB01E091CB01F0E0E45FFD4F808380E0DE
:1007500090E008951F93CF93DF93FC01C485D58566
:10076000EF85F889918180819817A9F018C08D8D47
:10077000882361F083B7816083BF889583B78E7FBC
:1007800083BF91818081981791F309C081E08BA389
:100790008FEF9FEF2BC08D8D882361F7F7CF80817E
:1007A00081508083882311F48FE380838081E80F58
:1007B000F11D14818E8D882341F060912603709184
:1007C0002703E98DFA8D812F09951E3018F0812FAE
:1007D00090E00CC01D3011F01A3019F48F8D882371
:1007E00019F4812F90E002C08AE090E0DF91CF9170
:1007F0001F910895CF92DF92EF92FF920F931F9374
:10080000CF93DF93EC010F8518898CA1882341F4E5
:1008100081E08CA31AA278A76FA359A348A31BA2B7
:100820000F2EFFE3EF2EF02D0F2EF6E2CF2EF3E08A
:10083000DF2EF02DF80191818081981709F443C0D3
:10084000808181508083882309F4E082F8018081CF
:10085000E80FF11DF4808E8D882339F0F601608158
:100860007181E98DFA8D8F2D09954AA188A199A1F1
:10087000242F30E0281739075CF02FA138A5820F0C
:10088000931FFC01108282E08BA38EE090E01DC0DC
:10089000FDE0FF1619F08AE0F81669F4EFA1F8A55B
:1008A000E40FF11D10824F5F4AA382E08BA31CA2CC
:1008B00080E090E00AC0EFA1F8A5E40FF11DF082FE
:1008C0004F5F4AA3B7CF82E090E0DF91CF911F91B5
:1008D0000F91FF90EF90DF90CF900895CF92DF922D
:1008E000EF92FF920F931F938BE890E0FC016591CC
:1008F0007491FC01329645915491FC0134962591F6
:100900003491FC01369605911491FC013896E590DE
:10091000F490FC013A96C590D49080E00E94920039
:100920001F910F91FF90EF90DF90CF900895440FAB
:10093000551F661F771F440F551F661F771F9A01AB
:10094000AB01220F331F441F551F60E074E284EF98
:1009500090E00E94A905215030403093C5002093BB
:10096000C400E0ECF0E080818D7F80830895EF92F9
:10097000FF920F931F93CF93DF93082FBA01482F55
:1009800050E0CA01880F991F880F991F880F991F7F
:100990009C01220F331F220F331F820F931F840FDE
:1009A000951F0F2EFCE4EF2EF2E0FF2EF02DE80E47
:1009B000F91E84E890E0489F9001499F300D589FB0
:1009C000300D1124E901C853DE4FF701D08BC787E2
:1009D00084E8FE0111928A95E9F7C7010E94570148
:1009E00081E0898388838B838A83E4E6F0E08081D9
:1009F0008D7F8083802F90E0880F991FFC01EE0F80
:100A0000FF1FEE0FFF1FEE0FFF1FE80FF91FE55648
:100A1000FF4FE491E093C000802F90E0880F991F72
:100A2000FC01EE0FFF1FEE0FFF1FEE0FFF1FE80F81
:100A3000F91FE456FF4FE491E093C100802F90E04E
:100A4000880F991FFC01EE0FFF1FEE0FFF1FEE0F27
:100A5000FF1FE80FF91FE956FF4F059115912591EA
:100A60003491CE01402F512F622F732F0E94970493
:100A7000C7010196DF91CF911F910F91FF90EF90E9
:100A800008951F920F920FB60F9211248F939F9388
:100A9000EF93FF939091CB018091CA01981799F041
:100AA0008091CA0181508093CA01882319F48FE391
:100AB0008093CA01E091CA01F0E0E45FFD4F8081BC
:100AC0008093C60005C0E1ECF0E080818F7D8083DB
:100AD000FF91EF919F918F910F900FBE0F901F90FC
:100AE00018951F920F920FB60F9211242F938F9388
:100AF0009F93EF93FF932091C6008091C90181508D
:100B00008093C901882319F48FE38093C9019091E0
:100B1000C9018091C801981741F08091C901E8ECA2
:100B2000F1E0E80FF11D24830AC08091C9018F5FB5
:100B30008093C901803418F081E08093C901FF914E
:100B4000EF919F918F912F910F900FBE0F901F905B
:100B50001895A1E21A2EAA1BBB1BFD010DC0AA1FEE
:100B6000BB1FEE1FFF1FA217B307E407F50720F016
:100B7000A21BB30BE40BF50B661F771F881F991F91
:100B80001A9469F760957095809590959B01AC01DA
:100B9000BD01CF010895A0E0B0E0E1EDF5E00C94D7
:100BA0007C08FE01359661917191809126039091A8
:100BB0002703DC0113962C911397286013962C932E
:100BC000AF010E94EE05E0912603F09127032381F7
:100BD000277F23832096E2E00C949808ADE0B0E0F4
:100BE000E4EFF5E00C946C083C017D876C875A01BA
:100BF000FC0117821682838181FFC8C12E010894EF
:100C0000411C511CF3019381EC85FD8593FD859179
:100C100093FF8191FD87EC87882309F4B3C1853266
:100C200041F493FD859193FF8191FD87EC87853297
:100C300029F490E0B3010E94E207E4CFFF24EE2400
:100C400010E01032B0F48B3269F08C3228F480322C
:100C500051F0833271F40BC08D3239F0803349F496
:100C600011602CC01260146029C0186027C0106188
:100C700025C017FD2EC0282F20532A3098F416FFC8
:100C800008C08F2D880FF82EFF0CFF0CF80EF20E07
:100C900015C08E2D880FE82EEE0CEE0CE80EE20E3D
:100CA00010620CC08E3221F416FD6CC1106406C0B7
:100CB0008C3611F4106802C0883659F4EC85FD8535
:100CC00093FD859193FF8191FD87EC87882309F03F
:100CD000B8CF982F9554933018F09052933038F441
:100CE00024E030E0A20EB31E3FE339830FC0833609
:100CF00031F0833781F0833509F05AC022C0F50105
:100D00008081898322E030E0A20EB31E21E0C22E52
:100D1000D12C420114C092E0292E312C2A0C3B1C0C
:100D2000F5018080918016FF03C06F2D70E002C036
:100D30006FEF7FEFC4010E94D7076C0151011F774D
:100D400015C082E0282E312C2A0C3B1CF501808036
:100D5000918016FF03C06F2D70E002C06FEF7FEF30
:100D6000C4010E94CC076C011068510113FD1CC026
:100D700006C080E290E0B3010E94E207EA948E2D63
:100D800090E0C816D906A8F30FC0F40117FD8591AD
:100D900017FF81914F0190E0B3010E94E207E1103B
:100DA000EA940894C108D108C114D10471F7E7C0CE
:100DB000843611F0893651F5F50117FF07C080819F
:100DC0009181A281B38124E030E008C080819181CB
:100DD000AA2797FDA095BA2F22E030E0A20EB31EFD
:100DE000012F0F76B7FF08C0B095A095909581951B
:100DF0009F4FAF4FBF4F0068BC01CD01A2012AE059
:100E000030E00E940E08D82ED4183FC0853721F458
:100E10001F7E2AE030E020C0197F8F36A9F080378E
:100E200020F4883509F0AEC00BC0803721F0883738
:100E300009F0A8C001C0106114FF09C0146007C008
:100E400014FF08C0166006C028E030E005C020E1AD
:100E500030E002C020E132E0F50117FF07C06081F9
:100E600071818281938144E050E006C0608171818C
:100E700080E090E042E050E0A40EB51EA2010E9486
:100E80000E08D82ED418012F0F7706FF09C00E7F49
:100E9000DF1430F404FF06C002FD04C00F7E02C060
:100EA0001D2D01C01F2D802F90E004FF0CC0FE01FE
:100EB000ED0DF11D2081203311F4097E09C002FFE0
:100EC00006C01E5F05C086789070009709F01F5F0E
:100ED000802E992403FD12C000FF0DC0FD2C1E15AD
:100EE00050F4FE0CF11A1E2D06C080E290E0B30112
:100EF0000E94E2071F5F1E15C0F304C01E1510F408
:100F0000E11A01C0EE2484FE0FC080E390E0B3013B
:100F10000E94E20782FE1FC081FE03C088E590E0C8
:100F200010C088E790E00DC0C401867890700097EB
:100F300091F081FC02C080E201C08BE207FD8DE2EE
:100F400090E0B3010E94E20706C080E390E0B301A5
:100F50000E94E207FA94DF14C0F3DA94F201ED0D77
:100F6000F11D808190E0B3010E94E207DD20A9F726
:100F700006C080E290E0B3010E94E207EA94EE200E
:100F8000C1F740CEF3018681978102C08FEF9FEFBA
:100F90002D96E2E10C948808FC01059061507040A8
:100FA0000110D8F7809590958E0F9F1F0895FC0132
:100FB0006150704001900110D8F7809590958E0F88
:100FC0009F1F08950F931F93CF93DF938C01EB0125
:100FD0008B8181FF1BC082FF0DC02E813F818C81E0
:100FE0009D812817390764F4E881F9810193F98319
:100FF000E88306C0E885F985802F0995009731F4CC
:101000008E819F8101969F838E8302C00FEF1FEF19
:10101000C801DF91CF911F910F910895FA01AA277E
:10102000283051F1203181F1E8946F936E7F6E5F2B
:101030007F4F8F4F9F4FAF4FB1E03ED0B4E03CD0D9
:10104000670F781F891F9A1FA11D680F791F8A1FBC
:10105000911DA11D6A0F711D811D911DA11D20D023
:1010600009F468943F912AE0269F11243019305DDD
:101070003193DEF6CF010895462F4770405D4193CE
:10108000B3E00FD0C9F7F6CF462F4F70405D4A331B
:1010900018F0495D31FD4052419302D0A9F7EACFE3
:1010A000B4E0A6959795879577956795BA95C9F712
:1010B00000976105710508959B01AC010A2E069405
:1010C0005795479537952795BA95C9F7620F731FBE
:1010D000841F951FA01D08952F923F924F925F92FB
:1010E0006F927F928F929F92AF92BF92CF92DF9238
:1010F000EF92FF920F931F93CF93DF93CDB7DEB79D
:10110000CA1BDB0B0FB6F894DEBF0FBECDBF099430
:101110002A88398848885F846E847D848C849B8487
:10112000AA84B984C884DF80EE80FD800C811B8195
:10113000AA81B981CE0FD11D0FB6F894DEBF0FBEC4
:0A114000CDBFED010895F894FFCF34
:00000001FF
