:100000000C9496000C94B3000C94B3000C94B300C1
:100010000C94B3000C94B3000C94B3000C94B30094
:100020000C94B3000C94B3000C94B3000C94B30084
:100030000C94B3000C94B3000C9453080C94B300CC
:100040000C94B3000C94D3000C9473030C943B03F6
:100050000C94B3000C94B3000C94B3000C94B30054
:100060000C94B3000C94B3000A4465766963652070
:10007000496E697469616C697A65640A0054656DDA
:10008000703A00202050574D3A00202053746444A9
:1000900065763A0020204572723A002020493A00E5
:1000A000AA00AF00BA00C4000A0020204F4B002075
:1000B0002053687574646F776E0020204865617402
:1000C000696E67002020524547554C415445440015
:1000D0004865617465722053656E736F7220457256
:1000E000726F722053687574646F776E0A0048658A
:1000F0006174657220416D6269656E74204572722B
:100100006F722053687574646F776E0A004865617A
:100110007465722054696D656F7574204572726FD5
:10012000722053687574646F776E0A0011241FBEC5
:10013000CFEFD8E0DEBFCDBF11E0A0E0B1E0E4EA50
:10014000FBE102C005900D92A030B107D9F714E091
:10015000A0E0B1E001C01D92A330B107E1F70E9419
:100160003A0A0C94D00D0C9400000E94BA00089535
:1001700083E00895249880EC8CBD8CE08CBD80E1F8
:10018000E8E0F1E0DF011D928A95E9F78AE08093CB
:100190000B0184E08093100181E080931201809331
:1001A00014011EBC08951F920F920FB60F921124D6
:1001B0002F933F934F935F936F937F938F939F936F
:1001C000AF93BF93EF93FF9380910001882329F5AC
:1001D00081E0809300018EB5809301019091080128
:1001E000913019F48AE58EBD40C0803138F4E7E0E3
:1001F000F1E0E80FF11D81818EBD37C062E071E052
:100200000E94580A80930901882321F480910201F9
:100210008EBD2BC085EA8EBD28C0109200016EB540
:1002200060930201809108018130F9F4809101010D
:100230008031B8F4882319F4609308010FC084302A
:1002400021F460930C0180E009C0853031F40E94F4
:10025000BA000E94570A80E001C089E18093090139
:1002600004C00E94660A80930901FF91EF91BF913B
:10027000AF919F918F917F916F915F914F913F913E
:100280002F910F900FBE0F901F901895CF93DF9373
:10029000EC018881882331F021960E942503899101
:1002A0008823D9F7DF91CF910895CF93DF93EC01A5
:1002B000FC018491882341F021960E942503FE01D0
:1002C000219684918823C9F7DF91CF910895EF9209
:1002D000FF920F931F93CF93DF93CDB7DEB728978D
:1002E0000FB6F894DEBF0FBECDBFFE0131967F0181
:1002F0009E01275F3F4F982F917091938695E2174B
:10030000F307C9F78E01075F1F4FF80182918F0134
:10031000805D0E9425030E151F05B9F728960FB6BC
:10032000F894DEBF0FBECDBFDF91CF911F910F912B
:10033000FF90EF9008958F929F92AF92BF92EF92AD
:10034000FF921F93CF93DF93CDB7DEB72A970FB6F7
:10035000F894DEBF0FBECDBFDC01CB010097A10535
:10036000B10521F480E30E9425032EC010E00F2E7A
:10037000FAE08F2EF0E09F2EF0E0AF2EF0E0BF2EDF
:10038000F02DEE24FF24E394EC0EFD1EE10EF11C93
:10039000BC01CD01A50194010E94930D605DF701A0
:1003A00060831F5F822F932FA42FB52F0097A10585
:1003B000B10539F7112341F0FE01E10FF11D8081F4
:1003C0000E9425031150C1F72A960FB6F894DEBF9C
:1003D0000FBECDBFDF91CF911F91FF90EF90BF90E7
:1003E000AF909F908F9008954F925F926F927F92FF
:1003F0008F929F92AF92BF92CF92DF92EF92FF9235
:100400000F931F93CF93DF93CDB7DEB72A970FB625
:10041000F894DEBF0FBECDBF6B017C0120E030E061
:10042000A9010E94830B88233CF48DE20E942503DE
:10043000F7FAF094F7F8F094C701B60120E030E045
:1004400048EC52E40E94D60C462F572F682F792F84
:10045000CB01BA0120E030E040E05FE30E941F0BD7
:100460000E94EF0B862E972EA82EB92E8EE28B833C
:1004700081149104A104B10431F410E02CC01230B5
:1004800071F4102F0CC010E00F2EFAE04F2EF0E0A8
:100490005F2EF0E06F2EF0E07F2EF02D03E0CC24F5
:1004A000DD24C394CC0EDD1EC10ED11CC501B401E8
:1004B000A30192010E94930D605DF60160831F5FAE
:1004C000822E932EA42EB52E81149104A104B10482
:1004D000B1F6123058F480E3E1E0F0E0EC0FFD1FDC
:1004E000E10FF11D80831F5F1230B0F3123021F451
:1004F00080E38C8314E002C0112341F0FE01E10F80
:10050000F11D80810E9425031150C1F72A960FB674
:10051000F894DEBF0FBECDBFDF91CF911F910F9139
:10052000FF90EF90DF90CF90BF90AF909F908F9013
:100530007F906F905F904F90089588E690E00E94C2
:10054000550108958DE790E00E94550160916C017E
:1005500070916D0180916E0190916F010E94F40184
:1005600083E890E00E945501609140017091410143
:1005700080914201909143010E94F4018AE890E049
:100580000E9455016091700170917101809172011A
:10059000909173010E94F40184E990E00E9455015A
:1005A00060914C0170914D0180914E0190914F01ED
:1005B0000E94F4018BE990E00E9455016091540182
:1005C0007091550180915601909157010E94F4015C
:1005D000E0911801F0E0EE0FFF1FE056FF4F85910C
:1005E00094910E94550188EA90E00E945501089577
:1005F000DC01CB01880F991FAA1FBB1F880F991F11
:10060000AA1FBB1F9C01AD01220F331F441F551FA2
:1006100060E072E18AE790E00E94B50D2150304021
:100620003093C5002093C400E0ECF0E080818D7F22
:100630008083E1ECF0E0808180618083808188604C
:1006400080838081806880830895209104012F5FDA
:10065000E1ECF0E090819062908390910301291782
:10066000E1F390910401E2E0F3E0E90FF11D8083F2
:100670002093040108951F920F920FB60F92112438
:100680008F939F93EF93FF9380910301E2E0F3E058
:10069000E80FF11D90819093C6008F5F8093030156
:1006A00090910401891729F4E1ECF0E080818F7DBD
:1006B0008083FF91EF919F918F910F900FBE0F90CC
:1006C0001F9018959091050180910601891749F0B6
:1006D000E2E0F2E0E90FF11D80819F5F9093050158
:1006E00008958FEF08951F920F920FB60F92112465
:1006F0002F933F938F939F93EF93FF933091C60077
:1007000090910601892F8F5F20910501821739F0A2
:10071000E2E0F2E0E90FF11D308380930601FF91E2
:10072000EF919F918F913F912F910F900FBE0F905E
:100730001F901895809106018093050108958AE223
:10074000EEE3F1E0DF011D928A95E9F780E090E0A9
:10075000A0EAB0E480935C0190935D01A0935E01F8
:10076000B0935F018DEC9CECACECBDE38093600139
:1007700090936101A0936201B093630180E090E0E7
:10078000A0E0BFE38093640190936501A0936601AC
:10079000B093670180E090E0A8ECB2E4809344015C
:1007A00090934501A0934601B093470181E0809367
:1007B0003E01089580E090E0DC0180934001909339
:1007C0004101A0934201B093430140E050E068E44E
:1007D00073E4409354015093550160935601709314
:1007E00057018093500190935101A0935201B0930F
:1007F000530108958F929F92AF92BF92CF92DF9252
:10080000EF92FF921F93CF93DF93E0913E01EE238F
:1008100049F4709148016091490190914A01809199
:100820004B0112C10E941E0BC62ED72EE82EF92EA8
:10083000462F572F682F792F40934C0150934D012D
:1008400060934E0170934F01C701B6019F772DEC65
:100850003CEC4CEC5DE30E94D20C181694F56091D0
:10086000400170914101809142019091430120919A
:1008700044013091450140914601509147010E9449
:10088000830B8823F4F4C701B6012DEC3CEC4CEC4F
:100890005DE30E94D60C9B01AC0160915401709104
:1008A000550180915601909157010E941F0BDC0168
:1008B000CB018093540190935501A0935601B093BE
:1008C0005701C0904C01D0904D01E0904E01F09046
:1008D0004F01C701B6012091500130915101409163
:1008E0005201509153010E941E0B2DEC3CEC4CEC3C
:1008F0005DE30E94870BC62FD72F182F892E862FD6
:100900009D2FA12FB82D8093580190935901A0934A
:100910005A01B0935B01C701B60120915C0130918F
:100920005D0140915E0150915F010E94D60C6B0108
:100930007C016091600170916101809162019091F0
:10094000630120915401309155014091560150911D
:1009500057010E94D60C9B01AC01C701B6010E9451
:100960001F0B6B017C018C2F9D2FA12FB82DBC017B
:10097000CD01209164013091650140916601509153
:1009800067010E94D60C9B01AC01C701B6010E9411
:100990001F0B162FD72FC82FC92E862F9D2FAC2F98
:1009A000BC2D8093400190934101A0934201B093EC
:1009B00043018090440190904501A0904601B09081
:1009C0004701BC01CD01A50194010E94D20C18166B
:1009D0004CF48092400190924101A0924201B09269
:1009E00043011CC08090480190904901A0904A01A9
:1009F000B0904B01812F9D2FAC2FBC2DBC01CD01A0
:100A0000A50194010E94830B882344F48092400145
:100A100090924101A0924201B092430180914C0119
:100A200090914D01A0914E01B0914F0180935001E2
:100A300090935101A0935201B0935301E0E4F1E08F
:100A40007081618192818381392F282F872F962F82
:100A5000A32FB22FBC01CD01DF91CF911F91FF9049
:100A6000EF90DF90CF90BF90AF909F908F900895C0
:100A700080E7E8E6F1E0DF011D928A95E9F783E37C
:100A800093E9A8E8B3EC80936C0190936D01A09377
:100A90006E01B0936F018DEC9CECACE8BFE38093EA
:100AA000740190937501A0937601B093770180E073
:100AB00090E0A0EAB1E48093780190937901A0934B
:100AC0007A01B0937B0180E090E0A8ECB3E48093DE
:100AD0007C0190937D01A0937E01B0937F0180E023
:100AE00090E0A0E0B0EC8093800190938101A0930E
:100AF0008201B0938301089586E2E8E1F1E0DF012D
:100B00001D928A95E9F780E090E0A0E4B0E480933C
:100B1000260190932701A0932801B093290180E03A
:100B200090E0A4EBB2E480932E0190932F01A09368
:100B30003001B093310180E090E0A6E9B3E4809306
:100B4000320190933301A0933401B093350140E01A
:100B500050E060E272E440933601509337016093B5
:100B600038017093390180933A0190933B01A0932F
:100B70003C01B0933D0185E080931C010E94380543
:100B80000E949F03089581E0809368010895109268
:100B90006801089510926A0181E0809369010895C7
:100BA000809168010895809169010895809168019C
:100BB000833049F470916C0160916D0190916E01E8
:100BC00080916F0104C070E060E099E883EC392FF8
:100BD000282F872F962FA32FB22FBC01CD01089568
:100BE000982F9064ECE7F0E0908396E890937A0079
:100BF0009081907F90839081908321E030E0A901E3
:100C000002C0440F551F8A95E2F740937E00089575
:100C1000EAE7F0E0A8E7B0E080818064808380812B
:100C20008081806180838D919C9111970097A1F3C1
:100C3000809178009091790008952F923F924F9281
:100C40005F926F927F928F929F92AF92BF92CF925C
:100C5000DF92EF92FF920F931F93CF93DF93CDB765
:100C6000DEB729970FB6F894DEBF0FBECDBF8091D7
:100C70006801882309F4FFC080916901813009F07F
:100C8000FAC000916A0110E00E940806000F111FCF
:100C9000000F111F0C571E4FBC0180E090E00E9416
:100CA000200C26E03FEA4AEF5EE30E94D60C23EDDB
:100CB00031EB46ED5EE30E941E0BDC01CB01F80137
:100CC00080839183A283B38380916A018F5F809335
:100CD0006A01843108F4CFC084E891E064E1AE0198
:100CE0004F5F5F4F0E94720A6B017C01609370013D
:100CF0007093710180937201909373012091780138
:100D00003091790140917A0150917B010E94D20C7F
:100D1000181634F482E08093680180936901ABC0B7
:100D200010926B0180E090E0DC0180936C01909365
:100D30006D01A0936E01B0936F0129803A804B80C2
:100D40005C80C701B601209174013091750140911A
:100D50007601509177010E94D60C6E837F8388873D
:100D600099871D820F2EF4E8AF2EF1E0BF2EF02DF3
:100D70009924882477246624F501C190D190E190CC
:100D8000F1905F01C701B601A20191010E941E0B03
:100D90009F77FE81EF81588549850F2F1E2F252FC4
:100DA000342FA90198010E94830B88238CF4892D8C
:100DB000982DA72DB62DBC01CD01A70196010E944B
:100DC0001F0B962E872E782E692EFD81FF5FFD83E7
:100DD00024EDA21621E0B20679F68D8180936B0195
:100DE000682F70E080E090E00E94220C9B01AC0133
:100DF000892D982DA72DB62DBC01CD010E94870B02
:100E0000C62E072FA82E992E862F902FAA2DB92DEA
:100E100080936C0190936D01A0936E01B0936F016C
:100E2000E8E6F1E083E0808311828C2DBC01CD01E6
:100E300020E030E048EC53E40E94D20C18163CF459
:100E400082E08093680183E08093690114C08C2D57
:100E5000902FAA2DB92DBC01CD0120E030E040E05B
:100E600050EC0E94830B882334F482E08093680165
:100E700084E08093690129960FB6F894DEBF0FBE17
:100E8000CDBFDF91CF911F910F91FF90EF90DF9039
:100E9000CF90BF90AF909F908F907F906F905F901A
:100EA0004F903F902F900895E0EBF0E080EF80832B
:100EB000808183608083E1EBF0E088E08083808143
:100EC0008460808310926F001092B3001092B4007F
:100ED00080E090E0DC018093DC019093DD01A09341
:100EE000DE01B093DF0108950F931F93CF93DF933B
:100EF0009B01AC0160E074E284EF97E40E94870BF1
:100F0000062F172FD82FC92F862F912FAD2FBC2F2B
:100F10008093DC019093DD01A093DE01B093DF01AB
:100F2000BC01CD0120E030E040EA51E40E94830B97
:100F3000882324F484E18093B3001CC0802F912F78
:100F4000AD2FBC2FBC01CD0120E030E04FE753E4D2
:100F50000E94D20C882324F08FEF8093B3000AC044
:100F6000802F912FAD2FBC2FBC01CD010E94F40B1F
:100F70006093B30080E0DF91CF911F910F910895AE
:100F80008F929F92AF92BF92CF92DF92EF92FF9299
:100F90006B017C012AE037ED43E25CE30E94830BA6
:100FA000882324F48FEF8093B40030C0C701B601CA
:100FB0002DEC3CEC47EC52E40E94D20C18161CF4C9
:100FC0001092B40023C06091B30070E080E090E024
:100FD0000E94220C4B015C01C701B60120E030E009
:100FE00048EC52E40E94870B9B01AC0160E070E08A
:100FF00080E89FE30E941E0B9B01AC01C501B40178
:101000000E94D60C0E94F40B6093B4006091DC0146
:101010007091DD018091DE019091DF010E94F40B5F
:101020006093B30080E0FF90EF90DF90CF90BF908F
:10103000AF909F908F9008958F929F92AF92BF92A2
:10104000CF92DF92EF92FF926B017C0149015A012E
:101050000E945407C701B6010E947407C501B4017C
:101060000E94C007FF90EF90DF90CF90BF90AF90AD
:101070009F908F90089560E070E0CB019B01AC01E0
:101080000E941C08089582E084BD93E095BD9DE711
:1010900097BD80936E008AE08093D9018093DA0136
:1010A0008093DB0108951F920F920FB60F921124C7
:1010B0008F9381E08093D8018F910F900FBE0F9096
:1010C0001F9018950E941D060895089508955A9836
:1010D00008955A9A0895CF93DF93D82FC62F0E9470
:1010E0003B080E94C705D0931801C09319010E94C4
:1010F0006908DF91CF910895CF92DF92EF92FF922E
:101100006B017C01809118018250823058F10E945D
:10111000C3050E94CA050E94DA0360E070E08AE716
:1011200094E420E030E0A9010E941C08C092220152
:10113000D0922301E0922401F092250110921B012C
:1011400010921D0180E090E0DC0180932A019093D1
:101150002B01A0932C01B0932D0182E08093180104
:101160000E946908FF90EF90DF90CF90089580E192
:1011700084B917B88CE08AB980E00E94F0050E941B
:1011800054070E9443080E94690808958BB1882380
:1011900019F00E94670808950E9469080895CF9287
:1011A000DF92EF92FF920F931F93CF93DF93809183
:1011B0001801823008F420C10E94A2020E94D605C4
:1011C00060931E0170931F01809320019093210171
:1011D00020913A0130913B0140913C0150913D01F9
:1011E0000E94D20C18162CF481E063E00E946B0878
:1011F00003C10E94CA05C0901E01D0901F01E0905B
:101200002001F0902101C701B60123E333E948E84A
:1012100053EC0E94830B88239CF480911D018F5F07
:1012200080931D0190911C01981708F0E5C081E0A2
:1012300064E00E946B0880ED90E00E945501DCC0E4
:1012400010921D016091220170912301809124016F
:1012500090912501A70196010E94FA030E94C00700
:1012600080911801823009F078C060912A01709154
:101270002B0180912C0190912D012DEC3CEC4CEC3C
:101280005DE30E941F0BD62FC72F182F092F862F23
:101290009C2FA12FB02F80932A0190932B01A09314
:1012A0002C01B0932D01C0901E01D0901F01E09041
:1012B0002001F0902101C701B60120913601309143
:1012C000370140913801509139010E94830B8823E6
:1012D000DCF48D2F9C2FA12FB02FBC01CD012091CC
:1012E0002E0130912F0140913001509131010E9427
:1012F000D20C18164CF481E061E00E946B088EEE6F
:1013000090E00E94550178C0C701B60120912201EA
:101310003091230140912401509125010E94830BBB
:101320008823DCF48D2F9C2FA12FB02FBC01CD0181
:1013300020913201309133014091340150913501B7
:101340000E94D20C18164CF481E062E00E946B08F7
:101350008DE091E00E9455014FC080914C01909129
:101360004D01A0914E01B0914F01BC01CD019F777D
:1013700020912601309127014091280150912901A7
:101380000E94830B181674F080911B018F5F80936D
:101390001B018B30FCF08AE080931B0183E080937B
:1013A00018011CC080911B01815080931B011816ED
:1013B0008CF010921B0180E090E0DC0180932A0108
:1013C00090932B01A0932C01B0932D0182E0809388
:1013D000180107C080911801833019F40E94670832
:1013E0000BC080911A018F5F80931A01843020F026
:1013F00010921A010E94C608DF91CF911F910F91A0
:10140000FF90EF90DF90CF9008950E94CF0808954D
:101410008091D801882331F11092D8010E9462088E
:101420008091D90181508093D9018823E9F48AE021
:101430008093D9018091DA0181508093DA01882369
:10144000A9F48AE08093DA010E94050A8091DB0109
:1014500081508093DB01882359F48AE08093DB017B
:1014600080E0089583E0089580E0089580E0089585
:1014700080E00895F8940E94B5000E94B70860E8E3
:1014800075E280E090E00E94F8020E947C0578946A
:1014900060E070E080E293E40E947C080E949D027C
:1014A0000E94B8008230E1F30E94080AF9CF089543
:1014B00080518A3048F4E8EDF1E0E80FF11D8085B5
:1014C000FB01808380E0089588E1089580518A308F
:1014D00038F4E8EDF1E0E80FF11D608780E0089551
:1014E00088E108952F923F924F925F926F927F9280
:1014F0008F929F92AF92BF92CF92DF92EF92FF9224
:101500000F931F93CF93DF93662E1A01662309F47E
:1015100076C0482E592EC0E0AA2499248824772426
:10152000D0E010E000E0BB24F201C190D190E19046
:10153000F1902F018D2F912FA02FBB2DBC01CD013C
:10154000A70196010E941F0BD62F172F082FB92E27
:10155000C701B6010E947B0D9B01AC018A2D992D1C
:10156000A82DB72DBC01CD010E941F0BA62E972ED2
:10157000882E792ECF5FC615B9F6662D70E080E013
:1015800090E00E94220C6B017C018D2F912FA02FE7
:10159000BB2DBC01CD01A70196010E94870BC62F70
:1015A000D72F182F092F862F9D2FA12FB02FF10194
:1015B00080839183A283B3838A2D992DA82DB72D83
:1015C000BC01CD01A70196010E94870BB62EC72E44
:1015D000A82E992E8C2F9D2FA12FB02FBC01CD01AD
:1015E0000E947B0D9B01AC018B2D9C2DAA2DB92D4A
:1015F000BC01CD010E941E0B0E943D0D04C060E0A5
:1016000070E080E090E0382F292F862F972FA32FAE
:10161000B22FBC01CD01DF91CF911F910F91FF90AF
:10162000EF90DF90CF90BF90AF909F908F907F9082
:101630006F905F904F903F902F9008955058BB2728
:10164000AA270ED075C166D130F06BD120F031F4ED
:101650009F3F11F41EF45BC10EF4E095E7FB51C10E
:10166000E92F77D180F3BA176207730784079507CC
:1016700018F071F49EF58FC10EF4E0950B2EBA2F81
:10168000A02D0B01B90190010C01CA01A001112488
:10169000FF27591B99F0593F50F4503E68F11A1634
:1016A000F040A22F232F342F4427585FF3CF4695C5
:1016B00037952795A795F0405395C9F77EF41F16E7
:1016C000BA0B620B730B840BBAF09150A1F0FF0FB1
:1016D000BB1F661F771F881FC2F70EC0BA0F621F9D
:1016E000731F841F48F4879577956795B795F7958D
:1016F0009E3F08F0B3CF9395880F08F09927EE0F1F
:10170000979587950895D9D008F481E008950CD075
:101710000FC107D140F0FED030F021F45F3F19F047
:10172000F0C0511139C1F3C014D198F39923C9F312
:101730005523B1F3951B550BBB27AA2762177307D7
:10174000840738F09F5F5F4F220F331F441FAA1F8B
:10175000A9F333D00E2E3AF0E0E830D0915050404B
:10176000E695001CCAF729D0FE2F27D0660F771FF9
:10177000881FBB1F261737074807AB07B0E809F0DB
:10178000BB0B802DBF01FF2793585F4F2AF09E3F70
:10179000510568F0B6C000C15F3FECF3983EDCF342
:1017A000869577956795B795F7959F5FC9F7880FE9
:1017B000911D9695879597F90895E1E0660F771F3B
:1017C000881FBB1F621773078407BA0720F0621BCC
:1017D000730B840BBA0BEE1F88F7E095089504D0C5
:1017E0006894B111D9C00895BCD088F09F5790F08B
:1017F000B92F9927B751A0F0D1F0660F771F881F36
:10180000991F1AF0BA95C9F712C0B13081F0C3D050
:10181000B1E00895C0C0672F782F8827B85F39F0EE
:10182000B93FCCF3869577956795B395D9F73EF494
:1018300090958095709561957F4F8F4F9F4F08953C
:10184000E89409C097FB3EF490958095709561955A
:101850007F4F8F4F9F4F9923A9F0F92F96E9BB2710
:101860009395F695879577956795B795F111F8CF8C
:10187000FAF4BB0F11F460FF1BC06F5F7F4F8F4FF7
:101880009F4F16C0882311F096E911C0772321F0ED
:101890009EE8872F762F05C0662371F096E8862F85
:1018A00070E060E02AF09A95660F771F881FDAF7DC
:1018B000880F9695879597F90895990F0008550F09
:1018C000AA0BE0E8FEEF16161706E807F907C0F0C6
:1018D00012161306E407F50798F0621B730B840BCE
:1018E000950B39F40A2661F0232B242B252B21F4A8
:1018F00008950A2609F4A140A6958FEF811D811D48
:10190000089597F99F6780E870E060E008959FEF81
:1019100080EC089500240A94161617061806090686
:10192000089500240A941216130614060506089555
:10193000092E0394000C11F4882352F0BB0F40F4DD
:10194000BF2B11F460FF04C06F5F7F4F8F4F9F4F1D
:10195000089557FD9058440F551F59F05F3F71F09F
:101960004795880F97FB991F61F09F3F79F0879506
:101970000895121613061406551FF2CF4695F1DF8F
:1019800008C0161617061806991FF1CF869571051F
:10199000610508940895E894BB2766277727CB0153
:1019A00097F908958ADF08F48FEF08950BD0C0CF20
:1019B000B1DF28F0B6DF18F0952309F0A2CFA7CF4A
:1019C0001124EACFC6DFA0F3959FD1F3950F50E025
:1019D000551F629FF001729FBB27F00DB11D639FE1
:1019E000AA27F00DB11DAA1F649F6627B00DA11D87
:1019F000661F829F2227B00DA11D621F739FB00D2D
:101A0000A11D621F839FA00D611D221F749F33279C
:101A1000A00D611D231F849F600D211D822F762F35
:101A20006A2F11249F5750408AF0E1F088234AF032
:101A3000EE0FFF1FBB1F661F771F881F915050407E
:101A4000A9F79E3F510570F05CCFA6CF5F3FECF346
:101A5000983EDCF3869577956795B795F795E7956A
:101A60009F5FC1F7FE2B880F911D9695879597F97B
:101A7000089511F40EF44BCF41C073DFD0F39923D6
:101A8000D9F3CEF39F57550B87FF46D00024A0E62D
:101A900040EA900180585695979528F4805C660F2F
:101AA000771F881F20F026173707480730F4621B7E
:101AB000730B840B202931294A2BA6951794079480
:101AC000202531254A2758F7660F771F881F20F0F9
:101AD00026173707480730F4620B730B840B200D71
:101AE000311D411DA09581F7B901842F9158880FB0
:101AF0009695879508959B01AC0158CF9F3F31F093
:101B0000915020F4879577956795B795880F911D2B
:101B10009695879597F9089591505040660F771FD5
:101B2000881FD2F70895A1E21A2EAA1BBB1BFD0144
:101B30000DC0AA1FBB1FEE1FFF1FA217B307E407AC
:101B4000F50720F0A21BB30BE40BF50B661F771F04
:101B5000881F991F1A9469F76095709580959095E4
:101B60009B01AC01BD01CF01089597FB092E05260D
:101B70000ED057FD04D0D7DF0AD0001C38F45095A2
:101B80004095309521953F4F4F4F5F4F0895F6F7A1
:101B900090958095709561957F4F8F4F9F4F0895D9
:041BA000F894FFCFE7
:00000001FF
