:100000000C94A7000C94C4000C94C4000C94C4007D
:100010000C94C4000C94C4000C94C4000C94C40050
:100020000C94C4000C94C4000C94C4000C94C40040
:100030000C94C4000C94C4000C94AC070C94C40041
:100040000C94C4000C94700A0C946D0B0C943B0B34
:100050000C94C4000C94C4000C94C4000C94C40010
:100060000C94C4000C94C4004865617465722053FC
:10007000656E736F72204572726F7220536875746B
:10008000646F776E0A0048656174657220416D6225
:1000900069656E74204572726F722053687574645E
:1000A0006F776E0A004865617465722054696D65EA
:1000B0006F7574204572726F722053687574646F27
:1000C000776E0A000A44657669636520496E697433
:1000D00069616C697A65642025312E30660A0054A6
:1000E000656D703A25312E336620200050574D3A09
:1000F00025312E33662020005374644465763A25FA
:10010000312E33662020004572723A25312E336637
:10011000202000493A25312E336620200027012C6B
:1001200001370141010A0020204F4B002020536875
:100130007574646F776E00202048656174696E671E
:10014000002020524547554C41544544000011249D
:100150001FBECFEFD8E0DEBFCDBF12E0A0E0B1E020
:10016000EAE3F2E202C005900D92AC32B107D9F792
:1001700013E0ACE2B2E001C01D92A234B107E1F796
:100180000E94970B0C941B110C940000CF93DF93EB
:1001900000D0CDB7DEB76A8389830E948F070E94A3
:1001A0000C05898180932C026A8160932D020E9444
:1001B000F2070F900F90DF91CF9108958AE2E2E568
:1001C000F2E0DF011D928A95E9F780E090E0A0EA75
:1001D000B0E48093700290937102A0937202B09386
:1001E00073028DEC9CECACECBDE3809374029093B5
:1001F0007502A0937602B093770280E090E0A0E0D1
:10020000BFE38093780290937902A0937A02B0932F
:100210007B0280E090E0A8ECB2E4809358029093D7
:100220005902A0935A02B0935B0281E0809352027C
:10023000089586E2ECE2F2E0DF011D928A95E9F78B
:1002400080E090E0A0E4B0E480933A0290933B0217
:10025000A0933C02B0933D0280E090E0A4EBB2E4B6
:100260008093420290934302A0934402B0934502CC
:1002700080E090E0A6E9B3E48093460290934702C1
:10028000A0934802B093490240E050E060E272E47B
:1002900040934A0250934B0260934C0270934D027C
:1002A00080934E0290934F02A0935002B09351025C
:1002B00085E0809330020E94C4040E94DE0008950D
:1002C00080E090E0DC018093540290935502A0936B
:1002D0005602B093570240E050E068E473E4409364
:1002E00068025093690260936A0270936B02809374
:1002F000640290936502A0936602B093670208952A
:10030000CF92DF92EF92FF926B017C0180912C02E1
:100310008250823058F10E9408050E940F050E9409
:10032000600160E070E08AE794E420E030E0A90139
:100330000E947007C0923602D0923702E0923802D3
:10034000F092390210922F021092310280E090E078
:10035000DC0180933E0290933F02A0934002B09351
:10036000410282E080932C020E94F207FF90EF90FE
:10037000DF90CF9008958F929F92AF92BF92CF92CD
:10038000DF92EF92FF920F931F93CF93DF93E09151
:100390005202EE2349F470915C0260915D029091EB
:1003A0005E0280915F0204C10E94B10B8B01D82FC5
:1003B000C92F4B01A82EB92ECB01AD2FBC2F809396
:1003C000600290936102A0936202B0936302C50140
:1003D000B4019F772DEC3CEC4CEC5DE30E94600D8A
:1003E0001816ACF560915402709155028091560236
:1003F00090915702209158023091590240915A022F
:1004000050915B020E94160C87FF21C0C801AD2FDE
:10041000BC2FBC01CD012DEC3CEC4CEC5DE30E940B
:10042000640D9B01AC01609168027091690280913A
:100430006A0290916B020E94B20BDC01CB018093A7
:10044000680290936902A0936A02B0936B02C5019F
:10045000B40120916402309165024091660250918E
:1004600067020E94B10B2DEC3CEC4CEC5DE30E946A
:100470001A0CD62FC72F182F092FAE019801852FE0
:10048000942FA32FB22F80936C0290936D02A093B0
:100490006E02B0936F02C501B401209170023091D9
:1004A000710240917202509173020E94640D6B01BF
:1004B0007C01609174027091750280917602909136
:1004C0007702209168023091690240916A0250914E
:1004D0006B020E94640D9B01AC01C701B6010E9432
:1004E000B20B6B017C01AE019801852F942FA32FD5
:1004F000B22FBC01CD012091780230917902409158
:100500007A0250917B020E94640D9B01AC01C701ED
:10051000B6010E94B20BEB01182F092F9801862F0C
:100520009D2FA32FB22F8093540290935502A09336
:100530005602B0935702C0905802D0905902E090F2
:100540005A02F0905B02BC01CD01A70196010E9406
:10055000600D1816ACF0C0905C02D0905D02E09087
:100560005E02F0905F0298018C2F9D2FA32FB22F77
:10057000BC01CD01A70196010E94160C87FF08C09F
:10058000C0925402D0925502E0925602F092570265
:100590008092640290926502A0926602B092670215
:1005A00070915402609155029091560280915702C9
:1005B000AB019C01852F962FA32FB22FBC01CD013B
:1005C000DF91CF911F910F91FF90EF90DF90CF902F
:1005D000BF90AF909F908F9008958F929F92AF920F
:1005E000BF92CF92DF92EF92FF921F93CF93DF9350
:1005F00080912C02823008F422C10E943F040E94A4
:100600001B056093320270933302809334029093FF
:10061000350220914E0230914F024091500250918C
:1006200051020E94600D18162CF481E063E00E94D4
:10063000C60005C10E940F05C0903202D09033025F
:10064000E0903402F0903502C701B60123E333E9AC
:1006500048E853EC0E94160C87FF12C080913102CB
:100660008F5F8093310290913002981708F0E7C0B5
:1006700081E064E00E94C60000D088E690E062C09D
:1006800010923102609136027091370280913802E7
:1006900090913902A70196010E94BB010E941407A4
:1006A00080912C02823009F07EC060913E027091F0
:1006B0003F0280914002909141022DEC3CEC4CECC9
:1006C0005DE30E94B20B162FD72FC82FC92E862F9D
:1006D0009D2FAC2FBC2D80933E0290933F02A093A0
:1006E0004002B09341028090320290903302A09079
:1006F0003402B0903502C501B40120914A02309114
:100700004B0240914C0250914D020E94160C87FF03
:1007100022C0812F9D2FAC2FBC2DBC01CD0120917B
:1007200042023091430240914402509145020E949E
:10073000600D181684F481E061E00E94C60000D0CC
:1007400086E890E0EDB7FEB7928381830E94430E66
:100750000F900F9074C0C501B40120913602309102
:10076000370240913802509139020E94160C87FFDF
:100770001AC0812F9D2FAC2FBC2DBC01CD01209123
:1007800046023091470240914802509149020E942E
:10079000600D181644F481E062E00E94C60000D0AB
:1007A00085EA90E0CFCF8091600290916102A091A4
:1007B0006202B0916302BC01CD019F7720913A02A1
:1007C00030913B0240913C0250913D020E94160C38
:1007D000181664F080912F028F5F80932F028B3068
:1007E000E4F08AE080932F0283E015C080912F020D
:1007F000815080932F02181684F010922F0280E00F
:1008000090E0DC0180933E0290933F02A09340026F
:10081000B093410282E080932C0280912C028330BD
:1008200019F40E94F0070BC080912E028F5F809315
:100830002E02843020F010922E020E94F807DF91E1
:10084000CF911F91FF90EF90DF90CF90BF90AF902E
:100850009F908F900895089500D000D084EC90E090
:10086000EDB7FEB7928381838AE290E0948383831D
:100870000E94430E0F900F900F900F90089500D09C
:1008800000D000D08FED90E0EDB7FEB7928381836A
:100890008091800290918102A0918202B0918302A6
:1008A00083839483A583B6830E94430E8CEE90E0ED
:1008B000EDB7FEB7928381838091540290915502E7
:1008C000A0915602B091570283839483A583B68387
:1008D0000E94430E88EF90E0EDB7FEB792838183CC
:1008E0008091840290918502A0918602B091870246
:1008F00083839483A583B6830E94430E87E091E0AF
:10090000EDB7FEB79283818380916002909161027E
:10091000A0916202B091630283839483A583B6831E
:100920000E94430E83E191E0EDB7FEB7928381838D
:100930008091680290916902A0916A02B0916B0265
:1009400083839483A583B6830E94430EE0912C0297
:10095000F0E0EE0FFF1FE35EFE4F859194910F9044
:100960000F900F900F90EDB7FEB7818392830E9496
:10097000430E85E291E0EDB7FEB7928381830E943A
:10098000430E0F900F90089580E7ECE7F2E0DF014F
:100990001D928A95E9F783E393E9A8E8B3EC809385
:1009A000800290938102A0938202B09383028DEC27
:1009B0009CECACE8BFE38093880290938902A093FB
:1009C0008A02B0938B0280E090E0A0EAB1E48093C9
:1009D0008C0290938D02A0938E02B0938F0280E0E0
:1009E00090E0A8ECB3E48093900290939102A093DE
:1009F0009202B093930280E090E0A0E0B0EC80938C
:100A0000940290939502A0939602B0939702089552
:100A100081E080937C02089510927C0208951092E8
:100A20007E0281E080937D02089580917C0208958A
:100A300080917D02089580917C02833049F4709109
:100A4000800260918102909182028091830204C0B1
:100A500070E060E099E883ECAB019C01852F962F54
:100A6000A32FB22FBC01CD0108952F923F924F9238
:100A70005F926F927F928F929F92AF92BF92CF922E
:100A8000DF92EF92FF920F931F93CF93DF93CDB737
:100A9000DEB72C970FB6F894DEBF0FBECDBF8091A6
:100AA0007C02882309F4FBC080917D02813009F02B
:100AB000F6C000917E0210E00E948B06000F111F0D
:100AC000000F111F08561D4FBC0180E090E00E94EE
:100AD000AE0C26E03FEA4AEF5EE30E94640D23ED90
:100AE00031EB46ED5EE30E94B10BDC01CB01F80176
:100AF00080839183A283B38380917E028F5F8093F2
:100B00007E02843108F4CBC088E992E064E1AE0152
:100B10004F5F5F4F0E9401086B017C01609384026C
:100B200070938502809386029093870220918C02B5
:100B300030918D0240918E0250918F020E94600D83
:100B4000181624F482E080937C02A7C010927F02E2
:100B500080E090E0DC018093800290938102A0937A
:100B60008202B093830289819A81AB81BC818F8399
:100B70009887A987BA87C701B6012091880230916A
:100B8000890240918A0250918B020E94640D362E98
:100B9000272E8B879C8700E0A8E9B2E0BE83AD8357
:100BA000CC24FF24EE24DD2410E0ED81FE81419071
:100BB000519061907190FE83ED83C301B2012F814A
:100BC000388549855A850E94B10B9F77A1013B85E5
:100BD0002C85852E922CA32EB22EA50194010E9465
:100BE000160C87FF0FC08C2D9F2DAE2DBD2DBC0187
:100BF000CD01A30192010E94B20BC62EF72EE82E62
:100C0000D92E0F5F1F5F143181F600937F02602F92
:100C100070E080E090E00E94B00C9B01AC018C2D54
:100C20009F2DAE2DBD2DBC01CD010E941A0C7B0164
:100C30008C01862F9F2DA02FB12F8093800290933F
:100C40008102A0938202B093830223E0D22ED0923D
:100C50007C0210927D02BC01CD0120E030E048EC26
:100C600053E40E94600D181634F482E080937C02F5
:100C7000D0927D0214C08E2D9F2DA02FB12FBC01CC
:100C8000CD0120E030E040E050EC0E94160C87FFE0
:100C900006C082E080937C0284E080937D022C96E3
:100CA0000FB6F894DEBF0FBECDBFDF91CF911F917D
:100CB0000F91FF90EF90DF90CF90BF90AF909F90FB
:100CC0008F907F906F905F904F903F902F900895FE
:100CD0008FEF8093640014B817B81AB80895E4E64B
:100CE000F0E090819E7F9083982F9064ECE7F0E095
:100CF000908396E890937A009081907F9083908182
:100D0000908321E030E002C0220F331F8A95E2F782
:100D100020937E00089580917A00806480937A0009
:100D200080917A0080917A00806180937A0080912E
:100D3000780090917900009771F3809178009091FC
:100D400079000895539AE4E6F0E080818F7B8083F8
:100D5000E0EBF0E080EF8083808183608083E1EBD3
:100D6000F0E088E0808380818460808310926F004F
:100D70001092B3001092B40080E090E0DC01809308
:100D8000F0029093F102A093F202B093F30208955F
:100D90000F931F93CF93DF939B01AC0160E074E24C
:100DA00084E798E40E941A0C8B01D82FC92F9E016A
:100DB000862F912FA32FB22F8093F0029093F102F0
:100DC000A093F202B093F302BC01CD0120E030E029
:100DD00040EA51E40E94160C87FF02C084E110C073
:100DE0009E01802F912FA32FB22FBC01CD0120E0B7
:100DF00030E04FE753E40E94600D87FD04C08FEFA1
:100E00008093B3000BC09E01802F912FA32FB22F90
:100E1000BC01CD010E94820C6093B30080E0DF91A1
:100E2000CF911F910F9108958F929F92AF92BF9291
:100E3000CF92DF92EF92FF926B017C012AE037EDB7
:100E400043E25CE30E94160C87FF04C08FEF80939F
:100E5000B40030C0C701B6012DEC3CEC47EC52E4C5
:100E60000E94600D18161CF41092B40023C060910B
:100E7000B30070E080E090E00E94B00C4B015C0198
:100E8000C701B60120E030E048EC52E40E941A0CA1
:100E90009B01AC0160E070E080E89FE30E94B10B31
:100EA0009B01AC01C501B4010E94640D0E94820C3B
:100EB0006093B4006091F0027091F1028091F202AF
:100EC0009091F3020E94820C6093B30080E0FF9047
:100ED000EF90DF90CF90BF90AF909F908F9008954C
:100EE0008F929F92AF92BF92CF92DF92EF92FF923A
:100EF0006B017C0149015A010E94A206C701B6019B
:100F00000E94C806C501B4010E941407FF90EF902B
:100F1000DF90CF90BF90AF909F908F90089560E04A
:100F200070E0CB019B01AC010E9470070895E4E6DC
:100F3000F0E080818F7D808382E084BD93E095BD69
:100F40009DE797BD80936E008AE08093ED028093C9
:100F5000EE028093EF0208951F920F920FB60F9248
:100F600011248F9381E08093EC028F910F900FBE3C
:100F70000F901F901895CF938091EC02882319F160
:100F80001092EC020E9435058091ED028150809311
:100F9000ED028823D1F4CAE0C093ED028091EE0205
:100FA00081508093EE02882381F4C093EE020E9468
:100FB000ED028091EF0281508093EF02882329F4A3
:100FC000C093EF0203C083E001C080E0CF91089599
:100FD0000E943505089508950E94ED020895089530
:100FE0005A9808955A9A0895539A0E94F2070895BC
:100FF0008BB1882319F00E94F00708950E94F20730
:1010000008952F923F924F925F926F927F928F92AC
:101010009F92AF92BF92CF92DF92EF92FF920F9387
:101020001F93CF93DF93862E1A01662309F478C0AD
:101030002C01C0E0AA24992477246624D0E010E093
:1010400000E0BB24F201C190D190E190F1902F011A
:101050008D2F912FA02FBB2DBC01CD01A701960193
:101060000E94B20BD62F172F082FB92EC701B60139
:101070000E94090E9B01AC01B3018A2D992DA72F67
:10108000B62DBC01CD010E94B20BA62E972E782E54
:10109000692ECF5FC815B1F66C2F70E080E090E04C
:1010A0000E94B00C6B017C018D2F912FA02FBB2DC6
:1010B000BC01CD01A70196010E941A0CEB01182F6B
:1010C000092F9801862F9D2FA32FB22FF101808326
:1010D0009183A283B38393018A2D992DA32FB22FDD
:1010E000BC01CD01A70196010E941A0C962EA72ED5
:1010F000B82EC92E98018C2F9D2FA32FB22FBC0183
:10110000CD010E94090E9B01AC01892D9A2DAB2DBA
:10111000BC2DBC01CD010E94B10B0E94CB0D04C0BF
:1011200060E070E080E090E0382F292F862F972F25
:10113000A32FB22FBC01CD01DF91CF911F910F9151
:10114000FF90EF90DF90CF90BF90AF909F908F90E7
:101150007F906F905F904F903F902F9008958E32C8
:1011600071F08D3261F08B3261F0282F30E0205326
:10117000304081E02A30310528F080E0089581E098
:10118000089581E00895E82FF0E0EE0FFF1FEC5086
:10119000FD4F0190F081E02D0180F281E02D099555
:1011A0000895E82FF0E0EE0FFF1FEC50FD4F808117
:1011B0009181DC011596ED91FC91169709950895A2
:1011C000E82FF0E0EE0FFF1FEC50FD4F8081918182
:1011D000DC011796ED91FC911897439609950895B7
:1011E000E82FF0E0EE0FFF1FEC50FD4F0190F08173
:1011F000E02D9F012D5E3F4F0184F285E02D862F6B
:10120000B90109950895E82FF0E0EE0FFF1FEC50AB
:10121000FD4F462F50E060E070E0808191810E9498
:10122000FC0A80E090E00895E82FF0E0EE0FFF1F49
:10123000EC50FD4F80819181439690933D038093C4
:101240003C030895E82FF0E0EE0FFF1FEC50FD4F38
:1012500080819181439690933F0380933E0308954C
:10126000E82FF0E0EE0FFF1FEC50FD4F80819181E1
:1012700043969093410380934003089580E00E9439
:10128000F70A9093F5028093F40281E00E946B0AC2
:101290009093F7028093F60280E060E070E045E111
:1012A00050E10E94C30881E060E070E040E050E15E
:1012B0000E94C30880E00E94140980E00E94220975
:1012C00081E00E94300908950895FC0160FF02C08A
:1012D00081E081A361FD11A264FF02C081E082A3CD
:1012E00065FD12A274FF02C081E083A375FD13A205
:1012F00080E090E00895CF93DF93EC01ED85FE85CB
:10130000309729F081E08283ED85FE858183EF852A
:10131000F889309729F081E08283EF85F88981830D
:101320001CA21DA21EA2CE010E94650989859A8574
:101330009C8F8B8F8F8198859E8F8D8F83E08E8B76
:10134000D8A3CF8FDF91CF910895E82FF0E0EE0F73
:10135000FF1FEC50FD4F808191810E946509089527
:10136000FC0192818181981761F081818150818394
:10137000882311F4808181838181E80FF11D8381AD
:1013800008958FEF0895CF93DF93EC018CA188230C
:1013900039F481E08CA37BA76AA719A658A74FA3AD
:1013A0004FA158A529A530E0CA0101972817390790
:1013B00044F0EAA5FBA5E40FF51F10828DE090E054
:1013C00022C08D859E850E94B009482F552747FD74
:1013D00050959FEF4F3F5907A1F099A52AA53BA52E
:1013E000290F311DF9014A30510539F410829F5FF0
:1013F00099A71CA280E090E006C080839F5F99A718
:10140000CFCF82E090E0DF91CF910895DC011C9670
:10141000ED91FC911D97858596850E94B009282F36
:10142000332727FD3095932F0895FC018281815049
:1014300009F480819181891749F0DF01A80FB11D5E
:1014400013966C931397828380E008958FEF08952D
:10145000282FFB010484F585E02D87859089622F74
:101460000E94150A282F332727FD3095932F0895C2
:1014700080E00E94E00890933A0380933903C0E033
:10148000EC2FF0E0E050FF4F80E060810E94F00818
:101490002FEF8F3F9207A1F3CF5FC770F1CFCF93AC
:1014A000DF93BA01E82FF0E0EE0FFF1FEC50FD4F85
:1014B000C081D181CE010E947B09E4E6F0E0808109
:1014C0008B7F80838CB58C6C8CBD249ACE01439627
:1014D000DF91CF9108958093080188E091E008950D
:1014E0001F920F920FB60F9211242F933F934F9399
:1014F0005F936F937F938F939F93AF93BF93EF937C
:10150000FF93CF93DF930F92CDB7DEB76EB5809187
:1015100017019091180169830E94B00969818F3F7A
:1015200009F483E08EBD80911501909116010E940F
:10153000150A0F90DF91CF91FF91EF91BF91AF917D
:101540009F918F917F916F915F914F913F912F91DB
:101550000F900FBE0F901F901895EF92FF921F9360
:10156000CF93DF93FC01C485D5858D859E850E9430
:10157000B009182FE82EFF24E7FCF094EB85FC85DA
:10158000CE0109958AA1882341F060913E037091B4
:101590003F03E985FA85812F0995FDE0EF16F104F7
:1015A00021F08AE0E816F10431F48BA1882319F0C8
:1015B0008AE0E82EF12CC701DF91CF911F91FF90B7
:1015C000EF900895282FFB010484F585E02D878591
:1015D0009089622F0E94150AE1ECF0E09081906200
:1015E0009083282F332727FD3095932F08958093DC
:1015F000BA018AEB91E008959A01AB0193E0220FC2
:10160000331F441F551F9A95D1F760E074E284EFB1
:1016100090E00E94210E215030403093C50020936D
:10162000C400E0ECF0E080818D7F80830895CF934B
:10163000DF93BA01E82FF0E0EE0FFF1FEC50FD4FF3
:10164000C081D181CE010E947B09E4E6F0E0808177
:101650008D7F80831092C00088E98093C100CE0105
:1016600040E052EC61E070E00E94FC0ACE0143963B
:10167000DF91CF9108951F920F920FB60F92112410
:101680002F933F934F935F936F937F938F939F938A
:10169000AF93BF93EF93FF938091C9019091CA01DB
:1016A0000E94B0098F3F31F48091C1008F7D8093FB
:1016B000C10002C08093C600FF91EF91BF91AF912E
:1016C0009F918F917F916F915F914F913F912F915A
:1016D0000F900FBE0F901F9018951F920F920FB68C
:1016E0000F9211242F933F934F935F936F937F93A8
:1016F0008F939F93AF93BF93EF93FF936091C60037
:101700008091C7019091C8010E94150AFF91EF9145
:10171000BF91AF919F918F917F916F915F914F9109
:101720003F912F910F900FBE0F901F901895F89436
:101730000E9468060E943E090E942B0480E00E94DD
:101740006F060E94A2060E9497070E94F4070E945B
:1017500019010E94C40478940E942C040E94380A43
:10176000FFCF5058BB27AA270ED070C161D130F0EF
:1017700066D120F031F49F3F11F41EF456C10EF4EF
:10178000E095E7FB4CC1E92F72D180F3BA176207ED
:1017900073078407950718F071F49EF58AC10EF45B
:1017A000E0950B2EBA2FA02D0B01B90190010C0171
:1017B000CA01A0011124FF27591B99F0593F50F489
:1017C000503E68F11A16F040A22F232F342F4427E1
:1017D000585FF3CF469537952795A795F0405395D9
:1017E000C9F77EF41F16BA0B620B730B840BBAF0A9
:1017F0009150A1F0FF0FBB1F661F771F881FC2F714
:101800000EC0BA0F621F731F841F48F48795779527
:101810006795B795F7959E3F08F0B3CF9395880FDE
:1018200008F09927EE0F979587950895D4D008F47E
:1018300081E008950CD00AC102D140F0F9D030F017
:1018400021F45F3F19F0EBC0511134C1EEC00FD14C
:1018500098F39923C9F35523B1F3951B550BBB2777
:10186000AA2762177307840738F09F5F5F4F220F24
:10187000331F441FAA1FA9F333D00E2E3AF0E0E81D
:1018800030D091505040E695001CCAF729D0FE2F69
:1018900027D0660F771F881FBB1F261737074807FB
:1018A000AB07B0E809F0BB0B802DBF01FF279358B1
:1018B0005F4F2AF09E3F510568F0B1C0FBC05F3F0B
:1018C000ECF3983EDCF3869577956795B795F79599
:1018D0009F5FC9F7880F911D9695879597F9089591
:1018E000E1E0660F771F881FBB1F6217730784072D
:1018F000BA0720F0621B730B840BBA0BEE1F88F73C
:10190000E0950895BCD088F09F5790F0B92F9927A3
:10191000B751A0F0D1F0660F771F881F991F1AF0FA
:10192000BA95C9F712C0B13081F0C3D0B1E00895C3
:10193000C0C0672F782F8827B85F39F0B93FCCF344
:10194000869577956795B395D9F73EF490958095F0
:10195000709561957F4F8F4F9F4F0895E89409C010
:1019600097FB3EF490958095709561957F4F8F4FD2
:101970009F4F9923A9F0F92F96E9BB279395F695E8
:10198000879577956795B795F111F8CFFAF4BB0F66
:1019900011F460FF1BC06F5F7F4F8F4F9F4F16C0CA
:1019A000882311F096E911C0772321F09EE8872F54
:1019B000762F05C0662371F096E8862F70E060E010
:1019C0002AF09A95660F771F881FDAF7880F969589
:1019D000879597F90895990F0008550FAA0BE0E82D
:1019E000FEEF16161706E807F907C0F012161306E1
:1019F000E407F50798F0621B730B840B950B39F421
:101A00000A2661F0232B242B252B21F408950A2686
:101A100009F4A140A6958FEF811D811D089597F9C6
:101A20009F6780E870E060E008959FEF80EC089584
:101A300000240A94161617061806090608950024AD
:101A40000A9412161306140605060895092E039427
:101A5000000C11F4882352F0BB0F40F4BF2B11F49B
:101A600060FF04C06F5F7F4F8F4F9F4F089557FDFA
:101A70009058440F551F59F05F3F71F04795880FFC
:101A800097FB991F61F09F3F79F087950895121693
:101A900013061406551FF2CF4695F1DF08C016163F
:101AA00017061806991FF1CF8695710561050894F0
:101AB0000895E894BB2766277727CB0197F9089507
:101AC0008ADF08F48FEF08950BD0C0CFB1DF28F084
:101AD000B6DF18F0952309F0A2CFA7CF1124EACFE3
:101AE000C6DFA0F3959FD1F3950F50E0551F629F7D
:101AF000F001729FBB27F00DB11D639FAA27F00D67
:101B0000B11DAA1F649F6627B00DA11D661F829F8D
:101B10002227B00DA11D621F739FB00DA11D621F72
:101B2000839FA00D611D221F749F3327A00D611D8F
:101B3000231F849F600D211D822F762F6A2F112471
:101B40009F5750408AF0E1F088234AF0EE0FFF1FC4
:101B5000BB1F661F771F881F91505040A9F79E3FFB
:101B6000510570F05CCFA6CF5F3FECF3983EDCF3FD
:101B7000869577956795B795F795E7959F5FC1F738
:101B8000FE2B880F911D9695879597F9089511F46E
:101B90000EF44BCF41C073DFD0F39923D9F3CEF3CA
:101BA0009F57550B87FF46D00024A0E640EA9001DE
:101BB00080585695979528F4805C660F771F881F8C
:101BC00020F026173707480730F4621B730B840B8D
:101BD000202931294A2BA6951794079420253125D1
:101BE0004A2758F7660F771F881F20F026173707F8
:101BF000480730F4620B730B840B200D311D411D1F
:101C0000A09581F7B901842F9158880F96958795F3
:101C100008959B01AC0158CF9F3F31F0915020F4C3
:101C2000879577956795B795880F911D96958795B8
:101C300097F9089591505040660F771F881FD2F78B
:101C40000895A1E21A2EAA1BBB1BFD010DC0AA1FFD
:101C5000BB1FEE1FFF1FA217B307E407F50720F015
:101C6000A21BB30BE40BF50B661F771F881F991F90
:101C70001A9469F760957095809590959B01AC01D9
:101C8000BD01CF010895A0E0B0E0E9E4FEE00C94CE
:101C9000F410FE0135966191719180913E0390910F
:101CA0003F03DC0113962C911397286013962C9315
:101CB000AF010E94660EE0913E03F0913F03238145
:101CC000277F23832096E2E00C941011ADE0B0E072
:101CD000ECE6FEE00C94E4103C017D876C875A0131
:101CE000FC0117821682838181FFC8C12E010894EE
:101CF000411C511CF3019381EC85FD8593FD859179
:101D000093FF8191FD87EC87882309F4B3C1853265
:101D100041F493FD859193FF8191FD87EC87853296
:101D200029F490E0B3010E945A10E4CFFF24EE247E
:101D300010E01032B0F48B3269F08C3228F480322B
:101D400051F0833271F40BC08D3239F0803349F495
:101D500011602CC01260146029C0186027C0106187
:101D600025C017FD2EC0282F20532A3098F416FFC7
:101D700008C08F2D880FF82EFF0CFF0CF80EF20E06
:101D800015C08E2D880FE82EEE0CEE0CE80EE20E3C
:101D900010620CC08E3221F416FD6CC1106406C0B6
:101DA0008C3611F4106802C0883659F4EC85FD8534
:101DB00093FD859193FF8191FD87EC87882309F03E
:101DC000B8CF982F9554933018F09052933038F440
:101DD00024E030E0A20EB31E3FE339830FC0833608
:101DE00031F0833781F0833509F05AC022C0F50104
:101DF0008081898322E030E0A20EB31E21E0C22E52
:101E0000D12C420114C092E0292E312C2A0C3B1C0B
:101E1000F5018080918016FF03C06F2D70E002C035
:101E20006FEF7FEFC4010E944F106C0151011F77CB
:101E300015C082E0282E312C2A0C3B1CF501808035
:101E4000918016FF03C06F2D70E002C06FEF7FEF2F
:101E5000C4010E9444106C011068510113FD1CC0A4
:101E600006C080E290E0B3010E945A10EA948E2DE1
:101E700090E0C816D906A8F30FC0F40117FD8591AC
:101E800017FF81914F0190E0B3010E945A10E110B9
:101E9000EA940894C108D108C114D10471F7E7C0CD
:101EA000843611F0893651F5F50117FF07C080819E
:101EB0009181A281B38124E030E008C080819181CA
:101EC000AA2797FDA095BA2F22E030E0A20EB31EFC
:101ED000012F0F76B7FF08C0B095A095909581951A
:101EE0009F4FAF4FBF4F0068BC01CD01A2012AE058
:101EF00030E00E948610D82ED4183FC0853721F4D8
:101F00001F7E2AE030E020C0197F8F36A9F080378D
:101F100020F4883509F0AEC00BC0803721F0883737
:101F200009F0A8C001C0106114FF09C0146007C007
:101F300014FF08C0166006C028E030E005C020E1AC
:101F400030E002C020E132E0F50117FF07C06081F8
:101F500071818281938144E050E006C0608171818B
:101F600080E090E042E050E0A40EB51EA2010E9485
:101F70008610D82ED418012F0F7706FF09C00E7FC8
:101F8000DF1430F404FF06C002FD04C00F7E02C05F
:101F90001D2D01C01F2D802F90E004FF0CC0FE01FD
:101FA000ED0DF11D2081203311F4097E09C002FFDF
:101FB00006C01E5F05C086789070009709F01F5F0D
:101FC000802E992403FD12C000FF0DC0FD2C1E15AC
:101FD00050F4FE0CF11A1E2D06C080E290E0B30111
:101FE0000E945A101F5F1E15C0F304C01E1510F486
:101FF000E11A01C0EE2484FE0FC080E390E0B3013B
:102000000E945A1082FE1FC081FE03C088E590E046
:1020100010C088E790E00DC0C401867890700097EA
:1020200091F081FC02C080E201C08BE207FD8DE2ED
:1020300090E0B3010E945A1006C080E390E0B30123
:102040000E945A10FA94DF14C0F3DA94F201ED0DF5
:10205000F11D808190E0B3010E945A10DD20A9F7A4
:1020600006C080E290E0B3010E945A10EA94EE208C
:10207000C1F740CEF3018681978102C08FEF9FEFB9
:102080002D96E2E10C940011FC0105906150704026
:102090000110D8F7809590958E0F9F1F0895FC0131
:1020A0006150704001900110D8F7809590958E0F87
:1020B0009F1F08950F931F93CF93DF938C01EB0124
:1020C0008B8181FF1BC082FF0DC02E813F818C81DF
:1020D0009D812817390764F4E881F9810193F98318
:1020E000E88306C0E885F985802F0995009731F4CB
:1020F0008E819F8101969F838E8302C00FEF1FEF19
:10210000C801DF91CF911F910F910895FA01AA277D
:10211000283051F1203181F1E8946F936E7F6E5F2A
:102120007F4F8F4F9F4FAF4FB1E03ED0B4E03CD0D8
:10213000670F781F891F9A1FA11D680F791F8A1FBB
:10214000911DA11D6A0F711D811D911DA11D20D022
:1021500009F468943F912AE0269F11243019305DDC
:102160003193DEF6CF010895462F4770405D4193CD
:10217000B3E00FD0C9F7F6CF462F4F70405D4A331A
:1021800018F0495D31FD4052419302D0A9F7EACFE2
:10219000B4E0A6959795879577956795BA95C9F711
:1021A00000976105710508959B01AC010A2E069404
:1021B0005795479537952795BA95C9F7620F731FBD
:1021C000841F951FA01D08952F923F924F925F92FA
:1021D0006F927F928F929F92AF92BF92CF92DF9237
:1021E000EF92FF920F931F93CF93DF93CDB7DEB79C
:1021F000CA1BDB0B0FB6F894DEBF0FBECDBF099430
:102200002A88398848885F846E847D848C849B8486
:10221000AA84B984C884DF80EE80FD800C811B8194
:10222000AA81B981CE0FD11D0FB6F894DEBF0FBEC3
:0A223000CDBFED010895F894FFCF33
:10223A003031323334353637014F0A6509C309065E
:10224A000A280A640977013401000000000000002E
:10225A000000000000000000000000000000000074
:10226A00000000003F010100000000000000000023
:10227A000000000000000000000000000000000054
:10228A000000000000000000000000000000000044
:10229A000000000000000000000000000000000034
:1022AA00000000000000003F0101000000000000E3
:1022BA000000000000000000000000000000000014
:1022CA000000000000000000000000000000000004
:1022DA0000000000000000000000000000000000F4
:1022EA000000000000000000000000170B6509C391
:1022FA0009AD0AE20A64090902E6010000000000C9
:10230A0000000000000000000000000000000000C3
:10231A000000000000001F01010000000000000092
:10232A0000000000000000000000000000000000A3
:10233A000000000000000000001F01010000000072
:10234A000000000000000000000000000000000083
:0C235A0000000000000000000000000077
:00000001FF
