:100000000C9456020C9473020C9473020C947302B9
:100010000C9473020C9473020C9473020C9473028C
:100020000C9473020C9473020C9473020C9473027C
:100030000C9473020C9473020C94F7070C947302E3
:100040000C9473020C944E080C945E060C942706D4
:100050000C9473020C9473020C9473020C9473024C
:100060000C9473020C9473026E616E00696E6600EC
:10007000D300D800E300ED000A00493A25312E33C1
:10008000662020004572723A25312E33662020000A
:100090005374644465763A25312E3366202000502F
:1000A000574D3A25312E336620200054656D703A45
:1000B00025312E33662020000A4465766963652069
:1000C000496E697469616C697A65642025312E30E6
:1000D000660A0020204F4B00202053687574646F1F
:1000E000776E00202048656174696E670020205299
:1000F0004547554C4154454400486561746572203C
:1001000054696D656F7574204572726F7220536803
:100110007574646F776E0A0048656174657220417A
:100120006D6269656E74204572726F7220536875D6
:1001300074646F776E0A0048656174657220536558
:100140006E736F72204572726F722053687574649B
:100150006F776E0A00737973006662000000000713
:10016000190E330E3006C3F5E040737973006676DE
:100170000000000007190E330E3406CDCCCC3D73C1
:1001800079730068760000000007190E330E3806F8
:10019000CDCCCC3D6831000068317374000000960E
:1001A0000DB50D30030000000068310000683174A7
:1001B0006D700000190E330E3603000089C36831DC
:1001C000000068317365740000190E330E3A0300A5
:1001D0000020416831000068316879730000960D95
:1001E000B50D330300002041683100006831616DB6
:1001F000620000190E330E4E0300002042683100E9
:100200000068316F76720000190E330E5203000041
:10021000964368310000683161746F0000190E3335
:100220000E46030000B44268310000683172656711
:100230000000190E330E3E030000404068310000FC
:10024000683172746F0000190E330E4A0300009675
:10025000436831000068316261640000960DB50D9D
:1002600034030000A0407331000073317374000048
:1002700000960DB50D80030000000073310000737F
:1002800031746D700000190E330E8403000089C3B1
:1002900073310000733173766D0000190E330E8CCC
:1002A00003CDCC8C3F73310000733172766D00004A
:1002B000190E330E90030000A04170310000703120
:1002C0006B70000000190E330E74030000A0407024
:1002D00031000070316B69000000190E330E780395
:1002E000CDCCCC3D7031000070316B640000001942
:1002F0000E330E7C030000003F703100007031733C
:100300006D780000190E330E5C030000C842703196
:1003100000007031736D6E0000190E330E60030023
:1003200000000000000000737973000000005A1103
:10033000A811A502000000000000000068310000C4
:100340000000005A11A811A50200000000000000E2
:1003500000733100000000005A11A811A50200002E
:10036000000000000000703100000000005A11A8D9
:1003700011A50200000000494E46494E4954594E0D
:10038000414ECDCCCC3D0AD7233C17B7D13877CCE2
:100390002B329595E6241FB14F0A00002041000042
:1003A000C84200401C4620BCBE4CCA1B0E5AAEC5FB
:1003B0009D7400407A10F35A00A0724E1809001084
:1003C000A5D4E80000E87648170000E40B540200CA
:1003D00000CA9A3B000000E1F505000080969800F5
:1003E000000040420F000000A0860100000010271E
:1003F00000000000E80300000000640000000000AE
:100400000A00000000000100000000002C76D888DF
:10041000DC674F0823DFC1DFAE59E1B1B796E5E3F2
:10042000E453C63AE651997696E8E6C28426EB890B
:100430008C9B62ED407C6FFCEFBC9C9F40F2BAA5A8
:100440006FA5F490055A2AF75C936B6CF9676DC140
:100450001BFCE0E40D47FEF520E6B500D0ED902E44
:100460000300943577050080841E080000204E0AA2
:10047000000000C80C333333330F986E12831141E0
:10048000EF8D2114893BE65516CFFEE6DB18D184AB
:100490004B381BF77C1D901DA4BBE42420328472D2
:1004A0005E228100C9F124ECA1E53D2711241FBE85
:1004B000CFEFD8E0DEBFCDBF12E0A0E0B1E0E4EBCB
:1004C000F1E402C005900D92A43AB107D9F716E005
:1004D000A4EAB2E001C01D92A235B107E1F70E9483
:1004E000B1030C94D8200C9400008E3249F08D3268
:1004F00039F08B3229F020E090E0C0970A9708F499
:1005000021E0822F08952F923F924F925F926F9237
:100510007F928F929F92AF92BF92CF92DF92EF9293
:10052000FF920F931F93DF93CF9300D000D0CDB7EE
:10053000DEB7D62E5A834983662329F460E070E043
:1005400080E090E057C09C838B830F2EF0E02F2E2D
:10055000F0E03F2EF0E04F2EF0E05F2EF02DAA24C9
:10056000420131011DC0EB81FC81E190F1900191CC
:100570001191FC83EB83C401B301A80197010E9490
:100580007A193B014C01C801B7010E94D11B9B01A4
:10059000AC01C201B1010E947A191B012C01A39484
:1005A000AD1408F36D2D70E0882777FD8095982FA6
:1005B0000E94781A5B016C01C401B301A601950188
:1005C0000E94E2199B01AC01E981FA812083318309
:1005D000428353830E94D11B7B018C01C201B10174
:1005E000A60195010E94E219A80197010E947919BC
:1005F0000E94931B0F900F900F900F90CF91DF915F
:100600001F910F91FF90EF90DF90CF90BF90AF9030
:100610009F908F907F906F905F904F903F902F9022
:100620000895089500D000D000D08BEA90E0EDB797
:10063000FEB7928381838091840390918503A0917A
:100640008603B091870383839483A583B6830E9436
:10065000C71F8FE990E0EDB7FEB792838183809149
:10066000580390915903A0915A03B0915B0383837F
:100670009483A583B6830E94C71F80E990E0EDB7FD
:10068000FEB7928381838091880390918903A09122
:100690008A03B0918B0383839483A583B6830E94DE
:1006A000C71F84E890E0EDB7FEB792838183809105
:1006B000640390916503A0916603B09167038383FF
:1006C0009483A583B6830E94C71F8AE790E0EDB7A5
:1006D000FEB79283818380916C0390916D03A0910A
:1006E0006E03B0916F0383839483A583B6830E94C6
:1006F000C71F80913003E82FF0E0EE0FFF1FE05995
:10070000FF4F859194910F900F900F900F90EDB740
:10071000FEB7928381830E94C71F88E790E0EDB700
:10072000FEB7928381830E94C71F0F900F90089598
:1007300000D000D088EB90E0EDB7FEB792838183C4
:100740008AE290E0948383830E94C71F0F900F90EA
:100750000F900F90089580E060E071E00E943705EF
:100760000895F8940E94C2060E9488050E94110311
:100770000E94CF1180E00E94C9060E94FD060E94DF
:10078000E2070E9408080E94B70B0E944B0D789464
:100790000E94980380E060E071E00E9437050E94AB
:1007A0001C088230E1F38091A90260EB72E040E81E
:1007B00050E00E94F2038093A402882381F780EB2B
:1007C00092E00E942F15EBCFE82FF0E0EE0FFF1F15
:1007D000E051FC4F0190F081E02D0180F281E02D8D
:1007E00009950895E82FF0E0EE0FFF1FE051FC4F50
:1007F0000190F081E02D25813681CF01F901099525
:100800000895E82FF0E0EE0FFF1FE051FC4F01903C
:10081000F081E02D27813085CF014396F9010995BC
:100820000895E82FF0E0EE0FFF1FE051FC4F01901C
:10083000F081E02D21853285862F7396BF01F90165
:1008400009950895E82FF0E0EE0FFF1FE051FC4FEF
:1008500080819181439690934B0680934A06089538
:10086000E82FF0E0EE0FFF1FE051FC4F80819181F7
:10087000439690934D0680934C060895E82FF0E040
:10088000EE0FFF1FE051FC4F8081918143969093C2
:100890004F0680934E0608950895FC0160FF02C044
:1008A00081E081A361FD11A264FF02C081E082A307
:1008B00065FD12A274FF02C081E083A375FD13A23F
:1008C00080E090E00895CF93DF93EC01ED85FE8505
:1008D000309729F081E08283ED85FE858183EF8565
:1008E000F889309729F081E08283EF85F889818348
:1008F0001CA21DA21EA2CE010E944D0489859A85CC
:100900009C8F8B8F8F8198859E8F8D8F83E08E8BB0
:10091000D8A3CF8FDF91CF910895E82FF0E0EE0FAD
:10092000FF1FE051FC4F808191810E944D0408958A
:10093000282FFB010484F585E02DA785B089129648
:100940009C911297915009F49C9111968C9111975A
:10095000981711F42FEF07C0FD01E90FF11D238354
:1009600012969C9320E0332727FD3095C901089506
:10097000FC0192818181981711F48FEF0895818194
:10098000815081838181882311F4808181838181D9
:10099000E80FF11D83810895CF93DF93EC018CA1C3
:1009A000882339F481E08CA37BA76AA719A658A7EE
:1009B0004FA34FA158A589A590E09A01215030403E
:1009C0008217930744F0EAA5FBA5E40FF51F1082F8
:1009D0002DE030E023C08D859E850E94B804282F2D
:1009E000332727FD30958FEF2F3F3807A9F099A5C2
:1009F000EAA5FBA52A30310549F4E90FF11D108263
:100A00009F5F99A71CA220E030E008C0E90FF11D0C
:100A100020839F5F99A7CDCF22E030E0C901DF910D
:100A2000CF910895DC011C96ED91FC911D97858571
:100A300096850E94B804282F332727FD3095C901D9
:100A40000895DC0112969C911297915009F49C91A3
:100A500011968C911197981711F48FEF0895FD015D
:100A6000E90FF11D638312969C9380E00895CF9364
:100A7000DF9320E0C82FD0E0CC0FDD1FC051DC4F4A
:100A800016C0E881F981A585B68512969C911297CA
:100A9000915009F49C9111968C911197981731F00F
:100AA000FD01E90FF11D338312969C932F5FFB012B
:100AB000E20FF11D3081332321F7DF91CF910895AB
:100AC0000F931F93CF93DF930DEE15E0CBE0D1E0B2
:100AD000E091F203F091F30325813681CF016DEEB1
:100AE00075E040E450E0F901099580932F068823D2
:100AF00079F700D000D0EDB7FEB7D283C18314835D
:100B000003830E94B21F0F900F900F900F90E0CFC1
:100B100080E00E94D8059093F1038093F00381E078
:100B20000E9449089093F3038093F203E091F0034D
:100B3000F091F1030180F281E02D80E060E070E04F
:100B400045E150E10995E091F203F091F303018052
:100B5000F281E02D81E060E070E040E050E1099535
:100B60008091F0039091F103439690934B0680930C
:100B70004A0690934D0680934C068091F203909123
:100B8000F303439690934F0680934E060895462FA5
:100B9000E82FF0E0EE0FFF1FE051FC4F50E060E067
:100BA00070E0808191810E94DD0580E090E00895F1
:100BB00080935C018CE591E008959A01AB0183E09C
:100BC000220F331F441F551F8A95D1F760E074E24E
:100BD00084EF90E00E94E91B215030403093C50023
:100BE0002093C400E0ECF0E080818D7F8083089545
:100BF0000F931F93CF93DF93FC01C485D5858D851B
:100C00009E850E94B804082F112707FD1095EB85DB
:100C1000FC85CE0109958AA1882341F060914C069C
:100C200070914D06E985FA85802F09950D301105E3
:100C300019F00A30110529F48BA1882311F00AE07C
:100C400010E0C801DF91CF911F910F9108951F927D
:100C50000F920FB60F9211242F933F934F935F93F0
:100C60006F937F938F939F93AF93BF93EF93FF9374
:100C700080916B0190916C010E94B804992787FDC7
:100C800090952FEF8F3F920731F48091C1008F7DB7
:100C90008093C10002C08093C600FF91EF91BF9185
:100CA000AF919F918F917F916F915F914F913F9104
:100CB0002F910F900FBE0F901F9018951F920F92BB
:100CC0000FB60F9211242F933F934F935F936F931F
:100CD0007F938F939F93AF93BF93EF93FF93609115
:100CE000C6008091690190916A010E942105FF91DF
:100CF000EF91BF91AF919F918F917F916F915F9194
:100D00004F913F912F910F900FBE0F901F9018950C
:100D1000282FFB010484F585E02D87859089622FBB
:100D20000E942105E1ECF0E0908190629083282FF1
:100D3000332727FD3095C90108950F931F93E82F9E
:100D4000F0E0EE0FFF1FE051FC4F00811181C80160
:100D5000BA010E946304E4E6F0E080818D7F808325
:100D60001092C00088E98093C100C80140E052ECB5
:100D700061E070E00E94DD050D5E1F4FC8011F910C
:100D80000F9108958FEF8093640014B817B81AB8C4
:100D90000895E4E6F0E090819E7F9083982F906420
:100DA000ECE7F0E0908396E890937A009081907F52
:100DB00090839081908321E030E002C0220F331FA6
:100DC0008A95E2F720937E00089580917A008064EE
:100DD00080937A0080917A0080917A00806180937C
:100DE0007A008091780090917900892B71F320919D
:100DF000780030917900C9010895539AE4E6F0E053
:100E000080818F7B8083E0EBF0E080EF80838081C6
:100E100083608083E1EBF0E088E080838081846000
:100E2000808310926F001092B3001092B40080E0A3
:100E300090E0A0E0B0E080934B0490934C04A0932A
:100E40004D04B0934E040895EF92FF920F931F93B9
:100E50009B01AC0160E074E284E798E40E94E2192F
:100E60007B018C0160934B0470934C0480934D0480
:100E700090934E0420E030E040EA51E40E94DE19F5
:100E8000882314F484E10BC0C801B70120E030E0EE
:100E90004FE753E40E94281B882324F08FEF8093B0
:100EA000B30006C0C801B7010E944A1A6093B3009C
:100EB00080E01F910F91FF90EF900895AF92BF9245
:100EC000CF92DF92EF92FF920F931F935B016C0121
:100ED0002AE037ED43E25CE30E94DE19882324F424
:100EE0008FEF8093B40030C0C601B5012DEC3CEC0F
:100EF00047EC52E40E94281B18161CF41092B40010
:100F000023C06091B30070E0882777FD8095982F0B
:100F10000E94781A7B018C01C601B50120E030E007
:100F200048EC52EC0E94E21920E030E040E85FE338
:100F30000E947A199B01AC01C801B7010E942C1BC9
:100F40000E944A1A6093B40060914B0470914C0463
:100F500080914D0490914E040E944A1A6093B30010
:100F600080E01F910F91FF90EF90DF90CF90BF90A6
:100F7000AF900895AF92BF92CF92DF92EF92FF921F
:100F80000F931F937B018C0159016A010E94FD069A
:100F9000C801B7010E942407C601B5010E945E077F
:100FA0001F910F91FF90EF90DF90CF90BF90AF9087
:100FB000089560E070E080E090E09B01AC010E9449
:100FC000BA070895E4E6F0E080818F7D808392E0A7
:100FD00094BD83E085BD8DE787BD90936E008AE068
:100FE000809348048093490480934A0408951F9293
:100FF0000F920FB60F9211248F9381E080934704D4
:101000008F910F900FBE0F901F901895089508951F
:10101000539A5A9A08955A9808955A9A08958BB1F6
:10102000882311F05A9808955A9A08950E942A0A1E
:1010300008950E94290C08951F93809147048823E6
:1010400011F483E024C0109247040E94290C80917F
:1010500048048150809348048823C1F41AE0109317
:10106000480480914904815080934904882371F495
:10107000109349040E942A0A80914A048150809367
:101080004A04882319F410934A0401C080E01F9198
:10109000089580930E028EE092E008951F920F92C1
:1010A0000FB60F9211241F932F933F934F935F938B
:1010B0006F937F938F939F93AF93BF93EF93FF9320
:1010C0001EB580911D0290911E020E94B8049927BE
:1010D00087FD90952FEF8F3F920709F483E08EBD37
:1010E00080911B0290911C02612F0E942105FF91AB
:1010F000EF91BF91AF919F918F917F916F915F9190
:101100004F913F912F911F910F900FBE0F901F9005
:1011100018950F931F93E82FF0E0EE0FFF1FE0519B
:10112000FC4F00811181C801BA010E946304E4E60A
:10113000F0E080818B7F80838CB58C6C8CBD249A91
:101140000D5E1F4FC8011F910F91089520E030E000
:1011500040E050E0209358033093590340935A03E2
:1011600050935B0380E090E0A8E4B3E480936C03C9
:1011700090936D03A0936E03B0936F032093680365
:101180003093690340936A0350936B0308956F9201
:101190007F928F929F92AF92BF92CF92DF92EF9207
:1011A000FF920F931F937B018C018091560388233C
:1011B00049F47091600360916103909162038091A2
:1011C0006303DDC0C801B7010E9479193B014C01DE
:1011D0006093640370936503809366039093670341
:1011E0009F772DEC3CEC4CEC5DE30E94281B18161D
:1011F00084F5609158037091590380915A0390913E
:101200005B0320915C0330915D0340915E0350913C
:101210005F030E94DE198823E4F4C401B3012DECBE
:101220003CEC4CEC5DE30E942C1B9B01AC016091FB
:101230006C0370916D0380916E0390916F030E9417
:101240007A1960936C0370936D0380936E0390938F
:101250006F03C401B3012091680330916903409189
:101260006A0350916B030E9479192DEC3CEC4CEC15
:101270005DE30E94E2195B016C016093700370935F
:1012800071038093720390937303C401B30120919F
:1012900074033091750340917603509177030E9457
:1012A0002C1B7B018C0160917803709179038091F4
:1012B0007A0390917B0320916C0330916D034091F0
:1012C0006E0350916F030E942C1B9B01AC01C8015F
:1012D000B7010E947A197B018C01C601B5012091EA
:1012E0007C0330917D0340917E0350917F030E94E7
:1012F0002C1B9B01AC01C801B7010E947A197B012C
:101300008C01609358037093590380935A03909310
:101310005B03A0905C03B0905D03C0905E03D0902F
:101320005F03A60195010E94281B181684F0A09067
:101330006003B0906103C0906203D0906303C80162
:10134000B701A60195010E94DE19882344F4A092FA
:101350005803B0925903C0925A03D0925B03609233
:1013600068037092690380926A0390926B03709194
:1013700058036091590390915A0380915B03272F82
:10138000362F492F582FB901CA011F910F91FF9095
:10139000EF90DF90CF90BF90AF909F908F907F9015
:1013A0006F9008958AE2E6E5F3E0DF011D928A95E9
:1013B000E9F780E090E0A0EAB0E4809374039093B2
:1013C0007503A0937603B09377038DEC9CECACECA3
:1013D000BDE38093780390937903A0937A03B0934D
:1013E0007B0380E090E0A0E0BFE380937C039093D8
:1013F0007D03A0937E03B0937F0380E090E0A8EC90
:10140000B2E480935C0390935D03A0935E03B0937A
:101410005F0380E090E0A0E0B0E0809360039093F1
:101420006103A0936203B093630381E0809356034A
:1014300008950F931F93182F062F0E94D9070E941B
:10144000020C10933003009331030E940D081F918A
:101450000F910895AF92BF92CF92DF92EF92FF92D9
:101460000F931F9380913003823008F413C10E94C0
:1014700012030E94110C609336037093370380931C
:1014800038039093390320915203309153034091D4
:101490005403509155030E94281B18162CF481E028
:1014A00063E00E94190AF6C00E94050CE090360322
:1014B000F09037030091380310913903C801B70148
:1014C00023E333E948E853EC0E94DE19882394F4BF
:1014D000809135038F5F8093350390913403981783
:1014E00008F0D8C081E064E00E94190A00D087E3C8
:1014F00091E058C01092350360913A0370913B031C
:1015000080913C0390913D03A80197010E94C70878
:101510000E945E0780913003823009F070C06091B4
:1015200042037091430380914403909145032DEC55
:101530003CEC4CEC5DE30E947A197B018C016093DA
:101540004203709343038093440390934503A09018
:101550003603B0903703C0903803D0903903C601EA
:10156000B50120914E0330914F03409150035091AB
:1015700051030E94DE198823F4F4C801B7012091B9
:1015800046033091470340914803509149030E941C
:10159000281B181684F481E061E00E94190A00D02B
:1015A00088E191E0EDB7FEB7928381830E94C71F67
:1015B0000F900F906FC0C601B50120913A03309192
:1015C0003B0340913C0350913D030E94DE19882368
:1015D000B4F4C801B70120914A0330914B03409104
:1015E0004C0350914D030E94281B181644F481E0CF
:1015F00062E00E94190A00D089EF90E0D3CF609199
:1016000064037091650380916603909167039F77EF
:1016100020913E0330913F0340914003509141039C
:101620000E94DE19181664F0809133038F5F809357
:1016300033038B30ECF08AE08093330383E016C0F1
:101640008091330381508093330318168CF01092ED
:10165000330380E090E0A0E0B0E0809342039093F9
:101660004303A0934403B093450382E08093300387
:1016700080913003833019F40E940B080BC08091D5
:1016800032038F5F80933203843020F01092320354
:101690000E940F081F910F91FF90EF90DF90CF9065
:1016A000BF90AF900895AF92BF92CF92DF92EF922A
:1016B000FF920F931F935B016C0180913003825066
:1016C000823008F44BC00E94FE0B0E94050C0F2EC6
:1016D000F0E0EF2EF0E0FF2EF0E00F2FF0E01F2FF4
:1016E000F02DE0925803F092590300935A0310939F
:1016F0005B0380E090E0A8E4B3E480936C039093F4
:101700006D03A0936E03B0936F03E0926803F092B1
:10171000690300936A0310936B0360E070E08AE74B
:1017200094E4A80197010E94BA07A0923A03B092EC
:101730003B03C0923C03D0923D03109233031092BE
:101740003503E0924203F092430300934403109365
:10175000450382E0809330030E940D081F910F9192
:10176000FF90EF90DF90CF90BF90AF90089586E20A
:10177000E0E3F3E0DF011D928A95E9F780E090E075
:10178000A0E4B0E480933E0390933F03A093400312
:10179000B093410380E090E0A4EBB2E48093460371
:1017A00090934703A0934803B093490320E030E0AF
:1017B00046E953E420934A0330934B0340934C0390
:1017C00050934D0380E090E0A0E2B2E480934E039A
:1017D00090934F03A0935003B0935103209352036F
:1017E00030935303409354035093550385E0809303
:1017F00034030E944B0D0E94D209089581E080932A
:10180000800308951092800308951092820381E06E
:1018100080938103089580918003089580918103CE
:10182000089580918003833029F070E060E099E8AA
:1018300083EC08C0709184036091850390918603C6
:1018400080918703272F362F492F582FB901CA01BE
:1018500008952F923F924F925F927F928F929F9224
:10186000AF92BF92CF92DF92EF92FF920F931F93AE
:10187000DF93CF93CDB7DEB728970FB6F894DEBFCE
:101880000FBECDBF80918003882309F4ECC0809106
:101890008103813009F0E7C080918203082F10E0B6
:1018A0000E94E506000F111F000F111F04561C4F68
:1018B000A0E0B0E0BC01CD010E94761A26E03FEA2C
:1018C0004AEF5EE30E942C1B23ED31EB46ED5EE315
:1018D0000E947919D8016D937D938D939C931397F2
:1018E000809182038F5F80938203843108F4BBC0B0
:1018F0008CE993E064E1AE014F5F5F4F0E94830289
:101900007B018C01609388037093890380938A0321
:1019100090938B0320919003309191034091920317
:10192000509193030E94281B181624F482E08093A0
:10193000800397C01092830380E090E0A0E0B0E0C5
:101940008093840390938503A0938603B0938703C9
:1019500089819A81AB81BC818D839E83AF83B88757
:10196000C801B70120918C0330918D0340918E0303
:1019700050918F030E942C1B1B012C019CE9892E86
:1019800093E0992E77240F2EF0E0EF2EF0E0FF2E5B
:10199000F0E00F2FF0E01F2FF02DD401AD90BD909F
:1019A000CD90DC90C601B5012D813E814F815885D7
:1019B0000E9479199F77A20191010E94DE19882364
:1019C0004CF4C801B701A60195010E947A197B0168
:1019D0008C017394E4E0F0E08E0E9F1EFCEE8F16F7
:1019E000F3E09F06D1F670928303672D70E088279D
:1019F00077FD8095982F0E94781A9B01AC01C80151
:101A0000B7010E94E2197B018C01609384037093FB
:101A10008503809386039093870383E0D82ED0922A
:101A2000800310928103C801B70120E030E048EC48
:101A300053E40E94281B181634F482E0809380033C
:101A4000D092810310C0C801B70120E030E040E02F
:101A500050EC0E94DE19882334F482E080938003E6
:101A600084E08093810328960FB6F894DEBF0FBE02
:101A7000CDBFCF91DF911F910F91FF90EF90DF903D
:101A8000CF90BF90AF909F908F907F905F904F903E
:101A90003F902F90089580E7E0E8F3E0DF011D928A
:101AA0008A95E9F783E393E9A8E8B3EC809384038C
:101AB00090938503A0938603B09387038DEC9CECF1
:101AC000ACE8BFE380938C0390938D03A0938E03C7
:101AD000B0938F0380E090E0A0EAB1E4809390039C
:101AE00090939103A0939203B093930380E090E0CE
:101AF000A8ECB3E48093940390939503A09396038A
:101B0000B093970380E090E0A0E0B0EC809398035E
:101B100090939903A0939A03B0939B03089583E055
:101B2000089521E0FC01268383E008950F931F931D
:101B30008C01FC01948185E1989FC00111248C598E
:101B40009E4FFC01A591B4916C9170E080E090E013
:101B50000E94761AF801678370878187928783E0F5
:101B6000868380E01F910F910895EF92FF920F936B
:101B70001F938C01FC01948185E1989FF001112451
:101B8000EC59FE4FE590F490F801678170858185EE
:101B900092850E944A1AF701608383E0F8018683E8
:101BA00080E01F910F91FF90EF9008950F931F9386
:101BB0008C01FC01948185E1989FC00111248C590E
:101BC0009E4FFC01A591B4916D917D918D919C9159
:101BD0000E94761AF801678370878187928783E075
:101BE000868380E01F910F910895EF92FF920F93EB
:101BF0001F938C01FC01948185E1989FF0011124D1
:101C0000EC59FE4FE590F490F8016781708581856D
:101C100092850E944A1AF7016083718382839383BD
:101C200083E0F801868380E01F910F91FF90EF9091
:101C300008959C01FC01948185E1989FC0011124C5
:101C40008C599E4FFC01A591B4918D919D910D9061
:101C5000BC91A02DF90187839087A187B28784E08A
:101C6000868380E00895CF93DF939C01FC019481EB
:101C700085E1989FC00111248C599E4FFC01C591AC
:101C8000D491F90187819085A185B2858883998354
:101C9000AA83BB8384E0868380E0DF91CF9108959F
:101CA000FC011682148280E090E0A0E0B0E087831F
:101CB0009087A187B2871386118A168A158AA08118
:101CC000B181109711F4158209C016968C91169760
:101CD00015969C91873009F49F5F9583CF010895F5
:101CE00080E0089580E00895982F8091AB028130C4
:101CF00069F4413019F0423049F405C086E694E0B9
:101D00000E945F130895892F0E9470130895EF9227
:101D1000FF920F931F93CF93DF939C017A018B0166
:101D2000C6E6D4E090E08E81882349F00A80DB810A
:101D3000C02D9F5F9031B9F7C0E0D0E00DC0CE015B
:101D40000B96B90145E050E00E94E91EEF82F8864B
:101D500009871A8784E08E83CE01DF91CF911F918E
:101D60000F91FF90EF900895EF92FF920F931F93C2
:101D7000CF93DF939C017A018B01C6E6D4E090E01B
:101D80008E81882349F00A80DB81C02D9F5F9031CE
:101D9000B9F7C0E0D0E011C0CE010B96B90145E023
:101DA00050E00E94E91EC801B7010E94761A6F83B5
:101DB000788789879A8783E08E83CE01DF91CF91E0
:101DC0001F910F91FF90EF900895EF92FF920F9364
:101DD0001F93CF93DF93EC01F62EE72E8091F6034D
:101DE00090E0A62FB72FFD0101900020E9F7319771
:101DF000EA1BFB0BE80FF91FE135F10510F08DE050
:101E000018C08C0109501C4FC8010E94E21EEF2D22
:101E1000FE2DDF010D900020E9F71197AE1BBF0BDF
:101E20008091F6038F5F8A0F8093F6031E8B0D8BD4
:101E300080E0DF91CF911F910F91FF90EF90089577
:101E4000EF92FF920F931F93DF93CF93CDB7DEB73F
:101E5000C055D0400FB6F894DEBF0FBECDBF8C0189
:101E60007E010894E11CF11CC70140E550E00E948E
:101E7000A91EC801B7010E94E50EC05BDF4F0FB677
:101E8000F894DEBF0FBECDBFCF91DF911F910F91B0
:101E9000FF90EF9008951092F603E8E3F4E021E05C
:101EA000F08FE78BCF018E96928F818F138E248FC8
:101EB000158E12A2779685E0E63DF80789F7138222
:101EC00012821092500410924F041092540487E032
:101ED000809355048AE594E06AE372E00E94E21E72
:101EE00086E694E00895CF93DF93EC018C810E9405
:101EF000D9158093A402882369F48C8195E1899F88
:101F0000C0011124805A9E4FFC0125913491CE01CD
:101F1000F9010995DF91CF910895CF93DF93EC01FB
:101F20008C810E94D9158093A402882369F48C8146
:101F300095E1899FC00111248E599E4FFC01259186
:101F40003491CE01F9010995DF91CF910895DF9287
:101F5000EF92FF920F931F93CF93DF93EC018C814D
:101F60000E94D915882309F049C00C81CE010E9436
:101F7000500E0C8391E1E92EF12CEC0EFD1E85E153
:101F8000D82E0D9D800111240B5A1E4FC701B80198
:101F90000E948A1E8E01055F1F4F6C816D9DB001EE
:101FA0001124675A7E4FC8010E948A1E898988239E
:101FB000C1F0EC81ED9DF0011124E15AFE4FE49156
:101FC000E2FF02C0198A0DC0F70101900020E9F775
:101FD000EE19FF093A96EC0FFD1FC801BF010E94E0
:101FE000E21E8C8195E1899FC0011124805A9E4F89
:101FF000FC0125913491CE01F9010995DF91CF9132
:102000001F910F91FF90EF90DF900895EF92FF9254
:102010000F931F93DF93CF9300D000D000D0CDB7A4
:10202000DEB79C017B018E010F5F1F4FC801B90114
:102030000E94E21EC801B7010E94C31E00E025E114
:10204000E22EF12C56C0402F50E04E9D90014F9D46
:10205000300D5E9D300D1124F901E75AFE4FE491D9
:102060008981E81709F044C0F901E65AFE4FE4916E
:10207000EE2321F48A81882309F442C08A81E8177B
:1020800009F036C04E9DF0014F9DF00D5E9DF00DA4
:102090001124E55AFE4F9491992319F48B818823DA
:1020A00079F18B81981721F54E9DF0014F9DF00D30
:1020B0005E9DF00D1124E45AFE4F9491992319F47A
:1020C0008C818823E9F08C81981791F44E9DF00162
:1020D0004F9DF00D5E9DF00D1124E35AFE4F94913B
:1020E000992319F48D81882359F08D81981741F037
:1020F0000F5F802F0E94D915882309F0A4CF0FEF1E
:10210000802F26960FB6F894DEBF0FBECDBFCF91BD
:10211000DF911F910F91FF90EF900895EF92FF9242
:102120000F931F93CF93DF939C017B01C6E6D4E00E
:1021300090E08E81882339F00A80DB81C02D9F5F7B
:102140009031B9F718C08E01055F1F4FC801B90162
:1021500045E050E00E94E91ECE01B7010E94E50E65
:10216000882349F48CE392E0B8010E9406108C8326
:1021700085E08E8302C0C0E0D0E0CE01DF91CF9138
:102180001F910F91FF90EF9008950F931F93DF938E
:10219000CF93CDB7DEB7C055D0400FB6F894DEBFB1
:1021A0000FBECDBF00D000D08E010F5F1F4FEDB727
:1021B000FEB712830183948383830E9411200F90C2
:1021C0000F900F900F908DE392E0B8010E948E1057
:1021D000C05BDF4F0FB6F894DEBF0FBECDBFCF910F
:1021E000DF911F910F910895BC018DE392E00E9451
:1021F0008E100895EF92FF920F931F93DF93CF936A
:10220000CDB7DEB7C055D0400FB6F894DEBF0FBED5
:10221000CDBF8C0100D000D07E010894E11CF11CE0
:10222000EDB7FEB7F282E182748363830E941120CE
:102230000F900F900F900F90C801B7010E948E1061
:10224000C05BDF4F0FB6F894DEBF0FBECDBFCF919E
:10225000DF911F910F91FF90EF900895CF93DF933F
:10226000BC01C6E6D4E090E08E81882339F00A8074
:10227000DB81C02D9F5F9031B9F70BC08CE392E0FA
:102280000E9406108C838F3F21F0CE010E94A70F81
:1022900002C0C0E0D0E0CE01DF91CF910895BC0133
:1022A00081E492E00E94111F9C0180E0232B09F43D
:1022B00081E00895AF92BF92CF92DF92EF92FF92AA
:1022C0000F931F93DF93CF9300D000D0CDB7DEB72D
:1022D0008C014BE0C42ED12CC80ED91E87E0F8012A
:1022E0008683FF2435E1E32E5E010894A11CB11C16
:1022F00016C0FE9CB00111246B5A7E4FC5010E948E
:102300008A1EC601B5010E94D91E009739F4095EE4
:102310001F4FF801F482C8010E94A70FF3948F2D7C
:102320000E94DF15882329F70F900F900F900F90D0
:10233000CF91DF911F910F91FF90EF90DF90CF90A1
:10234000BF90AF900895FC0184810E94EC15089520
:102350001F93CF93DF93EC018091AB02882311F49C
:1023600088E219C010E00A80DB81C02D209791F02F
:102370008E81882379F0813021F4CE010E94730F81
:1023800006C0CE010E948D0FCE010E94A3111F5FD7
:102390001F3049F780E0DF91CF911F910895DF92C0
:1023A000EF92FF920F931F93CF93DF930E944B0FF7
:1023B000EC0181E08093AB0280E090E0A0E8BFE315
:1023C0008F839887A987BA871C828E01055F1F4F6C
:1023D00065E1E62EF12C55E1D52E2CC04C81842FE1
:1023E00090E08E9D90018F9D300D9E9D300D1124AB
:1023F000F901E15AFE4FE491E0FF19C0F901EA59F1
:10240000FE4F85919591A591B4918F839887A98767
:10241000BA874D9DB0011124675A7E4FC8010E94B2
:102420008A1ECE010E948D0FCE010E94A3118C81C5
:102430008F5F8C838C810E94DF15882379F6DF9172
:10244000CF911F910F91FF90EF90DF9008952F9201
:102450003F924F925F926F927F928F929F92AF9234
:10246000BF92CF92DF92EF92FF920F931F93CF9381
:10247000DF938C016B01DC011596EC90EB018BE78F
:102480008993FF2490E054E4252E52E0352E4EE54A
:10249000442E42E0542E39E5632E32E0732E23E5BC
:1024A000822E22E0922E8DE4A82E82E0B82EF80132
:1024B0008681882309F4CBC0992311F0FCE2F993BB
:1024C00000D000D000D0EDB7FEB73196ADB7BEB7A3
:1024D0001296DC93CE93119733822282055F1F4FB1
:1024E000158304830B5010400E94ED1FC80FD91FA5
:1024F000F80186812DB73EB72A5F3F4F0FB6F8949B
:102500003EBF0FBE2DBF813039F4CE016AE472E0C8
:102510000E94E21E229692C08330A1F48DB79EB72E
:1025200008970FB6F8949EBF0FBE8DBFEDB7FEB7EC
:102530003196ADB7BEB71296DC93CE931197B382A6
:10254000A28216C0843061F52DB73EB728503040C6
:102550000FB6F8943EBF0FBE2DBFEDB7FEB7319654
:10256000ADB7BEB71296DC93CE9311979382828259
:10257000D80117962D913D914D915C911A97248326
:102580003583468357830E94ED1FC80FD91FEDB7CF
:10259000FEB738960FB6F894FEBF0FBEEDBF4EC023
:1025A000853079F400D000D000D0EDB7FEB7319679
:1025B000ADB7BEB71296DC93CE9311977382628249
:1025C00010C08630E9F400D000D000D0EDB7FEB7DF
:1025D0003196ADB7BEB71296DC93CE931197538266
:1025E0004282D80155968D919C915697958384830C
:1025F0000E94ED1FC80FD91FEDB7FEB73696CACFA0
:102600008230E1F4D80117966D917D918D919C9166
:102610001A9720E030E040E050E00E94DE19882365
:1026200039F4CE0163E672E00E94E21E259606C0F0
:10263000CE0169E672E00E94E21E2496F8018681CE
:10264000873011F091E003C0FBE7F99390E0D801E7
:1026500012960D911C9113970115110519F48F2DE8
:102660009DE70DC0F80185818F151CF4FDE7F993F6
:1026700091E0D8011596FC901ACF99938150E816F5
:10268000E4F3CE016EE672E00E94E21E9E012E5F30
:102690003F4F2C193D09C901DF91CF911F910F9137
:1026A000FF90EF90DF90CF90BF90AF909F908F9072
:1026B0007F906F905F904F903F902F9008950F9371
:1026C0001F9300EB12E0B8010E94271260914E06A2
:1026D00070914F06C8010E94891F1F910F910895A4
:1026E0008FE494E00E945F1308952F923F924F92DF
:1026F0005F926F927F928F929F92AF92BF92CF9292
:10270000DF92EF92FF920F931F93DF93CF93CDB79A
:10271000DEB729970FB6F894DEBF0FBECDBF7C01A0
:102720008091710290917202A0917302B091740233
:102730008E839F83A887B987F70101900020E9F76E
:102740003197EE19FF09E138F10510F01BE225C0C1
:1027500087016701BB241AC0BB2069F4883219F4D1
:10276000BB24B39404C0813270F08F3761F090E0E5
:102770000E94821E05C0BB24893211F0BB24B39491
:10278000F80181938F010894C11CD11CF60180814E
:10279000882311F7F801108210E01093A40211238E
:1027A00009F03EC106E614E0E0E1CE2E0F2EF0E087
:1027B0006F2EF0E07F2EF0E88F2EFFE39F2EF02D9E
:1027C0000F2EF0E02F2EF0E03F2EF0E04F2EF0E045
:1027D0005F2EF02DCA9411F411E322C1DE0113968D
:1027E000E5E7F2E083E001900D928150E1F7C80146
:1027F0000E94500EC70162E270E00E94CE1E009758
:1028000009F42BC17C010894E11CF11CC70162E2B0
:1028100070E00E94CE1EFC01009709F41EC19A834D
:10282000898310827BE0A72EB12CA00EB11EC501BA
:10283000B70145E050E00E94E91E89819A81019626
:102840009A8389836AE370E00E94CE1EFC010097A0
:1028500009F403C17C010894E11CF11C21812E368E
:1028600031F0223231F4F7018181823211F481E0BA
:102870004FC0822F90E0C0970A9710F02D32B1F42C
:10288000C701BE016F5F7F4F0E94421CF801678342
:1028900070878187928789819A818E159F0511F4AF
:1028A0001AE2BEC084E0F801868354C02B3739F4A5
:1028B00087E0F80186830894E11CF11CCBC022322A
:1028C00021F50894E11CF11C85E0F8018683C7011D
:1028D00062E270E00E94CE1EFC01009709F4BDC0C8
:1028E0009A8389831082C801B7010E94E50ED82E11
:1028F0008093A402882309F048C0E980FA800894F4
:10290000E11CF11CFA82E98225C0243741F482E0FF
:10291000F801868367827086818692861BC0263680
:1029200041F482E0F8018683278230864186528610
:1029300011C02B3509F091C086E0F8018683C801EB
:10294000B7010E94E50ED82E8093A4028823E9F4F3
:102950001FE266C0C701BE016D5F7F4F0E94031F6B
:10296000FC017C01009709F478C080818D3719F44F
:102970000894E11CF11CF70180818C3209F46AC0D3
:102980000894E11CF11CDD2405C0F2E0FD1510F4F3
:102990001D2D46C08E81882349F0C8014196BE0195
:1029A0006A5F7F4F43E050E00E94E91EC8014196F4
:1029B000B5010E940610F80184838F3F11F418E2DC
:1029C0002FC00E94E515882361F0C5010E944F11B8
:1029D000882339F0CE010696B50143E050E00E940D
:1029E000E91EF80102811381DD2009F0F3CE809108
:1029F0006C04813041F486E694E00E94730F182F36
:102A00008093A4020DC086E694E00E948D0F182FDB
:102A10008093A402882321F486E694E00E94A31107
:102A2000812F29960FB6F894DEBF0FBECDBFCF9190
:102A3000DF911F910F91FF90EF90DF90CF90BF90AB
:102A4000AF909F908F907F906F905F904F903F904E
:102A50002F90089562E0D62E9DCF10E3E1CF0F9323
:102A60001F938C010E944B0FC8010E94751360E0F8
:102A700042E00E94740E1F910F9108958093780296
:102A800088E792E008958FEF9FEF08950F931F93CB
:102A9000CF93DF93EC01E989FA8984859585892BA9
:102AA00019F429E030E016C08E010D5E1F4FCB01F6
:102AB000BA01A8010E94301F892B19F020E030E0F4
:102AC00009C0E989FA8915861486C8010E942B1F5E
:102AD00028E030E0C901DF91CF911F910F91089557
:102AE0001F93CF93DF93FC01C485D5858EA18823E6
:102AF00019F02EEF3FEF30C0E989FA89848595857A
:102B000020813181820F931FFC011491112311F454
:102B100081E08EA3E989FA8980819181A281B381C4
:102B20000196A11DB11D80839183A283B3838BA1E4
:102B3000882329F0112311F01D3009F41AE08AA12D
:102B4000882341F060914C0670914D06812F90E0F2
:102B50000E945D1F212F30E0C901DF91CF911F91AD
:102B60000895EF92FF920F931F937B01E82FF0E0FF
:102B7000EE0FFF1FE051FC4F00811181C801BA0127
:102B80000E946304D8015196ED91FC915297F5860D
:102B9000E48680E090E4A0E0B0E080879187A2879F
:102BA000B3870D5E1F4FC8011F910F91FF90EF90EB
:102BB000089590E08A3108F491E0892F089590E01B
:102BC000873108F491E0892F089590E08651843090
:102BD00008F491E0892F089590E0873108F491E09E
:102BE000892F0895A1E1B0E0E8EFF5E10C940B1C0A
:102BF0003C017F876E876A01FC0117821682838100
:102C000081FD03C06FEF7FEF6FC39E012F5F3F4FCA
:102C1000398B288BF3012381EE85FF8523FD859178
:102C200023FF8191FF87EE87882309F45AC38532F9
:102C300051F4EE85FF8523FD859123FF8191FF8768
:102C4000EE87853229F490E0B3010E945D1FE2CF48
:102C5000982F10E0882499241032B0F49B3269F048
:102C60009C3228F4903251F0933271F40BC09D32B3
:102C700039F0903349F4116028C01260146025C007
:102C8000186023C0106121C017FD2AC0892F80530E
:102C90008A3078F416FF06C0FAE09F9E902C11242B
:102CA000980E13C03AE0839E802C1124880E106287
:102CB0000CC09E3221F416FD14C3106406C09C366D
:102CC00011F4106802C0983659F4EE85FF8523FD93
:102CD000959123FF9191FF87EE87992309F0BCCF4F
:102CE000892F8554833020F4812F8061905E07C046
:102CF000892F8556833008F09FC1812F8F7E86FDF6
:102D000002C076E0972E6FE3F62EF822953619F47E
:102D1000F0E4FF2A07C0963619F420E8F22A02C030
:102D200091109A94F7FE0AC03BE3391518F45CE35E
:102D3000B52E02C0B92CB39427E009C047E049156D
:102D400020F4BB2447E0942EF7CF292DBB24C601E5
:102D500004969D878C87F6016081718182819381C1
:102D6000AE014F5F5F4F0B2D0E94A21D6C010981C8
:102D7000202E332400FF04C003FD02C01DE209C061
:102D8000F1FE02C01BE205C0F2FC02C010E001C06F
:102D900010E2C1018C709070892BB9F1112311F4EC
:102DA00083E001C084E0881510F088240AC0881AE6
:102DB000F3FC07C080E290E0B3010E945D1F8A949B
:102DC000C9F7112329F0812F90E0B3010E945D1F04
:102DD00023FE03C008E610E00EC00CE610E00BC0B6
:102DE000E114F10409F0805290E0B3010E945D1FEC
:102DF0000F5F1F4F05C0EF2CFF24F0E1EF22FF24EF
:102E0000F8018491882361F714C1F7FE12C0BC0C4D
:102E100024FE04C08A81813309F4BA941B141CF087
:102E2000BB24B3942DC0F8E0FB1550F538E0B32E69
:102E300027C0F6FC25C0892D90E08C159D054CF02F
:102E40002CEFC2162FEFD20624F030E8F32A01C08F
:102E50009A94992049F0E2E0F0E0EC0FFD1FE90DB3
:102E6000F11D80818033A1F3F7FE0AC0B92CB39421
:102E7000892D90E0C816D90614F0992401C09C1839
:102E8000F7FC03C025E030E009C01C141D041CF051
:102E900021E030E003C096012F5F3F4F112311F076
:102EA0002F5F3F4F992029F0892D90E00196280F40
:102EB000391F882D90E02817390714F0882401C0A5
:102EC000821A4F2C5524C20189709070892B39F0D9
:102ED00008C080E290E0B3010E945D1F8A948820C0
:102EE000C1F7112329F0812F90E0B3010E945D1FEB
:102EF00043FE07C008C080E390E0B3010E945D1F5D
:102F00008A948820C1F7F7FE46C08601D7FE02C02A
:102F100000E010E076010894E11CF11CE01AF10ACF
:102F200041E050E04C0F5D1FE40EF51E26014B18EA
:102F30005108892D90E0AA24BB24A81AB90A5FEF92
:102F40000F3F150729F48EE290E0B3010E945D1F48
:102F5000C016D10634F0401651061CF4F7018081EA
:102F600001C080E3015010400894E11CF11C0A15D7
:102F70001B052CF090E0B3010E945D1FE0CF0C1503
:102F80001D0539F49A81963318F4953311F424FE13
:102F900081E390E04BC08A81813309F00F7E90E09D
:102FA000B3010E945D1F9920A1F08EE290E0B30171
:102FB0000E945D1F12E0E1E0F0E0EC0FFD1FE10F69
:102FC000F11D1F5F808190E0B3010E945D1F9A9404
:102FD00091F744FC03C085E690E002C085E490E0F0
:102FE000B3010E945D1FD7FC05C0C114D10441F498
:102FF00004FF06C0D094C194D108D3948DE201C0DF
:103000008BE290E0B3010E945D1F80E305C08F5FFB
:1030100026EF3FEFC20ED31E3AE0C316D104BCF731
:1030200090E0B3010E945D1FC601C096B3010E94EB
:103030005D1FCC84DD8452C1933631F0933799F013
:10304000933509F059C023C0F601808189835E0160
:103050000894A11CB11C22E030E0C20ED31E21E076
:10306000E22EF12C12C0F601A080B18016FD03C043
:103070006FEF7FEF02C0692D70E022E030E0C20EFA
:10308000D31EC5010E94F81E7C011F7713C0F601F4
:10309000A080B18016FD03C06FEF7FEF02C0692DE5
:1030A00070E022E030E0C20ED31EC5010E94B81EBF
:1030B0007C01106813FF07C01BC080E290E0B301E1
:1030C0000E945D1F8A94882D90E0E816F906A8F307
:1030D0000FC0F50117FD859117FF81915F0190E009
:1030E000B3010E945D1F81108A940894E108F108E1
:1030F000E114F10471F7F2C0943611F0993689F5B4
:1031000017FF08C0F601208131814281538184E09C
:1031100090E00AC0F601808191819C01442737FD2F
:103120004095542F82E090E0C80ED91E9FE6F92EFC
:10313000F12257FF09C050954095309521953F4F9A
:103140004F4F5F4F90E8F92ACA01B901AE014F5FB6
:103150005F4F2AE030E00E943520E82EE889EE1A21
:1031600041C0953721F41F7E2AE030E01CC0197F52
:103170009F3661F0903720F4983509F0B2C00FC047
:10318000903739F0983709F0ACC004C028E030E03F
:103190000AC0106114FD146020E130E004C014FD89
:1031A000166020E132E017FF08C0F60160817181EE
:1031B0008281938144E050E008C0F60180819181D2
:1031C000BC0180E090E042E050E0C40ED51EAE01AC
:1031D0004F5F5F4F0E943520E82E5889E51A8FE730
:1031E000F82EF122F6FE0BC08EEFF822E91438F427
:1031F000F4FE07C0F2FC05C09FEEF92202C01E2DAE
:1032000001C0192DF4FE0DC0FE01EE0DF11D8081EF
:10321000803319F4E9EEFE2208C01F5FF2FE05C0FC
:1032200003C08F2D867809F01F5F0F2DF3FC14C0AB
:10323000F0FE0FC0181510F09E2C0BC09E2C980CA1
:10324000911A182D06C080E290E0B3010E945D1F24
:103250001F5F1815C0F304C0181510F4811A01C0BF
:10326000882404FF0FC080E390E0B3010E945D1F3B
:1032700002FF1DC001FD03C088E790E00EC088E595
:1032800090E00BC0802F867891F001FF02C08BE2A6
:1032900001C080E2F7FC8DE290E0B3010E945D1F67
:1032A00006C080E390E0B3010E945D1F9A94E91488
:1032B000C0F3EA94E1E0F0E0EC0FFD1FEE0DF11D2C
:1032C000808190E0B3010E945D1FEE2091F706C05F
:1032D00080E290E0B3010E945D1F8A948820C1F7CC
:1032E00099CCF30166817781CB016196E2E10C9480
:1032F000271C5058BB27AA270ED070C161D130F0CF
:1033000066D120F031F49F3F11F41EF456C10EF443
:10331000E095E7FB4CC1E92F72D180F3BA17620741
:1033200073078407950718F071F49EF58AC10EF4AF
:10333000E0950B2EBA2FA02D0B01B90190010C01C5
:10334000CA01A0011124FF27591B99F0593F50F4DD
:10335000503E68F11A16F040A22F232F342F442735
:10336000585FF3CF469537952795A795F04053952D
:10337000C9F77EF41F16BA0B620B730B840BBAF0FD
:103380009150A1F0FF0FBB1F661F771F881FC2F768
:103390000EC0BA0F621F731F841F48F4879577957C
:1033A0006795B795F7959E3F08F0B3CF9395880F33
:1033B00008F09927EE0F979587950895D4D008F4D3
:1033C00081E008950CD00AC102D140F0F9D030F06C
:1033D00021F45F3F19F0EBC0511134C1EEC00FD1A1
:1033E00098F39923C9F35523B1F3951B550BBB27CC
:1033F000AA2762177307840738F09F5F5F4F220F79
:10340000331F441FAA1FA9F333D00E2E3AF0E0E871
:1034100030D091505040E695001CCAF729D0FE2FBD
:1034200027D0660F771F881FBB1F2617370748074F
:10343000AB07B0E809F0BB0B802DBF01FF27935805
:103440005F4F2AF09E3F510568F0B1C0FBC05F3F5F
:10345000ECF3983EDCF3869577956795B795F795ED
:103460009F5FC9F7880F911D9695879597F90895E5
:10347000E1E0660F771F881FBB1F62177307840781
:10348000BA0720F0621B730B840BBA0BEE1F88F790
:10349000E0950895BCD088F09F5790F0B92F9927F8
:1034A000B751A0F0D1F0660F771F881F991F1AF04F
:1034B000BA95C9F712C0B13081F0C3D0B1E0089518
:1034C000C0C0672F782F8827B85F39F0B93FCCF399
:1034D000869577956795B395D9F73EF49095809545
:1034E000709561957F4F8F4F9F4F0895E89409C065
:1034F00097FB3EF490958095709561957F4F8F4F27
:103500009F4F9923A9F0F92F96E9BB279395F6953C
:10351000879577956795B795F111F8CFFAF4BB0FBA
:1035200011F460FF1BC06F5F7F4F8F4F9F4F16C01E
:10353000882311F096E911C0772321F09EE8872FA8
:10354000762F05C0662371F096E8862F70E060E064
:103550002AF09A95660F771F881FDAF7880F9695DD
:10356000879597F90895990F0008550FAA0BE0E881
:10357000FEEF16161706E807F907C0F01216130635
:10358000E407F50798F0621B730B840B950B39F475
:103590000A2661F0232B242B252B21F408950A26DB
:1035A00009F4A140A6958FEF811D811D089597F91B
:1035B0009F6780E870E060E008959FEF80EC0895D9
:1035C00000240A9416161706180609060895002402
:1035D0000A9412161306140605060895092E03947C
:1035E000000C11F4882352F0BB0F40F4BF2B11F4F0
:1035F00060FF04C06F5F7F4F8F4F9F4F089557FD4F
:103600009058440F551F59F05F3F71F04795880F50
:1036100097FB991F61F09F3F79F0879508951216E7
:1036200013061406551FF2CF4695F1DF08C0161693
:1036300017061806991FF1CF869571056105089444
:103640000895E894BB2766277727CB0197F908955B
:103650008ADF08F48FEF08950BD0C0CFB1DF28F0D8
:10366000B6DF18F0952309F0A2CFA7CF1124EACF37
:10367000C6DFA0F3959FD1F3950F50E0551F629FD1
:10368000F001729FBB27F00DB11D639FAA27F00DBB
:10369000B11DAA1F649F6627B00DA11D661F829FE2
:1036A0002227B00DA11D621F739FB00DA11D621FC7
:1036B000839FA00D611D221F749F3327A00D611DE4
:1036C000231F849F600D211D822F762F6A2F1124C6
:1036D0009F5750408AF0E1F088234AF0EE0FFF1F19
:1036E000BB1F661F771F881F91505040A9F79E3F50
:1036F000510570F05CCFA6CF5F3FECF3983EDCF352
:10370000869577956795B795F795E7959F5FC1F78C
:10371000FE2B880F911D9695879597F9089511F4C2
:103720000EF44BCF41C073DFD0F39923D9F3CEF31E
:103730009F57550B87FF46D00024A0E640EA900132
:1037400080585695979528F4805C660F771F881FE0
:1037500020F026173707480730F4621B730B840BE1
:10376000202931294A2BA695179407942025312525
:103770004A2758F7660F771F881F20F0261737074C
:10378000480730F4620B730B840B200D311D411D73
:10379000A09581F7B901842F9158880F9695879548
:1037A00008959B01AC0158CF9F3F31F0915020F418
:1037B000879577956795B795880F911D969587950D
:1037C00097F9089591505040660F771F881FD2F7E0
:1037D0000895A1E21A2EAA1BBB1BFD010DC0AA1F52
:1037E000BB1FEE1FFF1FA217B307E407F50720F06A
:1037F000A21BB30BE40BF50B661F771F881F991FE5
:103800001A9469F760957095809590959B01AC012D
:10381000BD01CF0108952F923F924F925F926F9218
:103820007F928F929F92AF92BF92CF92DF92EF9250
:10383000FF920F931F93CF93DF93CDB7DEB7CA1BD1
:10384000DB0B0FB6F894DEBF0FBECDBF09942A88FC
:10385000398848885F846E847D848C849B84AA84A4
:10386000B984C884DF80EE80FD800C811B81AA8131
:10387000B981CE0FD11D0FB6F894DEBF0FBECDBFFC
:10388000ED010895A0E0B0E0E8E4FCE10C94111C27
:10389000EC015B016115710519F0FB0191838083D7
:1038A000F9908F2D90E00E947A1E892BC9F7FDE2D6
:1038B000FF1621F4F990EE24E39405C02BE2F216F2
:1038C00009F4F990EE248E0101501040C80167E719
:1038D00073E043E050E00E94911E892B01F58E01B8
:1038E0000E5F1F4FC8016AE773E045E050E00E9499
:1038F000911E892B19F48E01095F1F4FA114B10489
:1039000019F0F50111830083E0FC04C070E090E041
:1039100080E814C070E090E080E86FEF08C1C80153
:103920006FE773E043E050E00E94911E892B69F439
:10393000A114B10429F470E090E080EC6FE7F7C0C7
:103940002296F501D183C083F6CF8824992440E0E4
:1039500050E060E070E0EF2DE053EA30A0F5F2E0D7
:10396000EF2A8E2D90E09C0128703070E2FE06C098
:10397000232B79F50894811C911C2BC0232B19F063
:10398000089481089108DB01CA0112E0880F991F91
:10399000AA1FBB1F1A95D1F7480F591F6A1F7B1F1B
:1039A000440F551F661F771F4E0F511D611D711D5E
:1039B000483929E9520729E9620729E1720748F0E5
:1039C00084E0E82A06C0EE3F31F4E3FC39C098E019
:1039D000E92AF990C0CFE53311F0E53189F5299155
:1039E0002D3219F4E0E1EE2A05C02B3219F081E006
:1039F00090E003C0299182E090E0E22FE053EA30AA
:103A000018F0C81BD90B1CC020E030E0FCE02038C7
:103A10003F075CF4C901880F991F880F991F280F71
:103A2000391F220F331F2E0F311DE991E053EA3069
:103A300068F3E4FE03C0309521953F4F820E931E3C
:103A4000CE2CDD24E1FE07C0A114B10421F02197A2
:103A5000F501D183C083CB01BA010E94761A7B01A4
:103A60008C01F3E0CF22DD2423E0C216D10421F43F
:103A700017FB109517F9109557016801C801B70198
:103A800020E030E040E050E00E94DE19882309F495
:103A90004AC097FE0DC026E9E22E23E0F22E909454
:103AA000819491089394C0E2D0E000E010E012C04D
:103AB0009EEAE92E93E0F92EF6CFF7012591359194
:103AC00045915491C601B5010E942C1B5B016C010C
:103AD0008C1A9D0A8C169D0684F7D595C7950F5FA5
:103AE0001F4F0630110529F08CEF9FEFE80EF91EED
:103AF000F1CFC501D6017C018D018C2D880F8D2D54
:103B0000881F8F3F51F0C601B50120E030E040E052
:103B100050E00E94DE19882331F482E290E0909315
:103B20005106809350067E2D9F2D802F612F272FC9
:103B3000392F482F562FB901CA01CDB7DEB7ECE0B7
:103B40000C942D1C283008F027E03327DA01990F58
:103B5000311D87FD916000966105710539F4326071
:103B60002E5F3D9330E32A95E1F708959F3F30F0B3
:103B700080387105610509F03C5F3C5F3D939130F1
:103B800008F08068911DDF93CF931F930F93FF92EE
:103B9000EF92192F987F9695E92F96959695E90FB4
:103BA000FF27E45FFB4F99273327EE24FF24A7016B
:103BB000E70105900894079428F4360FE71EF81ED5
:103BC000491F511D660F771F881F991F0694A1F783
:103BD0000590079428F4E70EF81E491F561FC11DD3
:103BE000770F881F991F661F0694A1F70590079409
:103BF00028F4F80E491F561FC71FD11D880F991FA3
:103C0000661F771F0694A1F70590079420F4490FCB
:103C1000561FC71FD81F990F661F771F881F06944E
:103C2000A9F784911095177041F0D695C7955795CF
:103C30004795F794E7941A95C1F7E2EBF3E068949F
:103C40001590159135916591959105907FE2739549
:103C5000E118F10A430B560BC90BD009C0F7E10C70
:103C6000F11E431F561FC91FD01D7EF4703311F47F
:103C70008A95E6CFE894015030F0080F0AF4002747
:103C8000021708F4202F2395022F7A3328F079E3C6
:103C90007D932A95E9F710C07D932A9589F60694BD
:103CA00097956795379517951794E118F10A430B87
:103CB000560BC90BD00998F023957E9173957A33F2
:103CC00008F070E37C932013B8F77E9170617D93C8
:103CD00030F0839571E37D9370E32A95E1F7112429
:103CE000EF90FF900F911F91CF91DF91992787FD62
:103CF00090950895911117C2803219F0895085501E
:103D0000D0F708959111089581548A5108F4805E86
:103D1000855A0895FB01DC0105900D920020E1F722
:103D20000895FB01DC014150504088F08D918134B1
:103D30001CF08B350CF4805E659161341CF06B35A2
:103D40000CF4605E861B611171F3990B0895881B5A
:103D5000FCCFFB01DC014150504048F005900D9232
:103D60000020C9F701C01D9241505040E0F708956E
:103D7000FC010590615070400110D8F78095909536
:103D80008E0F9F1F0895FB01DC010D900020E9F7C5
:103D9000119701900D920020E1F70895FC018191A7
:103DA000861721F08823D9F7992708953197CF01F5
:103DB0000895FB01DC018D91019080190110D9F368
:103DC000990B0895FB01DC0101900D920020E1F7B1
:103DD0000895FB01DC014150504048F001900D92E4
:103DE0000020C9F701C01D9241505040E0F70895EE
:103DF000FC016150704001900110D8F780959095BA
:103E00008E0F9F1F0895DC0199278D91882341F023
:103E1000FB01019008160110E1F7B9F71197CD01E8
:103E20000895FB0151915523A9F0BF01DC014D918B
:103E300045174111E1F759F4CD010190002049F0F7
:103E40004D9140154111C9F3FB014111EFCF81E0C4
:103E500090E001970895FC0183818F7C838308950E
:103E6000A0E0B0E0E6E3FFE10C94151C7C016A01E0
:103E7000FA01838180FF19C016161706B4F4EB010E
:103E8000219787010DC0C6010E949620FFEF8F3F4A
:103E90009F0759F0F80181938F010A9719F0219734
:103EA000209789F7F801108202C0EE24FF24C70191
:103EB000CDB7DEB7E8E00C94311C0F931F93CF937E
:103EC000DF938C01EB018B8181FF1BC082FF0DC052
:103ED0002E813F818C819D812817390764F4E88108
:103EE000F9810193F983E88306C0E885F985802F7D
:103EF0000995892B31F48E819F8101969F838E8352
:103F000002C00FEF1FEFC801DF91CF911F910F91FA
:103F10000895EF92FF920F931F93CF93DF937C014D
:103F20008B01DB0113968C9181FD03C0CFEFDFEF96
:103F300013C0C0E0D0E00BC0D8011896ED91FC9101
:103F40001997B8010995892B11F0CFEFDFEFF70131
:103F500081917F01882381F7CE01CDB7DEB7E6E0FE
:103F60000C94331CA0E0B0E0E8EBFFE10C941B1CC8
:103F7000FE0135966191719180914C0690914D06AC
:103F8000AF010E94F2152096E2E00C94371CA0E0ED
:103F9000B0E0EDECFFE10C941B1CFE013596619145
:103FA0007191A0914C06B0914D0613968C91139788
:103FB000886013968C9380914C0690914D06AF01CA
:103FC0000E94F215E0914C06F0914D062381277F67
:103FD00023832096E2E00C94371CAEE0B0E0E3EFE0
:103FE000FFE10C94191C0D891E8986E08C831A83CD
:103FF00009838FEF9FE79E838D839E01275E3F4F4E
:10400000CE0101966F89788DA9010E94F2152F814A
:104010003885020F131FF80110822E96E4E00C94ED
:10402000351CAEE0B0E0E7E1F0E20C94191C0D891C
:104030001E898EE08C831A8309838FEF9FE79E830E
:104040008D839E01275E3F4FCE0101966F89788D4B
:10405000A9010E94F2152F813885020F131FF80164
:1040600010822E96E4E00C94351CFA01AA27283021
:1040700051F1203181F1E8946F936E7F6E5F7F4F35
:104080008F4F9F4FAF4FB1E03ED0B4E03CD0670FB1
:10409000781F891F9A1FA11D680F791F8A1F911D04
:1040A000A11D6A0F711D811D911DA11D20D009F454
:1040B00068943F912AE0269F11243019305D319396
:1040C000DEF6CF010895462F4770405D4193B3E07F
:1040D0000FD0C9F7F6CF462F4F70405D4A3318F026
:1040E000495D31FD4052419302D0A9F7EACFB4E0D7
:1040F000A6959795879577956795BA95C9F700978F
:104100006105710508959B01AC010A2E069457952F
:10411000479537952795BA95C9F7620F731F841F86
:10412000951FA01D0895992788270895CF93DF93A1
:10413000EC014B8140FF1AC046FF0AC04F7B4B8306
:104140008E819F8101969F838E838A81282F2BC029
:1041500042FF13C0E881F9818081282F332727FD92
:1041600030952115310529F440624B832FEF3FEF45
:104170001BC03196F983E88311C0EA85FB85CE0127
:1041800009959C0197FF0AC09B812F5F3F4F11F05B
:1041900080E201C080E1892B8B83E8CF8E819F81F3
:1041A00001969F838E8330E0C901DF91CF910895FE
:0441B000F894FFCFB1
:1041B4007B226676223A22227D0A00257300303162
:1041C4003233343536371F0101000000000000008F
:1041D40000000000000000000000000000000000DB
:1041E4000000000000000000001F010100000000AA
:1041F40000000000000000000000000000000000BB
:10420400000000000000000000000000009D064DBA
:1042140004CC04F80588064C04160139010000009A
:10422400000000000000000000000000000000008A
:1042340000000000000000003F0101000000000039
:10424400000000000000000000000000000000006A
:10425400000000000000000000000000000000005A
:10426400000000000000000000000000000000004A
:1042740000000000000000000000003F01010000F9
:10428400000000000000000000000000000000002A
:10429400000000000000000000000000000000001A
:1042A400000000000000000000000000000000000A
:1042B4000000000000000000000000000000018970
:1042C400084D04CC04120598044C048801CB010069
:1042D40000000000000000000000000000000000DA
:1042E400000000000000000000007200006D736711
:1042F40000737200222573223A0022220025312EF7
:1043040030660025302E33660022257322005B259B
:10431400735D0066616C73650074727565007D0A77
:1043240000000000007D2C0002B1154D04461570FC
:104334001543154C04000000003C0600000000007A
:104344000000000000000000000000000000000069
:044354000000000065
:00000001FF
