:100000000C9436020C9453020C9453020C94530239
:100010000C9453020C9453020C9453020C9453020C
:100020000C9453020C9453020C9453020C945302FC
:100030000C9453020C9453020C94C3100C9453026E
:100040000C9453020C94AF130C94AC140C947A14CB
:100050000C9453020C9453020C9453020C945302CC
:100060000C9453020C94530273797300666200007F
:10007000000007F2025502A002C602A703C3F5C0A2
:100080004073797300667600000000070E03550286
:10009000A002C602AB03CDCCCC3D73797300687669
:1000A00000000000072C035502A002C602AF03CDDA
:1000B000CCCC3D68310000683173740000004A0305
:1000C000550256027A0274020000000068310000F6
:1000D0006831746D7000004A035502A002C6027AAE
:1000E00002000089C3683100006831736574000044
:1000F0004A035502A002C6027E0200002041683178
:100100000000683168797300004A03550256027A8C
:1001100002770200002041683100006831616D62A1
:1001200000004A035502A002C602920200002042CB
:100130006831000068316F767200004A035502A0F2
:1001400002C60296020000964368310000683161E1
:10015000746F00004A035502A002C6028A02000022
:10016000B44268310000683172656700004A035587
:1001700002A002C60282020000404068310000680E
:100180003172746F00004A035502A002C6028E024B
:100190000000964368310000683162616400004AE3
:1001A00003550256027A0278020000A04073310023
:1001B00000733173740000004A03550256027A023C
:1001C000B30300000000733100007331746D7000E0
:1001D000004A035502A002C602B703000089C37398
:1001E000310000733173766D00004A035502A0029E
:1001F000C602BF03CDCC8C3F7331000073317276E1
:100200006D00004A035502A002C602C3030000A00D
:10021000417031000070316B700000004A035502DC
:10022000A002C602B8020000A04070310000703188
:100230006B690000004A035502A002C602BC02CD51
:10024000CCCC3D7031000070316B640000004A037B
:100250005502A002C602C0020000003F703100003B
:100260007031736D7800004A035502A002C602A0E7
:10027000020000C842703100007031736D6E0000E2
:100280004A035502A002C602A402000000000000BA
:100290000000737973000000004A035502700427C0
:1002A000031B030000000000000000683100000094
:1002B00000004A035502700427031B0300000000DE
:1002C00000000000733100000000004A0355027076
:1002D0000427031B03000000000000000070310031
:1002E000000000004A035502700427031B030000AE
:1002F00000005B66625D20206669726D77617265E1
:10030000206275696C642531382E32660A005B669E
:10031000765D20206669726D776172652076657200
:1003200073696F6E2531362E32660A005B68765D22
:1003300020206861726477617265207665727369E6
:100340006F6E2531362E32660A000048656174658D
:10035000722053656E736F72204572726F722053F4
:10036000687574646F776E0A004865617465722001
:10037000416D6269656E74204572726F72205368B8
:100380007574646F776E0A004865617465722054F5
:10039000696D656F7574204572726F722053687550
:1003A00074646F776E0A000A446576696365204954
:1003B0006E697469616C697A65642025312E3066D6
:1003C0000A0054656D703A25312E336620200050A6
:1003D000574D3A25312E336620200053746444650E
:1003E000763A25312E33662020004572723A253147
:1003F0002E3366202000493A25312E336620200016
:100400000A040F041A0424040A0020204F4B002081
:100410002053687574646F776E002020486561749E
:10042000696E67002020524547554C4154454400B1
:10043000494E46494E4954594E414E000020410014
:1004400000C84200401C4620BCBE4CCA1B0E5AAE1F
:10045000C59D74CDCCCC3D0AD7233C17B7D1387796
:10046000CC2B329595E6241FB14F0A0011241FBEF4
:10047000CFEFD8E0DEBFCDBF12E0A0E0B1E0EEEEFE
:10048000F9E302C005900D92A437B107D9F716E041
:10049000A4E7B2E001C01D92A431B107E1F70E94C8
:1004A000D6140C94F51C0C9400000895CF93DF93A0
:1004B000EC018C8190E029E130E0829FF001839F84
:1004C000F00D929FF00D1124E558FF4FA591B491C6
:1004D0006C9170E080E090E00E940316DC01CB019B
:1004E0008F839887A987BA8783E08E8380E0DF9126
:1004F000CF9108950F931F93CF93DF938C01FC014D
:10050000848190E029E130E0829FF001839FF00D2B
:10051000929FF00D1124E558FF4FC591D491F80139
:1005200067817085818592850E94D715688383E0F5
:10053000F801868380E0DF91CF911F910F9108959C
:10054000CF93DF93DC0114968C91149790E029E10E
:1005500030E0829FF001839FF00D929FF00D1124F7
:10056000E558FF4FC591D491488159816A817B81BB
:1005700017964D935D936D937C931A9784E016962E
:100580008C93169780E0DF91CF910895CF93DF93FE
:10059000DC0114968C91149790E029E130E0829F61
:1005A000F001839FF00D929FF00D1124E558FF4F4D
:1005B000C591D49117964D915D916D917C911A974B
:1005C000488359836A837B8384E016968C931697BD
:1005D00080E0DF91CF910895982F965181E094307B
:1005E00008F080E00895DC0114968C9114978A310C
:1005F00090F490E029E130E0829FF001839FF00DBC
:10060000929FF00D1124E758FF4F25913491CD01B1
:10061000F9010995089588E20895DC0114968C91FA
:1006200014978A3190F490E029E130E0829FF00144
:10063000839FF00D929FF00D1124E958FF4F2591F3
:100640003491CD01F9010995089588E208951F9329
:10065000CF93DF93EC01809121038823A9F01FE061
:100660000A80DB81C02D209789F08E81882371F06C
:10067000813021F4CE010E940D0303C0CE010E94FF
:10068000F302115069F702C088E201C080E0DF91F7
:10069000CF911F910895DC0114968C9114978A31A3
:1006A00088F490E029E130E0829FF001839FF00D13
:1006B000929FF00D1124EB58FF4F25913491CD01FD
:1006C000F90109950895089580E00895BC0180E03E
:1006D00091E00E94831921E0009709F020E0822F29
:1006E00008950F931F93CF93DF9300D000D000D0D5
:1006F000CDB7DEB79C018B01CE010196B9010E94F6
:100700005F19CE010196B8010E944019B9813A8162
:100710006B817C81AD8140E050E009E110E0242F45
:10072000409FC001419F900D509F900D1124FC01EE
:10073000E459FF4FE491EB1761F5FC01E359FF4FDA
:10074000E491EE2319F4332321F52AC0E31709F5C8
:10075000FC01E259FF4FE491EE2319F46623C9F43A
:100760001FC0E617B1F4FC01E159FF4FE491EE23FD
:1007700019F4772371F414C0E71759F480599F4F87
:10078000FC018491882319F4AA2319F409C08A175B
:1007900039F04F5F5F4F4A31510509F0C0CF2FEF5D
:1007A000822F26960FB6F894DEBF0FBECDBFDF9125
:1007B000CF911F910F910895FC011682148240E0A1
:1007C00050E0BA0147835087618772871386118A88
:1007D000168A158AA081B181109711F415820AC07A
:1007E00016969C91169715968C911597973009F44B
:1007F0008F5F8583CF010895CF92DF92EF92FF92B2
:100800000F931F93CF93DF93EC010C810A3108F013
:100810005EC00E94DC030C8381E1C82ED12CCC0E7B
:10082000DD1E802F90E009E110E0809FB001819FE4
:10083000700D909F700D112468597F4FC6010E9462
:1008400012199BE0E92EF12CEC0EFD1E8C8190E03C
:10085000809FB001819F700D909F700D112464598D
:100860007F4FC7010E94121989898823F1F08C817A
:1008700090E0809FF001819FF00D909FF00D11247A
:10088000EE58FF4FE491E2FF02C0198A0EC0D60174
:100890000D900020E9F7BD016C197D09665F7F4F5F
:1008A0006C0F7D1FC7010E945F198C8190E029E1C8
:1008B00030E0829FF001839FF00D929FF00D112494
:1008C000E958FF4F25913491CE01F9010995DF9147
:1008D000CF911F910F91FF90EF90DF90CF900895EF
:1008E0008F929F92AF92BF92CF92DF92EF92FF9240
:1008F0000F931F93CF93DF9300D000D0CDB7DEB717
:100900007C012BE0A22EB12CA80EB91E87E0F701C6
:100910008683CC24DD2439E1832E912CC89CB00140
:10092000C99C700DD89C700D112468597F4FCE0161
:1009300001960E941219C501BE016F5F7F4F0E9490
:100940005619009749F48701095E1F4FF701C38EBE
:10095000C8010E94FC0378010894C11CD11CF7E176
:10096000CF16D104D9F680E00F900F900F900F9022
:10097000DF91CF911F910F91FF90EF90DF90CF907B
:10098000BF90AF909F908F9008951092CA0222E17D
:10099000EBE2F4E031E001C0FC01CF014797918325
:1009A0008083CF0147969383828314823583168296
:1009B0001386215089F71092B5051092B405109254
:1009C0002C0410922B041092300487E080933104A1
:1009D00086E394E063E071E00E945F1982E494E0B2
:1009E0000895EF92FF920F931F93CF93DF930E948E
:1009F000C504EC0181E08093210380E090E0A0E851
:100A0000BFE38F839887A987BA871C8209E110E02A
:100A10004BE0E42EF12CEC0EFD1E24C090E0809FF4
:100A2000B001819F700D909F700D1124FB01EE5855
:100A3000FF4FE491E0FF13C0FB01E358FF4F8591A6
:100A40009591A591B4918F839887A987BA876459A6
:100A50007F4FC7010E941219CE010E94F3028C81C0
:100A60008F5F8C838C818731C8F2DF91CF911F918A
:100A70000F91FF90EF900895EF92FF920F931F93C5
:100A8000CF93DF937C01EB018091CA0290E0FB01E0
:100A900001900020E9F73197E61BF70BE80FF91FEB
:100AA000E135F105A8F48C0105531D4FC8010E94E2
:100AB0005F19DE010D900020E9F78091CA028C1BBE
:100AC0008A0F8093CA02F701168B058B80E001C064
:100AD0008DE0DF91CF911F910F91FF90EF900895DE
:100AE0000F931F93CF93DF93CDB7DEB7C055D040A0
:100AF0000FB6F894DEBF0FBECDBF8C01CE010196BC
:100B000040E550E00E943119C801BE016F5F7F4F80
:100B10000E943C05C05BDF4F0FB6F894DEBF0FBEEE
:100B2000CDBFDF91CF911F910F910895CF93DF93A8
:100B3000BC0180E1C2E4D4E09E81992331F00A80B7
:100B4000DB81C02D8150C1F70BC085E091E00E9490
:100B500071038C838F3F21F0CE010E94FC0302C001
:100B6000C0E0D0E0CE01DF91CF910895CF92DF9227
:100B7000EF92FF92CF93DF939C016A017B0180E1AA
:100B8000C2E4D4E09E81992341F00A80DB81C02D2C
:100B90008150C1F7C0E0D0E013C0CE010B96B9017F
:100BA00045E050E00E946619C701B6010E94031695
:100BB000DC01CB018F839887A987BA8783E08E8376
:100BC000CE01DF91CF91FF90EF90DF90CF9008950D
:100BD000CF92DF92EF92FF92CF93DF939C016A0155
:100BE0007B0180E1C2E4D4E09E81992341F00A8038
:100BF000DB81C02D8150C1F7C0E0D0E00DC0CE0137
:100C00000B96B90145E050E00E946619CF82D88664
:100C1000E986FA8684E08E83CE01DF91CF91FF9042
:100C2000EF90DF90CF900895EF92FF920F931F9374
:100C3000CF93DF939C017B0180E102E414E0F80193
:100C40009681992329F0028113818150C1F718C040
:100C5000E8012B96CE01B90145E050E00E946619EB
:100C6000C801B7010E943C05882351F485E091E05A
:100C7000BE010E947103F801848385E0868302C06F
:100C800000E010E0C801DF91CF911F910F91FF901C
:100C9000EF900895EF92FF920F931F93CF93DF93FE
:100CA000CDB7DEB7C055D0400FB6F894DEBF0FBE4B
:100CB000CDBF7C0100D000D08E010F5F1F4FEDB77C
:100CC000FEB712830183748363830E941B1A0F9003
:100CD0000F900F900F90C701B8010E941406C05BDF
:100CE000DF4F0FB6F894DEBF0FBECDBFDF91CF91BF
:100CF0001F910F91FF90EF900895BC0186E091E065
:100D00000E94140608950F931F93CF93DF93CDB7DE
:100D1000DEB7C055D0400FB6F894DEBF0FBECDBFD2
:100D200000D000D08E010F5F1F4FEDB7FEB71283CA
:100D30000183948383830E941B1A0F900F900F905E
:100D40000F9086E091E0B8010E941406C05BDF4F6F
:100D50000FB6F894DEBF0FBECDBFDF91CF911F91CC
:100D60000F91089590912103913061F4413019F071
:100D7000423041F405C082E494E00E94260D0895BB
:100D80000E94370D0895CF93DF9300D0CDB7DEB723
:100D90006A8389830E94A6100E94230E8981809312
:100DA00074026A81609375020E9409110F900F907E
:100DB000DF91CF9108958AE2EAE9F2E0DF011D9226
:100DC0008A95E9F780E090E0A0EAB0E48093B80269
:100DD0009093B902A093BA02B093BB028DEC9CEC45
:100DE000ACECBDE38093BC029093BD02A093BE0225
:100DF000B093BF0280E090E0A0E0BFE38093C00228
:100E00009093C102A093C202B093C30280E090E02D
:100E1000A8ECB2E48093A0029093A102A093A20256
:100E2000B093A30281E080939A02089586E2E4E7FA
:100E3000F2E0DF011D928A95E9F780E090E0A0E4FE
:100E4000B0E48093820290938302A0938402B093D3
:100E5000850280E090E0A4EBB2E480938A02909354
:100E60008B02A0938C02B0938D0280E090E0A6E903
:100E7000B3E480938E0290938F02A0939002B0937C
:100E8000910240E050E060E272E44093920250939D
:100E900093026093940270939502809396029093CC
:100EA0009702A0939802B093990285E0809378020C
:100EB0000E94DB0D0E94DB06089580E090E0DC01DB
:100EC00080939C0290939D02A0939E02B0939F02F8
:100ED00040E050E068E473E44093B0025093B10204
:100EE0006093B2027093B3028093AC029093AD0210
:100EF000A093AE02B093AF020895CF92DF92EF922B
:100F0000FF926B017C01809174028250823058F113
:100F10000E941F0E0E94260E0E945D0760E070E096
:100F20008AE794E420E030E0A9010E948710C09293
:100F30007E02D0927F02E0928002F09281021092B3
:100F400077021092790280E090E0DC0180938602C3
:100F500090938702A0938802B093890282E08093E5
:100F600074020E940911FF90EF90DF90CF900895D6
:100F70008F929F92AF92BF92CF92DF92EF92FF92A9
:100F80000F931F93CF93DF93E0919A02EE2349F4DE
:100F90007091A4026091A5029091A6028091A7028F
:100FA00004C10E9406158B01D82FC92F4B01A82E12
:100FB000B92ECB01AD2FBC2F8093A8029093A9022C
:100FC000A093AA02B093AB02C501B4019F772DECA8
:100FD0003CEC4CEC5DE30E94B5161816ACF5609144
:100FE0009C0270919D0280919E0290919F0220919F
:100FF000A0023091A1024091A2025091A3020E944E
:101000006B1587FF21C0C801AD2FBC2FBC01CD01DE
:101010002DEC3CEC4CEC5DE30E94B9169B01AC015D
:101020006091B0027091B1028091B2029091B302CE
:101030000E940715DC01CB018093B0029093B102AE
:10104000A093B202B093B302C501B4012091AC02E7
:101050003091AD024091AE025091AF020E94061550
:101060002DEC3CEC4CEC5DE30E946F15D62FC72FA6
:10107000182F092FAE019801852F942FA32FB22F7F
:101080008093B4029093B502A093B602B093B702D6
:10109000C501B4012091B8023091B9024091BA0261
:1010A0005091BB020E94B9166B017C016091BC0299
:1010B0007091BD028091BE029091BF022091B0025A
:1010C0003091B1024091B2025091B3020E94B91620
:1010D0009B01AC01C701B6010E9407156B017C01A1
:1010E000AE019801852F942FA32FB22FBC01CD0103
:1010F0002091C0023091C1024091C2025091C302BE
:101100000E94B9169B01AC01C701B6010E940715E8
:10111000EB01182F092F9801862F9D2FA32FB22F97
:1011200080939C0290939D02A0939E02B0939F0295
:10113000C090A002D090A102E090A202F090A30281
:10114000BC01CD01A70196010E94B5161816ACF09E
:10115000C090A402D090A502E090A602F090A70251
:1011600098018C2F9D2FA32FB22FBC01CD01A70179
:1011700096010E946B1587FF08C0C0929C02D09216
:101180009D02E0929E02F0929F028092AC029092A9
:10119000AD02A092AE02B092AF0270919C0260913B
:1011A0009D0290919E0280919F02AB019C01852F30
:1011B000962FA32FB22FBC01CD01DF91CF911F91AC
:1011C0000F91FF90EF90DF90CF90BF90AF909F90E6
:1011D0008F9008958F929F92AF92BF92CF92DF929D
:1011E000EF92FF921F93CF93DF938091740282302E
:1011F00008F422C10E94560D0E94320E60937A02BA
:1012000070937B0280937C0290937D0220919602E2
:101210003091970240919802509199020E94B51620
:1012200018162CF481E063E00E94C30605C10E94F9
:10123000260EC0907A02D0907B02E0907C02F09063
:101240007D02C701B60123E333E948E853EC0E946D
:101250006B1587FF12C0809179028F5F80937902AE
:1012600090917802981708F0E7C081E064E00E944E
:10127000C30600D08BE493E062C0109279026091C3
:101280007E0270917F028091800290918102A7017D
:1012900096010E94B8070E942B1080917402823040
:1012A00009F07EC060918602709187028091880269
:1012B000909189022DEC3CEC4CEC5DE30E9407150B
:1012C000162FD72FC82FC92E862F9D2FAC2FBC2DA0
:1012D0008093860290938702A0938802B09389023C
:1012E00080907A0290907B02A0907C02B0907D0268
:1012F000C501B40120919202309193024091940271
:10130000509195020E946B1587FF22C0812F9D2F5F
:10131000AC2FBC2DBC01CD0120918A0230918B02F3
:1013200040918C0250918D020E94B516181684F4DB
:1013300081E061E00E94C30600D089E693E0EDB74A
:10134000FEB7928381830E94D6190F900F9074C0CC
:10135000C501B40120917E0230917F02409180024C
:10136000509181020E946B1587FF1AC0812F9D2F1B
:10137000AC2FBC2DBC01CD0120918E0230918F028B
:1013800040919002509191020E94B516181644F4B3
:1013900081E062E00E94C30600D088E893E0CFCFEE
:1013A0008091A8029091A902A091AA02B091AB02EB
:1013B000BC01CD019F772091820230918302409140
:1013C0008402509185020E946B15181664F080917A
:1013D00077028F5F809377028B30E4F08AE080930E
:1013E000770283E015C08091770281508093770265
:1013F000181684F01092770280E090E0DC01809370
:10140000860290938702A0938802B093890282E0BB
:101410008093740280917402833019F40E94071142
:101420000BC0809176028F5F80937602843020F02B
:10143000109276020E940F11DF91CF911F91FF90C1
:10144000EF90DF90CF90BF90AF909F908F900895D6
:101450002F923F924F925F926F927F928F929F92C4
:10146000AF92BF92CF92DF92EF92FF920F931F93B2
:10147000CF93DF93CDB7DEB72A970FB6F894DEBFD0
:101480000FBECDBF7C011E821F8218861986FC010B
:1014900001900020E9F73197E81BF90BE138F105DD
:1014A00038F56C018C0120E01AC0222389F48832BF
:1014B00029F08132A0F08F3791F001C021E090E057
:1014C0002A870E940A19D8018D938D012A8507C0A9
:1014D00021E0893209F420E0F80181938F01D601DF
:1014E0008D916D01882309F7F801108210E001C089
:1014F0001BE21093A603112309F047C130E1932E9C
:1015000042E4C42E44E0D42E52E0852E332433949A
:101510000F2EF0E04F2EF0E05F2EF0E86F2EFFE38D
:101520007F2EF02D64E0262E9A9409F42BC1FE0143
:101530003396AAE0B1E083E00D9001928150E1F78B
:10154000C6010E94DC03C70162E270E00E944B19F1
:10155000009709F436C18C010F5F1F4FC80162E28A
:1015600070E00E944B199A838983009709F429C17E
:10157000DC011C922BE0A22EB12CAC0CBD1CC501D1
:10158000B80145E050E00E94661989819A81019670
:101590009A8389836AE370E00E944B19FC010097EB
:1015A00009F40FC17C010894E11CF11C21812E3645
:1015B00029F0223231F48281823219F4F601368226
:1015C00056C0822F90E0C0978A30910510F02D32DE
:1015D000A9F4C701BE016F5F7F4F0E949817DC011D
:1015E000CB01F60187839087A187B28789819A8191
:1015F0008E159F0509F4E3C026825FC02B3759F48E
:1016000087E0D60116968C93169792E0E92EF12C7E
:10161000EE0EFF1ED8C0223231F582E0E82EF12C0A
:10162000EE0EFF1E85E0F6018683C70162E270E0E0
:101630000E944B199A838983009709F4C2C0DC0188
:101640001C92C601B7010E943C05182F8093A60387
:10165000882309F04DC0E980FA800894E11CF11C50
:10166000FA82E9822AC0243751F4F6018682D60133
:1016700017964D925D926D927C921A971EC02636F7
:1016800051F4F601868280E090E0DC018783908748
:10169000A187B28712C02B3509F093C0E6E0D601CE
:1016A0001696EC93C601B7010E943C05182F809353
:1016B000A6038823E9F41FE268C0C701BE016D5F7D
:1016C0007F4F0E9475197C01009709F47AC0DC01F4
:1016D0008C918D3719F40894E11CF11CF70180817D
:1016E0008C3209F470C00894E11CF11C10E003C0B6
:1016F000133008F04AC08E81882349F0C601419614
:10170000BE016A5F7F4F43E050E00E946619C60148
:101710004196B5010E947103D60114968C931497DB
:101720008F3F91F10E94EC02882361F0C5010E9475
:101730006603882339F0CE010696B50143E050E0F8
:101740000E946619F601C280D380112309F0ECCE05
:1017500080914804813041F482E494E00E940D03BA
:10176000182F8093A60311C082E494E00E94F30234
:10177000182F8093A603882341F482E494E00E940A
:10178000630303C011E301C018E2812F2A960FB64C
:10179000F894DEBF0FBECDBFDF91CF911F910F91A7
:1017A000FF90EF90DF90CF90BF90AF909F908F9081
:1017B0007F906F905F904F903F902F9008951AE226
:1017C000E4CF10E3E2CF12E096CFCF93DF93EC01AA
:1017D0000E94C504CE010E94280A60E042E00E94F7
:1017E000B206DF91CF9108952F923F924F925F9270
:1017F0006F927F929F92AF92BF92CF92DF92EF92C1
:10180000FF920F931F93CF93DF938C016B01DC0149
:1018100015969C901597EB018BE7899380E0FF2448
:10182000EDE06E2EE1E07E2EFBE7EF2E27E2422E6A
:1018300021E0522E32E2232E31E0332E4CE2B42E40
:101840005DE7A52EF8019681992309F4CBC081119B
:10185000B99200D000D000D0EDB7FEB73196ADB749
:10186000BEB71296DC93CE93119773826282C80141
:101870000B96958384830E94F919C80FD91FF8012C
:1018800086812DB73EB72A5F3F4F0FB6F8943EBF13
:101890000FBE2DBF813039F4CE0163E171E00E94AB
:1018A0005F19229697C08330A9F48DB79EB7089729
:1018B0000FB6F8949EBF0FBE8DBF2DB73EB72F5FFA
:1018C0003F4FADB7BEB71296DC93CE93119786E12A
:1018D00091E016C0843079F58DB79EB708970FB6A2
:1018E000F8949EBF0FBE8DBF2DB73EB72F5F3F4F01
:1018F000ADB7BEB71296DC93CE9311978CE191E011
:10190000F90193838283F80187819085A185B2854F
:10191000F90184839583A683B7830E94F919C80FC0
:10192000D91F2DB73EB7285F3F4F0FB6F8943EBF83
:101930000FBE2DBF4FC0853079F400D000D000D04D
:10194000EDB7FEB73196ADB7BEB71296DC93CE9326
:1019500011973382228210C0863011F500D000D05A
:1019600000D0EDB7FEB73196ADB7BEB71296DC9397
:10197000CE93119753824282D80155968D919C91B6
:101980005697958384830E94F919C80FD91FEDB724
:10199000FEB736960FB6F894FEBF0FBEEDBF1AC065
:1019A0008230C1F4678170858185928520E030E0C6
:1019B000A9010E946B15882339F4CE016CE271E015
:1019C0000E945F19259606C0CE0162E371E00E9475
:1019D0005F192496F8018681873019F4E99280E036
:1019E00001C081E0D80112960D911C911397011549
:1019F000110511F48DE70DC0F80195819F1514F4C0
:101A0000A99281E0D8011596FC9015971BCF899378
:101A1000FA949F14E4F3CE0167E371E00E945F192A
:101A2000CE0102968C199D09DF91CF911F910F91E4
:101A3000FF90EF90DF90CF90BF90AF909F907F90FE
:101A40006F905F904F903F902F900895CF93DF93CA
:101A5000C6E2D3E0BE010E94F40B609110067091C3
:101A60001106CE010E949D19DF91CF9108958BE25E
:101A700094E00E94260D0895089580E06AE371E0E5
:101A80000E944F13089500D000D087EA93E0EDB78D
:101A9000FEB7928381838AE290E0948383830E94DD
:101AA000D6190F900F900F900F90089500D000D08E
:101AB00000D082EC93E0EDB7FEB7928381838091F2
:101AC000B7039091B803A091B903B091BA0383838F
:101AD0009483A583B6830E94D6198FEC93E0EDB76B
:101AE000FEB79283818380919C0290919D02A09188
:101AF0009E02B0919F0283839483A583B6830E9444
:101B0000D6198BED93E0EDB7FEB792838183809178
:101B1000BB039091BC03A091BD03B091BE0383832E
:101B20009483A583B6830E94D6198AEE93E0EDB71D
:101B3000FEB7928381838091A8029091A902A0911F
:101B4000AA02B091AB0283839483A583B6830E94DB
:101B5000D61986EF93E0EDB7FEB79283818380912B
:101B6000B0029091B102A091B202B091B30283830E
:101B70009483A583B6830E94D619E0917402F0E0A5
:101B8000EE0FFF1FE050FC4F859194910F900F9046
:101B90000F900F90EDB7FEB7818392830E94D61904
:101BA00088E094E0EDB7FEB7928381830E94D61956
:101BB0000F900F90089580E7E3EBF3E0DF011D92B3
:101BC0008A95E9F783E393E9A8E8B3EC8093B70338
:101BD0009093B803A093B903B093BA038DEC9CEC37
:101BE000ACE8BFE38093BF039093C003A093C1030D
:101BF000B093C20380E090E0A0EAB1E48093C30315
:101C00009093C403A093C503B093C60380E090E013
:101C1000A8ECB3E48093C7039093C803A093C903CF
:101C2000B093CA0380E090E0A0E0B0EC8093CB03D7
:101C30009093CC03A093CD03B093CE03089581E09D
:101C40008093B30308951092B30308951092B503DF
:101C500081E08093B40308958091B3030895809147
:101C6000B40308958091B303833049F47091B703AE
:101C70006091B8039091B9038091BA0304C070E0F9
:101C800060E099E883ECAB019C01852F962FA32F90
:101C9000B22FBC01CD0108952F923F924F925F92D7
:101CA0006F927F928F929F92AF92BF92CF92DF926C
:101CB000EF92FF920F931F93CF93DF93CDB7DEB7D1
:101CC0002C970FB6F894DEBF0FBECDBF8091B30343
:101CD000882309F4FBC08091B403813009F0F6C079
:101CE0000091B50310E00E94A20F000F111F000F1A
:101CF000111F01531C4FBC0180E090E00E940316AD
:101D000026E03FEA4AEF5EE30E94B91623ED31EB8D
:101D100046ED5EE30E940615DC01CB01F8018083ED
:101D20009183A283B3838091B5038F5F8093B503C2
:101D3000843108F4CBC08FEC93E064E1AE014F5FD7
:101D40005F4F0E9418116B017C016093BB0370937D
:101D5000BC038093BD039093BE032091C3033091D5
:101D6000C4034091C5035091C6030E94B5161816CE
:101D700024F482E08093B303A7C01092B60380E0FE
:101D800090E0DC018093B7039093B803A093B9036C
:101D9000B093BA0389819A81AB81BC818F83988784
:101DA000A987BA87C701B6012091BF033091C0034C
:101DB0004091C1035091C2030E94B916362E272EBE
:101DC0008B879C8700E0AFECB3E0BE83AD83CC246F
:101DD000FF24EE24DD2410E0ED81FE81419051903E
:101DE00061907190FE83ED83C301B2012F8138852C
:101DF00049855A850E9406159F77A1013B852C8550
:101E0000852E922CA32EB22EA50194010E946B1553
:101E100087FF0FC08C2D9F2DAE2DBD2DBC01CD0198
:101E2000A30192010E940715C62EF72EE82ED92E87
:101E30000F5F1F5F143181F60093B603602F70E0CF
:101E400080E090E00E9405169B01AC018C2D9F2D37
:101E5000AE2DBD2DBC01CD010E946F157B018C0103
:101E6000862F9F2DA02FB12F8093B7039093B80397
:101E7000A093B903B093BA0323E0D22ED092B30358
:101E80001092B403BC01CD0120E030E048EC53E4F3
:101E90000E94B516181634F482E08093B303D092F2
:101EA000B40314C08E2D9F2DA02FB12FBC01CD01E6
:101EB00020E030E040E050EC0E946B1587FF06C048
:101EC00082E08093B30384E08093B4032C960FB632
:101ED000F894DEBF0FBECDBFDF91CF911F910F9160
:101EE000FF90EF90DF90CF90BF90AF909F908F903A
:101EF0007F906F905F904F903F902F9008958FEF5D
:101F00008093640014B817B81AB80895E4E6F0E0B6
:101F100090819E7F9083982F9064ECE7F0E090830F
:101F200096E890937A009081907F9083908190833F
:101F300021E030E002C0220F331F8A95E2F72093A0
:101F40007E00089580917A00806480937A00809169
:101F50007A0080917A00806180937A008091780085
:101F600090917900009771F38091780090917900B9
:101F70000895539AE4E6F0E080818F7B8083E0EB64
:101F8000F0E080EF8083808183608083E1EBF0E08C
:101F900088E0808380818460808310926F0010923B
:101FA000B3001092B40080E090E0DC01809327043D
:101FB00090932804A0932904B0932A0408950F93C2
:101FC0001F93CF93DF939B01AC0160E074E284E741
:101FD00098E40E946F158B01D82FC92F9E01862F80
:101FE000912FA32FB22F8093270490932804A093BE
:101FF0002904B0932A04BC01CD0120E030E040EA7E
:1020000051E40E946B1587FF02C084E110C09E015D
:10201000802F912FA32FB22FBC01CD0120E030E003
:102020004FE753E40E94B51687FD04C08FEF8093FD
:10203000B3000BC09E01802F912FA32FB22FBC01A4
:10204000CD010E94D7156093B30080E0DF91CF915E
:102050001F910F9108958F929F92AF92BF92CF924E
:10206000DF92EF92FF926B017C012AE037ED43E2B1
:102070005CE30E946B1587FF04C08FEF8093B40070
:1020800030C0C701B6012DEC3CEC47EC52E40E9495
:10209000B51618161CF41092B40023C06091B3005A
:1020A00070E080E090E00E9405164B015C01C701E2
:1020B000B60120E030E048EC52E40E946F159B012D
:1020C000AC0160E070E080E89FE30E9406159B0190
:1020D000AC01C501B4010E94B9160E94D7156093E6
:1020E000B400609127047091280480912904909194
:1020F0002A040E94D7156093B30080E0FF90EF9010
:10210000DF90CF90BF90AF909F908F9008958F9267
:102110009F92AF92BF92CF92DF92EF92FF926B01AC
:102120007C0149015A010E94B90FC701B6010E9402
:10213000DF0FC501B4010E942B10FF90EF90DF90DC
:10214000CF90BF90AF909F908F90089560E070E027
:10215000CB019B01AC010E9487100895E4E6F0E0FA
:1021600080818F7D808382E084BD93E095BD9DE773
:1021700097BD80936E008AE08093240480932504A9
:102180008093260408951F920F920FB60F92112488
:102190008F9381E0809323048F910F900FBE0F9057
:1021A0001F901895CF9380912304882319F11092E2
:1021B00023040E944C0E80912404815080932404B7
:1021C0008823D1F4CAE0C09324048091250481506F
:1021D00080932504882381F4C09325040E94EA0893
:1021E00080912604815080932604882329F4C0938B
:1021F000260403C083E001C080E0CF9108950E94CF
:102200004C0E089508950E94EA08089508955A987A
:1022100008955A9A0895539A0E94091108958BB10E
:10222000882319F00E94071108950E94091108954A
:102230002F923F924F925F926F927F928F929F92D6
:10224000AF92BF92CF92DF92EF92FF920F931F93C4
:10225000CF93DF93862E1A01662309F478C02C01F0
:10226000C0E0AA24992477246624D0E010E000E09E
:10227000BB24F201C190D190E190F1902F018D2FFC
:10228000912FA02FBB2DBC01CD01A70196010E946B
:102290000715D62F172F082FB92EC701B6010E9498
:1022A0005E179B01AC01B3018A2D992DA72FB62D86
:1022B000BC01CD010E940715A62E972E782E692EFF
:1022C000CF5FC815B1F66C2F70E080E090E00E94FF
:1022D00005166B017C018D2F912FA02FBB2DBC010A
:1022E000CD01A70196010E946F15EB01182F092F50
:1022F0009801862F9D2FA32FB22FF1018083918308
:10230000A283B38393018A2D992DA32FB22FBC01F1
:10231000CD01A70196010E946F15962EA72EB82E0B
:10232000C92E98018C2F9D2FA32FB22FBC01CD0158
:102330000E945E179B01AC01892D9A2DAB2DBC2DFF
:10234000BC01CD010E9406150E94201704C060E068
:1023500070E080E090E0382F292F862F972FA32F51
:10236000B22FBC01CD01DF91CF911F910F91FF9052
:10237000EF90DF90CF90BF90AF909F908F907F9025
:102380006F905F904F903F902F9008958E3271F034
:102390008D3261F08B3261F0282F30E020533040D5
:1023A00081E02A30310528F080E0089581E0089529
:1023B00081E00895E82FF0E0EE0FFF1FEC53FD4F92
:1023C0000190F081E02D0180F281E02D09950895C2
:1023D000E82FF0E0EE0FFF1FEC53FD4F808191815D
:1023E000DC011596ED91FC91169709950895E82F5B
:1023F000F0E0EE0FFF1FEC53FD4F80819181DC0177
:102400001796ED91FC911897439609950895E82F3A
:10241000F0E0EE0FFF1FEC53FD4F0190F081E02D37
:102420009F012D5E3F4F0184F285E02D862FB9017B
:1024300009950895E82FF0E0EE0FFF1FEC53FD4FD4
:10244000462F50E060E070E0808191810E943B1453
:1024500080E090E00895E82FF0E0EE0FFF1FEC53CE
:10246000FD4F80819181439690930D0680930C06D9
:102470000895E82FF0E0EE0FFF1FEC53FD4F808131
:102480009181439690930F0680930E060895E82F4E
:10249000F0E0EE0FFF1FEC53FD4F808191814396DA
:1024A0009093110680931006089580E00E943614E0
:1024B0009093C5028093C40281E00E94AA13909376
:1024C000C7028093C60280E060E070E045E150E121
:1024D0000E94DA1181E060E070E040E050E10E948B
:1024E000DA1180E00E942B1280E00E94391281E014
:1024F0000E94471208950895FC0160FF02C081E028
:1025000081A361FD11A264FF02C081E082A365FD89
:1025100012A274FF02C081E083A375FD13A280E0C4
:1025200090E00895CF93DF93EC01ED85FE85309721
:1025300029F081E08283ED85FE858183EF85F8892E
:10254000309729F081E08283EF85F88981831CA28E
:102550001DA21EA2CE010E947C1289859A859C8FA5
:102560008B8F8F8198859E8F8D8F83E08E8BD8A3E4
:10257000CF8FDF91CF910895E82FF0E0EE0FFF1F8E
:10258000EC53FD4F808191810E947C120895FC01E3
:1025900092818181981761F08181815081838823A4
:1025A00011F4808181838181E80FF11D8381089579
:1025B0008FEF0895CF93DF93EC018CA1882339F43A
:1025C00081E08CA37BA76AA719A658A74FA34FA1A8
:1025D00058A529A530E0CA0101972817390744F00A
:1025E000EAA5FBA5E40FF51F10828DE090E022C064
:1025F0008D859E850E94C712482F552747FD50950F
:102600009FEF4F3F5907A1F099A52AA53BA5290F98
:10261000311DF9014A30510539F410829F5F99A7A5
:102620001CA280E090E006C080839F5F99A7CFCF77
:1026300082E090E0DF91CF910895DC011C96ED914E
:10264000FC911D97858596850E94C712282F3327F8
:1026500027FD3095932F0895FC018281815009F464
:1026600080819181891749F0DF01A80FB11D139670
:102670006C931397828380E008958FEF0895282F3D
:10268000FB010484F585E02D87859089622F0E94E7
:102690002C13282F332727FD3095932F0895EF9281
:1026A000FF921F93CF93DF937B0110E0C82FD0E000
:1026B000CC0FDD1FCC53DD4F07C01F5FE881F981D0
:1026C000858596850E942C13F701E10FF11D60812D
:1026D000662399F7DF91CF911F91FF90EF900895B6
:1026E000C9ECD5E005E411E081E069EC75E040E477
:1026F00050E00E94E81180930B068823A9F700D0D0
:1027000000D0EDB7FEB712830183D483C3830E9448
:10271000C1190F900F900F900F90E6CFCF93DF93DA
:10272000BA01E82FF0E0EE0FFF1FEC53FD4FC08120
:10273000D181CE010E949212E4E6F0E080818B7F8D
:1027400080838CB58C6C8CBD249ACE014396DF912E
:10275000CF9108958093500180E591E008951F92F4
:102760000F920FB60F9211242F933F934F935F93C5
:102770006F937F938F939F93AF93BF93EF93FF9349
:10278000CF93DF930F92CDB7DEB76EB580915F0127
:102790009091600169830E94C71269818F3F09F49B
:1027A00083E08EBD80915D0190915E010E942C13AB
:1027B0000F90DF91CF91FF91EF91BF91AF919F91DA
:1027C0008F917F916F915F914F913F912F910F90DA
:1027D0000FBE0F901F901895EF92FF921F93CF930B
:1027E000DF93FC01C485D5858D859E850E94C71227
:1027F000182FE82EFF24E7FCF094EB85FC85CE0132
:1028000009958AA1882341F060910E0670910F0608
:10281000E985FA85812F0995FDE0EF16F10421F095
:102820008AE0E816F10431F48BA1882319F08AE0DC
:10283000E82EF12CC701DF91CF911F91FF90EF900F
:102840000895282FFB010484F585E02D8785908964
:10285000622F0E942C13E1ECF0E090819062908353
:10286000282F332727FD3095932F08958093020258
:1028700082E092E008959A01AB0193E0220F331FAA
:10288000441F551F9A95D1F760E074E284EF90E001
:102890000E947617215030403093C5002093C40029
:1028A000E0ECF0E080818D7F80830895CF93DF930B
:1028B000BA01E82FF0E0EE0FFF1FEC53FD4FC0818F
:1028C000D181CE010E949212E4E6F0E080818D7FFA
:1028D00080831092C00088E98093C100CE0140E05F
:1028E00052EC61E070E00E943B14CE014396DF9110
:1028F000CF9108951F920F920FB60F9211242F932C
:102900003F934F935F936F937F938F939F93AF9377
:10291000BF93EF93FF9380911102909112020E9456
:10292000C7128F3F31F48091C1008F7D8093C10029
:1029300002C08093C600FF91EF91BF91AF919F912C
:102940008F917F916F915F914F913F912F910F9058
:102950000FBE0F901F9018951F920F920FB60F92F7
:1029600011242F933F934F935F936F937F938F9394
:102970009F93AF93BF93EF93FF936091C6008091B5
:102980000F02909110020E942C13FF91EF91BF91C2
:10299000AF919F918F917F916F915F914F913F91F7
:1029A0002F910F900FBE0F901F901895F8940E94D2
:1029B0007F0F0E9455120E943C0D0E94F10480E09E
:1029C0000E94860F0E94B90F0E94AE100E940B1148
:1029D0000E9416070E94DB0D78940E94430D0E940E
:1029E0003D0D0E94D2108230E1F380911F0366E218
:1029F00073E040E850E00E94E8118093A60388232A
:102A000081F786E293E00E94E50BEBCF5058BB279D
:102A1000AA270ED070C161D130F066D120F031F418
:102A20009F3F11F41EF456C10EF4E095E7FB4CC134
:102A3000E92F72D180F3BA176207730784079507ED
:102A400018F071F49EF58AC10EF4E0950B2EBA2FA2
:102A5000A02D0B01B90190010C01CA01A0011124A4
:102A6000FF27591B99F0593F50F4503E68F11A1650
:102A7000F040A22F232F342F4427585FF3CF4695E1
:102A800037952795A795F0405395C9F77EF41F1603
:102A9000BA0B620B730B840BBAF09150A1F0FF0FCD
:102AA000BB1F661F771F881FC2F70EC0BA0F621FB9
:102AB000731F841F48F4879577956795B795F795A9
:102AC0009E3F08F0B3CF9395880F08F09927EE0F3B
:102AD000979587950895D4D008F481E008950CD097
:102AE0000AC102D140F0F9D030F021F45F3F19F073
:102AF000EBC0511134C1EEC00FD198F39923C9F343
:102B00005523B1F3951B550BBB27AA2762177307F3
:102B1000840738F09F5F5F4F220F331F441FAA1FA7
:102B2000A9F333D00E2E3AF0E0E830D09150504067
:102B3000E695001CCAF729D0FE2F27D0660F771F15
:102B4000881FBB1F261737074807AB07B0E809F0F7
:102B5000BB0B802DBF01FF2793585F4F2AF09E3F8C
:102B6000510568F0B1C0FBC05F3FECF3983EDCF369
:102B7000869577956795B795F7959F5FC9F7880F05
:102B8000911D9695879597F90895E1E0660F771F57
:102B9000881FBB1F621773078407BA0720F0621BE8
:102BA000730B840BBA0BEE1F88F7E0950895BCD029
:102BB00088F09F5790F0B92F9927B751A0F0D1F026
:102BC000660F771F881F991F1AF0BA95C9F712C0B0
:102BD000B13081F0C3D0B1E00895C0C0672F782F25
:102BE0008827B85F39F0B93FCCF38695779567951C
:102BF000B395D9F73EF490958095709561957F4F88
:102C00008F4F9F4F0895E89409C097FB3EF490952D
:102C10008095709561957F4F8F4F9F4F9923A9F0B5
:102C2000F92F96E9BB279395F69587957795679544
:102C3000B795F111F8CFFAF4BB0F11F460FF1BC088
:102C40006F5F7F4F8F4F9F4F16C0882311F096E91B
:102C500011C0772321F09EE8872F762F05C06623C9
:102C600071F096E8862F70E060E02AF09A95660F82
:102C7000771F881FDAF7880F9695879597F908953B
:102C8000990F0008550FAA0BE0E8FEEF161617067D
:102C9000E807F907C0F012161306E407F50798F0E5
:102CA000621B730B840B950B39F40A2661F0232BFE
:102CB000242B252B21F408950A2609F4A140A6957A
:102CC0008FEF811D811D089597F99F6780E870E05F
:102CD00060E008959FEF80EC089500240A94161692
:102CE000170618060906089500240A9412161306FA
:102CF000140605060895092E0394000C11F4882388
:102D000052F0BB0F40F4BF2B11F460FF04C06F5FA3
:102D10007F4F8F4F9F4F089557FD9058440F551F79
:102D200059F05F3F71F04795880F97FB991F61F04D
:102D30009F3F79F087950895121613061406551FC4
:102D4000F2CF4695F1DF08C0161617061806991F30
:102D5000F1CF86957105610508940895E894BB2725
:102D600066277727CB0197F908958ADF08F48FEF5C
:102D700008950BD0C0CFB1DF28F0B6DF18F095234F
:102D800009F0A2CFA7CF1124EACFC6DFA0F3959F09
:102D9000D1F3950F50E0551F629FF001729FBB2742
:102DA000F00DB11D639FAA27F00DB11DAA1F649FEE
:102DB0006627B00DA11D661F829F2227B00DA11DA1
:102DC000621F739FB00DA11D621F839FA00D611D27
:102DD000221F749F3327A00D611D231F849F600D48
:102DE000211D822F762F6A2F11249F5750408AF081
:102DF000E1F088234AF0EE0FFF1FBB1F661F771F0D
:102E0000881F91505040A9F79E3F510570F05CCF4C
:102E1000A6CF5F3FECF3983EDCF3869577956795F8
:102E2000B795F795E7959F5FC1F7FE2B880F911D2A
:102E30009695879597F9089511F40EF44BCF41C0FC
:102E400073DFD0F39923D9F3CEF39F57550B87FF48
:102E500046D00024A0E640EA900180585695979508
:102E600028F4805C660F771F881F20F0261737072D
:102E7000480730F4621B730B840B202931294A2B3D
:102E8000A69517940794202531254A2758F7660FF1
:102E9000771F881F20F026173707480730F4620B8A
:102EA000730B840B200D311D411DA09581F7B901D5
:102EB000842F9158880F9695879508959B01AC01B2
:102EC00058CF9F3F31F0915020F4879577956795C3
:102ED000B795880F911D9695879597F9089591500C
:102EE0005040660F771F881FD2F70895A1E21A2E6F
:102EF000AA1BBB1BFD010DC0AA1FBB1FEE1FFF1F9E
:102F0000A217B307E407F50720F0A21BB30BE40BED
:102F1000F50B661F771F881F991F1A9469F7609534
:102F20007095809590959B01AC01BD01CF010895EE
:102F3000A0E0B0E0EEE9F7E10C94C21C5B01611582
:102F4000710521F0DB018C9311969C937C01E701C4
:102F50000894E11CF11C08816701802F90E00E9419
:102F600002190097A1F70D3241F4098142E0C42E05
:102F7000D12CCC0EDD1E11E009C00B3231F40981D9
:102F800032E0C32ED12CCC0EDD1E10E0E6012197DD
:102F9000CE0160E374E043E050E00E94191900970D
:102FA000D1F4E6012296CE0163E374E045E050E0FF
:102FB0000E941919009711F4E6012796A114B10493
:102FC00019F0F501D183C08330E020E090E81123AF
:102FD00009F40AC104C1CE0168E374E043E050E0A3
:102FE0000E941919009759F4A114B10409F4F9C009
:102FF000C6010296D50111969C938E93F2C040E0D3
:1030000050E0BA018824992400530A3090F51260E8
:10301000212F30E0C9018870907012FF06C0009720
:1030200069F50894811C911C29C0009719F0089437
:1030300081089108DB01CA01D2E0880F991FAA1FFD
:10304000BB1FDA95D1F7480F591F6A1F7B1F440F2A
:10305000551F661F771F400F511D611D711D483997
:10306000B9E95B07B9E96B07B9E17B0738F0146090
:1030700005C00E3F39F413FD43C01860F6010191FD
:103080006F01C2CF053311F00531D1F5D601EC91B6
:10309000ED3211F4106108C0EB3229F0C60101963F
:1030A00021E030E008C0D6011196EC911197C601DD
:1030B000029622E030E0E053EA3020F06C01C21AC0
:1030C000D30A1EC0DC0120E030E0FCE020383F07DE
:1030D0005CF4C901880F991F880F991F280F391FA9
:1030E000220F331F2E0F311DED91E0536D01EA3099
:1030F00060F314FF03C0309521953F4F820E931E5D
:10310000C12FD0E011FF08C0A114B10429F0C601FD
:103110000197D5018D939C93CB01BA010E940316B0
:103120006B017C01CE01837090708330910521F496
:10313000F7FAF094F7F8F094C701B60120E030E018
:10314000A9010E946B15882309F444C097FE07C0AB
:103150009094819491089394C7E6D4E002C0CFE4A0
:10316000D4E098EE692E9FEF792E6C0E7D1E20E242
:10317000A22EB12C0FC0FE0105911591259134911D
:10318000C701B601A90198010E94B9166B017C0123
:103190008A189B088A149B0474F72497B594A79403
:1031A000C615D705B9F7C601D7012A2F220F2B2F35
:1031B000221F2F3F49F0BC01CD0120E030E0A901E2
:1031C0000E946B15882331F482E290E090931306FD
:1031D000809312063C2D2D2D9E2D8F2D06C08FEF36
:1031E00004C030E020E090EC8FE7B901AC01872FFC
:1031F000922FA52FB42FBC01CD01CDB7DEB7EEE0E5
:103200000C94DE1C911117C3803219F0895085503F
:10321000D0F708959111089581548A5108F4805E81
:10322000855A0895FB01DC0105900D920020E1F71D
:103230000895FB01DC014150504088F08D918134AC
:103240001CF08B350CF4805E659161341CF06B359D
:103250000CF4605E861B611171F3990B0895881B55
:10326000FCCFFB01DC014150504048F005900D922D
:103270000020C9F701C01D9241505040E0F7089569
:10328000FB01DC010D900020E9F7119701900D92F0
:103290000020E1F70895FC018191861721F0882331
:1032A000D9F7992708953197CF010895FB01DC01E3
:1032B0008D91019080190110D9F3990B0895FB01AC
:1032C000DC0101900D920020E1F70895FB01DC0183
:1032D0004150504048F001900D920020C9F701C0C4
:1032E0001D9241505040E0F70895DC0199278D91DF
:1032F000882341F0FB01019008160110E1F7B9F7AE
:103300001197CD010895FB0151915523A9F0BF01FB
:10331000DC014D9145174111E1F759F4CD010190C0
:10332000002049F04D9140154111C9F3FB014111B5
:10333000EFCF81E090E001970895EF92FF920F9315
:103340001F93CF93DF937C01EB018B8181FF11C031
:1033500000E010E008C0E885F985BE0109950097F6
:1033600011F00FEF1FEFF70181917F01882399F78B
:1033700002C00FEF1FEFC801CDB7DEB7E6E00C9437
:10338000E61CA0E0B0E0E7ECF9E10C94CE1CFE01F5
:1033900035966191719180910E0690910F06AF0163
:1033A0000E943D1A2096E2E00C94EA1CA0E0B0E0F6
:1033B000ECEDF9E10C94CE1CFE0135966191719112
:1033C00080910E0690910F06DC0113962C911397B5
:1033D000286013962C93AF010E943D1AE0910E06CF
:1033E000F0910F062381277F23832096E2E00C943F
:1033F000EA1CAEE0B0E0EFEFF9E10C94CC1C0D89D3
:103400001E8986E08C831A8309838FEF9FE79E8352
:103410008D83AE01475E5F4FCE0101966F89788D37
:103420000E943D1AEF81F885E00FF11F10822E9661
:10343000E4E00C94E81CAEE0B0E0E1E2FAE10C94C8
:10344000CC1C0D891E898EE08C831A8309838FEF33
:103450009FE79E838D83AE01475E5F4FCE0101964D
:103460006F89788D0E943D1AEF81F885E00FF11F7A
:1034700010822E96E4E00C94E81CADE0B0E0E3E4AA
:10348000FAE10C94BE1C3C017D876C875A01FC015B
:1034900017821682838181FFC8C12E010894411CC6
:1034A000511CF3019381EC85FD8593FD859193FF7C
:1034B0008191FD87EC87882309F4B3C1853241F4FB
:1034C00093FD859193FF8191FD87EC87853229F4E7
:1034D00090E0B3010E94341CE4CFFF24EE2410E0FE
:1034E0001032B0F48B3269F08C3228F4803251F013
:1034F000833271F40BC08D3239F0803349F411609E
:103500002CC01260146029C0186027C0106125C04B
:1035100017FD2EC0282F20532A3098F416FF08C01C
:103520008F2D880FF82EFF0CFF0CF80EF20E15C031
:103530008E2D880FE82EEE0CEE0CE80EE20E1062D7
:103540000CC08E3221F416FD6CC1106406C08C369E
:1035500011F4106802C0883659F4EC85FD8593FD9E
:10356000859193FF8191FD87EC87882309F0B8CF7F
:10357000982F9554933018F09052933038F424E0FB
:1035800030E0A20EB31E3FE339830FC0833631F023
:10359000833781F0833509F05AC022C0F50180815C
:1035A000898322E030E0A20EB31E21E0C22ED12C8E
:1035B000420114C092E0292E312C2A0C3B1CF5014B
:1035C0008080918016FF03C06F2D70E002C06FEF06
:1035D0007FEFC4010E94291C6C0151011F7715C0A7
:1035E00082E0282E312C2A0C3B1CF5018080918032
:1035F00016FF03C06F2D70E002C06FEF7FEFC401B4
:103600000E941E1C6C011068510113FD1CC006C0F5
:1036100080E290E0B3010E94341CEA948E2D90E089
:10362000C816D906A8F30FC0F40117FD859117FF3E
:1036300081914F0190E0B3010E94341CE110EA94A3
:103640000894C108D108C114D10471F7E7C08436C9
:1036500011F0893651F5F50117FF07C0808191817E
:10366000A281B38124E030E008C080819181AA2743
:1036700097FDA095BA2F22E030E0A20EB31E012FD5
:103680000F76B7FF08C0B095A095909581959F4F94
:10369000AF4FBF4F0068BC01CD01A2012AE030E06E
:1036A0000E94601CD82ED4183FC0853721F41F7E9D
:1036B0002AE030E020C0197F8F36A9F0803720F44F
:1036C000883509F0AEC00BC0803721F0883709F08B
:1036D000A8C001C0106114FF09C0146007C014FF26
:1036E00008C0166006C028E030E005C020E130E0E8
:1036F00002C020E132E0F50117FF07C0608171814F
:103700008281938144E050E006C06081718180E055
:1037100090E042E050E0A40EB51EA2010E94601CA1
:10372000D82ED418012F0F7706FF09C00E7FDF14A3
:1037300030F404FF06C002FD04C00F7E02C01D2D40
:1037400001C01F2D802F90E004FF0CC0FE01ED0D85
:10375000F11D2081203311F4097E09C002FF06C04B
:103760001E5F05C086789070009709F01F5F802E5D
:10377000992403FD12C000FF0DC0FD2C1E1550F44E
:10378000FE0CF11A1E2D06C080E290E0B3010E94EB
:10379000341C1F5F1E15C0F304C01E1510F4E11A7F
:1037A00001C0EE2484FE0FC080E390E0B3010E94CC
:1037B000341C82FE1FC081FE03C088E590E010C06B
:1037C00088E790E00DC0C40186789070009791F072
:1037D00081FC02C080E201C08BE207FD8DE290E037
:1037E000B3010E94341C06C080E390E0B3010E9444
:1037F000341CFA94DF14C0F3DA94F201ED0DF11DDC
:10380000808190E0B3010E94341CDD20A9F706C03E
:1038100080E290E0B3010E94341CEA94EE20C1F7EC
:1038200040CEF3018681978102C08FEF9FEF2D96E6
:10383000E2E10C94DA1C992788270895FC01059091
:10384000615070400110D8F7809590958E0F9F1FA2
:103850000895FC016150704001900110D8F78095E7
:1038600090958E0F9F1F08950F931F93CF93DF9313
:103870008C01EB018B8181FF1BC082FF0DC02E816B
:103880003F818C819D812817390764F4E881F98193
:103890000193F983E88306C0E885F985802F0995AF
:1038A000009731F48E819F8101969F838E8302C0A1
:1038B0000FEF1FEFC801DF91CF911F910F91089576
:1038C000FA01AA27283051F1203181F1E8946F9351
:1038D0006E7F6E5F7F4F8F4F9F4FAF4FB1E03ED0F7
:1038E000B4E03CD0670F781F891F9A1FA11D680F95
:1038F000791F8A1F911DA11D6A0F711D811D911DC8
:10390000A11D20D009F468943F912AE0269F11243C
:103910003019305D3193DEF6CF010895462F4770A0
:10392000405D4193B3E00FD0C9F7F6CF462F4F70FB
:10393000405D4A3318F0495D31FD4052419302D059
:10394000A9F7EACFB4E0A6959795879577956795FF
:10395000BA95C9F700976105710508959B01AC01FF
:103960000A2E06945795479537952795BA95C9F726
:10397000620F731F841F951FA01D08952F923F9201
:103980004F925F926F927F928F929F92AF92BF926F
:10399000CF92DF92EF92FF920F931F93CF93DF931B
:1039A000CDB7DEB7CA1BDB0B0FB6F894DEBF0FBE78
:1039B000CDBF09942A88398848885F846E847D84C5
:1039C0008C849B84AA84B984C884DF80EE80FD80C7
:1039D0000C811B81AA81B981CE0FD11D0FB6F8943D
:0E39E000DEBF0FBECDBFED010895F894FFCFFE
:1039EE007372007200006D7367007D2C00222573C8
:1039FE00223A0022220025312E30660025302E3349
:103A0E00660022257322005B25735D0066616C7370
:103A1E00650074727565007D0A007B226676223A17
:103A2E0022227D0A00257300303132333435363789
:103A3E00018E137C12DA121D133F137B12BF017C11
:103A4E000100000000000000000000000000000067
:103A5E000000000000000000000000003F01010017
:103A6E000000000000000000000000000000000048
:103A7E000000000000000000000000000000000038
:103A8E000000000000000000000000000000000028
:103A9E000000000000000000000000000000003FD9
:103AAE000101000000000000000000000000000006
:103ABE0000000000000000000000000000000000F8
:103ACE0000000000000000000000000000000000E8
:103ADE0000000000000000000000000000000000D8
:103AEE0000000056147C12DA12EC1321147B1251D2
:103AFE00022E020000000000000000000000000086
:103B0E0000000000000000000000000000001F0187
:103B1E000100000000000000000000000000000096
:103B2E000000000000000000000000000000000087
:103B3E00001F010100000000000000000000000056
:103B4E000000000000000000000000000000000067
:043B5E000000000063
:00000001FF
