:100000000C94D5010C94F2010C94F2010C94F201C1
:100010000C94F2010C94F2010C94F2010C94F20194
:100020000C94F2010C94F2010C94F2010C94F20184
:100030000C94F2010C94F2010C94E3100C94F20174
:100040000C94F2010C94CF130C94CC140C949A14CD
:100050000C94F2010C94F2010C94F2010C94F20154
:100060000C94F2010C94F201737973006662000043
:10007000000007D702FD025703C3F5E04073797310
:100080000066760000000007D702FD025B03CDCCBE
:10009000CC3D7379730068760000000007D702FD3D
:1000A000025F03CDCCCC3D68310000683173740031
:1000B00000003E02620209050000000068310000F5
:1000C0006831746D700000D702FD020F05000089D1
:1000D000C36831000068317365740000D702FD0207
:1000E0001305000020416831000068316879730011
:1000F000003E0262020C05000020416831000068E9
:1001000031616D620000D702FD0227050000204228
:100110006831000068316F76720000D702FD022B53
:10012000050000964368310000683161746F00007B
:10013000D702FD021F050000B4426831000068319B
:100140007265670000D702FD021705000040406895
:10015000310000683172746F0000D702FD02230580
:100160000000964368310000683162616400003E1F
:100170000262020D050000A040733100007331736C
:10018000740000003E026202590500000000733155
:1001900000007331746D700000D702FD025D050030
:1001A0000089C373310000733173766D0000D7028C
:1001B000FD026505CDCC8C3F733100007331727642
:1001C0006D0000D702FD0269050000A041703100FA
:1001D0000070316B70000000D702FD024D05000079
:1001E000A0407031000070316B69000000D702FD43
:1001F000025105CDCCCC3D7031000070316B6400F4
:100200000000D702FD0255050000003F70310000DC
:100210007031736D780000D702FD0235050000C80B
:1002200042703100007031736D6E0000D702FD0224
:100230003905000000000000000073797300000021
:10024000006F042303CB02000000000000000068E0
:100250003100000000006F042303CB020000000007
:1002600000000000733100000000006F042303CB86
:1002700002000000000000000070310000000000DB
:100280006F042303CB0200000000486561746572AF
:100290002053656E736F72204572726F72205368BF
:1002A0007574646F776E0A004865617465722041E9
:1002B0006D6269656E74204572726F722053687545
:1002C00074646F776E0A00486561746572205469C2
:1002D0006D656F7574204572726F72205368757406
:1002E000646F776E0A000A44657669636520496E1B
:1002F000697469616C697A65642025312E30660AFB
:100300000054656D703A25312E3366202000505719
:100310004D3A25312E3366202000537464446576AF
:100320003A25312E33662020004572723A25312E4F
:100330003366202000493A25312E336620200049BB
:10034000034E03590363030A0020204F4B00202073
:1003500053687574646F776E002020486561746916
:100360006E67002020524547554C41544544004992
:100370004E46494E4954594E414E0000204100001E
:10038000C84200401C4620BCBE4CCA1B0E5AAEC51B
:100390009D74CDCCCC3D0AD7233C17B7D13877CC50
:1003A0002B329595E6241FB14F0A11241FBECFEFC3
:1003B000D8E0DEBFCDBF12E0A0E0B1E0EEE2FAE3AC
:1003C00002C005900D92A437B107D9F716E0A4E753
:1003D000B2E001C01D92A431B107E1F70E94F6140A
:1003E0000C94151D0C940000CF93DF93EC018C81CD
:1003F0000E94CA0680935603882391F48C8190E072
:1004000025E130E0829FF001839FF00D929FF00D77
:100410001124EB58FF4F25913491CE01F901099534
:10042000DF91CF910895CF93DF93EC018C810E94EF
:10043000CA0680935603882391F48C8190E025E1CD
:1004400030E0829FF001839FF00D929FF00D112408
:10045000ED58FF4F25913491CE01F9010995DF91B7
:10046000CF910895FC0184810E94DD06089583E008
:10047000089521E0FC01268383E00895CF93DF9364
:10048000EC018C8190E025E130E0829FF001839FB8
:10049000F00D929FF00D1124E958FF4FA591B491F2
:1004A0006C9170E080E090E00E942316DC01CB01AB
:1004B0008F839887A987BA8783E08E8380E0DF9156
:1004C000CF9108950F931F93CF93DF938C01FC017D
:1004D000848190E025E130E0829FF001839FF00D60
:1004E000929FF00D1124E958FF4FC591D491F80166
:1004F00067817085818592850E94F715688383E006
:10050000F801868380E0DF91CF911F910F910895CC
:10051000CF93DF93EC018C8190E025E130E0829F66
:10052000F001839FF00D929FF00D1124E958FF4FC9
:10053000A591B4916D917D918D919C910E9423160E
:10054000DC01CB018F839887A987BA8783E08E83EC
:1005500080E0DF91CF9108950F931F93CF93DF93A6
:100560008C01FC01848190E025E130E0829FF00164
:10057000839FF00D929FF00D1124E958FF4FC59114
:10058000D491F80167817085818592850E94F71565
:10059000DC01CB0188839983AA83BB8383E0F801C4
:1005A000868380E0DF91CF911F910F910895CF93C3
:1005B000DF93DC0114968C91149790E025E130E0F4
:1005C000829FF001839FF00D929FF00D1124E95856
:1005D000FF4FC591D491488159816A817B811796DB
:1005E0004D935D936D937C931A9784E016968C934C
:1005F000169780E0DF91CF910895CF93DF93DC01D0
:1006000014968C91149790E025E130E0829FF001E0
:10061000839FF00D929FF00D1124E958FF4FC59173
:10062000D49117964D915D916D917C911A97488365
:1006300059836A837B8384E016968C93169780E0B7
:10064000DF91CF9108951F93CF93DF93EC018091B9
:10065000D1028823C1F01FE00A80DB81C02D2097E2
:10066000A1F08E81882389F0813021F4CE010E948F
:10067000130206C0CE010E94F401CE010E94320294
:10068000115051F702C088E201C080E0DF91CF91A4
:100690001F910895BC0180E091E00E94A31921E020
:1006A000009709F020E0822F0895EF92FF920F93B8
:1006B0001F93CF93DF9300D000D000D0CDB7DEB72B
:1006C0009C018B01CE010196B9010E947F19CE01D8
:1006D0000196B8010E94601910E085E1E82EF12C26
:1006E00051C0812F90E08E9D90018F9D300D9E9D79
:1006F000300D1124F901E459FF4FE4914981E417C9
:1007000009F03FC023593F4FF90124913A81222338
:1007100019F4332309F43DC0231799F58E9DF00198
:100720008F9DF00D9E9DF00D1124E259FF4FE49135
:100730002B81EE2311F4222361F1E21711F58E9D36
:10074000F0018F9DF00D9E9DF00D1124E159FF4F9A
:10075000E4912C81EE2311F42223D9F0E21789F4DD
:100760008E9DF0018F9DF00D9E9DF00D1124E0599E
:10077000FF4FE4918D81EE2311F4882351F0E817A7
:1007800041F01F5F812F0E94CA06882309F0A9CF7C
:100790001FEF812F26960FB6F894DEBF0FBECDBF98
:1007A000DF91CF911F910F91FF90EF900895FC0181
:1007B0001682148240E050E0BA0147835087618777
:1007C00072871386118A168A158AA081B1811097C3
:1007D00011F415820AC016969C91169715968C9165
:1007E0001597973009F48F5F8583CF010895CF92D5
:1007F000DF92EF92FF920F931F93CF93DF93EC0161
:100800008C810E94CA06882309F060C00C81CE0149
:100810000E94D7030C8391E1C92ED12CCC0EDD1E92
:10082000802F90E005E110E0809FB001819F700D66
:10083000909F700D112468597F4FC6010E94321994
:100840002BE0E22EF12CEC0EFD1E8C8190E0809FBF
:10085000B001819F700D909F700D112464597F4FDE
:10086000C7010E94321989898823F1F08C8190E0B8
:10087000809FF001819FF00D909FF00D1124EE58A4
:10088000FF4FE491E2FF02C0198A0EC0D6010D901D
:100890000020E9F7BD016C197D09665F7F4F6C0F81
:1008A0007D1FC7010E947F198C8190E025E130E017
:1008B000829FF001839FF00D929FF00D1124ED585F
:1008C000FF4F25913491CE01F9010995DF91CF9128
:1008D0001F910F91FF90EF90DF90CF9008958F922E
:1008E0009F92AF92BF92CF92DF92FF920F931F938E
:1008F000CF93DF9300D000D0CDB7DEB76C013BE0E3
:10090000A32EB12CA80EB91E87E0F6018683FF2422
:1009100045E1842E912C21C08F2D90E0889DB0015F
:10092000899D700D989D700D112468597F4FCE01DF
:1009300001960E943219C501BE016F5F7F4F0E9470
:100940007619009749F48601095E1F4FF601F38E70
:10095000C8010E94F7036801F3948F2D0E94D0060E
:100960008823D1F60F900F900F900F90DF91CF91C9
:100970001F910F91FF90DF90CF90BF90AF909F900D
:100980008F90089510927A0222E1EBE6F3E031E0D5
:1009900001C0FC01CF01479791838083CF01479627
:1009A000938382831482358316821386215089F7BC
:1009B0001092F5041092F40410926C0310926B03E1
:1009C0001092700387E08093710386E793E063E001
:1009D00071E00E947F1982E893E00895EF92FF9200
:1009E0000F931F93CF93DF930E94C204EC0181E029
:1009F0008093D10280E090E0A0E8BFE38F839887E6
:100A0000A987BA871C8205E110E05BE0E52EF12C96
:100A1000EC0EFD1E28C08C8190E0809FB001819F6C
:100A2000700D909F700D1124FB01EE58FF4FE49163
:100A3000E0FF16C0FB01E758FF4F85919591A59106
:100A4000B4918F839887A987BA8764597F4FC7016C
:100A50000E943219CE010E94F401CE010E9432029E
:100A60008C818F5F8C838C810E94D006882399F6BD
:100A7000DF91CF911F910F91FF90EF900895EF922A
:100A8000FF920F931F93CF93DF937C01EB01809133
:100A90007A0290E0FB0101900020E9F73197E61B14
:100AA000F70BE80FF91FE135F105A8F48C010558A3
:100AB0001D4FC8010E947F19DE010D900020E9F74B
:100AC00080917A028C1B8A0F80937A02F701168B31
:100AD000058B80E001C08DE0DF91CF911F910F91D8
:100AE000FF90EF9008950F931F93CF93DF93CDB7AF
:100AF000DEB7C055D0400FB6F894DEBF0FBECDBFF5
:100B00008C01CE01019640E550E00E945119C801C8
:100B1000BE016F5F7F4F0E943F05C05BDF4F0FB686
:100B2000F894DEBF0FBECDBFDF91CF911F910F9123
:100B30000895CF93DF93BC0180E1C2E8D3E09E81AA
:100B4000992331F00A80DB81C02D8150C1F70BC0A1
:100B500085E091E00E9455038C838F3F21F0CE0108
:100B60000E94F70302C0C0E0D0E0CE01DF91CF9138
:100B70000895CF92DF92EF92FF92CF93DF939C0183
:100B80006A017B0180E1C2E8D3E09E81992341F0B4
:100B90000A80DB81C02D8150C1F7C0E0D0E013C0D6
:100BA000CE010B96B90145E050E00E948619C701BD
:100BB000B6010E942316DC01CB018F839887A98799
:100BC000BA8783E08E83CE01DF91CF91FF90EF90C3
:100BD000DF90CF900895CF92DF92EF92FF92CF9364
:100BE000DF939C016A017B0180E1C2E8D3E09E8132
:100BF000992341F00A80DB81C02D8150C1F7C0E00C
:100C0000D0E00DC0CE010B96B90145E050E00E9446
:100C10008619CF82D886E986FA8684E08E83CE0153
:100C2000DF91CF91FF90EF90DF90CF900895EF92FA
:100C3000FF920F931F93CF93DF939C017B0180E181
:100C400002E813E0F8019681992329F002811381CB
:100C50008150C1F718C0E8012B96CE01B90145E0DB
:100C600050E00E948619C801B7010E943F05882301
:100C700051F485E091E0BE010E945503F8018483A0
:100C800085E0868302C000E010E0C801DF91CF91CB
:100C90001F910F91FF90EF900895EF92FF920F93A5
:100CA0001F93CF93DF93CDB7DEB7C055D0400FB6BB
:100CB000F894DEBF0FBECDBF7C0100D000D08E0106
:100CC0000F5F1F4FEDB7FEB71283018374836383F9
:100CD0000E943B1A0F900F900F900F90C701B80120
:100CE0000E941706C05BDF4F0FB6F894DEBF0FBE41
:100CF000CDBFDF91CF911F910F91FF90EF9008959D
:100D0000BC0186E091E00E94170608950F931F939F
:100D1000CF93DF93CDB7DEB7C055D0400FB6F89470
:100D2000DEBF0FBECDBF00D000D08E010F5F1F4FC2
:100D3000EDB7FEB712830183948383830E943B1A2D
:100D40000F900F900F900F9086E091E0B8010E94F5
:100D50001706C05BDF4F0FB6F894DEBF0FBECDBFE6
:100D6000DF91CF911F910F9108959091D102913011
:100D700061F4413019F0423041F405C082E893E05B
:100D80000E94460D08950E94570D089580E0089531
:100D900080E0089591E08A3108F090E0892F08956D
:100DA00091E0873108F090E0892F0895982F9651AF
:100DB00081E0943008F080E0089591E0873108F0F8
:100DC00090E0892F0895CF93DF9300D0CDB7DEB7A1
:100DD0006A8389830E94C6100E94430E8981809392
:100DE00009056A8160930A050E9429110F900F90EE
:100DF000DF91CF9108958AE2EFE2F5E0DF011D92E5
:100E00008A95E9F780E090E0A0EAB0E480934D0590
:100E100090934E05A0934F05B09350058DEC9CEC3C
:100E2000ACECBDE38093510590935205A09353051C
:100E3000B093540580E090E0A0E0BFE380935505B7
:100E400090935605A0935705B093580580E090E025
:100E5000A8ECB2E48093350590933605A09337054E
:100E6000B093380581E080932F05089586E2E9E08C
:100E7000F5E0DF011D928A95E9F780E090E0A0E4BB
:100E8000B0E48093170590931805A0931905B093CB
:100E90001A0580E090E0A4EBB2E480931F059093E4
:100EA0002005A0932105B093220580E090E0A6E9FB
:100EB000B3E48093230590932405A0932505B09374
:100EC000260540E050E060E272E44093270550932D
:100ED00028056093290570932A0580932B0590932C
:100EE0002C05A0932D05B0932E0585E080930D056C
:100EF0000E94FB0D0E94FB06089580E090E0DC015B
:100F00008093310590933205A0933305B093340557
:100F100040E050E068E473E4409345055093460593
:100F2000609347057093480580934105909342056F
:100F3000A0934305B09344050895CF92DF92EF92BA
:100F4000FF926B017C01809109058250823058F13B
:100F50000E943F0E0E94460E0E947D0760E070E0F6
:100F60008AE794E420E030E0A9010E94A710C09233
:100F70001305D0921405E0921505F0921605109213
:100F80000C0510920E0580E090E0DC0180931B05BB
:100F900090931C05A0931D05B0931E0582E08093DD
:100FA00009050E942911FF90EF90DF90CF900895DE
:100FB0008F929F92AF92BF92CF92DF92EF92FF9269
:100FC0000F931F93CF93DF93E0912F05EE2349F406
:100FD0007091390560913A0590913B0580913C05EF
:100FE00004C10E9426158B01D82FC92F4B01A82EB2
:100FF000B92ECB01AD2FBC2F80933D0590933E05BC
:10100000A0933F05B0934005C501B4019F772DEC37
:101010003CEC4CEC5DE30E94D5161816ACF56091E3
:1010200031057091320580913305909134052091FE
:1010300035053091360540913705509138050E94AD
:101040008B1587FF21C0C801AD2FBC2FBC01CD017E
:101050002DEC3CEC4CEC5DE30E94D9169B01AC01FD
:10106000609145057091460580914705909148052E
:101070000E942715DC01CB0180934505909346051E
:10108000A0934705B0934805C501B40120914105DF
:101090003091420540914305509144050E94261528
:1010A0002DEC3CEC4CEC5DE30E948F15D62FC72F46
:1010B000182F092FAE019801852F942FA32FB22F3F
:1010C0008093490590934A05A0934B05B0934C0536
:1010D000C501B40120914D0530914E0540914F0559
:1010E000509150050E94D9166B017C016091510509
:1010F00070915205809153059091540520914505BA
:101100003091460540914705509148050E94D916F7
:101110009B01AC01C701B6010E9427156B017C0140
:10112000AE019801852F942FA32FB22FBC01CD01C2
:10113000209155053091560540915705509158051D
:101140000E94D9169B01AC01C701B6010E94271568
:10115000EB01182F092F9801862F9D2FA32FB22F57
:101160008093310590933205A0933305B0933405F5
:10117000C0903505D0903605E0903705F0903805E1
:10118000BC01CD01A70196010E94D5161816ACF03E
:10119000C0903905D0903A05E0903B05F0903C05B1
:1011A00098018C2F9D2FA32FB22FBC01CD01A70139
:1011B00096010E948B1587FF08C0C0923105D0921E
:1011C0003205E0923305F092340580924105909209
:1011D0004205A0924305B09244057091310560919B
:1011E00032059091330580913405AB019C01852F28
:1011F000962FA32FB22FBC01CD01DF91CF911F916C
:101200000F91FF90EF90DF90CF90BF90AF909F90A5
:101210008F9008958F929F92AF92BF92CF92DF925C
:10122000EF92FF921F93CF93DF9380910905823055
:1012300008F422C10E94760D0E94520E60930F05A1
:1012400070931005809311059093120520912B0542
:1012500030912C0540912D0550912E050E94D516F8
:1012600018162CF481E063E00E94E30605C10E9499
:10127000460EC0900F05D0901005E0901105F0903B
:101280001205C701B60123E333E948E853EC0E9495
:101290008B1587FF12C080910E058F5F80930E051E
:1012A00090910D05981708F0E7C081E064E00E9476
:1012B000E30600D08AE892E062C010920E056091C9
:1012C0001305709114058091150590911605A701DD
:1012D00096010E94D8070E944B1080910905823028
:1012E00009F07EC060911B0570911C0580911D0561
:1012F00090911E052DEC3CEC4CEC5DE30E94271513
:10130000162FD72FC82FC92E862F9D2FAC2FBC2D5F
:1013100080931B0590931C05A0931D05B0931E059B
:1013200080900F0590901005A0901105B0901205C7
:10133000C501B40120912705309128054091290568
:1013400050912A050E948B1587FF22C0812F9D2F67
:10135000AC2FBC2DBC01CD0120911F053091200583
:1013600040912105509122050E94D516181684F44B
:1013700081E061E00E94E30600D088EA92E0EDB7E8
:10138000FEB7928381830E94F6190F900F9074C06C
:10139000C501B40120911305309114054091150544
:1013A000509116050E948B1587FF1AC0812F9D2F23
:1013B000AC2FBC2DBC01CD0120912305309124051B
:1013C00040912505509126050E94D516181644F423
:1013D00081E062E00E94E30600D087EC92E0CFCF8C
:1013E00080913D0590913E05A0913F05B09140054B
:1013F000BC01CD019F7720911705309118054091D0
:10140000190550911A050E948B15181664F08091E9
:101410000C058F5F80930C058B30E4F08AE080939D
:101420000C0583E015C080910C05815080930C055C
:10143000181684F010920C0580E090E0DC01809397
:101440001B0590931C05A0931D05B0931E0582E01B
:101450008093090580910905833019F40E942711B2
:101460000BC080910B058F5F80930B05843020F0BB
:1014700010920B050E942F11DF91CF911F91FF90C9
:10148000EF90DF90CF90BF90AF909F908F90089596
:101490002F923F924F925F926F927F928F929F9284
:1014A000AF92BF92CF92DF92EF92FF920F931F9372
:1014B000CF93DF93CDB7DEB72A970FB6F894DEBF90
:1014C0000FBECDBF7C011E821F8218861986FC01CB
:1014D00001900020E9F73197E81BF90BE138F1059D
:1014E00038F56C018C0120E01AC0222389F488327F
:1014F00029F08132A0F08F3791F001C021E090E017
:101500002A870E942A19D8018D938D012A8507C048
:1015100021E0893209F420E0F80181938F01D6019E
:101520008D916D01882309F7F801108210E001C048
:101530001BE210935603112309F047C130E1932EAB
:1015400042E8C42E43E0D42E52E0852E3324339457
:101550000F2EF0E04F2EF0E05F2EF0E86F2EFFE34D
:101560007F2EF02D64E0262E9A9409F42BC1FE0103
:101570003396AAE0B1E083E00D9001928150E1F74B
:10158000C6010E94D703C70162E270E00E946B1996
:10159000009709F436C18C010F5F1F4FC80162E24A
:1015A00070E00E946B199A838983009709F429C11E
:1015B000DC011C922BE0A22EB12CAC0CBD1CC50191
:1015C000B80145E050E00E94861989819A81019610
:1015D0009A8389836AE370E00E946B19FC0100978B
:1015E00009F40FC17C010894E11CF11C21812E3605
:1015F00029F0223231F48281823219F4F6013682E6
:1016000056C0822F90E0C0978A30910510F02D329D
:10161000A9F4C701BE016F5F7F4F0E94B817DC01BC
:10162000CB01F60187839087A187B28789819A8150
:101630008E159F0509F4E3C026825FC02B3759F44D
:1016400087E0D60116968C93169792E0E92EF12C3E
:10165000EE0EFF1ED8C0223231F582E0E82EF12CCA
:10166000EE0EFF1E85E0F6018683C70162E270E0A0
:101670000E946B199A838983009709F4C2C0DC0128
:101680001C92C601B7010E943F05182F8093560394
:10169000882309F04DC0E980FA800894E11CF11C10
:1016A000FA82E9822AC0243751F4F6018682D601F3
:1016B00017964D925D926D927C921A971EC02636B7
:1016C00051F4F601868280E090E0DC018783908708
:1016D000A187B28712C02B3509F093C0E6E0D6018E
:1016E0001696EC93C601B7010E943F05182F809310
:1016F00056038823E9F41FE268C0C701BE016D5F8D
:101700007F4F0E9495197C01009709F47AC0DC0193
:101710008C918D3719F40894E11CF11CF70180813C
:101720008C3209F470C00894E11CF11C10E003C075
:10173000133008F04AC08E81882349F0C6014196D3
:10174000BE016A5F7F4F43E050E00E948619C601E8
:101750004196B5010E945503D60114968C931497B7
:101760008F3F91F10E94D606882361F0C5010E9447
:101770004A03882339F0CE010696B50143E050E0D4
:101780000E948619F601C280D380112309F0ECCEA5
:1017900080918803813041F482E893E00E94130233
:1017A000182F8093560311C082E893E00E94F40141
:1017B000182F80935603882341F482E893E00E9417
:1017C000320203C011E301C018E2812F2A960FB63E
:1017D000F894DEBF0FBECDBFDF91CF911F910F9167
:1017E000FF90EF90DF90CF90BF90AF909F908F9041
:1017F0007F906F905F904F903F902F9008951AE2E6
:10180000E4CF10E3E2CF12E096CFCF93DF93EC0169
:101810000E94C204CE010E94480A60E042E00E9499
:10182000B506DF91CF9108952F923F924F925F922C
:101830006F927F929F92AF92BF92CF92DF92EF9280
:10184000FF920F931F93CF93DF938C016B01DC0109
:1018500015969C901597EB018BE7899380E0FF2408
:10186000EDE06E2EE1E07E2EFBE7EF2E27E2422E2A
:1018700021E0522E32E2232E31E0332E4CE2B42E00
:101880005DE7A52EF8019681992309F4CBC081115B
:10189000B99200D000D000D0EDB7FEB73196ADB709
:1018A000BEB71296DC93CE93119773826282C80101
:1018B0000B96958384830E94191AC80FD91FF801CB
:1018C00086812DB73EB72A5F3F4F0FB6F8943EBFD3
:1018D0000FBE2DBF813039F4CE0163E171E00E946B
:1018E0007F19229697C08330A9F48DB79EB70897C9
:1018F0000FB6F8949EBF0FBE8DBF2DB73EB72F5FBA
:101900003F4FADB7BEB71296DC93CE93119786E1E9
:1019100091E016C0843079F58DB79EB708970FB661
:10192000F8949EBF0FBE8DBF2DB73EB72F5F3F4FC0
:10193000ADB7BEB71296DC93CE9311978CE191E0D0
:10194000F90193838283F80187819085A185B2850F
:10195000F90184839583A683B7830E94191AC80F5F
:10196000D91F2DB73EB7285F3F4F0FB6F8943EBF43
:101970000FBE2DBF4FC0853079F400D000D000D00D
:10198000EDB7FEB73196ADB7BEB71296DC93CE93E6
:1019900011973382228210C0863011F500D000D01A
:1019A00000D0EDB7FEB73196ADB7BEB71296DC9357
:1019B000CE93119753824282D80155968D919C9176
:1019C0005697958384830E94191AC80FD91FEDB7C3
:1019D000FEB736960FB6F894FEBF0FBEEDBF1AC025
:1019E0008230C1F4678170858185928520E030E086
:1019F000A9010E948B15882339F4CE016CE271E0B5
:101A00000E947F19259606C0CE0162E371E00E9414
:101A10007F192496F8018681873019F4E99280E0D5
:101A200001C081E0D80112960D911C911397011508
:101A3000110511F48DE70DC0F80195819F1514F47F
:101A4000A99281E0D8011596FC9015971BCF899338
:101A5000FA949F14E4F3CE0167E371E00E947F19CA
:101A6000CE0102968C199D09DF91CF911F910F91A4
:101A7000FF90EF90DF90CF90BF90AF909F907F90BE
:101A80006F905F904F903F902F900895CF93DF938A
:101A9000C6EDD2E0BE010E94140C60911006709158
:101AA0001106CE010E94BD19DF91CF9108958BE6FA
:101AB00093E00E94460D0895089580E06AE371E086
:101AC0000E946F13089500D000D086EE92E0EDB72B
:101AD000FEB7928381838AE290E0948383830E949D
:101AE000F6190F900F900F900F90089500D000D02E
:101AF00000D081E093E0EDB7FEB7928381838091BF
:101B00005D0590915E05A0915F05B09160058383AE
:101B10009483A583B6830E94F6198EE093E0EDB717
:101B2000FEB7928381838091310590913205A09117
:101B30003305B091340583839483A583B6830E94D3
:101B4000F6198AE193E0EDB7FEB792838183809125
:101B5000610590916205A0916305B091640583834E
:101B60009483A583B6830E94F61989E293E0EDB7CA
:101B7000FEB79283818380913D0590913E05A091AF
:101B80003F05B091400583839483A583B6830E946B
:101B9000F61985E393E0EDB7FEB7928381838091D8
:101BA000450590914605A0914705B091480583836E
:101BB0009483A583B6830E94F619E0910905F0E0AD
:101BC000EE0FFF1FE15CFC4F859194910F900F90F9
:101BD0000F900F90EDB7FEB7818392830E94F619A4
:101BE00087E493E0EDB7FEB7928381830E94F619F4
:101BF0000F900F90089580E7E9E5F5E0DF011D9271
:101C00008A95E9F783E393E9A8E8B3EC80935D054F
:101C100090935E05A0935F05B09360058DEC9CECFE
:101C2000ACE8BFE38093650590936605A0936705D4
:101C3000B093680580E090E0A0EAB1E48093690584
:101C400090936A05A0936B05B0936C0580E090E0DB
:101C5000A8ECB3E480936D0590936E05A0936F0597
:101C6000B093700580E090E0A0E0B0EC8093710547
:101C700090937205A0937305B0937405089581E065
:101C800080935905089510925905089510925B05A7
:101C900081E080935A0508958091590508958091B7
:101CA0005A05089580915905833049F470915D0576
:101CB00060915E0590915F058091600504C070E0C1
:101CC00060E099E883ECAB019C01852F962FA32F50
:101CD000B22FBC01CD0108952F923F924F925F9297
:101CE0006F927F928F929F92AF92BF92CF92DF922C
:101CF000EF92FF920F931F93CF93DF93CDB7DEB791
:101D00002C970FB6F894DEBF0FBECDBF809159055A
:101D1000882309F4FBC080915A05813009F0F6C090
:101D200000915B0510E00E94C20F000F111F000F11
:101D3000111F0B581A4FBC0180E090E00E9423163F
:101D400026E03FEA4AEF5EE30E94D91623ED31EB2D
:101D500046ED5EE30E942615DC01CB01F80180838D
:101D60009183A283B38380915B058F5F80935B0532
:101D7000843108F4CBC085E795E064E1AE014F5FA4
:101D80005F4F0E9438116B017C0160936105709375
:101D900062058093630590936405209169053091F5
:101DA0006A0540916B0550916C050E94D516181676
:101DB00024F482E080935905A7C010925C0580E06E
:101DC00090E0DC0180935D0590935E05A0935F0534
:101DD000B093600589819A81AB81BC818F8398879C
:101DE000A987BA87C701B6012091650530916605BC
:101DF00040916705509168050E94D916362E272E0E
:101E00008B879C8700E0A5E7B5E0BE83AD83CC243B
:101E1000FF24EE24DD2410E0ED81FE8141905190FD
:101E200061907190FE83ED83C301B2012F813885EB
:101E300049855A850E9426159F77A1013B852C85EF
:101E4000852E922CA32EB22EA50194010E948B15F3
:101E500087FF0FC08C2D9F2DAE2DBD2DBC01CD0158
:101E6000A30192010E942715C62EF72EE82ED92E27
:101E70000F5F1F5F143181F600935C05602F70E0E7
:101E800080E090E00E9425169B01AC018C2D9F2DD7
:101E9000AE2DBD2DBC01CD010E948F157B018C01A3
:101EA000862F9F2DA02FB12F80935D0590935E0507
:101EB000A0935F05B093600523E0D22ED092590520
:101EC00010925A05BC01CD0120E030E048EC53E40B
:101ED0000E94D516181634F482E080935905D092EA
:101EE0005A0514C08E2D9F2DA02FB12FBC01CD01FE
:101EF00020E030E040E050EC0E948B1587FF06C0E8
:101F000082E08093590584E080935A052C960FB6A1
:101F1000F894DEBF0FBECDBFDF91CF911F910F911F
:101F2000FF90EF90DF90CF90BF90AF909F908F90F9
:101F30007F906F905F904F903F902F9008958FEF1C
:101F40008093640014B817B81AB80895E4E6F0E076
:101F500090819E7F9083982F9064ECE7F0E09083CF
:101F600096E890937A009081907F908390819083FF
:101F700021E030E002C0220F331F8A95E2F7209360
:101F80007E00089580917A00806480937A00809129
:101F90007A0080917A00806180937A008091780045
:101FA00090917900009771F3809178009091790079
:101FB0000895539AE4E6F0E080818F7B8083E0EB24
:101FC000F0E080EF8083808183608083E1EBF0E04C
:101FD00088E0808380818460808310926F001092FB
:101FE000B3001092B40080E090E0DC0180936703BE
:101FF00090936803A0936903B0936A0308950F93C5
:102000001F93CF93DF939B01AC0160E074E284E700
:1020100098E40E948F158B01D82FC92F9E01862F1F
:10202000912FA32FB22F8093670390936803A093FF
:102030006903B0936A03BC01CD0120E030E040EABF
:1020400051E40E948B1587FF02C084E110C09E01FD
:10205000802F912FA32FB22FBC01CD0120E030E0C3
:102060004FE753E40E94D51687FD04C08FEF80939D
:10207000B3000BC09E01802F912FA32FB22FBC0164
:10208000CD010E94F7156093B30080E0DF91CF91FE
:102090001F910F9108958F929F92AF92BF92CF920E
:1020A000DF92EF92FF926B017C012AE037ED43E271
:1020B0005CE30E948B1587FF04C08FEF8093B40010
:1020C00030C0C701B6012DEC3CEC47EC52E40E9455
:1020D000D51618161CF41092B40023C06091B300FA
:1020E00070E080E090E00E9425164B015C01C70182
:1020F000B60120E030E048EC52E40E948F159B01CD
:10210000AC0160E070E080E89FE30E9426159B012F
:10211000AC01C501B4010E94D9160E94F715609365
:10212000B400609167037091680380916903909196
:102130006A030E94F7156093B30080E0FF90EF9070
:10214000DF90CF90BF90AF909F908F9008958F9227
:102150009F92AF92BF92CF92DF92EF92FF926B016C
:102160007C0149015A010E94D90FC701B6010E94A2
:10217000FF0FC501B4010E944B10FF90EF90DF905C
:10218000CF90BF90AF909F908F90089560E070E0E7
:10219000CB019B01AC010E94A7100895E4E6F0E09A
:1021A00080818F7D808382E084BD93E095BD9DE733
:1021B00097BD80936E008AE08093640380936503EB
:1021C0008093660308951F920F920FB60F92112409
:1021D0008F9381E0809363038F910F900FBE0F90D8
:1021E0001F901895CF9380916303882319F1109263
:1021F00063030E946C0E809164038150809364039A
:102200008823D1F4CAE0C0936403809165038150B0
:1022100080936503882381F4C09365030E940A09B3
:1022200080916603815080936603882329F4C093CC
:10223000660303C083E001C080E0CF9108950E944F
:102240006C0E089508950E940A09089508955A98F9
:1022500008955A9A0895539A0E94291108958BB1AE
:10226000882319F00E94271108950E9429110895CA
:102270002F923F924F925F926F927F928F929F9296
:10228000AF92BF92CF92DF92EF92FF920F931F9384
:10229000CF93DF93862E1A01662309F478C02C01B0
:1022A000C0E0AA24992477246624D0E010E000E05E
:1022B000BB24F201C190D190E190F1902F018D2FBC
:1022C000912FA02FBB2DBC01CD01A70196010E942B
:1022D0002715D62F172F082FB92EC701B6010E9438
:1022E0007E179B01AC01B3018A2D992DA72FB62D26
:1022F000BC01CD010E942715A62E972E782E692E9F
:10230000CF5FC815B1F66C2F70E080E090E00E94BE
:1023100025166B017C018D2F912FA02FBB2DBC01A9
:10232000CD01A70196010E948F15EB01182F092FEF
:102330009801862F9D2FA32FB22FF10180839183C7
:10234000A283B38393018A2D992DA32FB22FBC01B1
:10235000CD01A70196010E948F15962EA72EB82EAB
:10236000C92E98018C2F9D2FA32FB22FBC01CD0118
:102370000E947E179B01AC01892D9A2DAB2DBC2D9F
:10238000BC01CD010E9426150E94401704C060E0E8
:1023900070E080E090E0382F292F862F972FA32F11
:1023A000B22FBC01CD01DF91CF911F910F91FF9012
:1023B000EF90DF90CF90BF90AF909F908F907F90E5
:1023C0006F905F904F903F902F9008958E3271F0F4
:1023D0008D3261F08B3261F0282F30E02053304095
:1023E00081E02A30310528F080E0089581E00895E9
:1023F00081E00895E82FF0E0EE0FFF1FEC58FD4F4D
:102400000190F081E02D0180F281E02D0995089581
:10241000E82FF0E0EE0FFF1FEC58FD4F8081918117
:10242000DC011596ED91FC91169709950895E82F1A
:10243000F0E0EE0FFF1FEC58FD4F80819181DC0131
:102440001796ED91FC911897439609950895E82FFA
:10245000F0E0EE0FFF1FEC58FD4F0190F081E02DF2
:102460009F012D5E3F4F0184F285E02D862FB9013B
:1024700009950895E82FF0E0EE0FFF1FEC58FD4F8F
:10248000462F50E060E070E0808191810E945B14F3
:1024900080E090E00895E82FF0E0EE0FFF1FEC5889
:1024A000FD4F80819181439690930D0680930C0699
:1024B0000895E82FF0E0EE0FFF1FEC58FD4F8081EC
:1024C0009181439690930F0680930E060895E82F0E
:1024D000F0E0EE0FFF1FEC58FD4F80819181439695
:1024E0009093110680931006089580E00E94561480
:1024F000909375028093740281E00E94CA139093B6
:1025000077028093760280E060E070E045E150E180
:102510000E94FA1181E060E070E040E050E10E942A
:10252000FA1180E00E944B1280E00E94591281E073
:102530000E94671208950895FC0160FF02C081E0C7
:1025400081A361FD11A264FF02C081E082A365FD49
:1025500012A274FF02C081E083A375FD13A280E084
:1025600090E00895CF93DF93EC01ED85FE853097E1
:1025700029F081E08283ED85FE858183EF85F889EE
:10258000309729F081E08283EF85F88981831CA24E
:102590001DA21EA2CE010E949C1289859A859C8F45
:1025A0008B8F8F8198859E8F8D8F83E08E8BD8A3A4
:1025B000CF8FDF91CF910895E82FF0E0EE0FFF1F4E
:1025C000EC58FD4F808191810E949C120895FC017E
:1025D00092818181981761F0818181508183882364
:1025E00011F4808181838181E80FF11D8381089539
:1025F0008FEF0895CF93DF93EC018CA1882339F4FA
:1026000081E08CA37BA76AA719A658A74FA34FA167
:1026100058A529A530E0CA0101972817390744F0C9
:10262000EAA5FBA5E40FF51F10828DE090E022C023
:102630008D859E850E94E712482F552747FD5095AE
:102640009FEF4F3F5907A1F099A52AA53BA5290F58
:10265000311DF9014A30510539F410829F5F99A765
:102660001CA280E090E006C080839F5F99A7CFCF37
:1026700082E090E0DF91CF910895DC011C96ED910E
:10268000FC911D97858596850E94E712282F332798
:1026900027FD3095932F0895FC018281815009F424
:1026A00080819181891749F0DF01A80FB11D139630
:1026B0006C931397828380E008958FEF0895282FFD
:1026C000FB010484F585E02D87859089622F0E94A7
:1026D0004C13282F332727FD3095932F0895EF9221
:1026E000FF921F93CF93DF937B0110E0C82FD0E0C0
:1026F000CC0FDD1FCC58DD4F07C01F5FE881F9818B
:10270000858596850E944C13F701E10FF11D6081CC
:10271000662399F7DF91CF911F91FF90EF90089575
:10272000C9ECD5E005E411E081E069EC75E040E436
:1027300050E00E94081280930B068823A9F700D06E
:1027400000D0EDB7FEB712830183D483C3830E9408
:10275000E1190F900F900F900F90E6CFCF93DF937A
:10276000BA01E82FF0E0EE0FFF1FEC58FD4FC081DB
:10277000D181CE010E94B212E4E6F0E080818B7F2D
:1027800080838CB58C6C8CBD249ACE014396DF91EE
:10279000CF9108958093500180E591E008951F92B4
:1027A0000F920FB60F9211242F933F934F935F9385
:1027B0006F937F938F939F93AF93BF93EF93FF9309
:1027C000CF93DF930F92CDB7DEB76EB580915F01E7
:1027D0009091600169830E94E71269818F3F09F43B
:1027E00083E08EBD80915D0190915E010E944C134B
:1027F0000F90DF91CF91FF91EF91BF91AF919F919A
:102800008F917F916F915F914F913F912F910F9099
:102810000FBE0F901F901895EF92FF921F93CF93CA
:10282000DF93FC01C485D5858D859E850E94E712C6
:10283000182FE82EFF24E7FCF094EB85FC85CE01F1
:1028400009958AA1882341F060910E0670910F06C8
:10285000E985FA85812F0995FDE0EF16F10421F055
:102860008AE0E816F10431F48BA1882319F08AE09C
:10287000E82EF12CC701DF91CF911F91FF90EF90CF
:102880000895282FFB010484F585E02D8785908924
:10289000622F0E944C13E1ECF0E0908190629083F3
:1028A000282F332727FD3095932F08958093020218
:1028B00082E092E008959A01AB0193E0220F331F6A
:1028C000441F551F9A95D1F760E074E284EF90E0C1
:1028D0000E949617215030403093C5002093C400C9
:1028E000E0ECF0E080818D7F80830895CF93DF93CB
:1028F000BA01E82FF0E0EE0FFF1FEC58FD4FC0814A
:10290000D181CE010E94B212E4E6F0E080818D7F99
:1029100080831092C00088E98093C100CE0140E01E
:1029200052EC61E070E00E945B14CE014396DF91AF
:10293000CF9108951F920F920FB60F9211242F93EB
:102940003F934F935F936F937F938F939F93AF9337
:10295000BF93EF93FF9380911102909112020E9416
:10296000E7128F3F31F48091C1008F7D8093C100C9
:1029700002C08093C600FF91EF91BF91AF919F91EC
:102980008F917F916F915F914F913F912F910F9018
:102990000FBE0F901F9018951F920F920FB60F92B7
:1029A00011242F933F934F935F936F937F938F9354
:1029B0009F93AF93BF93EF93FF936091C600809175
:1029C0000F02909110020E944C13FF91EF91BF9162
:1029D000AF919F918F917F916F915F914F913F91B7
:1029E0002F910F900FBE0F901F901895F8940E9492
:1029F0009F0F0E9475120E945C0D0E94EE0480E001
:102A00000E94A60F0E94D90F0E94CE100E942B1187
:102A10000E9436070E94FB0D78940E94630D0E946D
:102A20005D0D0E94F2108230E1F38091CF0266EDDD
:102A300072E040E850E00E94081280935603882319
:102A400081F786ED92E00E94050CEBCF5058BB2732
:102A5000AA270ED070C161D130F066D120F031F4D8
:102A60009F3F11F41EF456C10EF4E095E7FB4CC1F4
:102A7000E92F72D180F3BA176207730784079507AD
:102A800018F071F49EF58AC10EF4E0950B2EBA2F62
:102A9000A02D0B01B90190010C01CA01A001112464
:102AA000FF27591B99F0593F50F4503E68F11A1610
:102AB000F040A22F232F342F4427585FF3CF4695A1
:102AC00037952795A795F0405395C9F77EF41F16C3
:102AD000BA0B620B730B840BBAF09150A1F0FF0F8D
:102AE000BB1F661F771F881FC2F70EC0BA0F621F79
:102AF000731F841F48F4879577956795B795F79569
:102B00009E3F08F0B3CF9395880F08F09927EE0FFA
:102B1000979587950895D4D008F481E008950CD056
:102B20000AC102D140F0F9D030F021F45F3F19F032
:102B3000EBC0511134C1EEC00FD198F39923C9F302
:102B40005523B1F3951B550BBB27AA2762177307B3
:102B5000840738F09F5F5F4F220F331F441FAA1F67
:102B6000A9F333D00E2E3AF0E0E830D09150504027
:102B7000E695001CCAF729D0FE2F27D0660F771FD5
:102B8000881FBB1F261737074807AB07B0E809F0B7
:102B9000BB0B802DBF01FF2793585F4F2AF09E3F4C
:102BA000510568F0B1C0FBC05F3FECF3983EDCF329
:102BB000869577956795B795F7959F5FC9F7880FC5
:102BC000911D9695879597F90895E1E0660F771F17
:102BD000881FBB1F621773078407BA0720F0621BA8
:102BE000730B840BBA0BEE1F88F7E0950895BCD0E9
:102BF00088F09F5790F0B92F9927B751A0F0D1F0E6
:102C0000660F771F881F991F1AF0BA95C9F712C06F
:102C1000B13081F0C3D0B1E00895C0C0672F782FE4
:102C20008827B85F39F0B93FCCF3869577956795DB
:102C3000B395D9F73EF490958095709561957F4F47
:102C40008F4F9F4F0895E89409C097FB3EF49095ED
:102C50008095709561957F4F8F4F9F4F9923A9F075
:102C6000F92F96E9BB279395F69587957795679504
:102C7000B795F111F8CFFAF4BB0F11F460FF1BC048
:102C80006F5F7F4F8F4F9F4F16C0882311F096E9DB
:102C900011C0772321F09EE8872F762F05C0662389
:102CA00071F096E8862F70E060E02AF09A95660F42
:102CB000771F881FDAF7880F9695879597F90895FB
:102CC000990F0008550FAA0BE0E8FEEF161617063D
:102CD000E807F907C0F012161306E407F50798F0A5
:102CE000621B730B840B950B39F40A2661F0232BBE
:102CF000242B252B21F408950A2609F4A140A6953A
:102D00008FEF811D811D089597F99F6780E870E01E
:102D100060E008959FEF80EC089500240A94161651
:102D2000170618060906089500240A9412161306B9
:102D3000140605060895092E0394000C11F4882347
:102D400052F0BB0F40F4BF2B11F460FF04C06F5F63
:102D50007F4F8F4F9F4F089557FD9058440F551F39
:102D600059F05F3F71F04795880F97FB991F61F00D
:102D70009F3F79F087950895121613061406551F84
:102D8000F2CF4695F1DF08C0161617061806991FF0
:102D9000F1CF86957105610508940895E894BB27E5
:102DA00066277727CB0197F908958ADF08F48FEF1C
:102DB00008950BD0C0CFB1DF28F0B6DF18F095230F
:102DC00009F0A2CFA7CF1124EACFC6DFA0F3959FC9
:102DD000D1F3950F50E0551F629FF001729FBB2702
:102DE000F00DB11D639FAA27F00DB11DAA1F649FAE
:102DF0006627B00DA11D661F829F2227B00DA11D61
:102E0000621F739FB00DA11D621F839FA00D611DE6
:102E1000221F749F3327A00D611D231F849F600D07
:102E2000211D822F762F6A2F11249F5750408AF040
:102E3000E1F088234AF0EE0FFF1FBB1F661F771FCC
:102E4000881F91505040A9F79E3F510570F05CCF0C
:102E5000A6CF5F3FECF3983EDCF3869577956795B8
:102E6000B795F795E7959F5FC1F7FE2B880F911DEA
:102E70009695879597F9089511F40EF44BCF41C0BC
:102E800073DFD0F39923D9F3CEF39F57550B87FF08
:102E900046D00024A0E640EA9001805856959795C8
:102EA00028F4805C660F771F881F20F026173707ED
:102EB000480730F4621B730B840B202931294A2BFD
:102EC000A69517940794202531254A2758F7660FB1
:102ED000771F881F20F026173707480730F4620B4A
:102EE000730B840B200D311D411DA09581F7B90195
:102EF000842F9158880F9695879508959B01AC0172
:102F000058CF9F3F31F0915020F487957795679582
:102F1000B795880F911D9695879597F908959150CB
:102F20005040660F771F881FD2F70895A1E21A2E2E
:102F3000AA1BBB1BFD010DC0AA1FBB1FEE1FFF1F5D
:102F4000A217B307E407F50720F0A21BB30BE40BAD
:102F5000F50B661F771F881F991F1A9469F76095F4
:102F60007095809590959B01AC01BD01CF010895AE
:102F7000A0E0B0E0EEEBF7E10C94E21C5B01611520
:102F8000710521F0DB018C9311969C937C01E70184
:102F90000894E11CF11C08816701802F90E00E94D9
:102FA00022190097A1F70D3241F4098142E0C42EA5
:102FB000D12CCC0EDD1E11E009C00B3231F4098199
:102FC00032E0C32ED12CCC0EDD1E10E0E60121979D
:102FD000CE016FE673E043E050E00E94391900979C
:102FE000D1F4E6012296CE0162E773E045E050E0BD
:102FF0000E943919009711F4E6012796A114B10433
:1030000019F0F501D183C08330E020E090E811236E
:1030100009F40AC104C1CE0167E773E043E050E060
:103020000E943919009759F4A114B10409F4F9C0A8
:10303000C6010296D50111969C938E93F2C040E092
:1030400050E0BA018824992400530A3090F51260A8
:10305000212F30E0C9018870907012FF06C00097E0
:1030600069F50894811C911C29C0009719F00894F7
:1030700081089108DB01CA01D2E0880F991FAA1FBD
:10308000BB1FDA95D1F7480F591F6A1F7B1F440FEA
:10309000551F661F771F400F511D611D711D483957
:1030A000B9E95B07B9E96B07B9E17B0738F0146050
:1030B00005C00E3F39F413FD43C01860F6010191BD
:1030C0006F01C2CF053311F00531D1F5D601EC9176
:1030D000ED3211F4106108C0EB3229F0C6010196FF
:1030E00021E030E008C0D6011196EC911197C6019D
:1030F000029622E030E0E053EA3020F06C01C21A80
:10310000D30A1EC0DC0120E030E0FCE020383F079D
:103110005CF4C901880F991F880F991F280F391F68
:10312000220F331F2E0F311DED91E0536D01EA3058
:1031300060F314FF03C0309521953F4F820E931E1C
:10314000C12FD0E011FF08C0A114B10429F0C601BD
:103150000197D5018D939C93CB01BA010E94231650
:103160006B017C01CE01837090708330910521F456
:10317000F7FAF094F7F8F094C701B60120E030E0D8
:10318000A9010E948B15882309F444C097FE07C04B
:103190009094819491089394C6EAD3E002C0CEE85B
:1031A000D3E098EE692E9FEF792E6C0E7D1E20E203
:1031B000A22EB12C0FC0FE010591159125913491DD
:1031C000C701B601A90198010E94D9166B017C01C3
:1031D0008A189B088A149B0474F72497B594A794C3
:1031E000C615D705B9F7C601D7012A2F220F2B2FF5
:1031F000221F2F3F49F0BC01CD0120E030E0A901A2
:103200000E948B15882331F482E290E0909313069C
:10321000809312063C2D2D2D9E2D8F2D06C08FEFF5
:1032200004C030E020E090EC8FE7B901AC01872FBB
:10323000922FA52FB42FBC01CD01CDB7DEB7EEE0A4
:103240000C94FE1C911117C3803219F089508550DF
:10325000D0F708959111089581548A5108F4805E41
:10326000855A0895FB01DC0105900D920020E1F7DD
:103270000895FB01DC014150504088F08D9181346C
:103280001CF08B350CF4805E659161341CF06B355D
:103290000CF4605E861B611171F3990B0895881B15
:1032A000FCCFFB01DC014150504048F005900D92ED
:1032B0000020C9F701C01D9241505040E0F7089529
:1032C000FB01DC010D900020E9F7119701900D92B0
:1032D0000020E1F70895FC018191861721F08823F1
:1032E000D9F7992708953197CF010895FB01DC01A3
:1032F0008D91019080190110D9F3990B0895FB016C
:10330000DC0101900D920020E1F70895FB01DC0142
:103310004150504048F001900D920020C9F701C083
:103320001D9241505040E0F70895DC0199278D919E
:10333000882341F0FB01019008160110E1F7B9F76D
:103340001197CD010895FB0151915523A9F0BF01BB
:10335000DC014D9145174111E1F759F4CD01019080
:10336000002049F04D9140154111C9F3FB01411175
:10337000EFCF81E090E001970895EF92FF920F93D5
:103380001F93CF93DF937C01EB018B8181FF11C0F1
:1033900000E010E008C0E885F985BE0109950097B6
:1033A00011F00FEF1FEFF70181917F01882399F74B
:1033B00002C00FEF1FEFC801CDB7DEB7E6E00C94F7
:1033C000061DA0E0B0E0E7EEF9E10C94EE1CFE0172
:1033D00035966191719180910E0690910F06AF0123
:1033E0000E945D1A2096E2E00C940A1DA0E0B0E075
:1033F000ECEFF9E10C94EE1CFE01359661917191B0
:1034000080910E0690910F06DC0113962C91139774
:10341000286013962C93AF010E945D1AE0910E066E
:10342000F0910F062381277F23832096E2E00C94FE
:103430000A1DAEE0B0E0EFE1FAE10C94EC1C0D895E
:103440001E8986E08C831A8309838FEF9FE79E8312
:103450008D83AE01475E5F4FCE0101966F89788DF7
:103460000E945D1AEF81F885E00FF11F10822E9601
:10347000E4E00C94081DAEE0B0E0E1E4FAE10C9465
:10348000EC1C0D891E898EE08C831A8309838FEFD3
:103490009FE79E838D83AE01475E5F4FCE0101960D
:1034A0006F89788D0E945D1AEF81F885E00FF11F1A
:1034B00010822E96E4E00C94081DADE0B0E0E3E647
:1034C000FAE10C94DE1C3C017D876C875A01FC01FB
:1034D00017821682838181FFC8C12E010894411C86
:1034E000511CF3019381EC85FD8593FD859193FF3C
:1034F0008191FD87EC87882309F4B3C1853241F4BB
:1035000093FD859193FF8191FD87EC87853229F4A6
:1035100090E0B3010E94541CE4CFFF24EE2410E09D
:103520001032B0F48B3269F08C3228F4803251F0D2
:10353000833271F40BC08D3239F0803349F411605D
:103540002CC01260146029C0186027C0106125C00B
:1035500017FD2EC0282F20532A3098F416FF08C0DC
:103560008F2D880FF82EFF0CFF0CF80EF20E15C0F1
:103570008E2D880FE82EEE0CEE0CE80EE20E106297
:103580000CC08E3221F416FD6CC1106406C08C365E
:1035900011F4106802C0883659F4EC85FD8593FD5E
:1035A000859193FF8191FD87EC87882309F0B8CF3F
:1035B000982F9554933018F09052933038F424E0BB
:1035C00030E0A20EB31E3FE339830FC0833631F0E3
:1035D000833781F0833509F05AC022C0F50180811C
:1035E000898322E030E0A20EB31E21E0C22ED12C4E
:1035F000420114C092E0292E312C2A0C3B1CF5010B
:103600008080918016FF03C06F2D70E002C06FEFC5
:103610007FEFC4010E94491C6C0151011F7715C046
:1036200082E0282E312C2A0C3B1CF50180809180F1
:1036300016FF03C06F2D70E002C06FEF7FEFC40173
:103640000E943E1C6C011068510113FD1CC006C095
:1036500080E290E0B3010E94541CEA948E2D90E029
:10366000C816D906A8F30FC0F40117FD859117FFFE
:1036700081914F0190E0B3010E94541CE110EA9443
:103680000894C108D108C114D10471F7E7C0843689
:1036900011F0893651F5F50117FF07C0808191813E
:1036A000A281B38124E030E008C080819181AA2703
:1036B00097FDA095BA2F22E030E0A20EB31E012F95
:1036C0000F76B7FF08C0B095A095909581959F4F54
:1036D000AF4FBF4F0068BC01CD01A2012AE030E02E
:1036E0000E94801CD82ED4183FC0853721F41F7E3D
:1036F0002AE030E020C0197F8F36A9F0803720F40F
:10370000883509F0AEC00BC0803721F0883709F04A
:10371000A8C001C0106114FF09C0146007C014FFE5
:1037200008C0166006C028E030E005C020E130E0A7
:1037300002C020E132E0F50117FF07C0608171810E
:103740008281938144E050E006C06081718180E015
:1037500090E042E050E0A40EB51EA2010E94801C41
:10376000D82ED418012F0F7706FF09C00E7FDF1463
:1037700030F404FF06C002FD04C00F7E02C01D2D00
:1037800001C01F2D802F90E004FF0CC0FE01ED0D45
:10379000F11D2081203311F4097E09C002FF06C00B
:1037A0001E5F05C086789070009709F01F5F802E1D
:1037B000992403FD12C000FF0DC0FD2C1E1550F40E
:1037C000FE0CF11A1E2D06C080E290E0B3010E94AB
:1037D000541C1F5F1E15C0F304C01E1510F4E11A1F
:1037E00001C0EE2484FE0FC080E390E0B3010E948C
:1037F000541C82FE1FC081FE03C088E590E010C00B
:1038000088E790E00DC0C40186789070009791F031
:1038100081FC02C080E201C08BE207FD8DE290E0F6
:10382000B3010E94541C06C080E390E0B3010E94E3
:10383000541CFA94DF14C0F3DA94F201ED0DF11D7B
:10384000808190E0B3010E94541CDD20A9F706C0DE
:1038500080E290E0B3010E94541CEA94EE20C1F78C
:1038600040CEF3018681978102C08FEF9FEF2D96A6
:10387000E2E10C94FA1C992788270895FC01059031
:10388000615070400110D8F7809590958E0F9F1F62
:103890000895FC016150704001900110D8F78095A7
:1038A00090958E0F9F1F08950F931F93CF93DF93D3
:1038B0008C01EB018B8181FF1BC082FF0DC02E812B
:1038C0003F818C819D812817390764F4E881F98153
:1038D0000193F983E88306C0E885F985802F09956F
:1038E000009731F48E819F8101969F838E8302C061
:1038F0000FEF1FEFC801DF91CF911F910F91089536
:10390000FA01AA27283051F1203181F1E8946F9310
:103910006E7F6E5F7F4F8F4F9F4FAF4FB1E03ED0B6
:10392000B4E03CD0670F781F891F9A1FA11D680F54
:10393000791F8A1F911DA11D6A0F711D811D911D87
:10394000A11D20D009F468943F912AE0269F1124FC
:103950003019305D3193DEF6CF010895462F477060
:10396000405D4193B3E00FD0C9F7F6CF462F4F70BB
:10397000405D4A3318F0495D31FD4052419302D019
:10398000A9F7EACFB4E0A6959795879577956795BF
:10399000BA95C9F700976105710508959B01AC01BF
:1039A0000A2E06945795479537952795BA95C9F7E6
:1039B000620F731F841F951FA01D08952F923F92C1
:1039C0004F925F926F927F928F929F92AF92BF922F
:1039D000CF92DF92EF92FF920F931F93CF93DF93DB
:1039E000CDB7DEB7CA1BDB0B0FB6F894DEBF0FBE38
:1039F000CDBF09942A88398848885F846E847D8485
:103A00008C849B84AA84B984C884DF80EE80FD8086
:103A10000C811B81AA81B981CE0FD11D0FB6F894FC
:0E3A2000DEBF0FBECDBFED010895F894FFCFBD
:103A2E007372007200006D7367007D2C0022257387
:103A3E00223A0022220025312E30660025302E3308
:103A4E00660022257322005B25735D0066616C7330
:103A5E00650074727565007D0A007B226676223AD7
:103A6E0022227D0A00257300303132333435363749
:103A7E0001AE139C12FA123D135F139B12BF017C11
:103A8E000100000000000000000000000000000027
:103A9E000000000000000000000000003F010100D7
:103AAE000000000000000000000000000000000008
:103ABE0000000000000000000000000000000000F8
:103ACE0000000000000000000000000000000000E8
:103ADE000000000000000000000000000000003F99
:103AEE0001010000000000000000000000000000C6
:103AFE0000000000000000000000000000000000B8
:103B0E0000000000000000000000000000000000A7
:103B1E000000000000000000000000000000000097
:103B2E0000000076149C12FA120C1441149B1251D0
:103B3E00022E020000000000000000000000000045
:103B4E0000000000000000000000000000001F0147
:103B5E000100000000000000000000000000000056
:103B6E000000000000000000000000000000000047
:103B7E00001F010100000000000000000000000016
:103B8E000000000000000000000000000000000027
:043B9E000000000023
:00000001FF
